{
  "_format": "hh-sol-artifact-1",
  "contractName": "AavePoolSupplyWithNFT",
  "sourceName": "contracts/Aave.sol",
  "abi": [
    {
      "inputs": [
        {
          "internalType": "address",
          "name": "aaveAddresses",
          "type": "address"
        },
        {
          "internalType": "address",
          "name": "daiAddress",
          "type": "address"
        },
        {
          "internalType": "address",
          "name": "fixedAddress",
          "type": "address"
        },
        {
          "internalType": "address",
          "name": "variableAddress",
          "type": "address"
        }
      ],
      "stateMutability": "nonpayable",
      "type": "constructor"
    },
    {
      "inputs": [
        {
          "internalType": "uint256",
          "name": "tokenId",
          "type": "uint256"
        }
      ],
      "name": "calcFixed",
      "outputs": [
        {
          "internalType": "uint256",
          "name": "",
          "type": "uint256"
        },
        {
          "internalType": "uint256",
          "name": "",
          "type": "uint256"
        }
      ],
      "stateMutability": "view",
      "type": "function"
    },
    {
      "inputs": [
        {
          "internalType": "uint256",
          "name": "tokenId",
          "type": "uint256"
        }
      ],
      "name": "calcVariable",
      "outputs": [
        {
          "internalType": "uint256",
          "name": "",
          "type": "uint256"
        },
        {
          "internalType": "uint256",
          "name": "",
          "type": "uint256"
        }
      ],
      "stateMutability": "view",
      "type": "function"
    },
    {
      "inputs": [],
      "name": "fixedSupply",
      "outputs": [
        {
          "internalType": "uint256",
          "name": "",
          "type": "uint256"
        }
      ],
      "stateMutability": "view",
      "type": "function"
    },
    {
      "inputs": [
        {
          "internalType": "uint256",
          "name": "amount",
          "type": "uint256"
        },
        {
          "internalType": "uint16",
          "name": "referralCode",
          "type": "uint16"
        }
      ],
      "name": "fundFixed",
      "outputs": [],
      "stateMutability": "nonpayable",
      "type": "function"
    },
    {
      "inputs": [
        {
          "internalType": "uint256",
          "name": "amount",
          "type": "uint256"
        }
      ],
      "name": "fundVariable",
      "outputs": [],
      "stateMutability": "nonpayable",
      "type": "function"
    },
    {
      "inputs": [],
      "name": "interests",
      "outputs": [
        {
          "internalType": "uint256",
          "name": "",
          "type": "uint256"
        },
        {
          "internalType": "uint256",
          "name": "",
          "type": "uint256"
        }
      ],
      "stateMutability": "view",
      "type": "function"
    },
    {
      "inputs": [
        {
          "internalType": "uint256",
          "name": "tokenId",
          "type": "uint256"
        }
      ],
      "name": "redeemFixed",
      "outputs": [],
      "stateMutability": "nonpayable",
      "type": "function"
    },
    {
      "inputs": [
        {
          "internalType": "uint256",
          "name": "tokenId",
          "type": "uint256"
        }
      ],
      "name": "redeemVariable",
      "outputs": [],
      "stateMutability": "nonpayable",
      "type": "function"
    },
    {
      "inputs": [
        {
          "internalType": "uint256",
          "name": "amount",
          "type": "uint256"
        },
        {
          "internalType": "uint16",
          "name": "referralCode",
          "type": "uint16"
        },
        {
          "internalType": "uint256",
          "name": "daysToSubtract",
          "type": "uint256"
        }
      ],
      "name": "supplyFixed",
      "outputs": [
        {
          "internalType": "uint256",
          "name": "",
          "type": "uint256"
        }
      ],
      "stateMutability": "nonpayable",
      "type": "function"
    },
    {
      "inputs": [
        {
          "internalType": "uint256",
          "name": "amount",
          "type": "uint256"
        },
        {
          "internalType": "uint256",
          "name": "daysToSubtract",
          "type": "uint256"
        }
      ],
      "name": "supplyVariable",
      "outputs": [
        {
          "internalType": "uint256",
          "name": "",
          "type": "uint256"
        }
      ],
      "stateMutability": "nonpayable",
      "type": "function"
    },
    {
      "inputs": [],
      "name": "variableSupply",
      "outputs": [
        {
          "internalType": "uint256",
          "name": "",
          "type": "uint256"
        }
      ],
      "stateMutability": "view",
      "type": "function"
    }
  ],
  "bytecode": "0x60806040523480156200001157600080fd5b506040516200265b3803806200265b8339818101604052810190620000379190620002e5565b83600460006101000a81548173ffffffffffffffffffffffffffffffffffffffff021916908373ffffffffffffffffffffffffffffffffffffffff160217905550600460009054906101000a900473ffffffffffffffffffffffffffffffffffffffff1673ffffffffffffffffffffffffffffffffffffffff1663026b1d5f6040518163ffffffff1660e01b8152600401602060405180830381865afa158015620000e6573d6000803e3d6000fd5b505050506040513d601f19601f820116820180604052508101906200010c919062000357565b600560006101000a81548173ffffffffffffffffffffffffffffffffffffffff021916908373ffffffffffffffffffffffffffffffffffffffff160217905550600560009054906101000a900473ffffffffffffffffffffffffffffffffffffffff166000806101000a81548173ffffffffffffffffffffffffffffffffffffffff021916908373ffffffffffffffffffffffffffffffffffffffff16021790555082600160006101000a81548173ffffffffffffffffffffffffffffffffffffffff021916908373ffffffffffffffffffffffffffffffffffffffff16021790555081600260006101000a81548173ffffffffffffffffffffffffffffffffffffffff021916908373ffffffffffffffffffffffffffffffffffffffff16021790555080600360006101000a81548173ffffffffffffffffffffffffffffffffffffffff021916908373ffffffffffffffffffffffffffffffffffffffff1602179055505050505062000389565b600080fd5b600073ffffffffffffffffffffffffffffffffffffffff82169050919050565b6000620002ad8262000280565b9050919050565b620002bf81620002a0565b8114620002cb57600080fd5b50565b600081519050620002df81620002b4565b92915050565b600080600080608085870312156200030257620003016200027b565b5b60006200031287828801620002ce565b94505060206200032587828801620002ce565b93505060406200033887828801620002ce565b92505060606200034b87828801620002ce565b91505092959194509250565b60006020828403121562000370576200036f6200027b565b5b60006200038084828501620002ce565b91505092915050565b6122c280620003996000396000f3fe608060405234801561001057600080fd5b50600436106100a95760003560e01c8063953eb39811610071578063953eb3981461015457806395e547d31461018557806398605ca8146101b5578063d5a0a933146101d1578063e8517977146101ed578063ff99574b1461021d576100a9565b806314a3db2d146100ae5780631c9ec0e6146100cd57806337c24a6c146100e95780634a1a1ab11461010557806389fa77cf14610123575b600080fd5b6100b661023b565b6040516100c4929190611807565b60405180910390f35b6100e760048036038101906100e2919061186b565b61034f565b005b61010360048036038101906100fe919061186b565b610433565b005b61010d61078b565b60405161011a9190611898565b60405180910390f35b61013d6004803603810190610138919061186b565b61082e565b60405161014b929190611807565b60405180910390f35b61016e6004803603810190610169919061186b565b610abb565b60405161017c929190611807565b60405180910390f35b61019f600480360381019061019a91906118ed565b610c3d565b6040516101ac9190611898565b60405180910390f35b6101cf60048036038101906101ca919061186b565b610fa2565b005b6101eb60048036038101906101e69190611940565b6112fa565b005b61020760048036038101906102029190611980565b611591565b6040516102149190611898565b60405180910390f35b610225611743565b6040516102329190611898565b60405180910390f35b600080600069d3c21bcecceda1000000905060008060009054906101000a900473ffffffffffffffffffffffffffffffffffffffff1673ffffffffffffffffffffffffffffffffffffffff166335ea6a75600160009054906101000a900473ffffffffffffffffffffffffffffffffffffffff166040518263ffffffff1660e01b81526004016102cb9190611a01565b6101e060405180830381865afa1580156102e9573d6000803e3d6000fd5b505050506040513d601f19601f8201168201806040525081019061030d9190611d28565b604001516fffffffffffffffffffffffffffffffff1690506000600a6008836103369190611d85565b6103409190611e0e565b90508281945094505050509091565b600160009054906101000a900473ffffffffffffffffffffffffffffffffffffffff1673ffffffffffffffffffffffffffffffffffffffff166323b872dd3330846040518463ffffffff1660e01b81526004016103ae93929190611e3f565b6020604051808303816000875af11580156103cd573d6000803e3d6000fd5b505050506040513d601f19601f820116820180604052508101906103f19190611eae565b610430576040517f08c379a000000000000000000000000000000000000000000000000000000000815260040161042790611f38565b60405180910390fd5b50565b3373ffffffffffffffffffffffffffffffffffffffff16600260009054906101000a900473ffffffffffffffffffffffffffffffffffffffff1673ffffffffffffffffffffffffffffffffffffffff16636352211e836040518263ffffffff1660e01b81526004016104a59190611898565b602060405180830381865afa1580156104c2573d6000803e3d6000fd5b505050506040513d601f19601f820116820180604052508101906104e69190611f58565b73ffffffffffffffffffffffffffffffffffffffff161461053c576040517f08c379a000000000000000000000000000000000000000000000000000000000815260040161053390611fd1565b60405180910390fd5b60008061054883610abb565b9150915060008054906101000a900473ffffffffffffffffffffffffffffffffffffffff1673ffffffffffffffffffffffffffffffffffffffff166369328dec600160009054906101000a900473ffffffffffffffffffffffffffffffffffffffff1684306040518463ffffffff1660e01b81526004016105cb93929190611ff1565b6020604051808303816000875af11580156105ea573d6000803e3d6000fd5b505050506040513d601f19601f8201168201806040525081019061060e9190612028565b50600160009054906101000a900473ffffffffffffffffffffffffffffffffffffffff1673ffffffffffffffffffffffffffffffffffffffff1663a9059cbb33838561065a9190612055565b6040518363ffffffff1660e01b81526004016106779291906120ab565b6020604051808303816000875af1158015610696573d6000803e3d6000fd5b505050506040513d601f19601f820116820180604052508101906106ba9190611eae565b6106f9576040517f08c379a00000000000000000000000000000000000000000000000000000000081526004016106f090611f38565b60405180910390fd5b600260009054906101000a900473ffffffffffffffffffffffffffffffffffffffff1673ffffffffffffffffffffffffffffffffffffffff166342966c68846040518263ffffffff1660e01b81526004016107549190611898565b600060405180830381600087803b15801561076e57600080fd5b505af1158015610782573d6000803e3d6000fd5b50505050505050565b6000600160009054906101000a900473ffffffffffffffffffffffffffffffffffffffff1673ffffffffffffffffffffffffffffffffffffffff166370a08231306040518263ffffffff1660e01b81526004016107e89190611a01565b602060405180830381865afa158015610805573d6000803e3d6000fd5b505050506040513d601f19601f820116820180604052508101906108299190612028565b905090565b6000806000600360009054906101000a900473ffffffffffffffffffffffffffffffffffffffff1673ffffffffffffffffffffffffffffffffffffffff1663c2507ac1856040518263ffffffff1660e01b815260040161088e9190611898565b602060405180830381865afa1580156108ab573d6000803e3d6000fd5b505050506040513d601f19601f820116820180604052508101906108cf9190612028565b90506000600360009054906101000a900473ffffffffffffffffffffffffffffffffffffffff1673ffffffffffffffffffffffffffffffffffffffff1663b633620c866040518263ffffffff1660e01b815260040161092e9190611898565b602060405180830381865afa15801561094b573d6000803e3d6000fd5b505050506040513d601f19601f8201168201806040525081019061096f9190612028565b905060008060009054906101000a900473ffffffffffffffffffffffffffffffffffffffff1673ffffffffffffffffffffffffffffffffffffffff166335ea6a75600160009054906101000a900473ffffffffffffffffffffffffffffffffffffffff166040518263ffffffff1660e01b81526004016109ef9190611a01565b6101e060405180830381865afa158015610a0d573d6000803e3d6000fd5b505050506040513d601f19601f82011682018060405250810190610a319190611d28565b604001516fffffffffffffffffffffffffffffffff1690506000600a600883610a5a9190611d85565b610a649190611e0e565b9050836301e133806a52b7d2dcc80cd2e4000000838642610a8591906120d4565b88610a909190611d85565b610a9a9190611d85565b610aa49190611e0e565b610aae9190611e0e565b9550955050505050915091565b6000806000600260009054906101000a900473ffffffffffffffffffffffffffffffffffffffff1673ffffffffffffffffffffffffffffffffffffffff1663c2507ac1856040518263ffffffff1660e01b8152600401610b1b9190611898565b602060405180830381865afa158015610b38573d6000803e3d6000fd5b505050506040513d601f19601f82011682018060405250810190610b5c9190612028565b90506000600260009054906101000a900473ffffffffffffffffffffffffffffffffffffffff1673ffffffffffffffffffffffffffffffffffffffff1663b633620c866040518263ffffffff1660e01b8152600401610bbb9190611898565b602060405180830381865afa158015610bd8573d6000803e3d6000fd5b505050506040513d601f19601f82011682018060405250810190610bfc9190612028565b9050816301e133806103e88342610c1391906120d4565b85610c1e9190611d85565b610c289190611e0e565b610c329190611e0e565b935093505050915091565b6000600160009054906101000a900473ffffffffffffffffffffffffffffffffffffffff1673ffffffffffffffffffffffffffffffffffffffff166323b872dd3330876040518463ffffffff1660e01b8152600401610c9e93929190611e3f565b6020604051808303816000875af1158015610cbd573d6000803e3d6000fd5b505050506040513d601f19601f82011682018060405250810190610ce19190611eae565b610d20576040517f08c379a0000000000000000000000000000000000000000000000000000000008152600401610d1790611f38565b60405180910390fd5b600160009054906101000a900473ffffffffffffffffffffffffffffffffffffffff1673ffffffffffffffffffffffffffffffffffffffff1663095ea7b360008054906101000a900473ffffffffffffffffffffffffffffffffffffffff16866040518363ffffffff1660e01b8152600401610d9d9291906120ab565b6020604051808303816000875af1158015610dbc573d6000803e3d6000fd5b505050506040513d601f19601f82011682018060405250810190610de09190611eae565b610e1f576040517f08c379a0000000000000000000000000000000000000000000000000000000008152600401610e1690612154565b60405180910390fd5b60008054906101000a900473ffffffffffffffffffffffffffffffffffffffff1673ffffffffffffffffffffffffffffffffffffffff1663617ba037600160009054906101000a900473ffffffffffffffffffffffffffffffffffffffff168630876040518563ffffffff1660e01b8152600401610ea09493929190612183565b600060405180830381600087803b158015610eba57600080fd5b505af1158015610ece573d6000803e3d6000fd5b5050505060006201518083610ee39190611d85565b42610eee91906120d4565b90506000600260009054906101000a900473ffffffffffffffffffffffffffffffffffffffff1673ffffffffffffffffffffffffffffffffffffffff1663156e29f63384896040518463ffffffff1660e01b8152600401610f51939291906121c8565b6020604051808303816000875af1158015610f70573d6000803e3d6000fd5b505050506040513d601f19601f82011682018060405250810190610f949190612028565b905080925050509392505050565b3373ffffffffffffffffffffffffffffffffffffffff16600360009054906101000a900473ffffffffffffffffffffffffffffffffffffffff1673ffffffffffffffffffffffffffffffffffffffff16636352211e836040518263ffffffff1660e01b81526004016110149190611898565b602060405180830381865afa158015611031573d6000803e3d6000fd5b505050506040513d601f19601f820116820180604052508101906110559190611f58565b73ffffffffffffffffffffffffffffffffffffffff16146110ab576040517f08c379a00000000000000000000000000000000000000000000000000000000081526004016110a290611fd1565b60405180910390fd5b6000806110b78361082e565b9150915060008054906101000a900473ffffffffffffffffffffffffffffffffffffffff1673ffffffffffffffffffffffffffffffffffffffff166369328dec600160009054906101000a900473ffffffffffffffffffffffffffffffffffffffff1683306040518463ffffffff1660e01b815260040161113a93929190611ff1565b6020604051808303816000875af1158015611159573d6000803e3d6000fd5b505050506040513d601f19601f8201168201806040525081019061117d9190612028565b50600160009054906101000a900473ffffffffffffffffffffffffffffffffffffffff1673ffffffffffffffffffffffffffffffffffffffff1663a9059cbb3383856111c99190612055565b6040518363ffffffff1660e01b81526004016111e69291906120ab565b6020604051808303816000875af1158015611205573d6000803e3d6000fd5b505050506040513d601f19601f820116820180604052508101906112299190611eae565b611268576040517f08c379a000000000000000000000000000000000000000000000000000000000815260040161125f90611f38565b60405180910390fd5b600360009054906101000a900473ffffffffffffffffffffffffffffffffffffffff1673ffffffffffffffffffffffffffffffffffffffff166342966c68846040518263ffffffff1660e01b81526004016112c39190611898565b600060405180830381600087803b1580156112dd57600080fd5b505af11580156112f1573d6000803e3d6000fd5b50505050505050565b600160009054906101000a900473ffffffffffffffffffffffffffffffffffffffff1673ffffffffffffffffffffffffffffffffffffffff166323b872dd3330856040518463ffffffff1660e01b815260040161135993929190611e3f565b6020604051808303816000875af1158015611378573d6000803e3d6000fd5b505050506040513d601f19601f8201168201806040525081019061139c9190611eae565b6113db576040517f08c379a00000000000000000000000000000000000000000000000000000000081526004016113d290611f38565b60405180910390fd5b600160009054906101000a900473ffffffffffffffffffffffffffffffffffffffff1673ffffffffffffffffffffffffffffffffffffffff1663095ea7b360008054906101000a900473ffffffffffffffffffffffffffffffffffffffff16846040518363ffffffff1660e01b81526004016114589291906120ab565b6020604051808303816000875af1158015611477573d6000803e3d6000fd5b505050506040513d601f19601f8201168201806040525081019061149b9190611eae565b6114da576040517f08c379a00000000000000000000000000000000000000000000000000000000081526004016114d190612154565b60405180910390fd5b60008054906101000a900473ffffffffffffffffffffffffffffffffffffffff1673ffffffffffffffffffffffffffffffffffffffff1663617ba037600160009054906101000a900473ffffffffffffffffffffffffffffffffffffffff168430856040518563ffffffff1660e01b815260040161155b9493929190612183565b600060405180830381600087803b15801561157557600080fd5b505af1158015611589573d6000803e3d6000fd5b505050505050565b6000600160009054906101000a900473ffffffffffffffffffffffffffffffffffffffff1673ffffffffffffffffffffffffffffffffffffffff166323b872dd3330866040518463ffffffff1660e01b81526004016115f293929190611e3f565b6020604051808303816000875af1158015611611573d6000803e3d6000fd5b505050506040513d601f19601f820116820180604052508101906116359190611eae565b611674576040517f08c379a000000000000000000000000000000000000000000000000000000000815260040161166b90611f38565b60405180910390fd5b600062015180836116859190611d85565b4261169091906120d4565b90506000600360009054906101000a900473ffffffffffffffffffffffffffffffffffffffff1673ffffffffffffffffffffffffffffffffffffffff1663156e29f63384886040518463ffffffff1660e01b81526004016116f3939291906121c8565b6020604051808303816000875af1158015611712573d6000803e3d6000fd5b505050506040513d601f19601f820116820180604052508101906117369190612028565b9050809250505092915050565b60008060008054906101000a900473ffffffffffffffffffffffffffffffffffffffff1673ffffffffffffffffffffffffffffffffffffffff1663bf92857c306040518263ffffffff1660e01b815260040161179f9190611a01565b60c060405180830381865afa1580156117bc573d6000803e3d6000fd5b505050506040513d601f19601f820116820180604052508101906117e091906121ff565b505050505090508091505090565b6000819050919050565b611801816117ee565b82525050565b600060408201905061181c60008301856117f8565b61182960208301846117f8565b9392505050565b6000604051905090565b600080fd5b611848816117ee565b811461185357600080fd5b50565b6000813590506118658161183f565b92915050565b6000602082840312156118815761188061183a565b5b600061188f84828501611856565b91505092915050565b60006020820190506118ad60008301846117f8565b92915050565b600061ffff82169050919050565b6118ca816118b3565b81146118d557600080fd5b50565b6000813590506118e7816118c1565b92915050565b6000806000606084860312156119065761190561183a565b5b600061191486828701611856565b9350506020611925868287016118d8565b925050604061193686828701611856565b9150509250925092565b600080604083850312156119575761195661183a565b5b600061196585828601611856565b9250506020611976858286016118d8565b9150509250929050565b600080604083850312156119975761199661183a565b5b60006119a585828601611856565b92505060206119b685828601611856565b9150509250929050565b600073ffffffffffffffffffffffffffffffffffffffff82169050919050565b60006119eb826119c0565b9050919050565b6119fb816119e0565b82525050565b6000602082019050611a1660008301846119f2565b92915050565b600080fd5b6000601f19601f8301169050919050565b7f4e487b7100000000000000000000000000000000000000000000000000000000600052604160045260246000fd5b611a6a82611a21565b810181811067ffffffffffffffff82111715611a8957611a88611a32565b5b80604052505050565b6000611a9c611830565b9050611aa88282611a61565b919050565b600081519050611abc8161183f565b92915050565b600060208284031215611ad857611ad7611a1c565b5b611ae26020611a92565b90506000611af284828501611aad565b60008301525092915050565b60006fffffffffffffffffffffffffffffffff82169050919050565b611b2381611afe565b8114611b2e57600080fd5b50565b600081519050611b4081611b1a565b92915050565b600064ffffffffff82169050919050565b611b6081611b46565b8114611b6b57600080fd5b50565b600081519050611b7d81611b57565b92915050565b600081519050611b92816118c1565b92915050565b611ba1816119e0565b8114611bac57600080fd5b50565b600081519050611bbe81611b98565b92915050565b60006101e08284031215611bdb57611bda611a1c565b5b611be66101e0611a92565b90506000611bf684828501611ac2565b6000830152506020611c0a84828501611b31565b6020830152506040611c1e84828501611b31565b6040830152506060611c3284828501611b31565b6060830152506080611c4684828501611b31565b60808301525060a0611c5a84828501611b31565b60a08301525060c0611c6e84828501611b6e565b60c08301525060e0611c8284828501611b83565b60e083015250610100611c9784828501611baf565b61010083015250610120611cad84828501611baf565b61012083015250610140611cc384828501611baf565b61014083015250610160611cd984828501611baf565b61016083015250610180611cef84828501611b31565b610180830152506101a0611d0584828501611b31565b6101a0830152506101c0611d1b84828501611b31565b6101c08301525092915050565b60006101e08284031215611d3f57611d3e61183a565b5b6000611d4d84828501611bc4565b91505092915050565b7f4e487b7100000000000000000000000000000000000000000000000000000000600052601160045260246000fd5b6000611d90826117ee565b9150611d9b836117ee565b9250817fffffffffffffffffffffffffffffffffffffffffffffffffffffffffffffffff0483118215151615611dd457611dd3611d56565b5b828202905092915050565b7f4e487b7100000000000000000000000000000000000000000000000000000000600052601260045260246000fd5b6000611e19826117ee565b9150611e24836117ee565b925082611e3457611e33611ddf565b5b828204905092915050565b6000606082019050611e5460008301866119f2565b611e6160208301856119f2565b611e6e60408301846117f8565b949350505050565b60008115159050919050565b611e8b81611e76565b8114611e9657600080fd5b50565b600081519050611ea881611e82565b92915050565b600060208284031215611ec457611ec361183a565b5b6000611ed284828501611e99565b91505092915050565b600082825260208201905092915050565b7f5472616e73666572206661696c65640000000000000000000000000000000000600082015250565b6000611f22600f83611edb565b9150611f2d82611eec565b602082019050919050565b60006020820190508181036000830152611f5181611f15565b9050919050565b600060208284031215611f6e57611f6d61183a565b5b6000611f7c84828501611baf565b91505092915050565b7f53656e646572206973206e6f74204e4654206f776e6572000000000000000000600082015250565b6000611fbb601783611edb565b9150611fc682611f85565b602082019050919050565b60006020820190508181036000830152611fea81611fae565b9050919050565b600060608201905061200660008301866119f2565b61201360208301856117f8565b61202060408301846119f2565b949350505050565b60006020828403121561203e5761203d61183a565b5b600061204c84828501611aad565b91505092915050565b6000612060826117ee565b915061206b836117ee565b9250827fffffffffffffffffffffffffffffffffffffffffffffffffffffffffffffffff038211156120a05761209f611d56565b5b828201905092915050565b60006040820190506120c060008301856119f2565b6120cd60208301846117f8565b9392505050565b60006120df826117ee565b91506120ea836117ee565b9250828210156120fd576120fc611d56565b5b828203905092915050565b7f417070726f7665206661696c6564000000000000000000000000000000000000600082015250565b600061213e600e83611edb565b915061214982612108565b602082019050919050565b6000602082019050818103600083015261216d81612131565b9050919050565b61217d816118b3565b82525050565b600060808201905061219860008301876119f2565b6121a560208301866117f8565b6121b260408301856119f2565b6121bf6060830184612174565b95945050505050565b60006060820190506121dd60008301866119f2565b6121ea60208301856117f8565b6121f760408301846117f8565b949350505050565b60008060008060008060c0878903121561221c5761221b61183a565b5b600061222a89828a01611aad565b965050602061223b89828a01611aad565b955050604061224c89828a01611aad565b945050606061225d89828a01611aad565b935050608061226e89828a01611aad565b92505060a061227f89828a01611aad565b915050929550929550929556fea264697066735822122078ff553c815453d0bcae54281674aa3e906487e18ea3bc624547fd9bd2fa0a5164736f6c634300080a0033",
  "linkReferences": {},
  "deployedLinkReferences": {}
}