{
  "_format": "hh-sol-artifact-1",
  "contractName": "FixedNFT",
  "sourceName": "contracts/FixedNFT.sol",
  "abi": [
    {
      "inputs": [
        {
          "internalType": "string",
          "name": "name",
          "type": "string"
        },
        {
          "internalType": "string",
          "name": "symbol",
          "type": "string"
        }
      ],
      "stateMutability": "nonpayable",
      "type": "constructor"
    },
    {
      "anonymous": false,
      "inputs": [
        {
          "indexed": true,
          "internalType": "address",
          "name": "owner",
          "type": "address"
        },
        {
          "indexed": true,
          "internalType": "address",
          "name": "approved",
          "type": "address"
        },
        {
          "indexed": true,
          "internalType": "uint256",
          "name": "tokenId",
          "type": "uint256"
        }
      ],
      "name": "Approval",
      "type": "event"
    },
    {
      "anonymous": false,
      "inputs": [
        {
          "indexed": true,
          "internalType": "address",
          "name": "owner",
          "type": "address"
        },
        {
          "indexed": true,
          "internalType": "address",
          "name": "operator",
          "type": "address"
        },
        {
          "indexed": false,
          "internalType": "bool",
          "name": "approved",
          "type": "bool"
        }
      ],
      "name": "ApprovalForAll",
      "type": "event"
    },
    {
      "anonymous": false,
      "inputs": [
        {
          "indexed": true,
          "internalType": "address",
          "name": "from",
          "type": "address"
        },
        {
          "indexed": true,
          "internalType": "address",
          "name": "to",
          "type": "address"
        },
        {
          "indexed": true,
          "internalType": "uint256",
          "name": "tokenId",
          "type": "uint256"
        }
      ],
      "name": "Transfer",
      "type": "event"
    },
    {
      "inputs": [
        {
          "internalType": "address",
          "name": "to",
          "type": "address"
        },
        {
          "internalType": "uint256",
          "name": "tokenId",
          "type": "uint256"
        }
      ],
      "name": "approve",
      "outputs": [],
      "stateMutability": "nonpayable",
      "type": "function"
    },
    {
      "inputs": [
        {
          "internalType": "address",
          "name": "owner",
          "type": "address"
        }
      ],
      "name": "balanceOf",
      "outputs": [
        {
          "internalType": "uint256",
          "name": "",
          "type": "uint256"
        }
      ],
      "stateMutability": "view",
      "type": "function"
    },
    {
      "inputs": [
        {
          "internalType": "uint256",
          "name": "tokenId",
          "type": "uint256"
        }
      ],
      "name": "burn",
      "outputs": [],
      "stateMutability": "nonpayable",
      "type": "function"
    },
    {
      "inputs": [
        {
          "internalType": "uint256",
          "name": "tokenId",
          "type": "uint256"
        }
      ],
      "name": "getApproved",
      "outputs": [
        {
          "internalType": "address",
          "name": "",
          "type": "address"
        }
      ],
      "stateMutability": "view",
      "type": "function"
    },
    {
      "inputs": [
        {
          "internalType": "uint256",
          "name": "tokenId",
          "type": "uint256"
        }
      ],
      "name": "getTimestamp",
      "outputs": [
        {
          "internalType": "uint256",
          "name": "",
          "type": "uint256"
        }
      ],
      "stateMutability": "view",
      "type": "function"
    },
    {
      "inputs": [
        {
          "internalType": "uint256",
          "name": "tokenId",
          "type": "uint256"
        }
      ],
      "name": "getTokenAmount",
      "outputs": [
        {
          "internalType": "uint256",
          "name": "",
          "type": "uint256"
        }
      ],
      "stateMutability": "view",
      "type": "function"
    },
    {
      "inputs": [
        {
          "internalType": "address",
          "name": "owner",
          "type": "address"
        },
        {
          "internalType": "address",
          "name": "operator",
          "type": "address"
        }
      ],
      "name": "isApprovedForAll",
      "outputs": [
        {
          "internalType": "bool",
          "name": "",
          "type": "bool"
        }
      ],
      "stateMutability": "view",
      "type": "function"
    },
    {
      "inputs": [
        {
          "internalType": "address",
          "name": "to",
          "type": "address"
        },
        {
          "internalType": "uint256",
          "name": "timestamp",
          "type": "uint256"
        },
        {
          "internalType": "uint256",
          "name": "amount",
          "type": "uint256"
        }
      ],
      "name": "mint",
      "outputs": [
        {
          "internalType": "uint256",
          "name": "",
          "type": "uint256"
        }
      ],
      "stateMutability": "nonpayable",
      "type": "function"
    },
    {
      "inputs": [],
      "name": "name",
      "outputs": [
        {
          "internalType": "string",
          "name": "",
          "type": "string"
        }
      ],
      "stateMutability": "view",
      "type": "function"
    },
    {
      "inputs": [
        {
          "internalType": "uint256",
          "name": "tokenId",
          "type": "uint256"
        }
      ],
      "name": "ownerOf",
      "outputs": [
        {
          "internalType": "address",
          "name": "",
          "type": "address"
        }
      ],
      "stateMutability": "view",
      "type": "function"
    },
    {
      "inputs": [
        {
          "internalType": "address",
          "name": "from",
          "type": "address"
        },
        {
          "internalType": "address",
          "name": "to",
          "type": "address"
        },
        {
          "internalType": "uint256",
          "name": "tokenId",
          "type": "uint256"
        }
      ],
      "name": "safeTransferFrom",
      "outputs": [],
      "stateMutability": "nonpayable",
      "type": "function"
    },
    {
      "inputs": [
        {
          "internalType": "address",
          "name": "from",
          "type": "address"
        },
        {
          "internalType": "address",
          "name": "to",
          "type": "address"
        },
        {
          "internalType": "uint256",
          "name": "tokenId",
          "type": "uint256"
        },
        {
          "internalType": "bytes",
          "name": "data",
          "type": "bytes"
        }
      ],
      "name": "safeTransferFrom",
      "outputs": [],
      "stateMutability": "nonpayable",
      "type": "function"
    },
    {
      "inputs": [
        {
          "internalType": "address",
          "name": "operator",
          "type": "address"
        },
        {
          "internalType": "bool",
          "name": "approved",
          "type": "bool"
        }
      ],
      "name": "setApprovalForAll",
      "outputs": [],
      "stateMutability": "nonpayable",
      "type": "function"
    },
    {
      "inputs": [
        {
          "internalType": "bytes4",
          "name": "interfaceId",
          "type": "bytes4"
        }
      ],
      "name": "supportsInterface",
      "outputs": [
        {
          "internalType": "bool",
          "name": "",
          "type": "bool"
        }
      ],
      "stateMutability": "view",
      "type": "function"
    },
    {
      "inputs": [],
      "name": "symbol",
      "outputs": [
        {
          "internalType": "string",
          "name": "",
          "type": "string"
        }
      ],
      "stateMutability": "view",
      "type": "function"
    },
    {
      "inputs": [
        {
          "internalType": "uint256",
          "name": "tokenId",
          "type": "uint256"
        }
      ],
      "name": "tokenURI",
      "outputs": [
        {
          "internalType": "string",
          "name": "",
          "type": "string"
        }
      ],
      "stateMutability": "view",
      "type": "function"
    },
    {
      "inputs": [],
      "name": "totalSupply",
      "outputs": [
        {
          "internalType": "uint256",
          "name": "",
          "type": "uint256"
        }
      ],
      "stateMutability": "view",
      "type": "function"
    },
    {
      "inputs": [
        {
          "internalType": "address",
          "name": "from",
          "type": "address"
        },
        {
          "internalType": "address",
          "name": "to",
          "type": "address"
        },
        {
          "internalType": "uint256",
          "name": "tokenId",
          "type": "uint256"
        }
      ],
      "name": "transferFrom",
      "outputs": [],
      "stateMutability": "nonpayable",
      "type": "function"
    }
  ],
  "bytecode": "0x60806040523480156200001157600080fd5b5060405162002ec738038062002ec78339818101604052810190620000379190620002c2565b818181600090805190602001906200005192919062000075565b5080600190805190602001906200006a92919062000075565b5050505050620003ac565b828054620000839062000376565b90600052602060002090601f016020900481019282620000a75760008555620000f3565b82601f10620000c257805160ff1916838001178555620000f3565b82800160010185558215620000f3579182015b82811115620000f2578251825591602001919060010190620000d5565b5b50905062000102919062000106565b5090565b5b808211156200012157600081600090555060010162000107565b5090565b6000604051905090565b600080fd5b600080fd5b600080fd5b600080fd5b6000601f19601f8301169050919050565b7f4e487b7100000000000000000000000000000000000000000000000000000000600052604160045260246000fd5b6200018e8262000143565b810181811067ffffffffffffffff82111715620001b057620001af62000154565b5b80604052505050565b6000620001c562000125565b9050620001d3828262000183565b919050565b600067ffffffffffffffff821115620001f657620001f562000154565b5b620002018262000143565b9050602081019050919050565b60005b838110156200022e57808201518184015260208101905062000211565b838111156200023e576000848401525b50505050565b60006200025b6200025584620001d8565b620001b9565b9050828152602081018484840111156200027a57620002796200013e565b5b620002878482856200020e565b509392505050565b600082601f830112620002a757620002a662000139565b5b8151620002b984826020860162000244565b91505092915050565b60008060408385031215620002dc57620002db6200012f565b5b600083015167ffffffffffffffff811115620002fd57620002fc62000134565b5b6200030b858286016200028f565b925050602083015167ffffffffffffffff8111156200032f576200032e62000134565b5b6200033d858286016200028f565b9150509250929050565b7f4e487b7100000000000000000000000000000000000000000000000000000000600052602260045260246000fd5b600060028204905060018216806200038f57607f821691505b60208210811415620003a657620003a562000347565b5b50919050565b612b0b80620003bc6000396000f3fe608060405234801561001057600080fd5b50600436106101165760003560e01c80636352211e116100a2578063b633620c11610071578063b633620c146102f1578063b88d4fde14610321578063c2507ac11461033d578063c87b56dd1461036d578063e985e9c51461039d57610116565b80636352211e1461025757806370a082311461028757806395d89b41146102b7578063a22cb465146102d557610116565b8063156e29f6116100e9578063156e29f6146101b557806318160ddd146101e557806323b872dd1461020357806342842e0e1461021f57806342966c681461023b57610116565b806301ffc9a71461011b57806306fdde031461014b578063081812fc14610169578063095ea7b314610199575b600080fd5b61013560048036038101906101309190611c2e565b6103cd565b6040516101429190611c76565b60405180910390f35b6101536104af565b6040516101609190611d2a565b60405180910390f35b610183600480360381019061017e9190611d82565b610541565b6040516101909190611df0565b60405180910390f35b6101b360048036038101906101ae9190611e37565b610587565b005b6101cf60048036038101906101ca9190611e77565b61069f565b6040516101dc9190611ed9565b60405180910390f35b6101ed610728565b6040516101fa9190611ed9565b60405180910390f35b61021d60048036038101906102189190611ef4565b610732565b005b61023960048036038101906102349190611ef4565b610792565b005b61025560048036038101906102509190611d82565b6107b2565b005b610271600480360381019061026c9190611d82565b6107be565b60405161027e9190611df0565b60405180910390f35b6102a1600480360381019061029c9190611f47565b610845565b6040516102ae9190611ed9565b60405180910390f35b6102bf6108fd565b6040516102cc9190611d2a565b60405180910390f35b6102ef60048036038101906102ea9190611fa0565b61098f565b005b61030b60048036038101906103069190611d82565b6109a5565b6040516103189190611ed9565b60405180910390f35b61033b60048036038101906103369190612115565b610a0a565b005b61035760048036038101906103529190611d82565b610a6c565b6040516103649190611ed9565b60405180910390f35b61038760048036038101906103829190611d82565b610ad1565b6040516103949190611d2a565b60405180910390f35b6103b760048036038101906103b29190612198565b610b39565b6040516103c49190611c76565b60405180910390f35b60007f80ac58cd000000000000000000000000000000000000000000000000000000007bffffffffffffffffffffffffffffffffffffffffffffffffffffffff1916827bffffffffffffffffffffffffffffffffffffffffffffffffffffffff1916148061049857507f5b5e139f000000000000000000000000000000000000000000000000000000007bffffffffffffffffffffffffffffffffffffffffffffffffffffffff1916827bffffffffffffffffffffffffffffffffffffffffffffffffffffffff1916145b806104a857506104a782610bcd565b5b9050919050565b6060600080546104be90612207565b80601f01602080910402602001604051908101604052809291908181526020018280546104ea90612207565b80156105375780601f1061050c57610100808354040283529160200191610537565b820191906000526020600020905b81548152906001019060200180831161051a57829003601f168201915b5050505050905090565b600061054c82610c37565b6004600083815260200190815260200160002060009054906101000a900473ffffffffffffffffffffffffffffffffffffffff169050919050565b6000610592826107be565b90508073ffffffffffffffffffffffffffffffffffffffff168373ffffffffffffffffffffffffffffffffffffffff161415610603576040517f08c379a00000000000000000000000000000000000000000000000000000000081526004016105fa906122ab565b60405180910390fd5b8073ffffffffffffffffffffffffffffffffffffffff16610622610c82565b73ffffffffffffffffffffffffffffffffffffffff16148061065157506106508161064b610c82565b610b39565b5b610690576040517f08c379a00000000000000000000000000000000000000000000000000000000081526004016106879061233d565b60405180910390fd5b61069a8383610c8a565b505050565b60008060065490506106b18582610d43565b836007600083815260200190815260200160002081905550826008600083815260200190815260200160002081905550600660008154809291906106f49061238c565b919050555061071d6040518060800160405280604c8152602001612a8a604c9139828686610d61565b809150509392505050565b6000600654905090565b61074361073d610c82565b82610e03565b610782576040517f08c379a000000000000000000000000000000000000000000000000000000000815260040161077990612447565b60405180910390fd5b61078d838383610e98565b505050565b6107ad83838360405180602001604052806000815250610a0a565b505050565b6107bb81611192565b50565b6000806107ca836112e0565b9050600073ffffffffffffffffffffffffffffffffffffffff168173ffffffffffffffffffffffffffffffffffffffff16141561083c576040517f08c379a0000000000000000000000000000000000000000000000000000000008152600401610833906124b3565b60405180910390fd5b80915050919050565b60008073ffffffffffffffffffffffffffffffffffffffff168273ffffffffffffffffffffffffffffffffffffffff1614156108b6576040517f08c379a00000000000000000000000000000000000000000000000000000000081526004016108ad90612545565b60405180910390fd5b600360008373ffffffffffffffffffffffffffffffffffffffff1673ffffffffffffffffffffffffffffffffffffffff168152602001908152602001600020549050919050565b60606001805461090c90612207565b80601f016020809104026020016040519081016040528092919081815260200182805461093890612207565b80156109855780601f1061095a57610100808354040283529160200191610985565b820191906000526020600020905b81548152906001019060200180831161096857829003601f168201915b5050505050905090565b6109a161099a610c82565b838361131d565b5050565b60006109b08261148a565b6109ef576040517f08c379a00000000000000000000000000000000000000000000000000000000081526004016109e6906125b1565b60405180910390fd5b60076000838152602001908152602001600020549050919050565b610a1b610a15610c82565b83610e03565b610a5a576040517f08c379a0000000000000000000000000000000000000000000000000000000008152600401610a5190612447565b60405180910390fd5b610a66848484846114cb565b50505050565b6000610a778261148a565b610ab6576040517f08c379a0000000000000000000000000000000000000000000000000000000008152600401610aad906125b1565b60405180910390fd5b60086000838152602001908152602001600020549050919050565b6060610adc82610c37565b6000610ae6611527565b90506000815111610b065760405180602001604052806000815250610b31565b80610b108461153e565b604051602001610b2192919061260d565b6040516020818303038152906040525b915050919050565b6000600560008473ffffffffffffffffffffffffffffffffffffffff1673ffffffffffffffffffffffffffffffffffffffff16815260200190815260200160002060008373ffffffffffffffffffffffffffffffffffffffff1673ffffffffffffffffffffffffffffffffffffffff16815260200190815260200160002060009054906101000a900460ff16905092915050565b60007f01ffc9a7000000000000000000000000000000000000000000000000000000007bffffffffffffffffffffffffffffffffffffffffffffffffffffffff1916827bffffffffffffffffffffffffffffffffffffffffffffffffffffffff1916149050919050565b610c408161148a565b610c7f576040517f08c379a0000000000000000000000000000000000000000000000000000000008152600401610c76906124b3565b60405180910390fd5b50565b600033905090565b816004600083815260200190815260200160002060006101000a81548173ffffffffffffffffffffffffffffffffffffffff021916908373ffffffffffffffffffffffffffffffffffffffff160217905550808273ffffffffffffffffffffffffffffffffffffffff16610cfd836107be565b73ffffffffffffffffffffffffffffffffffffffff167f8c5be1e5ebec7d5bd14f71427d1e84f3dd0314c0f7b2291e5b200ac8c7c3b92560405160405180910390a45050565b610d5d828260405180602001604052806000815250611616565b5050565b610dfd84848484604051602401610d7b9493929190612631565b6040516020818303038152906040527fa7a87853000000000000000000000000000000000000000000000000000000007bffffffffffffffffffffffffffffffffffffffffffffffffffffffff19166020820180517bffffffffffffffffffffffffffffffffffffffffffffffffffffffff8381831617835250505050611671565b50505050565b600080610e0f836107be565b90508073ffffffffffffffffffffffffffffffffffffffff168473ffffffffffffffffffffffffffffffffffffffff161480610e515750610e508185610b39565b5b80610e8f57508373ffffffffffffffffffffffffffffffffffffffff16610e7784610541565b73ffffffffffffffffffffffffffffffffffffffff16145b91505092915050565b8273ffffffffffffffffffffffffffffffffffffffff16610eb8826107be565b73ffffffffffffffffffffffffffffffffffffffff1614610f0e576040517f08c379a0000000000000000000000000000000000000000000000000000000008152600401610f05906126ef565b60405180910390fd5b600073ffffffffffffffffffffffffffffffffffffffff168273ffffffffffffffffffffffffffffffffffffffff161415610f7e576040517f08c379a0000000000000000000000000000000000000000000000000000000008152600401610f7590612781565b60405180910390fd5b610f8b838383600161169a565b8273ffffffffffffffffffffffffffffffffffffffff16610fab826107be565b73ffffffffffffffffffffffffffffffffffffffff1614611001576040517f08c379a0000000000000000000000000000000000000000000000000000000008152600401610ff8906126ef565b60405180910390fd5b6004600082815260200190815260200160002060006101000a81549073ffffffffffffffffffffffffffffffffffffffff02191690556001600360008573ffffffffffffffffffffffffffffffffffffffff1673ffffffffffffffffffffffffffffffffffffffff168152602001908152602001600020600082825403925050819055506001600360008473ffffffffffffffffffffffffffffffffffffffff1673ffffffffffffffffffffffffffffffffffffffff16815260200190815260200160002060008282540192505081905550816002600083815260200190815260200160002060006101000a81548173ffffffffffffffffffffffffffffffffffffffff021916908373ffffffffffffffffffffffffffffffffffffffff160217905550808273ffffffffffffffffffffffffffffffffffffffff168473ffffffffffffffffffffffffffffffffffffffff167fddf252ad1be2c89b69c2b068fc378daa952ba7f163c4a11628f55a4df523b3ef60405160405180910390a461118d83838360016116a0565b505050565b600061119d826107be565b90506111ad81600084600161169a565b6111b6826107be565b90506004600083815260200190815260200160002060006101000a81549073ffffffffffffffffffffffffffffffffffffffff02191690556001600360008373ffffffffffffffffffffffffffffffffffffffff1673ffffffffffffffffffffffffffffffffffffffff168152602001908152602001600020600082825403925050819055506002600083815260200190815260200160002060006101000a81549073ffffffffffffffffffffffffffffffffffffffff021916905581600073ffffffffffffffffffffffffffffffffffffffff168273ffffffffffffffffffffffffffffffffffffffff167fddf252ad1be2c89b69c2b068fc378daa952ba7f163c4a11628f55a4df523b3ef60405160405180910390a46112dc8160008460016116a0565b5050565b60006002600083815260200190815260200160002060009054906101000a900473ffffffffffffffffffffffffffffffffffffffff169050919050565b8173ffffffffffffffffffffffffffffffffffffffff168373ffffffffffffffffffffffffffffffffffffffff16141561138c576040517f08c379a0000000000000000000000000000000000000000000000000000000008152600401611383906127ed565b60405180910390fd5b80600560008573ffffffffffffffffffffffffffffffffffffffff1673ffffffffffffffffffffffffffffffffffffffff16815260200190815260200160002060008473ffffffffffffffffffffffffffffffffffffffff1673ffffffffffffffffffffffffffffffffffffffff16815260200190815260200160002060006101000a81548160ff0219169083151502179055508173ffffffffffffffffffffffffffffffffffffffff168373ffffffffffffffffffffffffffffffffffffffff167f17307eab39ab6107e8899845ad3d59bd9653f200f220920489ca2b5937696c318360405161147d9190611c76565b60405180910390a3505050565b60008073ffffffffffffffffffffffffffffffffffffffff166114ac836112e0565b73ffffffffffffffffffffffffffffffffffffffff1614159050919050565b6114d6848484610e98565b6114e2848484846116a6565b611521576040517f08c379a00000000000000000000000000000000000000000000000000000000081526004016115189061287f565b60405180910390fd5b50505050565b606060405180602001604052806000815250905090565b60606000600161154d8461182e565b01905060008167ffffffffffffffff81111561156c5761156b611fea565b5b6040519080825280601f01601f19166020018201604052801561159e5781602001600182028036833780820191505090505b509050600082602001820190505b60011561160b578080600190039150507f3031323334353637383961626364656600000000000000000000000000000000600a86061a8153600a85816115f5576115f461289f565b5b04945060008514156116065761160b565b6115ac565b819350505050919050565b6116208383611981565b61162d60008484846116a6565b61166c576040517f08c379a00000000000000000000000000000000000000000000000000000000081526004016116639061287f565b60405180910390fd5b505050565b60008151905060006a636f6e736f6c652e6c6f679050602083016000808483855afa5050505050565b50505050565b50505050565b60006116c78473ffffffffffffffffffffffffffffffffffffffff16611b9f565b15611821578373ffffffffffffffffffffffffffffffffffffffff1663150b7a026116f0610c82565b8786866040518563ffffffff1660e01b81526004016117129493929190612923565b6020604051808303816000875af192505050801561174e57506040513d601f19601f8201168201806040525081019061174b9190612984565b60015b6117d1573d806000811461177e576040519150601f19603f3d011682016040523d82523d6000602084013e611783565b606091505b506000815114156117c9576040517f08c379a00000000000000000000000000000000000000000000000000000000081526004016117c09061287f565b60405180910390fd5b805181602001fd5b63150b7a0260e01b7bffffffffffffffffffffffffffffffffffffffffffffffffffffffff1916817bffffffffffffffffffffffffffffffffffffffffffffffffffffffff191614915050611826565b600190505b949350505050565b600080600090507a184f03e93ff9f4daa797ed6e38ed64bf6a1f010000000000000000831061188c577a184f03e93ff9f4daa797ed6e38ed64bf6a1f01000000000000000083816118825761188161289f565b5b0492506040810190505b6d04ee2d6d415b85acef810000000083106118c9576d04ee2d6d415b85acef810000000083816118bf576118be61289f565b5b0492506020810190505b662386f26fc1000083106118f857662386f26fc1000083816118ee576118ed61289f565b5b0492506010810190505b6305f5e1008310611921576305f5e10083816119175761191661289f565b5b0492506008810190505b612710831061194657612710838161193c5761193b61289f565b5b0492506004810190505b60648310611969576064838161195f5761195e61289f565b5b0492506002810190505b600a8310611978576001810190505b80915050919050565b600073ffffffffffffffffffffffffffffffffffffffff168273ffffffffffffffffffffffffffffffffffffffff1614156119f1576040517f08c379a00000000000000000000000000000000000000000000000000000000081526004016119e8906129fd565b60405180910390fd5b6119fa8161148a565b15611a3a576040517f08c379a0000000000000000000000000000000000000000000000000000000008152600401611a3190612a69565b60405180910390fd5b611a4860008383600161169a565b611a518161148a565b15611a91576040517f08c379a0000000000000000000000000000000000000000000000000000000008152600401611a8890612a69565b60405180910390fd5b6001600360008473ffffffffffffffffffffffffffffffffffffffff1673ffffffffffffffffffffffffffffffffffffffff16815260200190815260200160002060008282540192505081905550816002600083815260200190815260200160002060006101000a81548173ffffffffffffffffffffffffffffffffffffffff021916908373ffffffffffffffffffffffffffffffffffffffff160217905550808273ffffffffffffffffffffffffffffffffffffffff16600073ffffffffffffffffffffffffffffffffffffffff167fddf252ad1be2c89b69c2b068fc378daa952ba7f163c4a11628f55a4df523b3ef60405160405180910390a4611b9b6000838360016116a0565b5050565b6000808273ffffffffffffffffffffffffffffffffffffffff163b119050919050565b6000604051905090565b600080fd5b600080fd5b60007fffffffff0000000000000000000000000000000000000000000000000000000082169050919050565b611c0b81611bd6565b8114611c1657600080fd5b50565b600081359050611c2881611c02565b92915050565b600060208284031215611c4457611c43611bcc565b5b6000611c5284828501611c19565b91505092915050565b60008115159050919050565b611c7081611c5b565b82525050565b6000602082019050611c8b6000830184611c67565b92915050565b600081519050919050565b600082825260208201905092915050565b60005b83811015611ccb578082015181840152602081019050611cb0565b83811115611cda576000848401525b50505050565b6000601f19601f8301169050919050565b6000611cfc82611c91565b611d068185611c9c565b9350611d16818560208601611cad565b611d1f81611ce0565b840191505092915050565b60006020820190508181036000830152611d448184611cf1565b905092915050565b6000819050919050565b611d5f81611d4c565b8114611d6a57600080fd5b50565b600081359050611d7c81611d56565b92915050565b600060208284031215611d9857611d97611bcc565b5b6000611da684828501611d6d565b91505092915050565b600073ffffffffffffffffffffffffffffffffffffffff82169050919050565b6000611dda82611daf565b9050919050565b611dea81611dcf565b82525050565b6000602082019050611e056000830184611de1565b92915050565b611e1481611dcf565b8114611e1f57600080fd5b50565b600081359050611e3181611e0b565b92915050565b60008060408385031215611e4e57611e4d611bcc565b5b6000611e5c85828601611e22565b9250506020611e6d85828601611d6d565b9150509250929050565b600080600060608486031215611e9057611e8f611bcc565b5b6000611e9e86828701611e22565b9350506020611eaf86828701611d6d565b9250506040611ec086828701611d6d565b9150509250925092565b611ed381611d4c565b82525050565b6000602082019050611eee6000830184611eca565b92915050565b600080600060608486031215611f0d57611f0c611bcc565b5b6000611f1b86828701611e22565b9350506020611f2c86828701611e22565b9250506040611f3d86828701611d6d565b9150509250925092565b600060208284031215611f5d57611f5c611bcc565b5b6000611f6b84828501611e22565b91505092915050565b611f7d81611c5b565b8114611f8857600080fd5b50565b600081359050611f9a81611f74565b92915050565b60008060408385031215611fb757611fb6611bcc565b5b6000611fc585828601611e22565b9250506020611fd685828601611f8b565b9150509250929050565b600080fd5b600080fd5b7f4e487b7100000000000000000000000000000000000000000000000000000000600052604160045260246000fd5b61202282611ce0565b810181811067ffffffffffffffff8211171561204157612040611fea565b5b80604052505050565b6000612054611bc2565b90506120608282612019565b919050565b600067ffffffffffffffff8211156120805761207f611fea565b5b61208982611ce0565b9050602081019050919050565b82818337600083830152505050565b60006120b86120b384612065565b61204a565b9050828152602081018484840111156120d4576120d3611fe5565b5b6120df848285612096565b509392505050565b600082601f8301126120fc576120fb611fe0565b5b813561210c8482602086016120a5565b91505092915050565b6000806000806080858703121561212f5761212e611bcc565b5b600061213d87828801611e22565b945050602061214e87828801611e22565b935050604061215f87828801611d6d565b925050606085013567ffffffffffffffff8111156121805761217f611bd1565b5b61218c878288016120e7565b91505092959194509250565b600080604083850312156121af576121ae611bcc565b5b60006121bd85828601611e22565b92505060206121ce85828601611e22565b9150509250929050565b7f4e487b7100000000000000000000000000000000000000000000000000000000600052602260045260246000fd5b6000600282049050600182168061221f57607f821691505b60208210811415612233576122326121d8565b5b50919050565b7f4552433732313a20617070726f76616c20746f2063757272656e74206f776e6560008201527f7200000000000000000000000000000000000000000000000000000000000000602082015250565b6000612295602183611c9c565b91506122a082612239565b604082019050919050565b600060208201905081810360008301526122c481612288565b9050919050565b7f4552433732313a20617070726f76652063616c6c6572206973206e6f7420746f60008201527f6b656e206f776e6572206f7220617070726f76656420666f7220616c6c000000602082015250565b6000612327603d83611c9c565b9150612332826122cb565b604082019050919050565b600060208201905081810360008301526123568161231a565b9050919050565b7f4e487b7100000000000000000000000000000000000000000000000000000000600052601160045260246000fd5b600061239782611d4c565b91507fffffffffffffffffffffffffffffffffffffffffffffffffffffffffffffffff8214156123ca576123c961235d565b5b600182019050919050565b7f4552433732313a2063616c6c6572206973206e6f7420746f6b656e206f776e6560008201527f72206f7220617070726f76656400000000000000000000000000000000000000602082015250565b6000612431602d83611c9c565b915061243c826123d5565b604082019050919050565b6000602082019050818103600083015261246081612424565b9050919050565b7f4552433732313a20696e76616c696420746f6b656e2049440000000000000000600082015250565b600061249d601883611c9c565b91506124a882612467565b602082019050919050565b600060208201905081810360008301526124cc81612490565b9050919050565b7f4552433732313a2061646472657373207a65726f206973206e6f74206120766160008201527f6c6964206f776e65720000000000000000000000000000000000000000000000602082015250565b600061252f602983611c9c565b915061253a826124d3565b604082019050919050565b6000602082019050818103600083015261255e81612522565b9050919050565b7f5365706f6c69614e46543a20746f6b656e20646f6573206e6f74206578697374600082015250565b600061259b602083611c9c565b91506125a682612565565b602082019050919050565b600060208201905081810360008301526125ca8161258e565b9050919050565b600081905092915050565b60006125e782611c91565b6125f181856125d1565b9350612601818560208601611cad565b80840191505092915050565b600061261982856125dc565b915061262582846125dc565b91508190509392505050565b6000608082019050818103600083015261264b8187611cf1565b905061265a6020830186611eca565b6126676040830185611eca565b6126746060830184611eca565b95945050505050565b7f4552433732313a207472616e736665722066726f6d20696e636f72726563742060008201527f6f776e6572000000000000000000000000000000000000000000000000000000602082015250565b60006126d9602583611c9c565b91506126e48261267d565b604082019050919050565b60006020820190508181036000830152612708816126cc565b9050919050565b7f4552433732313a207472616e7366657220746f20746865207a65726f2061646460008201527f7265737300000000000000000000000000000000000000000000000000000000602082015250565b600061276b602483611c9c565b91506127768261270f565b604082019050919050565b6000602082019050818103600083015261279a8161275e565b9050919050565b7f4552433732313a20617070726f766520746f2063616c6c657200000000000000600082015250565b60006127d7601983611c9c565b91506127e2826127a1565b602082019050919050565b60006020820190508181036000830152612806816127ca565b9050919050565b7f4552433732313a207472616e7366657220746f206e6f6e20455243373231526560008201527f63656976657220696d706c656d656e7465720000000000000000000000000000602082015250565b6000612869603283611c9c565b91506128748261280d565b604082019050919050565b600060208201905081810360008301526128988161285c565b9050919050565b7f4e487b7100000000000000000000000000000000000000000000000000000000600052601260045260246000fd5b600081519050919050565b600082825260208201905092915050565b60006128f5826128ce565b6128ff81856128d9565b935061290f818560208601611cad565b61291881611ce0565b840191505092915050565b60006080820190506129386000830187611de1565b6129456020830186611de1565b6129526040830185611eca565b818103606083015261296481846128ea565b905095945050505050565b60008151905061297e81611c02565b92915050565b60006020828403121561299a57612999611bcc565b5b60006129a88482850161296f565b91505092915050565b7f4552433732313a206d696e7420746f20746865207a65726f2061646472657373600082015250565b60006129e7602083611c9c565b91506129f2826129b1565b602082019050919050565b60006020820190508181036000830152612a16816129da565b9050919050565b7f4552433732313a20746f6b656e20616c7265616479206d696e74656400000000600082015250565b6000612a53601c83611c9c565b9150612a5e82612a1d565b602082019050919050565b60006020820190508181036000830152612a8281612a46565b905091905056fe4d696e746564205365706f6c6961204e4654207769746820746f6b656e20494420256420616e64206d65746164617461207b74696d657374616d703a2025642c20616d6f756e743a2025647da26469706673582212206898c0ac73344eea0577c98c95ad4d90bd844922355a844ea705d73f54af632564736f6c634300080a0033",
  "linkReferences": {},
  "deployedLinkReferences": {}
}