{
  "_format": "hh-sol-artifact-1",
  "contractName": "FixedNFT",
  "sourceName": "contracts/FixedNFT.sol",
  "abi": [
    {
      "inputs": [
        {
          "internalType": "address",
          "name": "_pool",
          "type": "address"
        }
      ],
      "stateMutability": "nonpayable",
      "type": "constructor"
    },
    {
      "anonymous": false,
      "inputs": [
        {
          "indexed": true,
          "internalType": "address",
          "name": "owner",
          "type": "address"
        },
        {
          "indexed": true,
          "internalType": "address",
          "name": "approved",
          "type": "address"
        },
        {
          "indexed": true,
          "internalType": "uint256",
          "name": "tokenId",
          "type": "uint256"
        }
      ],
      "name": "Approval",
      "type": "event"
    },
    {
      "anonymous": false,
      "inputs": [
        {
          "indexed": true,
          "internalType": "address",
          "name": "owner",
          "type": "address"
        },
        {
          "indexed": true,
          "internalType": "address",
          "name": "operator",
          "type": "address"
        },
        {
          "indexed": false,
          "internalType": "bool",
          "name": "approved",
          "type": "bool"
        }
      ],
      "name": "ApprovalForAll",
      "type": "event"
    },
    {
      "anonymous": false,
      "inputs": [
        {
          "indexed": true,
          "internalType": "address",
          "name": "from",
          "type": "address"
        },
        {
          "indexed": true,
          "internalType": "address",
          "name": "to",
          "type": "address"
        },
        {
          "indexed": true,
          "internalType": "uint256",
          "name": "tokenId",
          "type": "uint256"
        }
      ],
      "name": "Transfer",
      "type": "event"
    },
    {
      "inputs": [
        {
          "internalType": "address",
          "name": "to",
          "type": "address"
        },
        {
          "internalType": "uint256",
          "name": "tokenId",
          "type": "uint256"
        }
      ],
      "name": "approve",
      "outputs": [],
      "stateMutability": "nonpayable",
      "type": "function"
    },
    {
      "inputs": [
        {
          "internalType": "address",
          "name": "owner",
          "type": "address"
        }
      ],
      "name": "balanceOf",
      "outputs": [
        {
          "internalType": "uint256",
          "name": "",
          "type": "uint256"
        }
      ],
      "stateMutability": "view",
      "type": "function"
    },
    {
      "inputs": [
        {
          "internalType": "uint256",
          "name": "tokenId",
          "type": "uint256"
        }
      ],
      "name": "burn",
      "outputs": [],
      "stateMutability": "nonpayable",
      "type": "function"
    },
    {
      "inputs": [
        {
          "internalType": "uint256",
          "name": "tokenId",
          "type": "uint256"
        }
      ],
      "name": "getApproved",
      "outputs": [
        {
          "internalType": "address",
          "name": "",
          "type": "address"
        }
      ],
      "stateMutability": "view",
      "type": "function"
    },
    {
      "inputs": [
        {
          "internalType": "uint256",
          "name": "tokenId",
          "type": "uint256"
        }
      ],
      "name": "getDepositData",
      "outputs": [
        {
          "components": [
            {
              "internalType": "uint256",
              "name": "amount",
              "type": "uint256"
            },
            {
              "internalType": "uint256",
              "name": "depositTime",
              "type": "uint256"
            }
          ],
          "internalType": "struct FixedNFT.DepositData",
          "name": "",
          "type": "tuple"
        }
      ],
      "stateMutability": "view",
      "type": "function"
    },
    {
      "inputs": [
        {
          "internalType": "address",
          "name": "owner",
          "type": "address"
        },
        {
          "internalType": "address",
          "name": "operator",
          "type": "address"
        }
      ],
      "name": "isApprovedForAll",
      "outputs": [
        {
          "internalType": "bool",
          "name": "",
          "type": "bool"
        }
      ],
      "stateMutability": "view",
      "type": "function"
    },
    {
      "inputs": [
        {
          "internalType": "address",
          "name": "to",
          "type": "address"
        },
        {
          "internalType": "uint256",
          "name": "amount",
          "type": "uint256"
        },
        {
          "internalType": "uint256",
          "name": "depositTime",
          "type": "uint256"
        }
      ],
      "name": "mint",
      "outputs": [
        {
          "internalType": "uint256",
          "name": "",
          "type": "uint256"
        }
      ],
      "stateMutability": "nonpayable",
      "type": "function"
    },
    {
      "inputs": [],
      "name": "name",
      "outputs": [
        {
          "internalType": "string",
          "name": "",
          "type": "string"
        }
      ],
      "stateMutability": "view",
      "type": "function"
    },
    {
      "inputs": [
        {
          "internalType": "uint256",
          "name": "tokenId",
          "type": "uint256"
        }
      ],
      "name": "ownerOf",
      "outputs": [
        {
          "internalType": "address",
          "name": "",
          "type": "address"
        }
      ],
      "stateMutability": "view",
      "type": "function"
    },
    {
      "inputs": [
        {
          "internalType": "address",
          "name": "from",
          "type": "address"
        },
        {
          "internalType": "address",
          "name": "to",
          "type": "address"
        },
        {
          "internalType": "uint256",
          "name": "tokenId",
          "type": "uint256"
        }
      ],
      "name": "safeTransferFrom",
      "outputs": [],
      "stateMutability": "nonpayable",
      "type": "function"
    },
    {
      "inputs": [
        {
          "internalType": "address",
          "name": "from",
          "type": "address"
        },
        {
          "internalType": "address",
          "name": "to",
          "type": "address"
        },
        {
          "internalType": "uint256",
          "name": "tokenId",
          "type": "uint256"
        },
        {
          "internalType": "bytes",
          "name": "data",
          "type": "bytes"
        }
      ],
      "name": "safeTransferFrom",
      "outputs": [],
      "stateMutability": "nonpayable",
      "type": "function"
    },
    {
      "inputs": [
        {
          "internalType": "address",
          "name": "operator",
          "type": "address"
        },
        {
          "internalType": "bool",
          "name": "approved",
          "type": "bool"
        }
      ],
      "name": "setApprovalForAll",
      "outputs": [],
      "stateMutability": "nonpayable",
      "type": "function"
    },
    {
      "inputs": [
        {
          "internalType": "bytes4",
          "name": "interfaceId",
          "type": "bytes4"
        }
      ],
      "name": "supportsInterface",
      "outputs": [
        {
          "internalType": "bool",
          "name": "",
          "type": "bool"
        }
      ],
      "stateMutability": "view",
      "type": "function"
    },
    {
      "inputs": [],
      "name": "symbol",
      "outputs": [
        {
          "internalType": "string",
          "name": "",
          "type": "string"
        }
      ],
      "stateMutability": "view",
      "type": "function"
    },
    {
      "inputs": [
        {
          "internalType": "uint256",
          "name": "index",
          "type": "uint256"
        }
      ],
      "name": "tokenByIndex",
      "outputs": [
        {
          "internalType": "uint256",
          "name": "",
          "type": "uint256"
        }
      ],
      "stateMutability": "view",
      "type": "function"
    },
    {
      "inputs": [
        {
          "internalType": "address",
          "name": "owner",
          "type": "address"
        },
        {
          "internalType": "uint256",
          "name": "index",
          "type": "uint256"
        }
      ],
      "name": "tokenOfOwnerByIndex",
      "outputs": [
        {
          "internalType": "uint256",
          "name": "",
          "type": "uint256"
        }
      ],
      "stateMutability": "view",
      "type": "function"
    },
    {
      "inputs": [
        {
          "internalType": "uint256",
          "name": "tokenId",
          "type": "uint256"
        }
      ],
      "name": "tokenURI",
      "outputs": [
        {
          "internalType": "string",
          "name": "",
          "type": "string"
        }
      ],
      "stateMutability": "view",
      "type": "function"
    },
    {
      "inputs": [],
      "name": "totalSupply",
      "outputs": [
        {
          "internalType": "uint256",
          "name": "",
          "type": "uint256"
        }
      ],
      "stateMutability": "view",
      "type": "function"
    },
    {
      "inputs": [
        {
          "internalType": "address",
          "name": "from",
          "type": "address"
        },
        {
          "internalType": "address",
          "name": "to",
          "type": "address"
        },
        {
          "internalType": "uint256",
          "name": "tokenId",
          "type": "uint256"
        }
      ],
      "name": "transferFrom",
      "outputs": [],
      "stateMutability": "nonpayable",
      "type": "function"
    }
  ],
  "bytecode": "0x60806040526000600a553480156200001657600080fd5b5060405162001c7038038062001c70833981016040819052620000399162000176565b6040805180820182526012815271119a5e195908125b9d195c995cdd0813919560721b602080830191825283518085019094526005845264119253919560da1b9084015281519192916200009091600091620000d0565b508051620000a6906001906020840190620000d0565b5050600b80546001600160a01b0319166001600160a01b03939093169290921790915550620001e5565b828054620000de90620001a8565b90600052602060002090601f0160209004810192826200010257600085556200014d565b82601f106200011d57805160ff19168380011785556200014d565b828001600101855582156200014d579182015b828111156200014d57825182559160200191906001019062000130565b506200015b9291506200015f565b5090565b5b808211156200015b576000815560010162000160565b6000602082840312156200018957600080fd5b81516001600160a01b0381168114620001a157600080fd5b9392505050565b600181811c90821680620001bd57607f821691505b60208210811415620001df57634e487b7160e01b600052602260045260246000fd5b50919050565b611a7b80620001f56000396000f3fe608060405234801561001057600080fd5b50600436106101215760003560e01c806342966c68116100ad578063a22cb46511610071578063a22cb46514610259578063b88d4fde1461026c578063c13819b61461027f578063c87b56dd146102e6578063e985e9c5146102f957600080fd5b806342966c68146102055780634f6ccce7146102185780636352211e1461022b57806370a082311461023e57806395d89b411461025157600080fd5b8063156e29f6116100f4578063156e29f6146101a357806318160ddd146101c457806323b872dd146101cc5780632f745c59146101df57806342842e0e146101f257600080fd5b806301ffc9a71461012657806306fdde031461014e578063081812fc14610163578063095ea7b31461018e575b600080fd5b610139610134366004611557565b610335565b60405190151581526020015b60405180910390f35b610156610360565b60405161014591906115cc565b6101766101713660046115df565b6103f2565b6040516001600160a01b039091168152602001610145565b6101a161019c366004611614565b610419565b005b6101b66101b136600461163e565b610534565b604051908152602001610145565b600a546101b6565b6101a16101da366004611671565b6105e7565b6101b66101ed366004611614565b610618565b6101a1610200366004611671565b6106ae565b6101a16102133660046115df565b6106c9565b6101b66102263660046115df565b61072f565b6101766102393660046115df565b6107c2565b6101b661024c3660046116ad565b610822565b6101566108a8565b6101a16102673660046116c8565b6108b7565b6101a161027a36600461171a565b6108c6565b6102cb61028d3660046115df565b6040805180820190915260008082526020820152506000908152600c6020908152604091829020825180840190935280548352600101549082015290565b60408051825181526020928301519281019290925201610145565b6101566102f43660046115df565b6108fe565b6101396103073660046117f6565b6001600160a01b03918216600090815260056020908152604080832093909416825291909152205460ff1690565b60006001600160e01b0319821663780e9d6360e01b148061035a575061035a82610972565b92915050565b60606000805461036f90611829565b80601f016020809104026020016040519081016040528092919081815260200182805461039b90611829565b80156103e85780601f106103bd576101008083540402835291602001916103e8565b820191906000526020600020905b8154815290600101906020018083116103cb57829003601f168201915b5050505050905090565b60006103fd826109c2565b506000908152600460205260409020546001600160a01b031690565b6000610424826107c2565b9050806001600160a01b0316836001600160a01b031614156104975760405162461bcd60e51b815260206004820152602160248201527f4552433732313a20617070726f76616c20746f2063757272656e74206f776e656044820152603960f91b60648201526084015b60405180910390fd5b336001600160a01b03821614806104b357506104b38133610307565b6105255760405162461bcd60e51b815260206004820152603d60248201527f4552433732313a20617070726f76652063616c6c6572206973206e6f7420746f60448201527f6b656e206f776e6572206f7220617070726f76656420666f7220616c6c000000606482015260840161048e565b61052f8383610a21565b505050565b600b546000906001600160a01b031633146105915760405162461bcd60e51b815260206004820152601f60248201527f43616c6c6572206973206e6f742074686520506f6f6c20636f6e747261637400604482015260640161048e565b600a5461059e8582610a8f565b600a80549060006105ae8361187a565b909155505060408051808201825294855260208086019485526000838152600c9091522093518455915160019093019290925592915050565b6105f13382610aa9565b61060d5760405162461bcd60e51b815260040161048e90611895565b61052f838383610b28565b600061062383610822565b82106106855760405162461bcd60e51b815260206004820152602b60248201527f455243373231456e756d657261626c653a206f776e657220696e646578206f7560448201526a74206f6620626f756e647360a81b606482015260840161048e565b506001600160a01b03919091166000908152600660209081526040808320938352929052205490565b61052f838383604051806020016040528060008152506108c6565b600b546001600160a01b031633146107235760405162461bcd60e51b815260206004820152601f60248201527f43616c6c6572206973206e6f742074686520506f6f6c20636f6e747261637400604482015260640161048e565b61072c81610c99565b50565b600061073a60085490565b821061079d5760405162461bcd60e51b815260206004820152602c60248201527f455243373231456e756d657261626c653a20676c6f62616c20696e646578206f60448201526b7574206f6620626f756e647360a01b606482015260840161048e565b600882815481106107b0576107b06118e2565b90600052602060002001549050919050565b6000818152600260205260408120546001600160a01b03168061035a5760405162461bcd60e51b8152602060048201526018602482015277115490cdcc8c4e881a5b9d985b1a59081d1bdad95b88125160421b604482015260640161048e565b60006001600160a01b03821661088c5760405162461bcd60e51b815260206004820152602960248201527f4552433732313a2061646472657373207a65726f206973206e6f7420612076616044820152683634b21037bbb732b960b91b606482015260840161048e565b506001600160a01b031660009081526003602052604090205490565b60606001805461036f90611829565b6108c2338383610d3c565b5050565b6108d03383610aa9565b6108ec5760405162461bcd60e51b815260040161048e90611895565b6108f884848484610e0b565b50505050565b6060610909826109c2565b600061092060408051602081019091526000815290565b90506000815111610940576040518060200160405280600081525061096b565b8061094a84610e3e565b60405160200161095b9291906118f8565b6040516020818303038152906040525b9392505050565b60006001600160e01b031982166380ac58cd60e01b14806109a357506001600160e01b03198216635b5e139f60e01b145b8061035a57506301ffc9a760e01b6001600160e01b031983161461035a565b6000818152600260205260409020546001600160a01b031661072c5760405162461bcd60e51b8152602060048201526018602482015277115490cdcc8c4e881a5b9d985b1a59081d1bdad95b88125160421b604482015260640161048e565b600081815260046020526040902080546001600160a01b0319166001600160a01b0384169081179091558190610a56826107c2565b6001600160a01b03167f8c5be1e5ebec7d5bd14f71427d1e84f3dd0314c0f7b2291e5b200ac8c7c3b92560405160405180910390a45050565b6108c2828260405180602001604052806000815250610edb565b600080610ab5836107c2565b9050806001600160a01b0316846001600160a01b03161480610afc57506001600160a01b0380821660009081526005602090815260408083209388168352929052205460ff165b80610b205750836001600160a01b0316610b15846103f2565b6001600160a01b0316145b949350505050565b826001600160a01b0316610b3b826107c2565b6001600160a01b031614610b615760405162461bcd60e51b815260040161048e90611927565b6001600160a01b038216610bc35760405162461bcd60e51b8152602060048201526024808201527f4552433732313a207472616e7366657220746f20746865207a65726f206164646044820152637265737360e01b606482015260840161048e565b610bd08383836001610f0e565b826001600160a01b0316610be3826107c2565b6001600160a01b031614610c095760405162461bcd60e51b815260040161048e90611927565b600081815260046020908152604080832080546001600160a01b03199081169091556001600160a01b0387811680865260038552838620805460001901905590871680865283862080546001019055868652600290945282852080549092168417909155905184937fddf252ad1be2c89b69c2b068fc378daa952ba7f163c4a11628f55a4df523b3ef91a4505050565b6000610ca4826107c2565b9050610cb4816000846001610f0e565b610cbd826107c2565b600083815260046020908152604080832080546001600160a01b03199081169091556001600160a01b0385168085526003845282852080546000190190558785526002909352818420805490911690555192935084927fddf252ad1be2c89b69c2b068fc378daa952ba7f163c4a11628f55a4df523b3ef908390a45050565b816001600160a01b0316836001600160a01b03161415610d9e5760405162461bcd60e51b815260206004820152601960248201527f4552433732313a20617070726f766520746f2063616c6c657200000000000000604482015260640161048e565b6001600160a01b03838116600081815260056020908152604080832094871680845294825291829020805460ff191686151590811790915591519182527f17307eab39ab6107e8899845ad3d59bd9653f200f220920489ca2b5937696c31910160405180910390a3505050565b610e16848484610b28565b610e2284848484611042565b6108f85760405162461bcd60e51b815260040161048e9061196c565b60606000610e4b83611140565b600101905060008167ffffffffffffffff811115610e6b57610e6b611704565b6040519080825280601f01601f191660200182016040528015610e95576020820181803683370190505b5090508181016020015b600019016f181899199a1a9b1b9c1cb0b131b232b360811b600a86061a8153600a8504945084610ece57610ed3565b610e9f565b509392505050565b610ee58383611218565b610ef26000848484611042565b61052f5760405162461bcd60e51b815260040161048e9061196c565b6001811115610f7d5760405162461bcd60e51b815260206004820152603560248201527f455243373231456e756d657261626c653a20636f6e7365637574697665207472604482015274185b9cd9995c9cc81b9bdd081cdd5c1c1bdc9d1959605a1b606482015260840161048e565b816001600160a01b038516610fd957610fd481600880546000838152600960205260408120829055600182018355919091527ff3f7a9fe364faab93b216da50a3214154f22a0a2b415b23a84c8169e8b636ee30155565b610ffc565b836001600160a01b0316856001600160a01b031614610ffc57610ffc85826113b1565b6001600160a01b038416611018576110138161144e565b61103b565b846001600160a01b0316846001600160a01b03161461103b5761103b84826114fd565b5050505050565b60006001600160a01b0384163b1561113557604051630a85bd0160e11b81526001600160a01b0385169063150b7a02906110869033908990889088906004016119be565b6020604051808303816000875af19250505080156110c1575060408051601f3d908101601f191682019092526110be918101906119fb565b60015b61111b573d8080156110ef576040519150601f19603f3d011682016040523d82523d6000602084013e6110f4565b606091505b5080516111135760405162461bcd60e51b815260040161048e9061196c565b805181602001fd5b6001600160e01b031916630a85bd0160e11b149050610b20565b506001949350505050565b60008072184f03e93ff9f4daa797ed6e38ed64bf6a1f0160401b831061117f5772184f03e93ff9f4daa797ed6e38ed64bf6a1f0160401b830492506040015b6d04ee2d6d415b85acef810000000083106111ab576d04ee2d6d415b85acef8100000000830492506020015b662386f26fc1000083106111c957662386f26fc10000830492506010015b6305f5e10083106111e1576305f5e100830492506008015b61271083106111f557612710830492506004015b60648310611207576064830492506002015b600a831061035a5760010192915050565b6001600160a01b03821661126e5760405162461bcd60e51b815260206004820181905260248201527f4552433732313a206d696e7420746f20746865207a65726f2061646472657373604482015260640161048e565b6000818152600260205260409020546001600160a01b0316156112d35760405162461bcd60e51b815260206004820152601c60248201527f4552433732313a20746f6b656e20616c7265616479206d696e74656400000000604482015260640161048e565b6112e1600083836001610f0e565b6000818152600260205260409020546001600160a01b0316156113465760405162461bcd60e51b815260206004820152601c60248201527f4552433732313a20746f6b656e20616c7265616479206d696e74656400000000604482015260640161048e565b6001600160a01b038216600081815260036020908152604080832080546001019055848352600290915280822080546001600160a01b0319168417905551839291907fddf252ad1be2c89b69c2b068fc378daa952ba7f163c4a11628f55a4df523b3ef908290a45050565b600060016113be84610822565b6113c89190611a18565b60008381526007602052604090205490915080821461141b576001600160a01b03841660009081526006602090815260408083208584528252808320548484528184208190558352600790915290208190555b5060009182526007602090815260408084208490556001600160a01b039094168352600681528383209183525290812055565b60085460009061146090600190611a18565b60008381526009602052604081205460088054939450909284908110611488576114886118e2565b9060005260206000200154905080600883815481106114a9576114a96118e2565b60009182526020808320909101929092558281526009909152604080822084905585825281205560088054806114e1576114e1611a2f565b6001900381819060005260206000200160009055905550505050565b600061150883610822565b6001600160a01b039093166000908152600660209081526040808320868452825280832085905593825260079052919091209190915550565b6001600160e01b03198116811461072c57600080fd5b60006020828403121561156957600080fd5b813561096b81611541565b60005b8381101561158f578181015183820152602001611577565b838111156108f85750506000910152565b600081518084526115b8816020860160208601611574565b601f01601f19169290920160200192915050565b60208152600061096b60208301846115a0565b6000602082840312156115f157600080fd5b5035919050565b80356001600160a01b038116811461160f57600080fd5b919050565b6000806040838503121561162757600080fd5b611630836115f8565b946020939093013593505050565b60008060006060848603121561165357600080fd5b61165c846115f8565b95602085013595506040909401359392505050565b60008060006060848603121561168657600080fd5b61168f846115f8565b925061169d602085016115f8565b9150604084013590509250925092565b6000602082840312156116bf57600080fd5b61096b826115f8565b600080604083850312156116db57600080fd5b6116e4836115f8565b9150602083013580151581146116f957600080fd5b809150509250929050565b634e487b7160e01b600052604160045260246000fd5b6000806000806080858703121561173057600080fd5b611739856115f8565b9350611747602086016115f8565b925060408501359150606085013567ffffffffffffffff8082111561176b57600080fd5b818701915087601f83011261177f57600080fd5b81358181111561179157611791611704565b604051601f8201601f19908116603f011681019083821181831017156117b9576117b9611704565b816040528281528a60208487010111156117d257600080fd5b82602086016020830137600060208483010152809550505050505092959194509250565b6000806040838503121561180957600080fd5b611812836115f8565b9150611820602084016115f8565b90509250929050565b600181811c9082168061183d57607f821691505b6020821081141561185e57634e487b7160e01b600052602260045260246000fd5b50919050565b634e487b7160e01b600052601160045260246000fd5b600060001982141561188e5761188e611864565b5060010190565b6020808252602d908201527f4552433732313a2063616c6c6572206973206e6f7420746f6b656e206f776e6560408201526c1c881bdc88185c1c1c9bdd9959609a1b606082015260800190565b634e487b7160e01b600052603260045260246000fd5b6000835161190a818460208801611574565b83519083019061191e818360208801611574565b01949350505050565b60208082526025908201527f4552433732313a207472616e736665722066726f6d20696e636f72726563742060408201526437bbb732b960d91b606082015260800190565b60208082526032908201527f4552433732313a207472616e7366657220746f206e6f6e20455243373231526560408201527131b2b4bb32b91034b6b83632b6b2b73a32b960711b606082015260800190565b6001600160a01b03858116825284166020820152604081018390526080606082018190526000906119f1908301846115a0565b9695505050505050565b600060208284031215611a0d57600080fd5b815161096b81611541565b600082821015611a2a57611a2a611864565b500390565b634e487b7160e01b600052603160045260246000fdfea264697066735822122058a09ae3424685e787b17f077065db8140710b5c7fdc4ec982bd26e8b7a65e9464736f6c634300080a0033",
  "linkReferences": {},
  "deployedLinkReferences": {}
}