{
  "_format": "hh-sol-artifact-1",
  "contractName": "Pool",
  "sourceName": "contracts/Pool.sol",
  "abi": [
    {
      "inputs": [
        {
          "internalType": "address",
          "name": "aaveAddresses",
          "type": "address"
        },
        {
          "internalType": "address",
          "name": "daiAddress",
          "type": "address"
        },
        {
          "internalType": "uint256",
          "name": "_fixedPoolLimit",
          "type": "uint256"
        },
        {
          "internalType": "uint256",
          "name": "_lockDuration",
          "type": "uint256"
        },
        {
          "internalType": "uint256",
          "name": "_interestRate",
          "type": "uint256"
        }
      ],
      "stateMutability": "nonpayable",
      "type": "constructor"
    },
    {
      "anonymous": false,
      "inputs": [
        {
          "indexed": true,
          "internalType": "address",
          "name": "previousOwner",
          "type": "address"
        },
        {
          "indexed": true,
          "internalType": "address",
          "name": "newOwner",
          "type": "address"
        }
      ],
      "name": "OwnershipTransferred",
      "type": "event"
    },
    {
      "inputs": [],
      "name": "addSupply",
      "outputs": [
        {
          "internalType": "uint256",
          "name": "",
          "type": "uint256"
        }
      ],
      "stateMutability": "view",
      "type": "function"
    },
    {
      "inputs": [],
      "name": "addTimestamp",
      "outputs": [
        {
          "internalType": "uint256",
          "name": "",
          "type": "uint256"
        }
      ],
      "stateMutability": "view",
      "type": "function"
    },
    {
      "inputs": [],
      "name": "blocktime",
      "outputs": [
        {
          "internalType": "uint256",
          "name": "",
          "type": "uint256"
        }
      ],
      "stateMutability": "view",
      "type": "function"
    },
    {
      "inputs": [
        {
          "internalType": "uint256",
          "name": "amount",
          "type": "uint256"
        },
        {
          "internalType": "uint256",
          "name": "interestRateAmount",
          "type": "uint256"
        },
        {
          "internalType": "uint256",
          "name": "time",
          "type": "uint256"
        }
      ],
      "name": "calculateInterest",
      "outputs": [
        {
          "internalType": "uint256",
          "name": "",
          "type": "uint256"
        }
      ],
      "stateMutability": "pure",
      "type": "function"
    },
    {
      "inputs": [
        {
          "internalType": "uint256",
          "name": "tokenId",
          "type": "uint256"
        }
      ],
      "name": "calculateInterestFixed",
      "outputs": [
        {
          "internalType": "uint256",
          "name": "",
          "type": "uint256"
        }
      ],
      "stateMutability": "view",
      "type": "function"
    },
    {
      "inputs": [
        {
          "internalType": "uint256",
          "name": "tokenId",
          "type": "uint256"
        }
      ],
      "name": "calculateInterestFixedParts",
      "outputs": [
        {
          "internalType": "uint256",
          "name": "",
          "type": "uint256"
        },
        {
          "internalType": "uint256",
          "name": "",
          "type": "uint256"
        }
      ],
      "stateMutability": "view",
      "type": "function"
    },
    {
      "inputs": [
        {
          "internalType": "uint256",
          "name": "tokenId",
          "type": "uint256"
        }
      ],
      "name": "calculateInterestVariable",
      "outputs": [
        {
          "internalType": "uint256",
          "name": "",
          "type": "uint256"
        }
      ],
      "stateMutability": "view",
      "type": "function"
    },
    {
      "inputs": [
        {
          "internalType": "uint256",
          "name": "amount",
          "type": "uint256"
        }
      ],
      "name": "depositFixed",
      "outputs": [],
      "stateMutability": "nonpayable",
      "type": "function"
    },
    {
      "inputs": [
        {
          "internalType": "uint256",
          "name": "amount",
          "type": "uint256"
        }
      ],
      "name": "depositVariable",
      "outputs": [],
      "stateMutability": "nonpayable",
      "type": "function"
    },
    {
      "inputs": [],
      "name": "fixedDepositNum",
      "outputs": [
        {
          "internalType": "uint256",
          "name": "",
          "type": "uint256"
        }
      ],
      "stateMutability": "view",
      "type": "function"
    },
    {
      "inputs": [],
      "name": "fixedDepositSumTime",
      "outputs": [
        {
          "internalType": "uint256",
          "name": "",
          "type": "uint256"
        }
      ],
      "stateMutability": "view",
      "type": "function"
    },
    {
      "inputs": [],
      "name": "fixedNFT",
      "outputs": [
        {
          "internalType": "contract FixedNFT",
          "name": "",
          "type": "address"
        }
      ],
      "stateMutability": "view",
      "type": "function"
    },
    {
      "inputs": [],
      "name": "fixedPoolLimit",
      "outputs": [
        {
          "internalType": "uint256",
          "name": "",
          "type": "uint256"
        }
      ],
      "stateMutability": "view",
      "type": "function"
    },
    {
      "inputs": [],
      "name": "getTotalSupply",
      "outputs": [
        {
          "internalType": "uint256",
          "name": "",
          "type": "uint256"
        }
      ],
      "stateMutability": "view",
      "type": "function"
    },
    {
      "inputs": [],
      "name": "interestRate",
      "outputs": [
        {
          "internalType": "uint256",
          "name": "",
          "type": "uint256"
        }
      ],
      "stateMutability": "view",
      "type": "function"
    },
    {
      "inputs": [],
      "name": "interests",
      "outputs": [
        {
          "internalType": "int256",
          "name": "",
          "type": "int256"
        },
        {
          "internalType": "int256",
          "name": "",
          "type": "int256"
        }
      ],
      "stateMutability": "view",
      "type": "function"
    },
    {
      "inputs": [],
      "name": "lockDuration",
      "outputs": [
        {
          "internalType": "uint256",
          "name": "",
          "type": "uint256"
        }
      ],
      "stateMutability": "view",
      "type": "function"
    },
    {
      "inputs": [],
      "name": "owner",
      "outputs": [
        {
          "internalType": "address",
          "name": "",
          "type": "address"
        }
      ],
      "stateMutability": "view",
      "type": "function"
    },
    {
      "inputs": [],
      "name": "poolStartTime",
      "outputs": [
        {
          "internalType": "uint256",
          "name": "",
          "type": "uint256"
        }
      ],
      "stateMutability": "view",
      "type": "function"
    },
    {
      "inputs": [],
      "name": "prevMaxSupply",
      "outputs": [
        {
          "internalType": "uint256",
          "name": "",
          "type": "uint256"
        }
      ],
      "stateMutability": "view",
      "type": "function"
    },
    {
      "inputs": [],
      "name": "renounceOwnership",
      "outputs": [],
      "stateMutability": "nonpayable",
      "type": "function"
    },
    {
      "inputs": [],
      "name": "timeSinceStart",
      "outputs": [
        {
          "internalType": "uint256",
          "name": "",
          "type": "uint256"
        }
      ],
      "stateMutability": "view",
      "type": "function"
    },
    {
      "inputs": [],
      "name": "totalClaimedFixed",
      "outputs": [
        {
          "internalType": "uint256",
          "name": "",
          "type": "uint256"
        }
      ],
      "stateMutability": "view",
      "type": "function"
    },
    {
      "inputs": [],
      "name": "totalClaimedFixedPrev",
      "outputs": [
        {
          "internalType": "uint256",
          "name": "",
          "type": "uint256"
        }
      ],
      "stateMutability": "view",
      "type": "function"
    },
    {
      "inputs": [],
      "name": "totalClaimedVariable",
      "outputs": [
        {
          "internalType": "uint256",
          "name": "",
          "type": "uint256"
        }
      ],
      "stateMutability": "view",
      "type": "function"
    },
    {
      "inputs": [],
      "name": "totalDepositedFixed",
      "outputs": [
        {
          "internalType": "uint256",
          "name": "",
          "type": "uint256"
        }
      ],
      "stateMutability": "view",
      "type": "function"
    },
    {
      "inputs": [],
      "name": "totalDepositedVariable",
      "outputs": [
        {
          "internalType": "uint256",
          "name": "",
          "type": "uint256"
        }
      ],
      "stateMutability": "view",
      "type": "function"
    },
    {
      "inputs": [
        {
          "internalType": "address",
          "name": "newOwner",
          "type": "address"
        }
      ],
      "name": "transferOwnership",
      "outputs": [],
      "stateMutability": "nonpayable",
      "type": "function"
    },
    {
      "inputs": [],
      "name": "variableNFT",
      "outputs": [
        {
          "internalType": "contract VariableNFT",
          "name": "",
          "type": "address"
        }
      ],
      "stateMutability": "view",
      "type": "function"
    },
    {
      "inputs": [],
      "name": "variablePoolLimit",
      "outputs": [
        {
          "internalType": "uint256",
          "name": "",
          "type": "uint256"
        }
      ],
      "stateMutability": "view",
      "type": "function"
    },
    {
      "inputs": [
        {
          "internalType": "uint256",
          "name": "tokenId",
          "type": "uint256"
        }
      ],
      "name": "withdrawFixed",
      "outputs": [],
      "stateMutability": "nonpayable",
      "type": "function"
    },
    {
      "inputs": [
        {
          "internalType": "uint256",
          "name": "tokenId",
          "type": "uint256"
        }
      ],
      "name": "withdrawVariable",
      "outputs": [],
      "stateMutability": "nonpayable",
      "type": "function"
    }
  ],
  "bytecode": "0x60806040523480156200001157600080fd5b506040516200557f3803806200557f8339810160408190526200003491620002b5565b6200003f33620001e3565b600380546001600160a01b0319166001600160a01b0387169081179091556040805163026b1d5f60e01b8152905163026b1d5f916004808201926020929091908290030181865afa15801562000099573d6000803e3d6000fd5b505050506040513d601f19601f82011682018060405250810190620000bf919062000308565b600480546001600160a01b039283166001600160a01b03199182168117909255600180548216909217909155600280549287169290911691909117905560078390556009829055600a8190556200011883828462000233565b60085560405130906200012b906200027c565b6001600160a01b039091168152602001604051809103906000f08015801562000158573d6000803e3d6000fd5b50600580546001600160a01b0319166001600160a01b0392909216919091179055604051309062000189906200028a565b6001600160a01b039091168152602001604051809103906000f080158015620001b6573d6000803e3d6000fd5b50600680546001600160a01b0319166001600160a01b0392909216919091179055506200037e9350505050565b600080546001600160a01b038381166001600160a01b0319831681178455604051919092169283917f8be0079c531659141344cd1fd0a4f28419497f9722a3daafe3b4186f6b6457e09190a35050565b600063bbf81e00670de0b6b3a7640000836200025086886200032d565b6200025c91906200032d565b6200026891906200035b565b6200027491906200035b565b949350505050565b611ca08062001c3483390190565b611cab80620038d483390190565b80516001600160a01b0381168114620002b057600080fd5b919050565b600080600080600060a08688031215620002ce57600080fd5b620002d98662000298565b9450620002e96020870162000298565b6040870151606088015160809098015196999198509695945092505050565b6000602082840312156200031b57600080fd5b620003268262000298565b9392505050565b60008160001904831182151516156200035657634e487b7160e01b600052601160045260246000fd5b500290565b6000826200037957634e487b7160e01b600052601260045260246000fd5b500490565b6118a6806200038e6000396000f3fe608060405234801561001057600080fd5b50600436106101b05760003560e01c8063715018a6116100ef578063a9b12c4c11610092578063a9b12c4c1461032e578063c4e41b2214610336578063dd4f20591461033e578063e4f1124714610351578063ea1ba5561461035a578063ebf4bd5b14610363578063f2fde38b1461036c578063f82923da1461037f57600080fd5b8063715018a6146102d557806373fce7ec146102dd578063793265a9146102e65780637c3a00fd146102ef57806383257889146102f8578063857a5c32146103015780638da5cb5b146103145780639bf028031461032557600080fd5b80632f47bf62116101575780632f47bf621461025c57806338a9a6861461026f57806347a359ca146102825780635ade20351461028b5780635f96dc111461029e57806365ad7c00146102a757806367fc6dea146102ba5780636e8fb459146102c257600080fd5b806304144ec7146101b557806304554443146101d157806305e1bd8c146101da578063149c8507146101ed57806314a3db2d146101f65780631a2c9fff1461021357806329796ae51461021c5780632cc79b6a14610231575b600080fd5b6101be60075481565b6040519081526020015b60405180910390f35b6101be60095481565b6101be6101e83660046114ba565b610388565b6101be600e5481565b6101fe6103c9565b604080519283526020830191909152016101c8565b6101be60085481565b61022f61022a3660046114e6565b6104a6565b005b600654610244906001600160a01b031681565b6040516001600160a01b0390911681526020016101c8565b61022f61026a3660046114e6565b61076c565b61022f61027d3660046114e6565b610915565b6101be60115481565b6101be6102993660046114e6565b610bed565b6101be60125481565b6101fe6102b53660046114e6565b610c0a565b6101be610e33565b6101be6102d03660046114e6565b610e83565b61022f610f78565b6101be600d5481565b6101be60135481565b6101be600a5481565b6101be600f5481565b600554610244906001600160a01b031681565b6000546001600160a01b0316610244565b6101be60105481565b6101be610f8c565b6101be610f9c565b61022f61034c3660046114e6565b61102b565b6101be600b5481565b6101be600c5481565b6101be60155481565b61022f61037a366004611514565b611323565b6101be60145481565b600063bbf81e00670de0b6b3a7640000836103a38688611547565b6103ad9190611547565b6103b7919061157c565b6103c1919061157c565b949350505050565b600a546012546000918291158015906103f757506012546103ed9062015180611590565b6103f5610f8c565b115b1561049b57600061042b600d54600f5461040f610f9c565b6104199190611590565b6104239190611590565b60135461139c565b90506000610437610e33565b9050600060095482610449919061157c565b6008546104569190611547565b9050600061046482856115a8565b9050600854836104749190611547565b61048a826b0104dc13db1286a62c0000006115e7565b610494919061166c565b9450505050505b600a54939092509050565b6006546040516331a9108f60e11b81526004810183905233916001600160a01b031690636352211e90602401602060405180830381865afa1580156104ef573d6000803e3d6000fd5b505050506040513d601f19601f82011682018060405250810190610513919061169a565b6001600160a01b0316146105425760405162461bcd60e51b8152600401610539906116b7565b60405180910390fd5b600061054d82610e83565b905080600f60008282546105619190611590565b9091555050600154600254604051631a4ca37b60e21b81526001600160a01b039182166004820152602481018490523060448201529116906369328dec906064016020604051808303816000875af11580156105c1573d6000803e3d6000fd5b505050506040513d601f19601f820116820180604052508101906105e591906116e8565b5060025460405163a9059cbb60e01b81526001600160a01b039091169063a9059cbb906106189033908590600401611701565b6020604051808303816000875af1158015610637573d6000803e3d6000fd5b505050506040513d601f19601f8201168201806040525081019061065b919061171a565b6106775760405162461bcd60e51b81526004016105399061173c565b60065460405163c349026360e01b815260048101849052602481018390526001600160a01b039091169063c349026390604401600060405180830381600087803b1580156106c457600080fd5b505af11580156106d8573d6000803e3d6000fd5b50505050600060125411801561070457506009546012546106f99190611590565b610701610f8c565b10155b1561076857600654604051630852cd8d60e31b8152600481018490526001600160a01b03909116906342966c6890602401600060405180830381600087803b15801561074f57600080fd5b505af1158015610763573d6000803e3d6000fd5b505050505b5050565b60085481600c5461077d9190611590565b11156107cb5760405162461bcd60e51b815260206004820152601b60248201527f5661726961626c6520706f6f6c206c696d6974207265616368656400000000006044820152606401610539565b6002546040516323b872dd60e01b81526001600160a01b03909116906323b872dd906107ff90339030908690600401611765565b6020604051808303816000875af115801561081e573d6000803e3d6000fd5b505050506040513d601f19601f82011682018060405250810190610842919061171a565b61085e5760405162461bcd60e51b81526004016105399061173c565b6006546000906001600160a01b031663156e29f6338461087c610f8c565b6040516001600160e01b031960e086901b1681526001600160a01b039093166004840152602483019190915260448201526064016020604051808303816000875af11580156108cf573d6000803e3d6000fd5b505050506040513d601f19601f820116820180604052508101906108f391906116e8565b905081600c60008282546109079190611590565b9091555061076890506113b7565b6005546040516331a9108f60e11b81526004810183905233916001600160a01b031690636352211e90602401602060405180830381865afa15801561095e573d6000803e3d6000fd5b505050506040513d601f19601f82011682018060405250810190610982919061169a565b6001600160a01b0316146109a85760405162461bcd60e51b8152600401610539906116b7565b6000806109b483610c0a565b909250905060006109c58284611590565b90508215610a655782600d60008282546109df9190611590565b9091555050600154600254604051631a4ca37b60e21b81526001600160a01b039182166004820152602481018690523060448201529116906369328dec906064016020604051808303816000875af1158015610a3f573d6000803e3d6000fd5b505050506040513d601f19601f82011682018060405250810190610a6391906116e8565b505b60025460405163a9059cbb60e01b81526001600160a01b039091169063a9059cbb90610a979033908590600401611701565b6020604051808303816000875af1158015610ab6573d6000803e3d6000fd5b505050506040513d601f19601f82011682018060405250810190610ada919061171a565b610af65760405162461bcd60e51b81526004016105399061173c565b60055460405163c349026360e01b815260048101869052602481018390526001600160a01b039091169063c349026390604401600060405180830381600087803b158015610b4357600080fd5b505af1158015610b57573d6000803e3d6000fd5b505050506000601254118015610b835750600954601254610b789190611590565b610b80610f8c565b10155b15610be757600554604051630852cd8d60e31b8152600481018690526001600160a01b03909116906342966c6890602401600060405180830381600087803b158015610bce57600080fd5b505af1158015610be2573d6000803e3d6000fd5b505050505b50505050565b6000806000610bfb84610c0a565b90925090506103c18183611590565b60055460405163609c0cdb60e11b815260048101839052600091829182916001600160a01b03169063c13819b690602401606060405180830381865afa158015610c58573d6000803e3d6000fd5b505050506040513d601f19601f82011682018060405250810190610c7c91906117f3565b602081015160115491925090610cd05760405162461bcd60e51b81526020600482015260196024820152784669786564204465706f736974204e756d206973207a65726f60381b6044820152606401610539565b6000601154601054610ce2919061157c565b6013546012549192509080610d1357610cf9610f8c565b9050600d54610d06610f9c565b610d109190611590565b91505b6000601154610d2484600b5461139c565b600a54610d319190611547565b610d3b919061157c565b905060006001610d4b848761139c565b1115610d7c57610d5b858461180f565b610d65848861139c565b610d6f9084611547565b610d79919061157c565b90505b60125460009015610dde576000610d91610e33565b9050610da48960000151600a5483610388565b610dae9083611590565b9150600954601254610dc09190611590565b610dc8610f8c565b10610ddc578851610dd99084611590565b92505b505b8188604001511115610e15576000610dfa828a6040015161139c565b610e049084611590565b995099505050505050505050915091565b610e2382896040015161139c565b9b909a5098505050505050505050565b600060125460001415610e465750600090565b600954601254610e569190611590565b610e5e610f8c565b1015610e7c57610e77610e6f610f8c565b60125461139c565b905090565b5060095490565b60065460405163609c0cdb60e11b81526004810183905260009182916001600160a01b039091169063c13819b690602401606060405180830381865afa158015610ed1573d6000803e3d6000fd5b505050506040513d601f19601f82011682018060405250810190610ef591906117f3565b60125490915015610f6f576000610f0a610f9c565b90506000610f22600d54600f54846104199190611590565b90506000600854828560000151610f399190611547565b610f43919061157c565b90506000610f5582866040015161139c565b905083811115610f6a57509195945050505050565b505050505b50600092915050565b610f80611410565b610f8a600061146a565b565b600060155442610e779190611590565b600154604051632fe4a15f60e21b815230600482015260009182916001600160a01b039091169063bf92857c9060240160c060405180830381865afa158015610fe9573d6000803e3d6000fd5b505050506040513d601f19601f8201168201806040525081019061100d9190611826565b50505050509050806402540be4006110259190611547565b91505090565b60075481600b5461103c9190611590565b111561107f5760405162461bcd60e51b8152602060048201526012602482015271141bdbdb081b1a5b5a5d081c995858da195960721b6044820152606401610539565b6002546040516323b872dd60e01b81526001600160a01b03909116906323b872dd906110b390339030908690600401611765565b6020604051808303816000875af11580156110d2573d6000803e3d6000fd5b505050506040513d601f19601f820116820180604052508101906110f6919061171a565b6111125760405162461bcd60e51b81526004016105399061173c565b60025460015460405163095ea7b360e01b81526001600160a01b039283169263095ea7b392611148929116908590600401611701565b6020604051808303816000875af1158015611167573d6000803e3d6000fd5b505050506040513d601f19601f8201168201806040525081019061118b919061171a565b6111c85760405162461bcd60e51b815260206004820152600e60248201526d105c1c1c9bdd994819985a5b195960921b6044820152606401610539565b60015460025460405163617ba03760e01b81526001600160a01b039182166004820152602481018490523060448201526000606482015291169063617ba03790608401600060405180830381600087803b15801561122557600080fd5b505af1158015611239573d6000803e3d6000fd5b505050506000611247610f8c565b600554604051630ab714fb60e11b815233600482015260248101859052604481018390529192506000916001600160a01b039091169063156e29f6906064016020604051808303816000875af11580156112a5573d6000803e3d6000fd5b505050506040513d601f19601f820116820180604052508101906112c991906116e8565b905082600b60008282546112dd9190611590565b925050819055506001601160008282546112f79190611590565b9250508190555081601060008282546113109190611590565b9091555061131e90506113b7565b505050565b61132b611410565b6001600160a01b0381166113905760405162461bcd60e51b815260206004820152602660248201527f4f776e61626c653a206e6577206f776e657220697320746865207a65726f206160448201526564647265737360d01b6064820152608401610539565b6113998161146a565b50565b600081831115610f6f576113b0828461180f565b9392505050565b600854600c541480156113cd5750600754600b54145b80156113d95750601254155b15610f8a576113e6610f8c565b601255600f54600d546113f7610f9c565b6114019190611590565b61140b9190611590565b601355565b6000546001600160a01b03163314610f8a5760405162461bcd60e51b815260206004820181905260248201527f4f776e61626c653a2063616c6c6572206973206e6f7420746865206f776e65726044820152606401610539565b600080546001600160a01b038381166001600160a01b0319831681178455604051919092169283917f8be0079c531659141344cd1fd0a4f28419497f9722a3daafe3b4186f6b6457e09190a35050565b6000806000606084860312156114cf57600080fd5b505081359360208301359350604090920135919050565b6000602082840312156114f857600080fd5b5035919050565b6001600160a01b038116811461139957600080fd5b60006020828403121561152657600080fd5b81356113b0816114ff565b634e487b7160e01b600052601160045260246000fd5b600081600019048311821515161561156157611561611531565b500290565b634e487b7160e01b600052601260045260246000fd5b60008261158b5761158b611566565b500490565b600082198211156115a3576115a3611531565b500190565b60008083128015600160ff1b8501841216156115c6576115c6611531565b6001600160ff1b03840183138116156115e1576115e1611531565b50500390565b60006001600160ff1b038184138284138082168684048611161561160d5761160d611531565b600160ff1b600087128281168783058912161561162c5761162c611531565b6000871292508782058712848416161561164857611648611531565b8785058712818416161561165e5761165e611531565b505050929093029392505050565b60008261167b5761167b611566565b600160ff1b82146000198414161561169557611695611531565b500590565b6000602082840312156116ac57600080fd5b81516113b0816114ff565b60208082526017908201527629b2b73232b91034b9903737ba1027232a1037bbb732b960491b604082015260600190565b6000602082840312156116fa57600080fd5b5051919050565b6001600160a01b03929092168252602082015260400190565b60006020828403121561172c57600080fd5b815180151581146113b057600080fd5b6020808252600f908201526e151c985b9cd9995c8819985a5b1959608a1b604082015260600190565b6001600160a01b039384168152919092166020820152604081019190915260600190565b60006060828403121561179b57600080fd5b6040516060810181811067ffffffffffffffff821117156117cc57634e487b7160e01b600052604160045260246000fd5b80604052508091508251815260208301516020820152604083015160408201525092915050565b60006060828403121561180557600080fd5b6113b08383611789565b60008282101561182157611821611531565b500390565b60008060008060008060c0878903121561183f57600080fd5b865195506020870151945060408701519350606087015192506080870151915060a08701519050929550929550929556fea26469706673582212206e75f5fb59260ab4b31f326bc447dff279f3de74a6ae993ab39aebdce2b51a6c64736f6c634300080a003360806040526000600a553480156200001657600080fd5b5060405162001ca038038062001ca0833981016040819052620000399162000176565b6040805180820182526012815271119a5e195908125b9d195c995cdd0813919560721b602080830191825283518085019094526005845264119253919560da1b9084015281519192916200009091600091620000d0565b508051620000a6906001906020840190620000d0565b5050600b80546001600160a01b0319166001600160a01b03939093169290921790915550620001e5565b828054620000de90620001a8565b90600052602060002090601f0160209004810192826200010257600085556200014d565b82601f106200011d57805160ff19168380011785556200014d565b828001600101855582156200014d579182015b828111156200014d57825182559160200191906001019062000130565b506200015b9291506200015f565b5090565b5b808211156200015b576000815560010162000160565b6000602082840312156200018957600080fd5b81516001600160a01b0381168114620001a157600080fd5b9392505050565b600181811c90821680620001bd57607f821691505b60208210811415620001df57634e487b7160e01b600052602260045260246000fd5b50919050565b611aab80620001f56000396000f3fe608060405234801561001057600080fd5b506004361061012c5760003560e01c80634f6ccce7116100ad578063b88d4fde11610071578063b88d4fde14610277578063c13819b61461028a578063c3490263146102bf578063c87b56dd146102d2578063e985e9c5146102e557600080fd5b80634f6ccce7146102235780636352211e1461023657806370a082311461024957806395d89b411461025c578063a22cb4651461026457600080fd5b806318160ddd116100f457806318160ddd146101cf57806323b872dd146101d75780632f745c59146101ea57806342842e0e146101fd57806342966c681461021057600080fd5b806301ffc9a71461013157806306fdde0314610159578063081812fc1461016e578063095ea7b314610199578063156e29f6146101ae575b600080fd5b61014461013f36600461148d565b6102f8565b60405190151581526020015b60405180910390f35b610161610323565b6040516101509190611502565b61018161017c366004611515565b6103b5565b6040516001600160a01b039091168152602001610150565b6101ac6101a736600461154a565b6103dc565b005b6101c16101bc366004611574565b6104f7565b604051908152602001610150565b600a546101c1565b6101ac6101e53660046115a7565b61058b565b6101c16101f836600461154a565b6105bc565b6101ac61020b3660046115a7565b610652565b6101ac61021e366004611515565b61066d565b6101c1610231366004611515565b6106a3565b610181610244366004611515565b610736565b6101c16102573660046115e3565b61076b565b6101616107f1565b6101ac6102723660046115fe565b610800565b6101ac610285366004611650565b61080f565b61029d610298366004611515565b610847565b6040805182518152602080840151908201529181015190820152606001610150565b6101ac6102cd36600461172c565b6108a4565b6101616102e0366004611515565b6108fb565b6101446102f336600461174e565b61096f565b60006001600160e01b0319821663780e9d6360e01b148061031d575061031d8261099d565b92915050565b60606000805461033290611781565b80601f016020809104026020016040519081016040528092919081815260200182805461035e90611781565b80156103ab5780601f10610380576101008083540402835291602001916103ab565b820191906000526020600020905b81548152906001019060200180831161038e57829003601f168201915b5050505050905090565b60006103c0826109ed565b506000908152600460205260409020546001600160a01b031690565b60006103e782610736565b9050806001600160a01b0316836001600160a01b0316141561045a5760405162461bcd60e51b815260206004820152602160248201527f4552433732313a20617070726f76616c20746f2063757272656e74206f776e656044820152603960f91b60648201526084015b60405180910390fd5b336001600160a01b03821614806104765750610476813361096f565b6104e85760405162461bcd60e51b815260206004820152603d60248201527f4552433732313a20617070726f76652063616c6c6572206973206e6f7420746f60448201527f6b656e206f776e6572206f7220617070726f76656420666f7220616c6c0000006064820152608401610451565b6104f28383610a12565b505050565b600b546000906001600160a01b031633146105245760405162461bcd60e51b8152600401610451906117bc565b600a546105318582610a80565b600a805490600061054183611809565b90915550506040805160608101825285815260208082018681526000838501818152868252600c909352939093209151825591516001820155905160029091015590509392505050565b6105953382610a9a565b6105b15760405162461bcd60e51b815260040161045190611824565b6104f2838383610af9565b60006105c78361076b565b82106106295760405162461bcd60e51b815260206004820152602b60248201527f455243373231456e756d657261626c653a206f776e657220696e646578206f7560448201526a74206f6620626f756e647360a81b6064820152608401610451565b506001600160a01b03919091166000908152600660209081526040808320938352929052205490565b6104f28383836040518060200160405280600081525061080f565b600b546001600160a01b031633146106975760405162461bcd60e51b8152600401610451906117bc565b6106a081610c58565b50565b60006106ae60085490565b82106107115760405162461bcd60e51b815260206004820152602c60248201527f455243373231456e756d657261626c653a20676c6f62616c20696e646578206f60448201526b7574206f6620626f756e647360a01b6064820152608401610451565b6008828154811061072457610724611871565b90600052602060002001549050919050565b6000818152600260205260408120546001600160a01b03168061031d5760405162461bcd60e51b815260040161045190611887565b60006001600160a01b0382166107d55760405162461bcd60e51b815260206004820152602960248201527f4552433732313a2061646472657373207a65726f206973206e6f7420612076616044820152683634b21037bbb732b960b91b6064820152608401610451565b506001600160a01b031660009081526003602052604090205490565b60606001805461033290611781565b61080b338383610ce9565b5050565b6108193383610a9a565b6108355760405162461bcd60e51b815260040161045190611824565b61084184848484610db4565b50505050565b61086b60405180606001604052806000815260200160008152602001600081525090565b506000908152600c6020908152604091829020825160608101845281548152600182015492810192909252600201549181019190915290565b600b546001600160a01b031633146108ce5760405162461bcd60e51b8152600401610451906117bc565b6000828152600c60205260408120600281018054919284926108f19084906118b9565b9091555050505050565b6060610906826109ed565b600061091d60408051602081019091526000815290565b9050600081511161093d5760405180602001604052806000815250610968565b8061094784610de7565b6040516020016109589291906118d1565b6040516020818303038152906040525b9392505050565b6001600160a01b03918216600090815260056020908152604080832093909416825291909152205460ff1690565b60006001600160e01b031982166380ac58cd60e01b14806109ce57506001600160e01b03198216635b5e139f60e01b145b8061031d57506301ffc9a760e01b6001600160e01b031983161461031d565b6109f681610e84565b6106a05760405162461bcd60e51b815260040161045190611887565b600081815260046020526040902080546001600160a01b0319166001600160a01b0384169081179091558190610a4782610736565b6001600160a01b03167f8c5be1e5ebec7d5bd14f71427d1e84f3dd0314c0f7b2291e5b200ac8c7c3b92560405160405180910390a45050565b61080b828260405180602001604052806000815250610ea1565b600080610aa683610736565b9050806001600160a01b0316846001600160a01b03161480610acd5750610acd818561096f565b80610af15750836001600160a01b0316610ae6846103b5565b6001600160a01b0316145b949350505050565b826001600160a01b0316610b0c82610736565b6001600160a01b031614610b325760405162461bcd60e51b815260040161045190611900565b6001600160a01b038216610b945760405162461bcd60e51b8152602060048201526024808201527f4552433732313a207472616e7366657220746f20746865207a65726f206164646044820152637265737360e01b6064820152608401610451565b610ba18383836001610ed4565b826001600160a01b0316610bb482610736565b6001600160a01b031614610bda5760405162461bcd60e51b815260040161045190611900565b600081815260046020908152604080832080546001600160a01b03199081169091556001600160a01b038781168086526003855283862080546000190190559087168086528386208054600101905586865260029094528285208054909216841790915590518493600080516020611a5683398151915291a4505050565b6000610c6382610736565b9050610c73816000846001610ed4565b610c7c82610736565b600083815260046020908152604080832080546001600160a01b03199081169091556001600160a01b038516808552600384528285208054600019019055878552600290935281842080549091169055519293508492600080516020611a56833981519152908390a45050565b816001600160a01b0316836001600160a01b03161415610d475760405162461bcd60e51b815260206004820152601960248201527822a9219b99189d1030b8383937bb32903a379031b0b63632b960391b6044820152606401610451565b6001600160a01b03838116600081815260056020908152604080832094871680845294825291829020805460ff191686151590811790915591519182527f17307eab39ab6107e8899845ad3d59bd9653f200f220920489ca2b5937696c31910160405180910390a3505050565b610dbf848484610af9565b610dcb84848484611008565b6108415760405162461bcd60e51b815260040161045190611945565b60606000610df483611106565b600101905060008167ffffffffffffffff811115610e1457610e1461163a565b6040519080825280601f01601f191660200182016040528015610e3e576020820181803683370190505b5090508181016020015b600019016f181899199a1a9b1b9c1cb0b131b232b360811b600a86061a8153600a8504945084610e7757610e7c565b610e48565b509392505050565b6000908152600260205260409020546001600160a01b0316151590565b610eab83836111de565b610eb86000848484611008565b6104f25760405162461bcd60e51b815260040161045190611945565b6001811115610f435760405162461bcd60e51b815260206004820152603560248201527f455243373231456e756d657261626c653a20636f6e7365637574697665207472604482015274185b9cd9995c9cc81b9bdd081cdd5c1c1bdc9d1959605a1b6064820152608401610451565b816001600160a01b038516610f9f57610f9a81600880546000838152600960205260408120829055600182018355919091527ff3f7a9fe364faab93b216da50a3214154f22a0a2b415b23a84c8169e8b636ee30155565b610fc2565b836001600160a01b0316856001600160a01b031614610fc257610fc285826112e7565b6001600160a01b038416610fde57610fd981611384565b611001565b846001600160a01b0316846001600160a01b031614611001576110018482611433565b5050505050565b60006001600160a01b0384163b156110fb57604051630a85bd0160e11b81526001600160a01b0385169063150b7a029061104c903390899088908890600401611997565b6020604051808303816000875af1925050508015611087575060408051601f3d908101601f19168201909252611084918101906119d4565b60015b6110e1573d8080156110b5576040519150601f19603f3d011682016040523d82523d6000602084013e6110ba565b606091505b5080516110d95760405162461bcd60e51b815260040161045190611945565b805181602001fd5b6001600160e01b031916630a85bd0160e11b149050610af1565b506001949350505050565b60008072184f03e93ff9f4daa797ed6e38ed64bf6a1f0160401b83106111455772184f03e93ff9f4daa797ed6e38ed64bf6a1f0160401b830492506040015b6d04ee2d6d415b85acef81000000008310611171576d04ee2d6d415b85acef8100000000830492506020015b662386f26fc10000831061118f57662386f26fc10000830492506010015b6305f5e10083106111a7576305f5e100830492506008015b61271083106111bb57612710830492506004015b606483106111cd576064830492506002015b600a831061031d5760010192915050565b6001600160a01b0382166112345760405162461bcd60e51b815260206004820181905260248201527f4552433732313a206d696e7420746f20746865207a65726f20616464726573736044820152606401610451565b61123d81610e84565b1561125a5760405162461bcd60e51b8152600401610451906119f1565b611268600083836001610ed4565b61127181610e84565b1561128e5760405162461bcd60e51b8152600401610451906119f1565b6001600160a01b038216600081815260036020908152604080832080546001019055848352600290915280822080546001600160a01b031916841790555183929190600080516020611a56833981519152908290a45050565b600060016112f48461076b565b6112fe9190611a28565b600083815260076020526040902054909150808214611351576001600160a01b03841660009081526006602090815260408083208584528252808320548484528184208190558352600790915290208190555b5060009182526007602090815260408084208490556001600160a01b039094168352600681528383209183525290812055565b60085460009061139690600190611a28565b600083815260096020526040812054600880549394509092849081106113be576113be611871565b9060005260206000200154905080600883815481106113df576113df611871565b600091825260208083209091019290925582815260099091526040808220849055858252812055600880548061141757611417611a3f565b6001900381819060005260206000200160009055905550505050565b600061143e8361076b565b6001600160a01b039093166000908152600660209081526040808320868452825280832085905593825260079052919091209190915550565b6001600160e01b0319811681146106a057600080fd5b60006020828403121561149f57600080fd5b813561096881611477565b60005b838110156114c55781810151838201526020016114ad565b838111156108415750506000910152565b600081518084526114ee8160208601602086016114aa565b601f01601f19169290920160200192915050565b60208152600061096860208301846114d6565b60006020828403121561152757600080fd5b5035919050565b80356001600160a01b038116811461154557600080fd5b919050565b6000806040838503121561155d57600080fd5b6115668361152e565b946020939093013593505050565b60008060006060848603121561158957600080fd5b6115928461152e565b95602085013595506040909401359392505050565b6000806000606084860312156115bc57600080fd5b6115c58461152e565b92506115d36020850161152e565b9150604084013590509250925092565b6000602082840312156115f557600080fd5b6109688261152e565b6000806040838503121561161157600080fd5b61161a8361152e565b91506020830135801515811461162f57600080fd5b809150509250929050565b634e487b7160e01b600052604160045260246000fd5b6000806000806080858703121561166657600080fd5b61166f8561152e565b935061167d6020860161152e565b925060408501359150606085013567ffffffffffffffff808211156116a157600080fd5b818701915087601f8301126116b557600080fd5b8135818111156116c7576116c761163a565b604051601f8201601f19908116603f011681019083821181831017156116ef576116ef61163a565b816040528281528a602084870101111561170857600080fd5b82602086016020830137600060208483010152809550505050505092959194509250565b6000806040838503121561173f57600080fd5b50508035926020909101359150565b6000806040838503121561176157600080fd5b61176a8361152e565b91506117786020840161152e565b90509250929050565b600181811c9082168061179557607f821691505b602082108114156117b657634e487b7160e01b600052602260045260246000fd5b50919050565b6020808252601f908201527f43616c6c6572206973206e6f742074686520506f6f6c20636f6e747261637400604082015260600190565b634e487b7160e01b600052601160045260246000fd5b600060001982141561181d5761181d6117f3565b5060010190565b6020808252602d908201527f4552433732313a2063616c6c6572206973206e6f7420746f6b656e206f776e6560408201526c1c881bdc88185c1c1c9bdd9959609a1b606082015260800190565b634e487b7160e01b600052603260045260246000fd5b602080825260189082015277115490cdcc8c4e881a5b9d985b1a59081d1bdad95b88125160421b604082015260600190565b600082198211156118cc576118cc6117f3565b500190565b600083516118e38184602088016114aa565b8351908301906118f78183602088016114aa565b01949350505050565b60208082526025908201527f4552433732313a207472616e736665722066726f6d20696e636f72726563742060408201526437bbb732b960d91b606082015260800190565b60208082526032908201527f4552433732313a207472616e7366657220746f206e6f6e20455243373231526560408201527131b2b4bb32b91034b6b83632b6b2b73a32b960711b606082015260800190565b6001600160a01b03858116825284166020820152604081018390526080606082018190526000906119ca908301846114d6565b9695505050505050565b6000602082840312156119e657600080fd5b815161096881611477565b6020808252601c908201527f4552433732313a20746f6b656e20616c7265616479206d696e74656400000000604082015260600190565b600082821015611a3a57611a3a6117f3565b500390565b634e487b7160e01b600052603160045260246000fdfeddf252ad1be2c89b69c2b068fc378daa952ba7f163c4a11628f55a4df523b3efa264697066735822122058cf804af6ff830fc26cae8c7cddf938f15f8e40bfdff1a84295cdb96bbd245764736f6c634300080a003360806040526000600a553480156200001657600080fd5b5060405162001cab38038062001cab833981016040819052620000399162000181565b604080518082018252601581527f5661726961626c6520496e746572657374204e46540000000000000000000000602080830191825283518085019094526005845264159253919560da1b9084015281519192916200009b91600091620000db565b508051620000b1906001906020840190620000db565b5050600b80546001600160a01b0319166001600160a01b03939093169290921790915550620001f0565b828054620000e990620001b3565b90600052602060002090601f0160209004810192826200010d576000855562000158565b82601f106200012857805160ff191683800117855562000158565b8280016001018555821562000158579182015b82811115620001585782518255916020019190600101906200013b565b50620001669291506200016a565b5090565b5b808211156200016657600081556001016200016b565b6000602082840312156200019457600080fd5b81516001600160a01b0381168114620001ac57600080fd5b9392505050565b600181811c90821680620001c857607f821691505b60208210811415620001ea57634e487b7160e01b600052602260045260246000fd5b50919050565b611aab80620002006000396000f3fe608060405234801561001057600080fd5b506004361061012c5760003560e01c80634f6ccce7116100ad578063b88d4fde11610071578063b88d4fde14610277578063c13819b61461028a578063c3490263146102bf578063c87b56dd146102d2578063e985e9c5146102e557600080fd5b80634f6ccce7146102235780636352211e1461023657806370a082311461024957806395d89b411461025c578063a22cb4651461026457600080fd5b806318160ddd116100f457806318160ddd146101cf57806323b872dd146101d75780632f745c59146101ea57806342842e0e146101fd57806342966c681461021057600080fd5b806301ffc9a71461013157806306fdde0314610159578063081812fc1461016e578063095ea7b314610199578063156e29f6146101ae575b600080fd5b61014461013f36600461148d565b6102f8565b60405190151581526020015b60405180910390f35b610161610323565b6040516101509190611502565b61018161017c366004611515565b6103b5565b6040516001600160a01b039091168152602001610150565b6101ac6101a736600461154a565b6103dc565b005b6101c16101bc366004611574565b6104f7565b604051908152602001610150565b600a546101c1565b6101ac6101e53660046115a7565b61058b565b6101c16101f836600461154a565b6105bc565b6101ac61020b3660046115a7565b610652565b6101ac61021e366004611515565b61066d565b6101c1610231366004611515565b6106a3565b610181610244366004611515565b610736565b6101c16102573660046115e3565b61076b565b6101616107f1565b6101ac6102723660046115fe565b610800565b6101ac610285366004611650565b61080f565b61029d610298366004611515565b610847565b6040805182518152602080840151908201529181015190820152606001610150565b6101ac6102cd36600461172c565b6108a4565b6101616102e0366004611515565b6108fb565b6101446102f336600461174e565b61096f565b60006001600160e01b0319821663780e9d6360e01b148061031d575061031d8261099d565b92915050565b60606000805461033290611781565b80601f016020809104026020016040519081016040528092919081815260200182805461035e90611781565b80156103ab5780601f10610380576101008083540402835291602001916103ab565b820191906000526020600020905b81548152906001019060200180831161038e57829003601f168201915b5050505050905090565b60006103c0826109ed565b506000908152600460205260409020546001600160a01b031690565b60006103e782610736565b9050806001600160a01b0316836001600160a01b0316141561045a5760405162461bcd60e51b815260206004820152602160248201527f4552433732313a20617070726f76616c20746f2063757272656e74206f776e656044820152603960f91b60648201526084015b60405180910390fd5b336001600160a01b03821614806104765750610476813361096f565b6104e85760405162461bcd60e51b815260206004820152603d60248201527f4552433732313a20617070726f76652063616c6c6572206973206e6f7420746f60448201527f6b656e206f776e6572206f7220617070726f76656420666f7220616c6c0000006064820152608401610451565b6104f28383610a12565b505050565b600b546000906001600160a01b031633146105245760405162461bcd60e51b8152600401610451906117bc565b600a546105318582610a80565b600a805490600061054183611809565b90915550506040805160608101825285815260208082018681526000838501818152868252600c909352939093209151825591516001820155905160029091015590509392505050565b6105953382610a9a565b6105b15760405162461bcd60e51b815260040161045190611824565b6104f2838383610af9565b60006105c78361076b565b82106106295760405162461bcd60e51b815260206004820152602b60248201527f455243373231456e756d657261626c653a206f776e657220696e646578206f7560448201526a74206f6620626f756e647360a81b6064820152608401610451565b506001600160a01b03919091166000908152600660209081526040808320938352929052205490565b6104f28383836040518060200160405280600081525061080f565b600b546001600160a01b031633146106975760405162461bcd60e51b8152600401610451906117bc565b6106a081610c58565b50565b60006106ae60085490565b82106107115760405162461bcd60e51b815260206004820152602c60248201527f455243373231456e756d657261626c653a20676c6f62616c20696e646578206f60448201526b7574206f6620626f756e647360a01b6064820152608401610451565b6008828154811061072457610724611871565b90600052602060002001549050919050565b6000818152600260205260408120546001600160a01b03168061031d5760405162461bcd60e51b815260040161045190611887565b60006001600160a01b0382166107d55760405162461bcd60e51b815260206004820152602960248201527f4552433732313a2061646472657373207a65726f206973206e6f7420612076616044820152683634b21037bbb732b960b91b6064820152608401610451565b506001600160a01b031660009081526003602052604090205490565b60606001805461033290611781565b61080b338383610ce9565b5050565b6108193383610a9a565b6108355760405162461bcd60e51b815260040161045190611824565b61084184848484610db4565b50505050565b61086b60405180606001604052806000815260200160008152602001600081525090565b506000908152600c6020908152604091829020825160608101845281548152600182015492810192909252600201549181019190915290565b600b546001600160a01b031633146108ce5760405162461bcd60e51b8152600401610451906117bc565b6000828152600c60205260408120600281018054919284926108f19084906118b9565b9091555050505050565b6060610906826109ed565b600061091d60408051602081019091526000815290565b9050600081511161093d5760405180602001604052806000815250610968565b8061094784610de7565b6040516020016109589291906118d1565b6040516020818303038152906040525b9392505050565b6001600160a01b03918216600090815260056020908152604080832093909416825291909152205460ff1690565b60006001600160e01b031982166380ac58cd60e01b14806109ce57506001600160e01b03198216635b5e139f60e01b145b8061031d57506301ffc9a760e01b6001600160e01b031983161461031d565b6109f681610e84565b6106a05760405162461bcd60e51b815260040161045190611887565b600081815260046020526040902080546001600160a01b0319166001600160a01b0384169081179091558190610a4782610736565b6001600160a01b03167f8c5be1e5ebec7d5bd14f71427d1e84f3dd0314c0f7b2291e5b200ac8c7c3b92560405160405180910390a45050565b61080b828260405180602001604052806000815250610ea1565b600080610aa683610736565b9050806001600160a01b0316846001600160a01b03161480610acd5750610acd818561096f565b80610af15750836001600160a01b0316610ae6846103b5565b6001600160a01b0316145b949350505050565b826001600160a01b0316610b0c82610736565b6001600160a01b031614610b325760405162461bcd60e51b815260040161045190611900565b6001600160a01b038216610b945760405162461bcd60e51b8152602060048201526024808201527f4552433732313a207472616e7366657220746f20746865207a65726f206164646044820152637265737360e01b6064820152608401610451565b610ba18383836001610ed4565b826001600160a01b0316610bb482610736565b6001600160a01b031614610bda5760405162461bcd60e51b815260040161045190611900565b600081815260046020908152604080832080546001600160a01b03199081169091556001600160a01b038781168086526003855283862080546000190190559087168086528386208054600101905586865260029094528285208054909216841790915590518493600080516020611a5683398151915291a4505050565b6000610c6382610736565b9050610c73816000846001610ed4565b610c7c82610736565b600083815260046020908152604080832080546001600160a01b03199081169091556001600160a01b038516808552600384528285208054600019019055878552600290935281842080549091169055519293508492600080516020611a56833981519152908390a45050565b816001600160a01b0316836001600160a01b03161415610d475760405162461bcd60e51b815260206004820152601960248201527822a9219b99189d1030b8383937bb32903a379031b0b63632b960391b6044820152606401610451565b6001600160a01b03838116600081815260056020908152604080832094871680845294825291829020805460ff191686151590811790915591519182527f17307eab39ab6107e8899845ad3d59bd9653f200f220920489ca2b5937696c31910160405180910390a3505050565b610dbf848484610af9565b610dcb84848484611008565b6108415760405162461bcd60e51b815260040161045190611945565b60606000610df483611106565b600101905060008167ffffffffffffffff811115610e1457610e1461163a565b6040519080825280601f01601f191660200182016040528015610e3e576020820181803683370190505b5090508181016020015b600019016f181899199a1a9b1b9c1cb0b131b232b360811b600a86061a8153600a8504945084610e7757610e7c565b610e48565b509392505050565b6000908152600260205260409020546001600160a01b0316151590565b610eab83836111de565b610eb86000848484611008565b6104f25760405162461bcd60e51b815260040161045190611945565b6001811115610f435760405162461bcd60e51b815260206004820152603560248201527f455243373231456e756d657261626c653a20636f6e7365637574697665207472604482015274185b9cd9995c9cc81b9bdd081cdd5c1c1bdc9d1959605a1b6064820152608401610451565b816001600160a01b038516610f9f57610f9a81600880546000838152600960205260408120829055600182018355919091527ff3f7a9fe364faab93b216da50a3214154f22a0a2b415b23a84c8169e8b636ee30155565b610fc2565b836001600160a01b0316856001600160a01b031614610fc257610fc285826112e7565b6001600160a01b038416610fde57610fd981611384565b611001565b846001600160a01b0316846001600160a01b031614611001576110018482611433565b5050505050565b60006001600160a01b0384163b156110fb57604051630a85bd0160e11b81526001600160a01b0385169063150b7a029061104c903390899088908890600401611997565b6020604051808303816000875af1925050508015611087575060408051601f3d908101601f19168201909252611084918101906119d4565b60015b6110e1573d8080156110b5576040519150601f19603f3d011682016040523d82523d6000602084013e6110ba565b606091505b5080516110d95760405162461bcd60e51b815260040161045190611945565b805181602001fd5b6001600160e01b031916630a85bd0160e11b149050610af1565b506001949350505050565b60008072184f03e93ff9f4daa797ed6e38ed64bf6a1f0160401b83106111455772184f03e93ff9f4daa797ed6e38ed64bf6a1f0160401b830492506040015b6d04ee2d6d415b85acef81000000008310611171576d04ee2d6d415b85acef8100000000830492506020015b662386f26fc10000831061118f57662386f26fc10000830492506010015b6305f5e10083106111a7576305f5e100830492506008015b61271083106111bb57612710830492506004015b606483106111cd576064830492506002015b600a831061031d5760010192915050565b6001600160a01b0382166112345760405162461bcd60e51b815260206004820181905260248201527f4552433732313a206d696e7420746f20746865207a65726f20616464726573736044820152606401610451565b61123d81610e84565b1561125a5760405162461bcd60e51b8152600401610451906119f1565b611268600083836001610ed4565b61127181610e84565b1561128e5760405162461bcd60e51b8152600401610451906119f1565b6001600160a01b038216600081815260036020908152604080832080546001019055848352600290915280822080546001600160a01b031916841790555183929190600080516020611a56833981519152908290a45050565b600060016112f48461076b565b6112fe9190611a28565b600083815260076020526040902054909150808214611351576001600160a01b03841660009081526006602090815260408083208584528252808320548484528184208190558352600790915290208190555b5060009182526007602090815260408084208490556001600160a01b039094168352600681528383209183525290812055565b60085460009061139690600190611a28565b600083815260096020526040812054600880549394509092849081106113be576113be611871565b9060005260206000200154905080600883815481106113df576113df611871565b600091825260208083209091019290925582815260099091526040808220849055858252812055600880548061141757611417611a3f565b6001900381819060005260206000200160009055905550505050565b600061143e8361076b565b6001600160a01b039093166000908152600660209081526040808320868452825280832085905593825260079052919091209190915550565b6001600160e01b0319811681146106a057600080fd5b60006020828403121561149f57600080fd5b813561096881611477565b60005b838110156114c55781810151838201526020016114ad565b838111156108415750506000910152565b600081518084526114ee8160208601602086016114aa565b601f01601f19169290920160200192915050565b60208152600061096860208301846114d6565b60006020828403121561152757600080fd5b5035919050565b80356001600160a01b038116811461154557600080fd5b919050565b6000806040838503121561155d57600080fd5b6115668361152e565b946020939093013593505050565b60008060006060848603121561158957600080fd5b6115928461152e565b95602085013595506040909401359392505050565b6000806000606084860312156115bc57600080fd5b6115c58461152e565b92506115d36020850161152e565b9150604084013590509250925092565b6000602082840312156115f557600080fd5b6109688261152e565b6000806040838503121561161157600080fd5b61161a8361152e565b91506020830135801515811461162f57600080fd5b809150509250929050565b634e487b7160e01b600052604160045260246000fd5b6000806000806080858703121561166657600080fd5b61166f8561152e565b935061167d6020860161152e565b925060408501359150606085013567ffffffffffffffff808211156116a157600080fd5b818701915087601f8301126116b557600080fd5b8135818111156116c7576116c761163a565b604051601f8201601f19908116603f011681019083821181831017156116ef576116ef61163a565b816040528281528a602084870101111561170857600080fd5b82602086016020830137600060208483010152809550505050505092959194509250565b6000806040838503121561173f57600080fd5b50508035926020909101359150565b6000806040838503121561176157600080fd5b61176a8361152e565b91506117786020840161152e565b90509250929050565b600181811c9082168061179557607f821691505b602082108114156117b657634e487b7160e01b600052602260045260246000fd5b50919050565b6020808252601f908201527f43616c6c6572206973206e6f742074686520506f6f6c20636f6e747261637400604082015260600190565b634e487b7160e01b600052601160045260246000fd5b600060001982141561181d5761181d6117f3565b5060010190565b6020808252602d908201527f4552433732313a2063616c6c6572206973206e6f7420746f6b656e206f776e6560408201526c1c881bdc88185c1c1c9bdd9959609a1b606082015260800190565b634e487b7160e01b600052603260045260246000fd5b602080825260189082015277115490cdcc8c4e881a5b9d985b1a59081d1bdad95b88125160421b604082015260600190565b600082198211156118cc576118cc6117f3565b500190565b600083516118e38184602088016114aa565b8351908301906118f78183602088016114aa565b01949350505050565b60208082526025908201527f4552433732313a207472616e736665722066726f6d20696e636f72726563742060408201526437bbb732b960d91b606082015260800190565b60208082526032908201527f4552433732313a207472616e7366657220746f206e6f6e20455243373231526560408201527131b2b4bb32b91034b6b83632b6b2b73a32b960711b606082015260800190565b6001600160a01b03858116825284166020820152604081018390526080606082018190526000906119ca908301846114d6565b9695505050505050565b6000602082840312156119e657600080fd5b815161096881611477565b6020808252601c908201527f4552433732313a20746f6b656e20616c7265616479206d696e74656400000000604082015260600190565b600082821015611a3a57611a3a6117f3565b500390565b634e487b7160e01b600052603160045260246000fdfeddf252ad1be2c89b69c2b068fc378daa952ba7f163c4a11628f55a4df523b3efa26469706673582212201991190cd417049bafed7d45b6e8a26d31497481fed081660d982e9bfb92349c64736f6c634300080a0033",
  "linkReferences": {},
  "deployedLinkReferences": {}
}