{
  "_format": "hh-sol-artifact-1",
  "contractName": "PoolLogic",
  "sourceName": "contracts/PoolLogic.sol",
  "abi": [
    {
      "inputs": [
        {
          "internalType": "uint256",
          "name": "amount",
          "type": "uint256"
        },
        {
          "internalType": "uint256",
          "name": "interestRateAmount",
          "type": "uint256"
        },
        {
          "internalType": "uint256",
          "name": "time",
          "type": "uint256"
        }
      ],
      "name": "calculateInterest",
      "outputs": [
        {
          "internalType": "uint256",
          "name": "",
          "type": "uint256"
        }
      ],
      "stateMutability": "pure",
      "type": "function"
    },
    {
      "inputs": [
        {
          "components": [
            {
              "internalType": "uint256",
              "name": "amount",
              "type": "uint256"
            },
            {
              "internalType": "uint256",
              "name": "depositTime",
              "type": "uint256"
            },
            {
              "internalType": "uint256",
              "name": "claim",
              "type": "uint256"
            }
          ],
          "internalType": "struct FixedNFT.DepositData",
          "name": "depositData",
          "type": "tuple"
        },
        {
          "internalType": "uint256",
          "name": "interestRate",
          "type": "uint256"
        },
        {
          "components": [
            {
              "internalType": "uint256",
              "name": "poolStartTime",
              "type": "uint256"
            },
            {
              "internalType": "uint256",
              "name": "blocktime",
              "type": "uint256"
            },
            {
              "internalType": "uint256",
              "name": "lockDuration",
              "type": "uint256"
            },
            {
              "internalType": "bool",
              "name": "poolStopped",
              "type": "bool"
            }
          ],
          "internalType": "struct PoolLogic.Times",
          "name": "times",
          "type": "tuple"
        },
        {
          "internalType": "uint256",
          "name": "prevMaxSupply",
          "type": "uint256"
        },
        {
          "internalType": "uint256",
          "name": "totalDepositedFixed",
          "type": "uint256"
        },
        {
          "internalType": "uint256",
          "name": "totalClaimedFixedPrev",
          "type": "uint256"
        },
        {
          "internalType": "uint256",
          "name": "totalSupply",
          "type": "uint256"
        }
      ],
      "name": "calculateInterestFixedParts",
      "outputs": [
        {
          "internalType": "uint256",
          "name": "",
          "type": "uint256"
        },
        {
          "internalType": "uint256",
          "name": "",
          "type": "uint256"
        }
      ],
      "stateMutability": "pure",
      "type": "function"
    },
    {
      "inputs": [
        {
          "components": [
            {
              "internalType": "uint256",
              "name": "amount",
              "type": "uint256"
            },
            {
              "internalType": "uint256",
              "name": "depositTime",
              "type": "uint256"
            },
            {
              "internalType": "uint256",
              "name": "claim",
              "type": "uint256"
            }
          ],
          "internalType": "struct VariableNFT.DepositData",
          "name": "depositData",
          "type": "tuple"
        },
        {
          "components": [
            {
              "internalType": "uint256",
              "name": "poolStartTime",
              "type": "uint256"
            },
            {
              "internalType": "uint256",
              "name": "blocktime",
              "type": "uint256"
            },
            {
              "internalType": "uint256",
              "name": "lockDuration",
              "type": "uint256"
            },
            {
              "internalType": "bool",
              "name": "poolStopped",
              "type": "bool"
            }
          ],
          "internalType": "struct PoolLogic.Times",
          "name": "times",
          "type": "tuple"
        },
        {
          "internalType": "uint256",
          "name": "prevMaxSupply",
          "type": "uint256"
        },
        {
          "internalType": "uint256",
          "name": "totalDepositedVariable",
          "type": "uint256"
        },
        {
          "internalType": "uint256",
          "name": "totalClaimedVariable",
          "type": "uint256"
        },
        {
          "internalType": "uint256",
          "name": "totalSupply",
          "type": "uint256"
        },
        {
          "internalType": "uint256",
          "name": "variablePoolLimit",
          "type": "uint256"
        },
        {
          "internalType": "uint256",
          "name": "totalClaimedFixedPrev",
          "type": "uint256"
        }
      ],
      "name": "calculateInterestVariable",
      "outputs": [
        {
          "internalType": "uint256",
          "name": "",
          "type": "uint256"
        }
      ],
      "stateMutability": "pure",
      "type": "function"
    },
    {
      "inputs": [
        {
          "internalType": "uint256",
          "name": "_interestRate",
          "type": "uint256"
        },
        {
          "internalType": "uint256",
          "name": "_poolStartTime",
          "type": "uint256"
        },
        {
          "internalType": "uint256",
          "name": "_variablePoolLimit",
          "type": "uint256"
        },
        {
          "internalType": "uint256",
          "name": "_lockDuration",
          "type": "uint256"
        },
        {
          "internalType": "uint256",
          "name": "_totalClaimedVariable",
          "type": "uint256"
        },
        {
          "internalType": "uint256",
          "name": "_totalClaimedFixedPrev",
          "type": "uint256"
        },
        {
          "internalType": "uint256",
          "name": "_prevMaxSupply",
          "type": "uint256"
        },
        {
          "internalType": "uint256",
          "name": "_totalSupply",
          "type": "uint256"
        },
        {
          "internalType": "uint256",
          "name": "_blocktime",
          "type": "uint256"
        }
      ],
      "name": "interests",
      "outputs": [
        {
          "internalType": "int256",
          "name": "",
          "type": "int256"
        },
        {
          "internalType": "int256",
          "name": "",
          "type": "int256"
        }
      ],
      "stateMutability": "pure",
      "type": "function"
    },
    {
      "inputs": [
        {
          "internalType": "uint256",
          "name": "poolStartTime",
          "type": "uint256"
        },
        {
          "internalType": "uint256",
          "name": "blocktime",
          "type": "uint256"
        },
        {
          "internalType": "uint256",
          "name": "lockDuration",
          "type": "uint256"
        }
      ],
      "name": "timeSinceStart",
      "outputs": [
        {
          "internalType": "uint256",
          "name": "",
          "type": "uint256"
        }
      ],
      "stateMutability": "pure",
      "type": "function"
    }
  ],
  "bytecode": "0x608060405234801561001057600080fd5b50610858806100206000396000f3fe608060405234801561001057600080fd5b50600436106100575760003560e01c806305e1bd8c1461005c57806311b02f8a146100825780634fea9afd146100aa578063c1ffff20146100bd578063dcc166be146100d0575b600080fd5b61006f61006a366004610454565b6100e3565b6040519081526020015b60405180910390f35b61009561009036600461056d565b610126565b60408051928352602083019190915201610079565b61006f6100b8366004610454565b61027c565b6100956100cb3660046105d5565b6102b4565b61006f6100de366004610634565b610394565b600063bbf81e00670de0b6b3a7640000836100fe86886106b8565b61010891906106b8565b61011291906106ed565b61011c91906106ed565b90505b9392505050565b60008060008960200151886020015161013f9190610701565b8851909150610159576101528585610718565b965061016d565b60208a0151885161016a9190610701565b90505b600061017e8b600001518b846100e3565b90508860600151156101a3578a516101969082610718565b6000935093505050610270565b6101ad888861042f565b8111156101b8575060005b8851600090156102245760006101db8b600001518c602001518d6040015161027c565b90506101ec8d600001518d836100e3565b6101f69083610718565b60408c01518c5191935061020991610718565b8b6020015110610222578c5161021f9084610718565b92505b505b818c604001511115610256576000610240828e6040015161042f565b61024a9084610718565b94509450505050610270565b610264828d6040015161042f565b94509250610270915050565b97509795505050505050565b60008361028b5750600061011f565b6102958285610718565b8310156102ad576102a6838561042f565b905061011f565b508061011f565b6000808a8a158015906102d257506102cf8b62015180610718565b84115b156103805760006102f7886102e78b89610718565b6102f19190610718565b8861042f565b905060006103068d878d61027c565b905060006103148c836106ed565b61031e908e6106b8565b9050600061032c8285610730565b905082158061033957508d155b1561034f578f6000965096505050505050610386565b6103598e846106b8565b61036f826b0104dc13db1286a62c00000061076f565b61037991906107f4565b9450505050505b8b925090505b995099975050505050505050565b60008760600151156103a857508751610423565b87511561041f5760006103cf836103bf8888610718565b6103c99190610718565b8961042f565b9050600084828c600001516103e491906106b8565b6103ee91906106ed565b90506000610400828d6040015161042f565b90508681111561041557869350505050610423565b9250610423915050565b5060005b98975050505050505050565b60008183111561044a576104438284610701565b905061044e565b5060005b92915050565b60008060006060848603121561046957600080fd5b505081359360208301359350604090920135919050565b60006060828403121561049257600080fd5b6040516060810181811067ffffffffffffffff821117156104c357634e487b7160e01b600052604160045260246000fd5b80604052508091508235815260208301356020820152604083013560408201525092915050565b6000608082840312156104fc57600080fd5b6040516080810181811067ffffffffffffffff8211171561052d57634e487b7160e01b600052604160045260246000fd5b80604052508091508235815260208301356020820152604083013560408201526060830135801515811461056057600080fd5b6060919091015292915050565b6000806000806000806000610180888a03121561058957600080fd5b6105938989610480565b9650606088013595506105a98960808a016104ea565b969995985095966101008101359650610120810135956101408201359550610160909101359350915050565b60008060008060008060008060006101208a8c0312156105f457600080fd5b505087359960208901359950604089013598606081013598506080810135975060a0810135965060c0810135955060e08101359450610100013592509050565b6000806000806000806000806101a0898b03121561065157600080fd5b61065b8a8a610480565b975061066a8a60608b016104ea565b979a97995050505060e08601359561010081013595610120820135955061014082013594506101608201359350610180909101359150565b634e487b7160e01b600052601160045260246000fd5b60008160001904831182151516156106d2576106d26106a2565b500290565b634e487b7160e01b600052601260045260246000fd5b6000826106fc576106fc6106d7565b500490565b600082821015610713576107136106a2565b500390565b6000821982111561072b5761072b6106a2565b500190565b60008083128015600160ff1b85018412161561074e5761074e6106a2565b6001600160ff1b0384018313811615610769576107696106a2565b50500390565b60006001600160ff1b0381841382841380821686840486111615610795576107956106a2565b600160ff1b60008712828116878305891216156107b4576107b46106a2565b600087129250878205871284841616156107d0576107d06106a2565b878505871281841616156107e6576107e66106a2565b505050929093029392505050565b600082610803576108036106d7565b600160ff1b82146000198414161561081d5761081d6106a2565b50059056fea26469706673582212209f9c6bb02ce14b7e08b8514c8b9e6738ad72caac07ec656d7630f634d6b2646a64736f6c634300080a0033",
  "linkReferences": {},
  "deployedLinkReferences": {}
}