{
  "_format": "hh-sol-artifact-1",
  "contractName": "Pool",
  "sourceName": "contracts/Pool.sol",
  "abi": [
    {
      "inputs": [
        {
          "internalType": "contract Token",
          "name": "_token",
          "type": "address"
        },
        {
          "internalType": "uint256",
          "name": "_fixedPoolLimit",
          "type": "uint256"
        },
        {
          "internalType": "uint256",
          "name": "_lockDuration",
          "type": "uint256"
        },
        {
          "internalType": "uint256",
          "name": "_interestRate",
          "type": "uint256"
        },
        {
          "internalType": "uint256[]",
          "name": "_dailyInterestRates",
          "type": "uint256[]"
        }
      ],
      "stateMutability": "nonpayable",
      "type": "constructor"
    },
    {
      "anonymous": false,
      "inputs": [
        {
          "indexed": true,
          "internalType": "address",
          "name": "previousOwner",
          "type": "address"
        },
        {
          "indexed": true,
          "internalType": "address",
          "name": "newOwner",
          "type": "address"
        }
      ],
      "name": "OwnershipTransferred",
      "type": "event"
    },
    {
      "inputs": [
        {
          "internalType": "uint256",
          "name": "amount",
          "type": "uint256"
        },
        {
          "internalType": "uint256",
          "name": "interestRateAmount",
          "type": "uint256"
        },
        {
          "internalType": "uint256",
          "name": "time",
          "type": "uint256"
        }
      ],
      "name": "calculateInterest",
      "outputs": [
        {
          "internalType": "uint256",
          "name": "",
          "type": "uint256"
        }
      ],
      "stateMutability": "pure",
      "type": "function"
    },
    {
      "inputs": [
        {
          "internalType": "uint256",
          "name": "",
          "type": "uint256"
        }
      ],
      "name": "dailyInterestRates",
      "outputs": [
        {
          "internalType": "uint256",
          "name": "",
          "type": "uint256"
        }
      ],
      "stateMutability": "view",
      "type": "function"
    },
    {
      "inputs": [
        {
          "internalType": "uint256",
          "name": "amount",
          "type": "uint256"
        }
      ],
      "name": "depositFixed",
      "outputs": [],
      "stateMutability": "nonpayable",
      "type": "function"
    },
    {
      "inputs": [
        {
          "internalType": "uint256",
          "name": "amount",
          "type": "uint256"
        }
      ],
      "name": "depositVariable",
      "outputs": [],
      "stateMutability": "nonpayable",
      "type": "function"
    },
    {
      "inputs": [
        {
          "internalType": "uint256",
          "name": "numSeconds",
          "type": "uint256"
        }
      ],
      "name": "fastForward",
      "outputs": [],
      "stateMutability": "nonpayable",
      "type": "function"
    },
    {
      "inputs": [],
      "name": "fixedNFT",
      "outputs": [
        {
          "internalType": "contract FixedNFT",
          "name": "",
          "type": "address"
        }
      ],
      "stateMutability": "view",
      "type": "function"
    },
    {
      "inputs": [],
      "name": "fixedPoolLimit",
      "outputs": [
        {
          "internalType": "uint256",
          "name": "",
          "type": "uint256"
        }
      ],
      "stateMutability": "view",
      "type": "function"
    },
    {
      "inputs": [],
      "name": "getIsLocked",
      "outputs": [
        {
          "internalType": "bool",
          "name": "",
          "type": "bool"
        }
      ],
      "stateMutability": "view",
      "type": "function"
    },
    {
      "inputs": [],
      "name": "getTotalSupply",
      "outputs": [
        {
          "internalType": "uint256",
          "name": "",
          "type": "uint256"
        }
      ],
      "stateMutability": "view",
      "type": "function"
    },
    {
      "inputs": [],
      "name": "interestRate",
      "outputs": [
        {
          "internalType": "uint256",
          "name": "",
          "type": "uint256"
        }
      ],
      "stateMutability": "view",
      "type": "function"
    },
    {
      "inputs": [],
      "name": "interests",
      "outputs": [
        {
          "internalType": "int256",
          "name": "",
          "type": "int256"
        },
        {
          "internalType": "int256",
          "name": "",
          "type": "int256"
        }
      ],
      "stateMutability": "view",
      "type": "function"
    },
    {
      "inputs": [],
      "name": "lockDuration",
      "outputs": [
        {
          "internalType": "uint256",
          "name": "",
          "type": "uint256"
        }
      ],
      "stateMutability": "view",
      "type": "function"
    },
    {
      "inputs": [],
      "name": "owner",
      "outputs": [
        {
          "internalType": "address",
          "name": "",
          "type": "address"
        }
      ],
      "stateMutability": "view",
      "type": "function"
    },
    {
      "inputs": [],
      "name": "poolStartTime",
      "outputs": [
        {
          "internalType": "uint256",
          "name": "",
          "type": "uint256"
        }
      ],
      "stateMutability": "view",
      "type": "function"
    },
    {
      "inputs": [],
      "name": "renounceOwnership",
      "outputs": [],
      "stateMutability": "nonpayable",
      "type": "function"
    },
    {
      "inputs": [],
      "name": "timeSinceStart",
      "outputs": [
        {
          "internalType": "uint256",
          "name": "",
          "type": "uint256"
        }
      ],
      "stateMutability": "view",
      "type": "function"
    },
    {
      "inputs": [],
      "name": "token",
      "outputs": [
        {
          "internalType": "contract Token",
          "name": "",
          "type": "address"
        }
      ],
      "stateMutability": "view",
      "type": "function"
    },
    {
      "inputs": [],
      "name": "totalDepositedFixed",
      "outputs": [
        {
          "internalType": "uint256",
          "name": "",
          "type": "uint256"
        }
      ],
      "stateMutability": "view",
      "type": "function"
    },
    {
      "inputs": [],
      "name": "totalDepositedVariable",
      "outputs": [
        {
          "internalType": "uint256",
          "name": "",
          "type": "uint256"
        }
      ],
      "stateMutability": "view",
      "type": "function"
    },
    {
      "inputs": [
        {
          "internalType": "address",
          "name": "newOwner",
          "type": "address"
        }
      ],
      "name": "transferOwnership",
      "outputs": [],
      "stateMutability": "nonpayable",
      "type": "function"
    },
    {
      "inputs": [],
      "name": "variableNFT",
      "outputs": [
        {
          "internalType": "contract VariableNFT",
          "name": "",
          "type": "address"
        }
      ],
      "stateMutability": "view",
      "type": "function"
    },
    {
      "inputs": [],
      "name": "variablePoolLimit",
      "outputs": [
        {
          "internalType": "uint256",
          "name": "",
          "type": "uint256"
        }
      ],
      "stateMutability": "view",
      "type": "function"
    },
    {
      "inputs": [
        {
          "internalType": "uint256",
          "name": "tokenId",
          "type": "uint256"
        }
      ],
      "name": "withdrawFixed",
      "outputs": [],
      "stateMutability": "nonpayable",
      "type": "function"
    },
    {
      "inputs": [
        {
          "internalType": "uint256",
          "name": "tokenId",
          "type": "uint256"
        }
      ],
      "name": "withdrawVariable",
      "outputs": [],
      "stateMutability": "nonpayable",
      "type": "function"
    }
  ],
  "bytecode": "0x60806040523480156200001157600080fd5b5060405162004f8c38038062004f8c833981016040819052620000349162000288565b6200003f3362000156565b600180546001600160a01b0319166001600160a01b03871617905560048490556006839055600782905562000076848385620001a6565b60055580516200008e90600b906020840190620001ef565b50306040516200009e906200023f565b6001600160a01b039091168152602001604051809103906000f080158015620000cb573d6000803e3d6000fd5b50600280546001600160a01b0319166001600160a01b03929092169190911790556040513090620000fc906200024d565b6001600160a01b039091168152602001604051809103906000f08015801562000129573d6000803e3d6000fd5b50600380546001600160a01b0319166001600160a01b039290921691909117905550620003e49350505050565b600080546001600160a01b038381166001600160a01b0319831681178455604051919092169283917f8be0079c531659141344cd1fd0a4f28419497f9722a3daafe3b4186f6b6457e09190a35050565b600063bbf81e00670de0b6b3a764000083620001c3868862000393565b620001cf919062000393565b620001db9190620003c1565b620001e79190620003c1565b949350505050565b8280548282559060005260206000209081019282156200022d579160200282015b828111156200022d57825182559160200191906001019062000210565b506200023b9291506200025b565b5090565b611c7080620016a183390190565b611c7b806200331183390190565b5b808211156200023b57600081556001016200025c565b634e487b7160e01b600052604160045260246000fd5b600080600080600060a08688031215620002a157600080fd5b85516001600160a01b0381168114620002b957600080fd5b602087810151604089015160608a015160808b015194995091975095509350906001600160401b0380821115620002ef57600080fd5b818901915089601f8301126200030457600080fd5b81518181111562000319576200031962000272565b8060051b604051601f19603f8301168101818110858211171562000341576200034162000272565b60405291825284820192508381018501918c8311156200036057600080fd5b938501935b82851015620003805784518452938501939285019262000365565b8096505050505050509295509295909350565b6000816000190483118215151615620003bc57634e487b7160e01b600052601160045260246000fd5b500290565b600082620003df57634e487b7160e01b600052601260045260246000fd5b500490565b6112ad80620003f46000396000f3fe608060405234801561001057600080fd5b50600436106101585760003560e01c806367fc6dea116100c3578063dd4f20591161007c578063dd4f205914610297578063e4f11247146102aa578063ea1ba556146102b3578063f2fde38b146102bc578063fc0c546a146102cf578063fccbe7f6146102e257600080fd5b806367fc6dea14610252578063715018a61461025a5780637c3a00fd14610262578063857a5c321461026b5780638da5cb5b1461027e578063c4e41b221461028f57600080fd5b806329796ae51161011557806329796ae5146101ce5780632cc79b6a146101e35780632f47bf621461020e57806338a9a68614610221578063583b1896146102345780635f96dc111461024957600080fd5b806304144ec71461015d578063045544431461017957806305e1bd8c1461018257806314a3db2d14610195578063178ec0c4146101b25780631a2c9fff146101c5575b600080fd5b61016660045481565b6040519081526020015b60405180910390f35b61016660065481565b610166610190366004610f21565b6102f5565b61019d610336565b60408051928352602083019190915201610170565b6101666101c0366004610f4d565b6103f6565b61016660055481565b6101e16101dc366004610f4d565b610417565b005b6003546101f6906001600160a01b031681565b6040516001600160a01b039091168152602001610170565b6101e161021c366004610f4d565b610734565b6101e161022f366004610f4d565b6108d4565b600a5442116040519015158152602001610170565b610166600a5481565b610166610b39565b6101e1610b7c565b61016660075481565b6002546101f6906001600160a01b031681565b6000546001600160a01b03166101f6565b610166610b90565b6101e16102a5366004610f4d565b610c7c565b61016660085481565b61016660095481565b6101e16102ca366004610f7b565b610ddc565b6001546101f6906001600160a01b031681565b6101e16102f0366004610f4d565b610e55565b600063bbf81e00670de0b6b3a7640000836103108688610fb5565b61031a9190610fb5565b6103249190610fea565b61032e9190610fea565b949350505050565b600754600a5460009182911580159061035d5750600a5461035a9062015180610ffe565b42115b156103eb57600061036c610b90565b90506000610378610b39565b905060006006548260055461038d9190610fb5565b6103979190610fea565b9050600081600454856103aa9190611016565b6103b49190611016565b9050600554836103c49190610fb5565b6103da826b0104dc13db1286a62c000000611055565b6103e491906110da565b9450505050505b600754939092509050565b600b818154811061040657600080fd5b600091825260209091200154905081565b6000600a54116104645760405162461bcd60e51b8152602060048201526013602482015272141bdbdb081b9bdd081b1bd8dad959081e595d606a1b60448201526064015b60405180910390fd5b600654600a546104749190610ffe565b4210156104bd5760405162461bcd60e51b8152602060048201526017602482015276151bdad95b9cc8185c99481cdd1a5b1b081b1bd8dad959604a1b604482015260640161045b565b60035460405163609c0cdb60e11b8152600481018390526000916001600160a01b03169063c13819b6906024016040805180830381865afa158015610506573d6000803e3d6000fd5b505050506040513d601f19601f8201168201806040525081019061052a9190611165565b6003546040516331a9108f60e11b81526004810185905291925033916001600160a01b0390911690636352211e90602401602060405180830381865afa158015610578573d6000803e3d6000fd5b505050506040513d601f19601f8201168201806040525081019061059c9190611181565b6001600160a01b0316146105c25760405162461bcd60e51b815260040161045b9061119e565b600354604051630852cd8d60e31b8152600481018490526001600160a01b03909116906342966c6890602401600060405180830381600087803b15801561060857600080fd5b505af115801561061c573d6000803e3d6000fd5b50505050600060045461062d610b90565b61063791906111e0565b9050600060055482846000015161064e9190610fb5565b6106589190610fea565b60015460405163a6fc996f60e01b8152600481018390529192506001600160a01b03169063a6fc996f90602401600060405180830381600087803b15801561069f57600080fd5b505af11580156106b3573d6000803e3d6000fd5b505060015460405163a9059cbb60e01b8152336004820152602481018590526001600160a01b03909116925063a9059cbb91506044015b6020604051808303816000875af1158015610709573d6000803e3d6000fd5b505050506040513d601f19601f8201168201806040525081019061072d91906111f7565b5050505050565b600554816009546107459190610ffe565b11156107935760405162461bcd60e51b815260206004820152601b60248201527f5661726961626c6520706f6f6c206c696d697420726561636865640000000000604482015260640161045b565b6001546040516323b872dd60e01b8152336004820152306024820152604481018390526001600160a01b03909116906323b872dd906064016020604051808303816000875af11580156107ea573d6000803e3d6000fd5b505050506040513d601f19601f8201168201806040525081019061080e91906111f7565b50600354604051630ab714fb60e11b8152336004820152602481018390524260448201526000916001600160a01b03169063156e29f6906064016020604051808303816000875af1158015610867573d6000803e3d6000fd5b505050506040513d601f19601f8201168201806040525081019061088b9190611219565b9050816009600082825461089f9190610ffe565b90915550506005546009541480156108ba5750600454600854145b80156108c65750600a54155b156108d05742600a555b5050565b6000600a541161091c5760405162461bcd60e51b8152602060048201526013602482015272141bdbdb081b9bdd081b1bd8dad959081e595d606a1b604482015260640161045b565b600654600a5461092c9190610ffe565b4210156109755760405162461bcd60e51b8152602060048201526017602482015276151bdad95b9cc8185c99481cdd1a5b1b081b1bd8dad959604a1b604482015260640161045b565b60025460405163609c0cdb60e11b8152600481018390526000916001600160a01b03169063c13819b6906024016040805180830381865afa1580156109be573d6000803e3d6000fd5b505050506040513d601f19601f820116820180604052508101906109e29190611165565b6002546040516331a9108f60e11b81526004810185905291925033916001600160a01b0390911690636352211e90602401602060405180830381865afa158015610a30573d6000803e3d6000fd5b505050506040513d601f19601f82011682018060405250810190610a549190611181565b6001600160a01b031614610a7a5760405162461bcd60e51b815260040161045b9061119e565b600254604051630852cd8d60e31b8152600481018490526001600160a01b03909116906342966c6890602401600060405180830381600087803b158015610ac057600080fd5b505af1158015610ad4573d6000803e3d6000fd5b505050506000610aed82600001516007546006546102f5565b90506000818360000151610b019190610ffe565b60015460405163a9059cbb60e01b8152336004820152602481018390529192506001600160a01b03169063a9059cbb906044016106ea565b6000600a5460001415610b4c5750600090565b600654600a54610b5c9190610ffe565b421015610b7557600a54610b7090426111e0565b905090565b5060065490565b610b84610e77565b610b8e6000610ed1565b565b600454600a546000919015610c77576000610ba9610b39565b600b54909150600080610bbf6201518085610fea565b905060005b81811015610c2057610c0086600b610bdc8785611232565b81548110610bec57610bec611246565b9060005260206000200154620151806102f5565b9250610c0c8387610ffe565b955080610c188161125c565b915050610bc4565b506000610c306201518086611232565b9050610c6386600b610c428786611232565b81548110610c5257610c52611246565b9060005260206000200154836102f5565b9250610c6f8387610ffe565b955050505050505b919050565b60045481600854610c8d9190610ffe565b1115610cd05760405162461bcd60e51b8152602060048201526012602482015271141bdbdb081b1a5b5a5d081c995858da195960721b604482015260640161045b565b6001546040516323b872dd60e01b8152336004820152306024820152604481018390526001600160a01b03909116906323b872dd906064016020604051808303816000875af1158015610d27573d6000803e3d6000fd5b505050506040513d601f19601f82011682018060405250810190610d4b91906111f7565b50600254604051630ab714fb60e11b8152336004820152602481018390524260448201526000916001600160a01b03169063156e29f6906064016020604051808303816000875af1158015610da4573d6000803e3d6000fd5b505050506040513d601f19601f82011682018060405250810190610dc89190611219565b9050816008600082825461089f9190610ffe565b610de4610e77565b6001600160a01b038116610e495760405162461bcd60e51b815260206004820152602660248201527f4f776e61626c653a206e6577206f776e657220697320746865207a65726f206160448201526564647265737360d01b606482015260840161045b565b610e5281610ed1565b50565b600a5415610e525780600a6000828254610e6f91906111e0565b909155505050565b6000546001600160a01b03163314610b8e5760405162461bcd60e51b815260206004820181905260248201527f4f776e61626c653a2063616c6c6572206973206e6f7420746865206f776e6572604482015260640161045b565b600080546001600160a01b038381166001600160a01b0319831681178455604051919092169283917f8be0079c531659141344cd1fd0a4f28419497f9722a3daafe3b4186f6b6457e09190a35050565b600080600060608486031215610f3657600080fd5b505081359360208301359350604090920135919050565b600060208284031215610f5f57600080fd5b5035919050565b6001600160a01b0381168114610e5257600080fd5b600060208284031215610f8d57600080fd5b8135610f9881610f66565b9392505050565b634e487b7160e01b600052601160045260246000fd5b6000816000190483118215151615610fcf57610fcf610f9f565b500290565b634e487b7160e01b600052601260045260246000fd5b600082610ff957610ff9610fd4565b500490565b6000821982111561101157611011610f9f565b500190565b60008083128015600160ff1b85018412161561103457611034610f9f565b6001600160ff1b038401831381161561104f5761104f610f9f565b50500390565b60006001600160ff1b038184138284138082168684048611161561107b5761107b610f9f565b600160ff1b600087128281168783058912161561109a5761109a610f9f565b600087129250878205871284841616156110b6576110b6610f9f565b878505871281841616156110cc576110cc610f9f565b505050929093029392505050565b6000826110e9576110e9610fd4565b600160ff1b82146000198414161561110357611103610f9f565b500590565b60006040828403121561111a57600080fd5b6040516040810181811067ffffffffffffffff8211171561114b57634e487b7160e01b600052604160045260246000fd5b604052825181526020928301519281019290925250919050565b60006040828403121561117757600080fd5b610f988383611108565b60006020828403121561119357600080fd5b8151610f9881610f66565b60208082526022908201527f43616c6c6572206973206e6f7420746865206f776e6572206f6620746865204e604082015261119560f21b606082015260800190565b6000828210156111f2576111f2610f9f565b500390565b60006020828403121561120957600080fd5b81518015158114610f9857600080fd5b60006020828403121561122b57600080fd5b5051919050565b60008261124157611241610fd4565b500690565b634e487b7160e01b600052603260045260246000fd5b600060001982141561127057611270610f9f565b506001019056fea2646970667358221220dc5e190c5b968d16132e539b6e8e35edc6217f8a40bb892ce38ad4cef01b934764736f6c634300080a003360806040526000600a553480156200001657600080fd5b5060405162001c7038038062001c70833981016040819052620000399162000176565b6040805180820182526012815271119a5e195908125b9d195c995cdd0813919560721b602080830191825283518085019094526005845264119253919560da1b9084015281519192916200009091600091620000d0565b508051620000a6906001906020840190620000d0565b5050600b80546001600160a01b0319166001600160a01b03939093169290921790915550620001e5565b828054620000de90620001a8565b90600052602060002090601f0160209004810192826200010257600085556200014d565b82601f106200011d57805160ff19168380011785556200014d565b828001600101855582156200014d579182015b828111156200014d57825182559160200191906001019062000130565b506200015b9291506200015f565b5090565b5b808211156200015b576000815560010162000160565b6000602082840312156200018957600080fd5b81516001600160a01b0381168114620001a157600080fd5b9392505050565b600181811c90821680620001bd57607f821691505b60208210811415620001df57634e487b7160e01b600052602260045260246000fd5b50919050565b611a7b80620001f56000396000f3fe608060405234801561001057600080fd5b50600436106101215760003560e01c806342966c68116100ad578063a22cb46511610071578063a22cb46514610259578063b88d4fde1461026c578063c13819b61461027f578063c87b56dd146102e6578063e985e9c5146102f957600080fd5b806342966c68146102055780634f6ccce7146102185780636352211e1461022b57806370a082311461023e57806395d89b411461025157600080fd5b8063156e29f6116100f4578063156e29f6146101a357806318160ddd146101c457806323b872dd146101cc5780632f745c59146101df57806342842e0e146101f257600080fd5b806301ffc9a71461012657806306fdde031461014e578063081812fc14610163578063095ea7b31461018e575b600080fd5b610139610134366004611557565b610335565b60405190151581526020015b60405180910390f35b610156610360565b60405161014591906115cc565b6101766101713660046115df565b6103f2565b6040516001600160a01b039091168152602001610145565b6101a161019c366004611614565b610419565b005b6101b66101b136600461163e565b610534565b604051908152602001610145565b600a546101b6565b6101a16101da366004611671565b6105e7565b6101b66101ed366004611614565b610618565b6101a1610200366004611671565b6106ae565b6101a16102133660046115df565b6106c9565b6101b66102263660046115df565b61072f565b6101766102393660046115df565b6107c2565b6101b661024c3660046116ad565b610822565b6101566108a8565b6101a16102673660046116c8565b6108b7565b6101a161027a36600461171a565b6108c6565b6102cb61028d3660046115df565b6040805180820190915260008082526020820152506000908152600c6020908152604091829020825180840190935280548352600101549082015290565b60408051825181526020928301519281019290925201610145565b6101566102f43660046115df565b6108fe565b6101396103073660046117f6565b6001600160a01b03918216600090815260056020908152604080832093909416825291909152205460ff1690565b60006001600160e01b0319821663780e9d6360e01b148061035a575061035a82610972565b92915050565b60606000805461036f90611829565b80601f016020809104026020016040519081016040528092919081815260200182805461039b90611829565b80156103e85780601f106103bd576101008083540402835291602001916103e8565b820191906000526020600020905b8154815290600101906020018083116103cb57829003601f168201915b5050505050905090565b60006103fd826109c2565b506000908152600460205260409020546001600160a01b031690565b6000610424826107c2565b9050806001600160a01b0316836001600160a01b031614156104975760405162461bcd60e51b815260206004820152602160248201527f4552433732313a20617070726f76616c20746f2063757272656e74206f776e656044820152603960f91b60648201526084015b60405180910390fd5b336001600160a01b03821614806104b357506104b38133610307565b6105255760405162461bcd60e51b815260206004820152603d60248201527f4552433732313a20617070726f76652063616c6c6572206973206e6f7420746f60448201527f6b656e206f776e6572206f7220617070726f76656420666f7220616c6c000000606482015260840161048e565b61052f8383610a21565b505050565b600b546000906001600160a01b031633146105915760405162461bcd60e51b815260206004820152601f60248201527f43616c6c6572206973206e6f742074686520506f6f6c20636f6e747261637400604482015260640161048e565b600a5461059e8582610a8f565b600a80549060006105ae8361187a565b909155505060408051808201825294855260208086019485526000838152600c9091522093518455915160019093019290925592915050565b6105f13382610aa9565b61060d5760405162461bcd60e51b815260040161048e90611895565b61052f838383610b28565b600061062383610822565b82106106855760405162461bcd60e51b815260206004820152602b60248201527f455243373231456e756d657261626c653a206f776e657220696e646578206f7560448201526a74206f6620626f756e647360a81b606482015260840161048e565b506001600160a01b03919091166000908152600660209081526040808320938352929052205490565b61052f838383604051806020016040528060008152506108c6565b600b546001600160a01b031633146107235760405162461bcd60e51b815260206004820152601f60248201527f43616c6c6572206973206e6f742074686520506f6f6c20636f6e747261637400604482015260640161048e565b61072c81610c99565b50565b600061073a60085490565b821061079d5760405162461bcd60e51b815260206004820152602c60248201527f455243373231456e756d657261626c653a20676c6f62616c20696e646578206f60448201526b7574206f6620626f756e647360a01b606482015260840161048e565b600882815481106107b0576107b06118e2565b90600052602060002001549050919050565b6000818152600260205260408120546001600160a01b03168061035a5760405162461bcd60e51b8152602060048201526018602482015277115490cdcc8c4e881a5b9d985b1a59081d1bdad95b88125160421b604482015260640161048e565b60006001600160a01b03821661088c5760405162461bcd60e51b815260206004820152602960248201527f4552433732313a2061646472657373207a65726f206973206e6f7420612076616044820152683634b21037bbb732b960b91b606482015260840161048e565b506001600160a01b031660009081526003602052604090205490565b60606001805461036f90611829565b6108c2338383610d3c565b5050565b6108d03383610aa9565b6108ec5760405162461bcd60e51b815260040161048e90611895565b6108f884848484610e0b565b50505050565b6060610909826109c2565b600061092060408051602081019091526000815290565b90506000815111610940576040518060200160405280600081525061096b565b8061094a84610e3e565b60405160200161095b9291906118f8565b6040516020818303038152906040525b9392505050565b60006001600160e01b031982166380ac58cd60e01b14806109a357506001600160e01b03198216635b5e139f60e01b145b8061035a57506301ffc9a760e01b6001600160e01b031983161461035a565b6000818152600260205260409020546001600160a01b031661072c5760405162461bcd60e51b8152602060048201526018602482015277115490cdcc8c4e881a5b9d985b1a59081d1bdad95b88125160421b604482015260640161048e565b600081815260046020526040902080546001600160a01b0319166001600160a01b0384169081179091558190610a56826107c2565b6001600160a01b03167f8c5be1e5ebec7d5bd14f71427d1e84f3dd0314c0f7b2291e5b200ac8c7c3b92560405160405180910390a45050565b6108c2828260405180602001604052806000815250610edb565b600080610ab5836107c2565b9050806001600160a01b0316846001600160a01b03161480610afc57506001600160a01b0380821660009081526005602090815260408083209388168352929052205460ff165b80610b205750836001600160a01b0316610b15846103f2565b6001600160a01b0316145b949350505050565b826001600160a01b0316610b3b826107c2565b6001600160a01b031614610b615760405162461bcd60e51b815260040161048e90611927565b6001600160a01b038216610bc35760405162461bcd60e51b8152602060048201526024808201527f4552433732313a207472616e7366657220746f20746865207a65726f206164646044820152637265737360e01b606482015260840161048e565b610bd08383836001610f0e565b826001600160a01b0316610be3826107c2565b6001600160a01b031614610c095760405162461bcd60e51b815260040161048e90611927565b600081815260046020908152604080832080546001600160a01b03199081169091556001600160a01b0387811680865260038552838620805460001901905590871680865283862080546001019055868652600290945282852080549092168417909155905184937fddf252ad1be2c89b69c2b068fc378daa952ba7f163c4a11628f55a4df523b3ef91a4505050565b6000610ca4826107c2565b9050610cb4816000846001610f0e565b610cbd826107c2565b600083815260046020908152604080832080546001600160a01b03199081169091556001600160a01b0385168085526003845282852080546000190190558785526002909352818420805490911690555192935084927fddf252ad1be2c89b69c2b068fc378daa952ba7f163c4a11628f55a4df523b3ef908390a45050565b816001600160a01b0316836001600160a01b03161415610d9e5760405162461bcd60e51b815260206004820152601960248201527f4552433732313a20617070726f766520746f2063616c6c657200000000000000604482015260640161048e565b6001600160a01b03838116600081815260056020908152604080832094871680845294825291829020805460ff191686151590811790915591519182527f17307eab39ab6107e8899845ad3d59bd9653f200f220920489ca2b5937696c31910160405180910390a3505050565b610e16848484610b28565b610e2284848484611042565b6108f85760405162461bcd60e51b815260040161048e9061196c565b60606000610e4b83611140565b600101905060008167ffffffffffffffff811115610e6b57610e6b611704565b6040519080825280601f01601f191660200182016040528015610e95576020820181803683370190505b5090508181016020015b600019016f181899199a1a9b1b9c1cb0b131b232b360811b600a86061a8153600a8504945084610ece57610ed3565b610e9f565b509392505050565b610ee58383611218565b610ef26000848484611042565b61052f5760405162461bcd60e51b815260040161048e9061196c565b6001811115610f7d5760405162461bcd60e51b815260206004820152603560248201527f455243373231456e756d657261626c653a20636f6e7365637574697665207472604482015274185b9cd9995c9cc81b9bdd081cdd5c1c1bdc9d1959605a1b606482015260840161048e565b816001600160a01b038516610fd957610fd481600880546000838152600960205260408120829055600182018355919091527ff3f7a9fe364faab93b216da50a3214154f22a0a2b415b23a84c8169e8b636ee30155565b610ffc565b836001600160a01b0316856001600160a01b031614610ffc57610ffc85826113b1565b6001600160a01b038416611018576110138161144e565b61103b565b846001600160a01b0316846001600160a01b03161461103b5761103b84826114fd565b5050505050565b60006001600160a01b0384163b1561113557604051630a85bd0160e11b81526001600160a01b0385169063150b7a02906110869033908990889088906004016119be565b6020604051808303816000875af19250505080156110c1575060408051601f3d908101601f191682019092526110be918101906119fb565b60015b61111b573d8080156110ef576040519150601f19603f3d011682016040523d82523d6000602084013e6110f4565b606091505b5080516111135760405162461bcd60e51b815260040161048e9061196c565b805181602001fd5b6001600160e01b031916630a85bd0160e11b149050610b20565b506001949350505050565b60008072184f03e93ff9f4daa797ed6e38ed64bf6a1f0160401b831061117f5772184f03e93ff9f4daa797ed6e38ed64bf6a1f0160401b830492506040015b6d04ee2d6d415b85acef810000000083106111ab576d04ee2d6d415b85acef8100000000830492506020015b662386f26fc1000083106111c957662386f26fc10000830492506010015b6305f5e10083106111e1576305f5e100830492506008015b61271083106111f557612710830492506004015b60648310611207576064830492506002015b600a831061035a5760010192915050565b6001600160a01b03821661126e5760405162461bcd60e51b815260206004820181905260248201527f4552433732313a206d696e7420746f20746865207a65726f2061646472657373604482015260640161048e565b6000818152600260205260409020546001600160a01b0316156112d35760405162461bcd60e51b815260206004820152601c60248201527f4552433732313a20746f6b656e20616c7265616479206d696e74656400000000604482015260640161048e565b6112e1600083836001610f0e565b6000818152600260205260409020546001600160a01b0316156113465760405162461bcd60e51b815260206004820152601c60248201527f4552433732313a20746f6b656e20616c7265616479206d696e74656400000000604482015260640161048e565b6001600160a01b038216600081815260036020908152604080832080546001019055848352600290915280822080546001600160a01b0319168417905551839291907fddf252ad1be2c89b69c2b068fc378daa952ba7f163c4a11628f55a4df523b3ef908290a45050565b600060016113be84610822565b6113c89190611a18565b60008381526007602052604090205490915080821461141b576001600160a01b03841660009081526006602090815260408083208584528252808320548484528184208190558352600790915290208190555b5060009182526007602090815260408084208490556001600160a01b039094168352600681528383209183525290812055565b60085460009061146090600190611a18565b60008381526009602052604081205460088054939450909284908110611488576114886118e2565b9060005260206000200154905080600883815481106114a9576114a96118e2565b60009182526020808320909101929092558281526009909152604080822084905585825281205560088054806114e1576114e1611a2f565b6001900381819060005260206000200160009055905550505050565b600061150883610822565b6001600160a01b039093166000908152600660209081526040808320868452825280832085905593825260079052919091209190915550565b6001600160e01b03198116811461072c57600080fd5b60006020828403121561156957600080fd5b813561096b81611541565b60005b8381101561158f578181015183820152602001611577565b838111156108f85750506000910152565b600081518084526115b8816020860160208601611574565b601f01601f19169290920160200192915050565b60208152600061096b60208301846115a0565b6000602082840312156115f157600080fd5b5035919050565b80356001600160a01b038116811461160f57600080fd5b919050565b6000806040838503121561162757600080fd5b611630836115f8565b946020939093013593505050565b60008060006060848603121561165357600080fd5b61165c846115f8565b95602085013595506040909401359392505050565b60008060006060848603121561168657600080fd5b61168f846115f8565b925061169d602085016115f8565b9150604084013590509250925092565b6000602082840312156116bf57600080fd5b61096b826115f8565b600080604083850312156116db57600080fd5b6116e4836115f8565b9150602083013580151581146116f957600080fd5b809150509250929050565b634e487b7160e01b600052604160045260246000fd5b6000806000806080858703121561173057600080fd5b611739856115f8565b9350611747602086016115f8565b925060408501359150606085013567ffffffffffffffff8082111561176b57600080fd5b818701915087601f83011261177f57600080fd5b81358181111561179157611791611704565b604051601f8201601f19908116603f011681019083821181831017156117b9576117b9611704565b816040528281528a60208487010111156117d257600080fd5b82602086016020830137600060208483010152809550505050505092959194509250565b6000806040838503121561180957600080fd5b611812836115f8565b9150611820602084016115f8565b90509250929050565b600181811c9082168061183d57607f821691505b6020821081141561185e57634e487b7160e01b600052602260045260246000fd5b50919050565b634e487b7160e01b600052601160045260246000fd5b600060001982141561188e5761188e611864565b5060010190565b6020808252602d908201527f4552433732313a2063616c6c6572206973206e6f7420746f6b656e206f776e6560408201526c1c881bdc88185c1c1c9bdd9959609a1b606082015260800190565b634e487b7160e01b600052603260045260246000fd5b6000835161190a818460208801611574565b83519083019061191e818360208801611574565b01949350505050565b60208082526025908201527f4552433732313a207472616e736665722066726f6d20696e636f72726563742060408201526437bbb732b960d91b606082015260800190565b60208082526032908201527f4552433732313a207472616e7366657220746f206e6f6e20455243373231526560408201527131b2b4bb32b91034b6b83632b6b2b73a32b960711b606082015260800190565b6001600160a01b03858116825284166020820152604081018390526080606082018190526000906119f1908301846115a0565b9695505050505050565b600060208284031215611a0d57600080fd5b815161096b81611541565b600082821015611a2a57611a2a611864565b500390565b634e487b7160e01b600052603160045260246000fdfea264697066735822122058a09ae3424685e787b17f077065db8140710b5c7fdc4ec982bd26e8b7a65e9464736f6c634300080a003360806040526000600a553480156200001657600080fd5b5060405162001c7b38038062001c7b833981016040819052620000399162000181565b604080518082018252601581527f5661726961626c6520496e746572657374204e46540000000000000000000000602080830191825283518085019094526005845264159253919560da1b9084015281519192916200009b91600091620000db565b508051620000b1906001906020840190620000db565b5050600b80546001600160a01b0319166001600160a01b03939093169290921790915550620001f0565b828054620000e990620001b3565b90600052602060002090601f0160209004810192826200010d576000855562000158565b82601f106200012857805160ff191683800117855562000158565b8280016001018555821562000158579182015b82811115620001585782518255916020019190600101906200013b565b50620001669291506200016a565b5090565b5b808211156200016657600081556001016200016b565b6000602082840312156200019457600080fd5b81516001600160a01b0381168114620001ac57600080fd5b9392505050565b600181811c90821680620001c857607f821691505b60208210811415620001ea57634e487b7160e01b600052602260045260246000fd5b50919050565b611a7b80620002006000396000f3fe608060405234801561001057600080fd5b50600436106101215760003560e01c806342966c68116100ad578063a22cb46511610071578063a22cb46514610259578063b88d4fde1461026c578063c13819b61461027f578063c87b56dd146102e6578063e985e9c5146102f957600080fd5b806342966c68146102055780634f6ccce7146102185780636352211e1461022b57806370a082311461023e57806395d89b411461025157600080fd5b8063156e29f6116100f4578063156e29f6146101a357806318160ddd146101c457806323b872dd146101cc5780632f745c59146101df57806342842e0e146101f257600080fd5b806301ffc9a71461012657806306fdde031461014e578063081812fc14610163578063095ea7b31461018e575b600080fd5b610139610134366004611557565b610335565b60405190151581526020015b60405180910390f35b610156610360565b60405161014591906115cc565b6101766101713660046115df565b6103f2565b6040516001600160a01b039091168152602001610145565b6101a161019c366004611614565b610419565b005b6101b66101b136600461163e565b610534565b604051908152602001610145565b600a546101b6565b6101a16101da366004611671565b6105e7565b6101b66101ed366004611614565b610618565b6101a1610200366004611671565b6106ae565b6101a16102133660046115df565b6106c9565b6101b66102263660046115df565b61072f565b6101766102393660046115df565b6107c2565b6101b661024c3660046116ad565b610822565b6101566108a8565b6101a16102673660046116c8565b6108b7565b6101a161027a36600461171a565b6108c6565b6102cb61028d3660046115df565b6040805180820190915260008082526020820152506000908152600c6020908152604091829020825180840190935280548352600101549082015290565b60408051825181526020928301519281019290925201610145565b6101566102f43660046115df565b6108fe565b6101396103073660046117f6565b6001600160a01b03918216600090815260056020908152604080832093909416825291909152205460ff1690565b60006001600160e01b0319821663780e9d6360e01b148061035a575061035a82610972565b92915050565b60606000805461036f90611829565b80601f016020809104026020016040519081016040528092919081815260200182805461039b90611829565b80156103e85780601f106103bd576101008083540402835291602001916103e8565b820191906000526020600020905b8154815290600101906020018083116103cb57829003601f168201915b5050505050905090565b60006103fd826109c2565b506000908152600460205260409020546001600160a01b031690565b6000610424826107c2565b9050806001600160a01b0316836001600160a01b031614156104975760405162461bcd60e51b815260206004820152602160248201527f4552433732313a20617070726f76616c20746f2063757272656e74206f776e656044820152603960f91b60648201526084015b60405180910390fd5b336001600160a01b03821614806104b357506104b38133610307565b6105255760405162461bcd60e51b815260206004820152603d60248201527f4552433732313a20617070726f76652063616c6c6572206973206e6f7420746f60448201527f6b656e206f776e6572206f7220617070726f76656420666f7220616c6c000000606482015260840161048e565b61052f8383610a21565b505050565b600b546000906001600160a01b031633146105915760405162461bcd60e51b815260206004820152601f60248201527f43616c6c6572206973206e6f742074686520506f6f6c20636f6e747261637400604482015260640161048e565b600a5461059e8582610a8f565b600a80549060006105ae8361187a565b909155505060408051808201825294855260208086019485526000838152600c9091522093518455915160019093019290925592915050565b6105f13382610aa9565b61060d5760405162461bcd60e51b815260040161048e90611895565b61052f838383610b28565b600061062383610822565b82106106855760405162461bcd60e51b815260206004820152602b60248201527f455243373231456e756d657261626c653a206f776e657220696e646578206f7560448201526a74206f6620626f756e647360a81b606482015260840161048e565b506001600160a01b03919091166000908152600660209081526040808320938352929052205490565b61052f838383604051806020016040528060008152506108c6565b600b546001600160a01b031633146107235760405162461bcd60e51b815260206004820152601f60248201527f43616c6c6572206973206e6f742074686520506f6f6c20636f6e747261637400604482015260640161048e565b61072c81610c99565b50565b600061073a60085490565b821061079d5760405162461bcd60e51b815260206004820152602c60248201527f455243373231456e756d657261626c653a20676c6f62616c20696e646578206f60448201526b7574206f6620626f756e647360a01b606482015260840161048e565b600882815481106107b0576107b06118e2565b90600052602060002001549050919050565b6000818152600260205260408120546001600160a01b03168061035a5760405162461bcd60e51b8152602060048201526018602482015277115490cdcc8c4e881a5b9d985b1a59081d1bdad95b88125160421b604482015260640161048e565b60006001600160a01b03821661088c5760405162461bcd60e51b815260206004820152602960248201527f4552433732313a2061646472657373207a65726f206973206e6f7420612076616044820152683634b21037bbb732b960b91b606482015260840161048e565b506001600160a01b031660009081526003602052604090205490565b60606001805461036f90611829565b6108c2338383610d3c565b5050565b6108d03383610aa9565b6108ec5760405162461bcd60e51b815260040161048e90611895565b6108f884848484610e0b565b50505050565b6060610909826109c2565b600061092060408051602081019091526000815290565b90506000815111610940576040518060200160405280600081525061096b565b8061094a84610e3e565b60405160200161095b9291906118f8565b6040516020818303038152906040525b9392505050565b60006001600160e01b031982166380ac58cd60e01b14806109a357506001600160e01b03198216635b5e139f60e01b145b8061035a57506301ffc9a760e01b6001600160e01b031983161461035a565b6000818152600260205260409020546001600160a01b031661072c5760405162461bcd60e51b8152602060048201526018602482015277115490cdcc8c4e881a5b9d985b1a59081d1bdad95b88125160421b604482015260640161048e565b600081815260046020526040902080546001600160a01b0319166001600160a01b0384169081179091558190610a56826107c2565b6001600160a01b03167f8c5be1e5ebec7d5bd14f71427d1e84f3dd0314c0f7b2291e5b200ac8c7c3b92560405160405180910390a45050565b6108c2828260405180602001604052806000815250610edb565b600080610ab5836107c2565b9050806001600160a01b0316846001600160a01b03161480610afc57506001600160a01b0380821660009081526005602090815260408083209388168352929052205460ff165b80610b205750836001600160a01b0316610b15846103f2565b6001600160a01b0316145b949350505050565b826001600160a01b0316610b3b826107c2565b6001600160a01b031614610b615760405162461bcd60e51b815260040161048e90611927565b6001600160a01b038216610bc35760405162461bcd60e51b8152602060048201526024808201527f4552433732313a207472616e7366657220746f20746865207a65726f206164646044820152637265737360e01b606482015260840161048e565b610bd08383836001610f0e565b826001600160a01b0316610be3826107c2565b6001600160a01b031614610c095760405162461bcd60e51b815260040161048e90611927565b600081815260046020908152604080832080546001600160a01b03199081169091556001600160a01b0387811680865260038552838620805460001901905590871680865283862080546001019055868652600290945282852080549092168417909155905184937fddf252ad1be2c89b69c2b068fc378daa952ba7f163c4a11628f55a4df523b3ef91a4505050565b6000610ca4826107c2565b9050610cb4816000846001610f0e565b610cbd826107c2565b600083815260046020908152604080832080546001600160a01b03199081169091556001600160a01b0385168085526003845282852080546000190190558785526002909352818420805490911690555192935084927fddf252ad1be2c89b69c2b068fc378daa952ba7f163c4a11628f55a4df523b3ef908390a45050565b816001600160a01b0316836001600160a01b03161415610d9e5760405162461bcd60e51b815260206004820152601960248201527f4552433732313a20617070726f766520746f2063616c6c657200000000000000604482015260640161048e565b6001600160a01b03838116600081815260056020908152604080832094871680845294825291829020805460ff191686151590811790915591519182527f17307eab39ab6107e8899845ad3d59bd9653f200f220920489ca2b5937696c31910160405180910390a3505050565b610e16848484610b28565b610e2284848484611042565b6108f85760405162461bcd60e51b815260040161048e9061196c565b60606000610e4b83611140565b600101905060008167ffffffffffffffff811115610e6b57610e6b611704565b6040519080825280601f01601f191660200182016040528015610e95576020820181803683370190505b5090508181016020015b600019016f181899199a1a9b1b9c1cb0b131b232b360811b600a86061a8153600a8504945084610ece57610ed3565b610e9f565b509392505050565b610ee58383611218565b610ef26000848484611042565b61052f5760405162461bcd60e51b815260040161048e9061196c565b6001811115610f7d5760405162461bcd60e51b815260206004820152603560248201527f455243373231456e756d657261626c653a20636f6e7365637574697665207472604482015274185b9cd9995c9cc81b9bdd081cdd5c1c1bdc9d1959605a1b606482015260840161048e565b816001600160a01b038516610fd957610fd481600880546000838152600960205260408120829055600182018355919091527ff3f7a9fe364faab93b216da50a3214154f22a0a2b415b23a84c8169e8b636ee30155565b610ffc565b836001600160a01b0316856001600160a01b031614610ffc57610ffc85826113b1565b6001600160a01b038416611018576110138161144e565b61103b565b846001600160a01b0316846001600160a01b03161461103b5761103b84826114fd565b5050505050565b60006001600160a01b0384163b1561113557604051630a85bd0160e11b81526001600160a01b0385169063150b7a02906110869033908990889088906004016119be565b6020604051808303816000875af19250505080156110c1575060408051601f3d908101601f191682019092526110be918101906119fb565b60015b61111b573d8080156110ef576040519150601f19603f3d011682016040523d82523d6000602084013e6110f4565b606091505b5080516111135760405162461bcd60e51b815260040161048e9061196c565b805181602001fd5b6001600160e01b031916630a85bd0160e11b149050610b20565b506001949350505050565b60008072184f03e93ff9f4daa797ed6e38ed64bf6a1f0160401b831061117f5772184f03e93ff9f4daa797ed6e38ed64bf6a1f0160401b830492506040015b6d04ee2d6d415b85acef810000000083106111ab576d04ee2d6d415b85acef8100000000830492506020015b662386f26fc1000083106111c957662386f26fc10000830492506010015b6305f5e10083106111e1576305f5e100830492506008015b61271083106111f557612710830492506004015b60648310611207576064830492506002015b600a831061035a5760010192915050565b6001600160a01b03821661126e5760405162461bcd60e51b815260206004820181905260248201527f4552433732313a206d696e7420746f20746865207a65726f2061646472657373604482015260640161048e565b6000818152600260205260409020546001600160a01b0316156112d35760405162461bcd60e51b815260206004820152601c60248201527f4552433732313a20746f6b656e20616c7265616479206d696e74656400000000604482015260640161048e565b6112e1600083836001610f0e565b6000818152600260205260409020546001600160a01b0316156113465760405162461bcd60e51b815260206004820152601c60248201527f4552433732313a20746f6b656e20616c7265616479206d696e74656400000000604482015260640161048e565b6001600160a01b038216600081815260036020908152604080832080546001019055848352600290915280822080546001600160a01b0319168417905551839291907fddf252ad1be2c89b69c2b068fc378daa952ba7f163c4a11628f55a4df523b3ef908290a45050565b600060016113be84610822565b6113c89190611a18565b60008381526007602052604090205490915080821461141b576001600160a01b03841660009081526006602090815260408083208584528252808320548484528184208190558352600790915290208190555b5060009182526007602090815260408084208490556001600160a01b039094168352600681528383209183525290812055565b60085460009061146090600190611a18565b60008381526009602052604081205460088054939450909284908110611488576114886118e2565b9060005260206000200154905080600883815481106114a9576114a96118e2565b60009182526020808320909101929092558281526009909152604080822084905585825281205560088054806114e1576114e1611a2f565b6001900381819060005260206000200160009055905550505050565b600061150883610822565b6001600160a01b039093166000908152600660209081526040808320868452825280832085905593825260079052919091209190915550565b6001600160e01b03198116811461072c57600080fd5b60006020828403121561156957600080fd5b813561096b81611541565b60005b8381101561158f578181015183820152602001611577565b838111156108f85750506000910152565b600081518084526115b8816020860160208601611574565b601f01601f19169290920160200192915050565b60208152600061096b60208301846115a0565b6000602082840312156115f157600080fd5b5035919050565b80356001600160a01b038116811461160f57600080fd5b919050565b6000806040838503121561162757600080fd5b611630836115f8565b946020939093013593505050565b60008060006060848603121561165357600080fd5b61165c846115f8565b95602085013595506040909401359392505050565b60008060006060848603121561168657600080fd5b61168f846115f8565b925061169d602085016115f8565b9150604084013590509250925092565b6000602082840312156116bf57600080fd5b61096b826115f8565b600080604083850312156116db57600080fd5b6116e4836115f8565b9150602083013580151581146116f957600080fd5b809150509250929050565b634e487b7160e01b600052604160045260246000fd5b6000806000806080858703121561173057600080fd5b611739856115f8565b9350611747602086016115f8565b925060408501359150606085013567ffffffffffffffff8082111561176b57600080fd5b818701915087601f83011261177f57600080fd5b81358181111561179157611791611704565b604051601f8201601f19908116603f011681019083821181831017156117b9576117b9611704565b816040528281528a60208487010111156117d257600080fd5b82602086016020830137600060208483010152809550505050505092959194509250565b6000806040838503121561180957600080fd5b611812836115f8565b9150611820602084016115f8565b90509250929050565b600181811c9082168061183d57607f821691505b6020821081141561185e57634e487b7160e01b600052602260045260246000fd5b50919050565b634e487b7160e01b600052601160045260246000fd5b600060001982141561188e5761188e611864565b5060010190565b6020808252602d908201527f4552433732313a2063616c6c6572206973206e6f7420746f6b656e206f776e6560408201526c1c881bdc88185c1c1c9bdd9959609a1b606082015260800190565b634e487b7160e01b600052603260045260246000fd5b6000835161190a818460208801611574565b83519083019061191e818360208801611574565b01949350505050565b60208082526025908201527f4552433732313a207472616e736665722066726f6d20696e636f72726563742060408201526437bbb732b960d91b606082015260800190565b60208082526032908201527f4552433732313a207472616e7366657220746f206e6f6e20455243373231526560408201527131b2b4bb32b91034b6b83632b6b2b73a32b960711b606082015260800190565b6001600160a01b03858116825284166020820152604081018390526080606082018190526000906119f1908301846115a0565b9695505050505050565b600060208284031215611a0d57600080fd5b815161096b81611541565b600082821015611a2a57611a2a611864565b500390565b634e487b7160e01b600052603160045260246000fdfea26469706673582212200b58e9e13d5dadf6f9cfc0aaf6ebd656ba1881aaa5f31e7ad7e849ea413f14ee64736f6c634300080a0033",
  "linkReferences": {},
  "deployedLinkReferences": {}
}