{
  "_format": "hh-sol-artifact-1",
  "contractName": "PoolDeployer",
  "sourceName": "contracts/PoolDeployer.sol",
  "abi": [
    {
      "anonymous": false,
      "inputs": [
        {
          "indexed": false,
          "internalType": "contract Pool",
          "name": "pool",
          "type": "address"
        }
      ],
      "name": "PoolCreated",
      "type": "event"
    },
    {
      "inputs": [
        {
          "internalType": "address",
          "name": "_aaveAddresses",
          "type": "address"
        },
        {
          "internalType": "address",
          "name": "_daiAddress",
          "type": "address"
        },
        {
          "internalType": "uint256",
          "name": "_fixedPoolLimit",
          "type": "uint256"
        },
        {
          "internalType": "uint256",
          "name": "_lockDuration",
          "type": "uint256"
        },
        {
          "internalType": "uint256",
          "name": "_interestRate",
          "type": "uint256"
        }
      ],
      "name": "createPool",
      "outputs": [],
      "stateMutability": "nonpayable",
      "type": "function"
    },
    {
      "inputs": [
        {
          "internalType": "contract Pool",
          "name": "poolToRemove",
          "type": "address"
        }
      ],
      "name": "deletePool",
      "outputs": [],
      "stateMutability": "nonpayable",
      "type": "function"
    },
    {
      "inputs": [],
      "name": "getPoolLength",
      "outputs": [
        {
          "internalType": "uint256",
          "name": "",
          "type": "uint256"
        }
      ],
      "stateMutability": "view",
      "type": "function"
    },
    {
      "inputs": [
        {
          "internalType": "uint256",
          "name": "",
          "type": "uint256"
        }
      ],
      "name": "pools",
      "outputs": [
        {
          "internalType": "contract Pool",
          "name": "pool",
          "type": "address"
        }
      ],
      "stateMutability": "view",
      "type": "function"
    }
  ],
  "bytecode": "0x608060405234801561001057600080fd5b50615e3f806100206000396000f3fe608060405234801561001057600080fd5b506004361061004c5760003560e01c806385ac165a1461005157806397b0f20514610066578063ac4afa3814610079578063b3944d52146100a9575b600080fd5b61006461005f3660046102fa565b6100ba565b005b61006461007436600461034b565b6101b2565b61008c61008736600461036f565b6102aa565b6040516001600160a01b0390911681526020015b60405180910390f35b6000546040519081526020016100a0565b600085858585856040516100cd906102d4565b6001600160a01b03958616815294909316602085015260408401919091526060830152608082015260a001604051809103906000f080158015610114573d6000803e3d6000fd5b5060408051602080820183526001600160a01b038481168084526000805460018101825590805293517f290decd9548b62a8d60345a988386fc84ba6bc95484008f6362f93160ef3e56390940180546001600160a01b0319169490921693909317905591519081529192507f83a48fbcfc991335314e74d0496aab6a1987e992ddc85dddbcc4d6dd6ef2e9fc910160405180910390a1505050505050565b60005b6000548110156102a657816001600160a01b0316600082815481106101dc576101dc610388565b6000918252602090912001546001600160a01b031614156102945760008054610207906001906103b4565b8154811061021757610217610388565b906000526020600020016000828154811061023457610234610388565b6000918252602082209254920180546001600160a01b0319166001600160a01b039093169290921790915580548061026e5761026e6103cb565b600082815260209020810160001990810180546001600160a01b03191690550190555050565b8061029e816103e1565b9150506101b5565b5050565b600081815481106102ba57600080fd5b6000918252602090912001546001600160a01b0316905081565b615a0d80620003fd83390190565b6001600160a01b03811681146102f757600080fd5b50565b600080600080600060a0868803121561031257600080fd5b853561031d816102e2565b9450602086013561032d816102e2565b94979496505050506040830135926060810135926080909101359150565b60006020828403121561035d57600080fd5b8135610368816102e2565b9392505050565b60006020828403121561038157600080fd5b5035919050565b634e487b7160e01b600052603260045260246000fd5b634e487b7160e01b600052601160045260246000fd5b6000828210156103c6576103c661039e565b500390565b634e487b7160e01b600052603160045260246000fd5b60006000198214156103f5576103f561039e565b506001019056fe60806040523480156200001157600080fd5b5060405162005a0d38038062005a0d8339810160408190526200003491620002b5565b6200003f33620001e3565b600380546001600160a01b0319166001600160a01b0387169081179091556040805163026b1d5f60e01b8152905163026b1d5f916004808201926020929091908290030181865afa15801562000099573d6000803e3d6000fd5b505050506040513d601f19601f82011682018060405250810190620000bf919062000308565b600480546001600160a01b039283166001600160a01b03199182168117909255600180548216909217909155600280549287169290911691909117905560078390556009829055600a8190556200011883828462000233565b60085560405130906200012b906200027c565b6001600160a01b039091168152602001604051809103906000f08015801562000158573d6000803e3d6000fd5b50600580546001600160a01b0319166001600160a01b0392909216919091179055604051309062000189906200028a565b6001600160a01b039091168152602001604051809103906000f080158015620001b6573d6000803e3d6000fd5b50600680546001600160a01b0319166001600160a01b0392909216919091179055506200037e9350505050565b600080546001600160a01b038381166001600160a01b0319831681178455604051919092169283917f8be0079c531659141344cd1fd0a4f28419497f9722a3daafe3b4186f6b6457e09190a35050565b600063bbf81e00670de0b6b3a7640000836200025086886200032d565b6200025c91906200032d565b6200026891906200035b565b6200027491906200035b565b949350505050565b611d328062001f9e83390190565b611d3d8062003cd083390190565b80516001600160a01b0381168114620002b057600080fd5b919050565b600080600080600060a08688031215620002ce57600080fd5b620002d98662000298565b9450620002e96020870162000298565b6040870151606088015160809098015196999198509695945092505050565b6000602082840312156200031b57600080fd5b620003268262000298565b9392505050565b60008160001904831182151516156200035657634e487b7160e01b600052601160045260246000fd5b500290565b6000826200037957634e487b7160e01b600052601260045260246000fd5b500490565b611c10806200038e6000396000f3fe608060405234801561001057600080fd5b50600436106102115760003560e01c8063715018a611610125578063a9b12c4c116100ad578063ea1ba5561161007c578063ea1ba556146103e1578063ebf4bd5b146103ea578063f2fde38b146103f3578063f82923da14610406578063fccbe7f61461040f57600080fd5b8063a9b12c4c146103b5578063c4e41b22146103bd578063dd4f2059146103c5578063e4f11247146103d857600080fd5b806383257889116100f4578063832578891461036c578063857a5c32146103755780638da5cb5b146103885780639b60a50a146103995780639bf02803146103ac57600080fd5b8063715018a61461034957806373fce7ec14610351578063793265a91461035a5780637c3a00fd1461036357600080fd5b80632cc79b6a116101a85780635ade2035116101775780635ade2035146102ff5780635f96dc111461031257806365ad7c001461031b57806367fc6dea1461032e5780636e8fb4591461033657600080fd5b80632cc79b6a146102a55780632f47bf62146102d057806338a9a686146102e357806347a359ca146102f657600080fd5b806314a3db2d116101e457806314a3db2d146102575780631a2c9fff146102745780631c9ec0e61461027d57806329796ae51461029257600080fd5b806304144ec714610216578063045544431461023257806305e1bd8c1461023b578063149c85071461024e575b600080fd5b61021f60075481565b6040519081526020015b60405180910390f35b61021f60095481565b61021f61024936600461183f565b610422565b61021f600e5481565b61025f610463565b60408051928352602083019190915201610229565b61021f60085481565b61029061028b36600461186b565b610542565b005b6102906102a036600461186b565b610676565b6006546102b8906001600160a01b031681565b6040516001600160a01b039091168152602001610229565b6102906102de36600461186b565b61095d565b6102906102f136600461186b565b610b06565b61021f60115481565b61021f61030d36600461186b565b610e08565b61021f60125481565b61025f61032936600461186b565b610e25565b61021f61104a565b61021f61034436600461186b565b61109c565b61029061118f565b61021f600d5481565b61021f60135481565b61021f600a5481565b61021f600f5481565b6005546102b8906001600160a01b031681565b6000546001600160a01b03166102b8565b6102906103a736600461186b565b6111a3565b61021f60105481565b61021f611343565b61021f611353565b6102906103d336600461186b565b6113e2565b61021f600b5481565b61021f600c5481565b61021f60155481565b610290610401366004611899565b6116b9565b61021f60145481565b61029061041d36600461186b565b61172f565b600063bbf81e00670de0b6b3a76400008361043d86886118d3565b61044791906118d3565b6104519190611908565b61045b9190611908565b949350505050565b600a546012546000918291158015906104915750601254610487906201518061191c565b61048f611343565b115b15610537576000601354600d54600f546104a9611353565b6104b3919061191c565b6104bd919061191c565b6104c79190611934565b905060006104d361104a565b90506000600954826104e59190611908565b6008546104f291906118d3565b90506000610500828561194b565b90506008548361051091906118d3565b610526826b0104dc13db1286a62c00000061198a565b6105309190611a0f565b9450505050505b600a54939092509050565b6002546040516323b872dd60e01b81526001600160a01b03909116906323b872dd9061057690339030908690600401611a3d565b6020604051808303816000875af1158015610595573d6000803e3d6000fd5b505050506040513d601f19601f820116820180604052508101906105b99190611a61565b6105de5760405162461bcd60e51b81526004016105d590611a83565b60405180910390fd5b60025460015460405163095ea7b360e01b81526001600160a01b0391821660048201526024810184905291169063095ea7b3906044016020604051808303816000875af1158015610633573d6000803e3d6000fd5b505050506040513d601f19601f820116820180604052508101906106579190611a61565b6106735760405162461bcd60e51b81526004016105d590611aac565b50565b6006546040516331a9108f60e11b81526004810183905233916001600160a01b031690636352211e90602401602060405180830381865afa1580156106bf573d6000803e3d6000fd5b505050506040513d601f19601f820116820180604052508101906106e39190611ad4565b6001600160a01b0316146107335760405162461bcd60e51b815260206004820152601760248201527629b2b73232b91034b9903737ba1027232a1037bbb732b960491b60448201526064016105d5565b600061073e8261109c565b905080600f6000828254610752919061191c565b9091555050600154600254604051631a4ca37b60e21b81526001600160a01b039182166004820152602481018490523060448201529116906369328dec906064016020604051808303816000875af11580156107b2573d6000803e3d6000fd5b505050506040513d601f19601f820116820180604052508101906107d69190611af1565b5060025460405163a9059cbb60e01b8152336004820152602481018390526001600160a01b039091169063a9059cbb906044016020604051808303816000875af1158015610828573d6000803e3d6000fd5b505050506040513d601f19601f8201168201806040525081019061084c9190611a61565b6108685760405162461bcd60e51b81526004016105d590611a83565b60065460405163c349026360e01b815260048101849052602481018390526001600160a01b039091169063c349026390604401600060405180830381600087803b1580156108b557600080fd5b505af11580156108c9573d6000803e3d6000fd5b5050505060006012541180156108f557506009546012546108ea919061191c565b6108f2611343565b10155b1561095957600654604051630852cd8d60e31b8152600481018490526001600160a01b03909116906342966c6890602401600060405180830381600087803b15801561094057600080fd5b505af1158015610954573d6000803e3d6000fd5b505050505b5050565b60085481600c5461096e919061191c565b11156109bc5760405162461bcd60e51b815260206004820152601b60248201527f5661726961626c6520706f6f6c206c696d69742072656163686564000000000060448201526064016105d5565b6002546040516323b872dd60e01b81526001600160a01b03909116906323b872dd906109f090339030908690600401611a3d565b6020604051808303816000875af1158015610a0f573d6000803e3d6000fd5b505050506040513d601f19601f82011682018060405250810190610a339190611a61565b610a4f5760405162461bcd60e51b81526004016105d590611a83565b6006546000906001600160a01b031663156e29f63384610a6d611343565b6040516001600160e01b031960e086901b1681526001600160a01b039093166004840152602483019190915260448201526064016020604051808303816000875af1158015610ac0573d6000803e3d6000fd5b505050506040513d601f19601f82011682018060405250810190610ae49190611af1565b905081600c6000828254610af8919061191c565b909155506109599050611749565b6005546040516331a9108f60e11b81526004810183905233916001600160a01b031690636352211e90602401602060405180830381865afa158015610b4f573d6000803e3d6000fd5b505050506040513d601f19601f82011682018060405250810190610b739190611ad4565b6001600160a01b031614610bc35760405162461bcd60e51b815260206004820152601760248201527629b2b73232b91034b9903737ba1027232a1037bbb732b960491b60448201526064016105d5565b600080610bcf83610e25565b90925090506000610be0828461191c565b90508215610c805782600d6000828254610bfa919061191c565b9091555050600154600254604051631a4ca37b60e21b81526001600160a01b039182166004820152602481018690523060448201529116906369328dec906064016020604051808303816000875af1158015610c5a573d6000803e3d6000fd5b505050506040513d601f19601f82011682018060405250810190610c7e9190611af1565b505b60025460405163a9059cbb60e01b8152336004820152602481018390526001600160a01b039091169063a9059cbb906044016020604051808303816000875af1158015610cd1573d6000803e3d6000fd5b505050506040513d601f19601f82011682018060405250810190610cf59190611a61565b610d115760405162461bcd60e51b81526004016105d590611a83565b60055460405163c349026360e01b815260048101869052602481018390526001600160a01b039091169063c349026390604401600060405180830381600087803b158015610d5e57600080fd5b505af1158015610d72573d6000803e3d6000fd5b505050506000601254118015610d9e5750600954601254610d93919061191c565b610d9b611343565b10155b15610e0257600554604051630852cd8d60e31b8152600481018690526001600160a01b03909116906342966c6890602401600060405180830381600087803b158015610de957600080fd5b505af1158015610dfd573d6000803e3d6000fd5b505050505b50505050565b6000806000610e1684610e25565b909250905061045b818361191c565b60055460405163609c0cdb60e11b815260048101839052600091829182916001600160a01b03169063c13819b690602401606060405180830381865afa158015610e73573d6000803e3d6000fd5b505050506040513d601f19601f82011682018060405250810190610e979190611b74565b602081015160115491925090610eef5760405162461bcd60e51b815260206004820152601960248201527f4669786564204465706f736974204e756d206973207a65726f0000000000000060448201526064016105d5565b6000601154601054610f019190611908565b6013546012549192509080610f3257610f18611343565b9050600d54610f25611353565b610f2f919061191c565b91505b6000601154600b5484610f459190611934565b610f4f9190611908565b905060006001610f5f8685611934565b1115610f9057610f6f8584611934565b610f798785611934565b610f8390846118d3565b610f8d9190611908565b90505b60125460009015610ff2576000610fa561104a565b9050610fb88960000151600a5483610422565b610fc2908361191c565b9150600954601254610fd4919061191c565b610fdc611343565b10610ff0578851610fed908461191c565b92505b505b818860400151111561102b576040880151600090611010838561191c565b61101a9190611934565b995099505050505050505050915091565b604088015161103a9083611934565b9b909a5098505050505050505050565b60006012546000141561105d5750600090565b60095460125461106d919061191c565b611075611343565b101561109557601254611086611343565b6110909190611934565b905090565b5060095490565b60065460405163609c0cdb60e11b81526004810183905260009182916001600160a01b039091169063c13819b690602401606060405180830381865afa1580156110ea573d6000803e3d6000fd5b505050506040513d601f19601f8201168201806040525081019061110e9190611b74565b60125490915015611186576000601354600d54600f5461112c611353565b611136919061191c565b611140919061191c565b61114a9190611934565b9050600060085482846000015161116191906118d3565b61116b9190611908565b905082604001518161117d9190611934565b95945050505050565b50600092915050565b611197611795565b6111a160006117ef565b565b6002546040516323b872dd60e01b81526001600160a01b03909116906323b872dd906111d790339030908690600401611a3d565b6020604051808303816000875af11580156111f6573d6000803e3d6000fd5b505050506040513d601f19601f8201168201806040525081019061121a9190611a61565b6112365760405162461bcd60e51b81526004016105d590611a83565b60025460015460405163095ea7b360e01b81526001600160a01b0391821660048201526024810184905291169063095ea7b3906044016020604051808303816000875af115801561128b573d6000803e3d6000fd5b505050506040513d601f19601f820116820180604052508101906112af9190611a61565b6112cb5760405162461bcd60e51b81526004016105d590611aac565b60015460025460405163617ba03760e01b81526001600160a01b039182166004820152602481018490523060448201526000606482015291169063617ba03790608401600060405180830381600087803b15801561132857600080fd5b505af115801561133c573d6000803e3d6000fd5b5050505050565b600060155442611090919061191c565b600154604051632fe4a15f60e21b815230600482015260009182916001600160a01b039091169063bf92857c9060240160c060405180830381865afa1580156113a0573d6000803e3d6000fd5b505050506040513d601f19601f820116820180604052508101906113c49190611b90565b50505050509050806402540be4006113dc91906118d3565b91505090565b60075481600b546113f3919061191c565b11156114365760405162461bcd60e51b8152602060048201526012602482015271141bdbdb081b1a5b5a5d081c995858da195960721b60448201526064016105d5565b6002546040516323b872dd60e01b81526001600160a01b03909116906323b872dd9061146a90339030908690600401611a3d565b6020604051808303816000875af1158015611489573d6000803e3d6000fd5b505050506040513d601f19601f820116820180604052508101906114ad9190611a61565b6114c95760405162461bcd60e51b81526004016105d590611a83565b60025460015460405163095ea7b360e01b81526001600160a01b0391821660048201526024810184905291169063095ea7b3906044016020604051808303816000875af115801561151e573d6000803e3d6000fd5b505050506040513d601f19601f820116820180604052508101906115429190611a61565b61155e5760405162461bcd60e51b81526004016105d590611aac565b60015460025460405163617ba03760e01b81526001600160a01b039182166004820152602481018490523060448201526000606482015291169063617ba03790608401600060405180830381600087803b1580156115bb57600080fd5b505af11580156115cf573d6000803e3d6000fd5b5050505060006115dd611343565b600554604051630ab714fb60e11b815233600482015260248101859052604481018390529192506000916001600160a01b039091169063156e29f6906064016020604051808303816000875af115801561163b573d6000803e3d6000fd5b505050506040513d601f19601f8201168201806040525081019061165f9190611af1565b905082600b6000828254611673919061191c565b9250508190555060016011600082825461168d919061191c565b9250508190555081601060008282546116a6919061191c565b909155506116b49050611749565b505050565b6116c1611795565b6001600160a01b0381166117265760405162461bcd60e51b815260206004820152602660248201527f4f776e61626c653a206e6577206f776e657220697320746865207a65726f206160448201526564647265737360d01b60648201526084016105d5565b610673816117ef565b8060156000828254611741919061191c565b909155505050565b600854600c5414801561175f5750600754600b54145b801561176b5750601254155b156111a157611778611343565b601255600d54611786611353565b611790919061191c565b601355565b6000546001600160a01b031633146111a15760405162461bcd60e51b815260206004820181905260248201527f4f776e61626c653a2063616c6c6572206973206e6f7420746865206f776e657260448201526064016105d5565b600080546001600160a01b038381166001600160a01b0319831681178455604051919092169283917f8be0079c531659141344cd1fd0a4f28419497f9722a3daafe3b4186f6b6457e09190a35050565b60008060006060848603121561185457600080fd5b505081359360208301359350604090920135919050565b60006020828403121561187d57600080fd5b5035919050565b6001600160a01b038116811461067357600080fd5b6000602082840312156118ab57600080fd5b81356118b681611884565b9392505050565b634e487b7160e01b600052601160045260246000fd5b60008160001904831182151516156118ed576118ed6118bd565b500290565b634e487b7160e01b600052601260045260246000fd5b600082611917576119176118f2565b500490565b6000821982111561192f5761192f6118bd565b500190565b600082821015611946576119466118bd565b500390565b60008083128015600160ff1b850184121615611969576119696118bd565b6001600160ff1b0384018313811615611984576119846118bd565b50500390565b60006001600160ff1b03818413828413808216868404861116156119b0576119b06118bd565b600160ff1b60008712828116878305891216156119cf576119cf6118bd565b600087129250878205871284841616156119eb576119eb6118bd565b87850587128184161615611a0157611a016118bd565b505050929093029392505050565b600082611a1e57611a1e6118f2565b600160ff1b821460001984141615611a3857611a386118bd565b500590565b6001600160a01b039384168152919092166020820152604081019190915260600190565b600060208284031215611a7357600080fd5b815180151581146118b657600080fd5b6020808252600f908201526e151c985b9cd9995c8819985a5b1959608a1b604082015260600190565b6020808252600e908201526d105c1c1c9bdd994819985a5b195960921b604082015260600190565b600060208284031215611ae657600080fd5b81516118b681611884565b600060208284031215611b0357600080fd5b5051919050565b600060608284031215611b1c57600080fd5b6040516060810181811067ffffffffffffffff82111715611b4d57634e487b7160e01b600052604160045260246000fd5b80604052508091508251815260208301516020820152604083015160408201525092915050565b600060608284031215611b8657600080fd5b6118b68383611b0a565b60008060008060008060c08789031215611ba957600080fd5b865195506020870151945060408701519350606087015192506080870151915060a08701519050929550929550929556fea2646970667358221220b7addfd4c3f51c9bd468237834048d3269a6c024f7fc2f047df47575bb4d57bc64736f6c634300080a003360806040526000600a553480156200001657600080fd5b5060405162001d3238038062001d32833981016040819052620000399162000176565b6040805180820182526012815271119a5e195908125b9d195c995cdd0813919560721b602080830191825283518085019094526005845264119253919560da1b9084015281519192916200009091600091620000d0565b508051620000a6906001906020840190620000d0565b5050600b80546001600160a01b0319166001600160a01b03939093169290921790915550620001e5565b828054620000de90620001a8565b90600052602060002090601f0160209004810192826200010257600085556200014d565b82601f106200011d57805160ff19168380011785556200014d565b828001600101855582156200014d579182015b828111156200014d57825182559160200191906001019062000130565b506200015b9291506200015f565b5090565b5b808211156200015b576000815560010162000160565b6000602082840312156200018957600080fd5b81516001600160a01b0381168114620001a157600080fd5b9392505050565b600181811c90821680620001bd57607f821691505b60208210811415620001df57634e487b7160e01b600052602260045260246000fd5b50919050565b611b3d80620001f56000396000f3fe608060405234801561001057600080fd5b506004361061012c5760003560e01c80634f6ccce7116100ad578063b88d4fde11610071578063b88d4fde14610277578063c13819b61461028a578063c3490263146102bf578063c87b56dd146102d2578063e985e9c5146102e557600080fd5b80634f6ccce7146102235780636352211e1461023657806370a082311461024957806395d89b411461025c578063a22cb4651461026457600080fd5b806318160ddd116100f457806318160ddd146101cf57806323b872dd146101d75780632f745c59146101ea57806342842e0e146101fd57806342966c681461021057600080fd5b806301ffc9a71461013157806306fdde0314610159578063081812fc1461016e578063095ea7b314610199578063156e29f6146101ae575b600080fd5b61014461013f3660046115a8565b610321565b60405190151581526020015b60405180910390f35b61016161034c565b604051610150919061161d565b61018161017c366004611630565b6103de565b6040516001600160a01b039091168152602001610150565b6101ac6101a7366004611665565b610405565b005b6101c16101bc36600461168f565b610520565b604051908152602001610150565b600a546101c1565b6101ac6101e53660046116c2565b6105b4565b6101c16101f8366004611665565b6105e5565b6101ac61020b3660046116c2565b61067b565b6101ac61021e366004611630565b610696565b6101c1610231366004611630565b6106cc565b610181610244366004611630565b61075f565b6101c16102573660046116fe565b6107bf565b610161610845565b6101ac610272366004611719565b610854565b6101ac61028536600461176b565b610863565b61029d610298366004611630565b61089b565b6040805182518152602080840151908201529181015190820152606001610150565b6101ac6102cd366004611847565b6108f8565b6101616102e0366004611630565b61094f565b6101446102f3366004611869565b6001600160a01b03918216600090815260056020908152604080832093909416825291909152205460ff1690565b60006001600160e01b0319821663780e9d6360e01b14806103465750610346826109c3565b92915050565b60606000805461035b9061189c565b80601f01602080910402602001604051908101604052809291908181526020018280546103879061189c565b80156103d45780601f106103a9576101008083540402835291602001916103d4565b820191906000526020600020905b8154815290600101906020018083116103b757829003601f168201915b5050505050905090565b60006103e982610a13565b506000908152600460205260409020546001600160a01b031690565b60006104108261075f565b9050806001600160a01b0316836001600160a01b031614156104835760405162461bcd60e51b815260206004820152602160248201527f4552433732313a20617070726f76616c20746f2063757272656e74206f776e656044820152603960f91b60648201526084015b60405180910390fd5b336001600160a01b038216148061049f575061049f81336102f3565b6105115760405162461bcd60e51b815260206004820152603d60248201527f4552433732313a20617070726f76652063616c6c6572206973206e6f7420746f60448201527f6b656e206f776e6572206f7220617070726f76656420666f7220616c6c000000606482015260840161047a565b61051b8383610a72565b505050565b600b546000906001600160a01b0316331461054d5760405162461bcd60e51b815260040161047a906118d7565b600a5461055a8582610ae0565b600a805490600061056a83611924565b90915550506040805160608101825285815260208082018681526000838501818152868252600c909352939093209151825591516001820155905160029091015590509392505050565b6105be3382610afa565b6105da5760405162461bcd60e51b815260040161047a9061193f565b61051b838383610b79565b60006105f0836107bf565b82106106525760405162461bcd60e51b815260206004820152602b60248201527f455243373231456e756d657261626c653a206f776e657220696e646578206f7560448201526a74206f6620626f756e647360a81b606482015260840161047a565b506001600160a01b03919091166000908152600660209081526040808320938352929052205490565b61051b83838360405180602001604052806000815250610863565b600b546001600160a01b031633146106c05760405162461bcd60e51b815260040161047a906118d7565b6106c981610cea565b50565b60006106d760085490565b821061073a5760405162461bcd60e51b815260206004820152602c60248201527f455243373231456e756d657261626c653a20676c6f62616c20696e646578206f60448201526b7574206f6620626f756e647360a01b606482015260840161047a565b6008828154811061074d5761074d61198c565b90600052602060002001549050919050565b6000818152600260205260408120546001600160a01b0316806103465760405162461bcd60e51b8152602060048201526018602482015277115490cdcc8c4e881a5b9d985b1a59081d1bdad95b88125160421b604482015260640161047a565b60006001600160a01b0382166108295760405162461bcd60e51b815260206004820152602960248201527f4552433732313a2061646472657373207a65726f206973206e6f7420612076616044820152683634b21037bbb732b960b91b606482015260840161047a565b506001600160a01b031660009081526003602052604090205490565b60606001805461035b9061189c565b61085f338383610d8d565b5050565b61086d3383610afa565b6108895760405162461bcd60e51b815260040161047a9061193f565b61089584848484610e5c565b50505050565b6108bf60405180606001604052806000815260200160008152602001600081525090565b506000908152600c6020908152604091829020825160608101845281548152600182015492810192909252600201549181019190915290565b600b546001600160a01b031633146109225760405162461bcd60e51b815260040161047a906118d7565b6000828152600c60205260408120600281018054919284926109459084906119a2565b9091555050505050565b606061095a82610a13565b600061097160408051602081019091526000815290565b9050600081511161099157604051806020016040528060008152506109bc565b8061099b84610e8f565b6040516020016109ac9291906119ba565b6040516020818303038152906040525b9392505050565b60006001600160e01b031982166380ac58cd60e01b14806109f457506001600160e01b03198216635b5e139f60e01b145b8061034657506301ffc9a760e01b6001600160e01b0319831614610346565b6000818152600260205260409020546001600160a01b03166106c95760405162461bcd60e51b8152602060048201526018602482015277115490cdcc8c4e881a5b9d985b1a59081d1bdad95b88125160421b604482015260640161047a565b600081815260046020526040902080546001600160a01b0319166001600160a01b0384169081179091558190610aa78261075f565b6001600160a01b03167f8c5be1e5ebec7d5bd14f71427d1e84f3dd0314c0f7b2291e5b200ac8c7c3b92560405160405180910390a45050565b61085f828260405180602001604052806000815250610f2c565b600080610b068361075f565b9050806001600160a01b0316846001600160a01b03161480610b4d57506001600160a01b0380821660009081526005602090815260408083209388168352929052205460ff165b80610b715750836001600160a01b0316610b66846103de565b6001600160a01b0316145b949350505050565b826001600160a01b0316610b8c8261075f565b6001600160a01b031614610bb25760405162461bcd60e51b815260040161047a906119e9565b6001600160a01b038216610c145760405162461bcd60e51b8152602060048201526024808201527f4552433732313a207472616e7366657220746f20746865207a65726f206164646044820152637265737360e01b606482015260840161047a565b610c218383836001610f5f565b826001600160a01b0316610c348261075f565b6001600160a01b031614610c5a5760405162461bcd60e51b815260040161047a906119e9565b600081815260046020908152604080832080546001600160a01b03199081169091556001600160a01b0387811680865260038552838620805460001901905590871680865283862080546001019055868652600290945282852080549092168417909155905184937fddf252ad1be2c89b69c2b068fc378daa952ba7f163c4a11628f55a4df523b3ef91a4505050565b6000610cf58261075f565b9050610d05816000846001610f5f565b610d0e8261075f565b600083815260046020908152604080832080546001600160a01b03199081169091556001600160a01b0385168085526003845282852080546000190190558785526002909352818420805490911690555192935084927fddf252ad1be2c89b69c2b068fc378daa952ba7f163c4a11628f55a4df523b3ef908390a45050565b816001600160a01b0316836001600160a01b03161415610def5760405162461bcd60e51b815260206004820152601960248201527f4552433732313a20617070726f766520746f2063616c6c657200000000000000604482015260640161047a565b6001600160a01b03838116600081815260056020908152604080832094871680845294825291829020805460ff191686151590811790915591519182527f17307eab39ab6107e8899845ad3d59bd9653f200f220920489ca2b5937696c31910160405180910390a3505050565b610e67848484610b79565b610e7384848484611093565b6108955760405162461bcd60e51b815260040161047a90611a2e565b60606000610e9c83611191565b600101905060008167ffffffffffffffff811115610ebc57610ebc611755565b6040519080825280601f01601f191660200182016040528015610ee6576020820181803683370190505b5090508181016020015b600019016f181899199a1a9b1b9c1cb0b131b232b360811b600a86061a8153600a8504945084610f1f57610f24565b610ef0565b509392505050565b610f368383611269565b610f436000848484611093565b61051b5760405162461bcd60e51b815260040161047a90611a2e565b6001811115610fce5760405162461bcd60e51b815260206004820152603560248201527f455243373231456e756d657261626c653a20636f6e7365637574697665207472604482015274185b9cd9995c9cc81b9bdd081cdd5c1c1bdc9d1959605a1b606482015260840161047a565b816001600160a01b03851661102a5761102581600880546000838152600960205260408120829055600182018355919091527ff3f7a9fe364faab93b216da50a3214154f22a0a2b415b23a84c8169e8b636ee30155565b61104d565b836001600160a01b0316856001600160a01b03161461104d5761104d8582611402565b6001600160a01b038416611069576110648161149f565b61108c565b846001600160a01b0316846001600160a01b03161461108c5761108c848261154e565b5050505050565b60006001600160a01b0384163b1561118657604051630a85bd0160e11b81526001600160a01b0385169063150b7a02906110d7903390899088908890600401611a80565b6020604051808303816000875af1925050508015611112575060408051601f3d908101601f1916820190925261110f91810190611abd565b60015b61116c573d808015611140576040519150601f19603f3d011682016040523d82523d6000602084013e611145565b606091505b5080516111645760405162461bcd60e51b815260040161047a90611a2e565b805181602001fd5b6001600160e01b031916630a85bd0160e11b149050610b71565b506001949350505050565b60008072184f03e93ff9f4daa797ed6e38ed64bf6a1f0160401b83106111d05772184f03e93ff9f4daa797ed6e38ed64bf6a1f0160401b830492506040015b6d04ee2d6d415b85acef810000000083106111fc576d04ee2d6d415b85acef8100000000830492506020015b662386f26fc10000831061121a57662386f26fc10000830492506010015b6305f5e1008310611232576305f5e100830492506008015b612710831061124657612710830492506004015b60648310611258576064830492506002015b600a83106103465760010192915050565b6001600160a01b0382166112bf5760405162461bcd60e51b815260206004820181905260248201527f4552433732313a206d696e7420746f20746865207a65726f2061646472657373604482015260640161047a565b6000818152600260205260409020546001600160a01b0316156113245760405162461bcd60e51b815260206004820152601c60248201527f4552433732313a20746f6b656e20616c7265616479206d696e74656400000000604482015260640161047a565b611332600083836001610f5f565b6000818152600260205260409020546001600160a01b0316156113975760405162461bcd60e51b815260206004820152601c60248201527f4552433732313a20746f6b656e20616c7265616479206d696e74656400000000604482015260640161047a565b6001600160a01b038216600081815260036020908152604080832080546001019055848352600290915280822080546001600160a01b0319168417905551839291907fddf252ad1be2c89b69c2b068fc378daa952ba7f163c4a11628f55a4df523b3ef908290a45050565b6000600161140f846107bf565b6114199190611ada565b60008381526007602052604090205490915080821461146c576001600160a01b03841660009081526006602090815260408083208584528252808320548484528184208190558352600790915290208190555b5060009182526007602090815260408084208490556001600160a01b039094168352600681528383209183525290812055565b6008546000906114b190600190611ada565b600083815260096020526040812054600880549394509092849081106114d9576114d961198c565b9060005260206000200154905080600883815481106114fa576114fa61198c565b600091825260208083209091019290925582815260099091526040808220849055858252812055600880548061153257611532611af1565b6001900381819060005260206000200160009055905550505050565b6000611559836107bf565b6001600160a01b039093166000908152600660209081526040808320868452825280832085905593825260079052919091209190915550565b6001600160e01b0319811681146106c957600080fd5b6000602082840312156115ba57600080fd5b81356109bc81611592565b60005b838110156115e05781810151838201526020016115c8565b838111156108955750506000910152565b600081518084526116098160208601602086016115c5565b601f01601f19169290920160200192915050565b6020815260006109bc60208301846115f1565b60006020828403121561164257600080fd5b5035919050565b80356001600160a01b038116811461166057600080fd5b919050565b6000806040838503121561167857600080fd5b61168183611649565b946020939093013593505050565b6000806000606084860312156116a457600080fd5b6116ad84611649565b95602085013595506040909401359392505050565b6000806000606084860312156116d757600080fd5b6116e084611649565b92506116ee60208501611649565b9150604084013590509250925092565b60006020828403121561171057600080fd5b6109bc82611649565b6000806040838503121561172c57600080fd5b61173583611649565b91506020830135801515811461174a57600080fd5b809150509250929050565b634e487b7160e01b600052604160045260246000fd5b6000806000806080858703121561178157600080fd5b61178a85611649565b935061179860208601611649565b925060408501359150606085013567ffffffffffffffff808211156117bc57600080fd5b818701915087601f8301126117d057600080fd5b8135818111156117e2576117e2611755565b604051601f8201601f19908116603f0116810190838211818310171561180a5761180a611755565b816040528281528a602084870101111561182357600080fd5b82602086016020830137600060208483010152809550505050505092959194509250565b6000806040838503121561185a57600080fd5b50508035926020909101359150565b6000806040838503121561187c57600080fd5b61188583611649565b915061189360208401611649565b90509250929050565b600181811c908216806118b057607f821691505b602082108114156118d157634e487b7160e01b600052602260045260246000fd5b50919050565b6020808252601f908201527f43616c6c6572206973206e6f742074686520506f6f6c20636f6e747261637400604082015260600190565b634e487b7160e01b600052601160045260246000fd5b60006000198214156119385761193861190e565b5060010190565b6020808252602d908201527f4552433732313a2063616c6c6572206973206e6f7420746f6b656e206f776e6560408201526c1c881bdc88185c1c1c9bdd9959609a1b606082015260800190565b634e487b7160e01b600052603260045260246000fd5b600082198211156119b5576119b561190e565b500190565b600083516119cc8184602088016115c5565b8351908301906119e08183602088016115c5565b01949350505050565b60208082526025908201527f4552433732313a207472616e736665722066726f6d20696e636f72726563742060408201526437bbb732b960d91b606082015260800190565b60208082526032908201527f4552433732313a207472616e7366657220746f206e6f6e20455243373231526560408201527131b2b4bb32b91034b6b83632b6b2b73a32b960711b606082015260800190565b6001600160a01b0385811682528416602082015260408101839052608060608201819052600090611ab3908301846115f1565b9695505050505050565b600060208284031215611acf57600080fd5b81516109bc81611592565b600082821015611aec57611aec61190e565b500390565b634e487b7160e01b600052603160045260246000fdfea264697066735822122078be820d7fd2f8efd83766b7b66d3f0d3b69913f97e502cf1b30e0406f5b222e64736f6c634300080a003360806040526000600a553480156200001657600080fd5b5060405162001d3d38038062001d3d833981016040819052620000399162000181565b604080518082018252601581527f5661726961626c6520496e746572657374204e46540000000000000000000000602080830191825283518085019094526005845264159253919560da1b9084015281519192916200009b91600091620000db565b508051620000b1906001906020840190620000db565b5050600b80546001600160a01b0319166001600160a01b03939093169290921790915550620001f0565b828054620000e990620001b3565b90600052602060002090601f0160209004810192826200010d576000855562000158565b82601f106200012857805160ff191683800117855562000158565b8280016001018555821562000158579182015b82811115620001585782518255916020019190600101906200013b565b50620001669291506200016a565b5090565b5b808211156200016657600081556001016200016b565b6000602082840312156200019457600080fd5b81516001600160a01b0381168114620001ac57600080fd5b9392505050565b600181811c90821680620001c857607f821691505b60208210811415620001ea57634e487b7160e01b600052602260045260246000fd5b50919050565b611b3d80620002006000396000f3fe608060405234801561001057600080fd5b506004361061012c5760003560e01c80634f6ccce7116100ad578063b88d4fde11610071578063b88d4fde14610277578063c13819b61461028a578063c3490263146102bf578063c87b56dd146102d2578063e985e9c5146102e557600080fd5b80634f6ccce7146102235780636352211e1461023657806370a082311461024957806395d89b411461025c578063a22cb4651461026457600080fd5b806318160ddd116100f457806318160ddd146101cf57806323b872dd146101d75780632f745c59146101ea57806342842e0e146101fd57806342966c681461021057600080fd5b806301ffc9a71461013157806306fdde0314610159578063081812fc1461016e578063095ea7b314610199578063156e29f6146101ae575b600080fd5b61014461013f3660046115a8565b610321565b60405190151581526020015b60405180910390f35b61016161034c565b604051610150919061161d565b61018161017c366004611630565b6103de565b6040516001600160a01b039091168152602001610150565b6101ac6101a7366004611665565b610405565b005b6101c16101bc36600461168f565b610520565b604051908152602001610150565b600a546101c1565b6101ac6101e53660046116c2565b6105b4565b6101c16101f8366004611665565b6105e5565b6101ac61020b3660046116c2565b61067b565b6101ac61021e366004611630565b610696565b6101c1610231366004611630565b6106cc565b610181610244366004611630565b61075f565b6101c16102573660046116fe565b6107bf565b610161610845565b6101ac610272366004611719565b610854565b6101ac61028536600461176b565b610863565b61029d610298366004611630565b61089b565b6040805182518152602080840151908201529181015190820152606001610150565b6101ac6102cd366004611847565b6108f8565b6101616102e0366004611630565b61094f565b6101446102f3366004611869565b6001600160a01b03918216600090815260056020908152604080832093909416825291909152205460ff1690565b60006001600160e01b0319821663780e9d6360e01b14806103465750610346826109c3565b92915050565b60606000805461035b9061189c565b80601f01602080910402602001604051908101604052809291908181526020018280546103879061189c565b80156103d45780601f106103a9576101008083540402835291602001916103d4565b820191906000526020600020905b8154815290600101906020018083116103b757829003601f168201915b5050505050905090565b60006103e982610a13565b506000908152600460205260409020546001600160a01b031690565b60006104108261075f565b9050806001600160a01b0316836001600160a01b031614156104835760405162461bcd60e51b815260206004820152602160248201527f4552433732313a20617070726f76616c20746f2063757272656e74206f776e656044820152603960f91b60648201526084015b60405180910390fd5b336001600160a01b038216148061049f575061049f81336102f3565b6105115760405162461bcd60e51b815260206004820152603d60248201527f4552433732313a20617070726f76652063616c6c6572206973206e6f7420746f60448201527f6b656e206f776e6572206f7220617070726f76656420666f7220616c6c000000606482015260840161047a565b61051b8383610a72565b505050565b600b546000906001600160a01b0316331461054d5760405162461bcd60e51b815260040161047a906118d7565b600a5461055a8582610ae0565b600a805490600061056a83611924565b90915550506040805160608101825285815260208082018681526000838501818152868252600c909352939093209151825591516001820155905160029091015590509392505050565b6105be3382610afa565b6105da5760405162461bcd60e51b815260040161047a9061193f565b61051b838383610b79565b60006105f0836107bf565b82106106525760405162461bcd60e51b815260206004820152602b60248201527f455243373231456e756d657261626c653a206f776e657220696e646578206f7560448201526a74206f6620626f756e647360a81b606482015260840161047a565b506001600160a01b03919091166000908152600660209081526040808320938352929052205490565b61051b83838360405180602001604052806000815250610863565b600b546001600160a01b031633146106c05760405162461bcd60e51b815260040161047a906118d7565b6106c981610cea565b50565b60006106d760085490565b821061073a5760405162461bcd60e51b815260206004820152602c60248201527f455243373231456e756d657261626c653a20676c6f62616c20696e646578206f60448201526b7574206f6620626f756e647360a01b606482015260840161047a565b6008828154811061074d5761074d61198c565b90600052602060002001549050919050565b6000818152600260205260408120546001600160a01b0316806103465760405162461bcd60e51b8152602060048201526018602482015277115490cdcc8c4e881a5b9d985b1a59081d1bdad95b88125160421b604482015260640161047a565b60006001600160a01b0382166108295760405162461bcd60e51b815260206004820152602960248201527f4552433732313a2061646472657373207a65726f206973206e6f7420612076616044820152683634b21037bbb732b960b91b606482015260840161047a565b506001600160a01b031660009081526003602052604090205490565b60606001805461035b9061189c565b61085f338383610d8d565b5050565b61086d3383610afa565b6108895760405162461bcd60e51b815260040161047a9061193f565b61089584848484610e5c565b50505050565b6108bf60405180606001604052806000815260200160008152602001600081525090565b506000908152600c6020908152604091829020825160608101845281548152600182015492810192909252600201549181019190915290565b600b546001600160a01b031633146109225760405162461bcd60e51b815260040161047a906118d7565b6000828152600c60205260408120600281018054919284926109459084906119a2565b9091555050505050565b606061095a82610a13565b600061097160408051602081019091526000815290565b9050600081511161099157604051806020016040528060008152506109bc565b8061099b84610e8f565b6040516020016109ac9291906119ba565b6040516020818303038152906040525b9392505050565b60006001600160e01b031982166380ac58cd60e01b14806109f457506001600160e01b03198216635b5e139f60e01b145b8061034657506301ffc9a760e01b6001600160e01b0319831614610346565b6000818152600260205260409020546001600160a01b03166106c95760405162461bcd60e51b8152602060048201526018602482015277115490cdcc8c4e881a5b9d985b1a59081d1bdad95b88125160421b604482015260640161047a565b600081815260046020526040902080546001600160a01b0319166001600160a01b0384169081179091558190610aa78261075f565b6001600160a01b03167f8c5be1e5ebec7d5bd14f71427d1e84f3dd0314c0f7b2291e5b200ac8c7c3b92560405160405180910390a45050565b61085f828260405180602001604052806000815250610f2c565b600080610b068361075f565b9050806001600160a01b0316846001600160a01b03161480610b4d57506001600160a01b0380821660009081526005602090815260408083209388168352929052205460ff165b80610b715750836001600160a01b0316610b66846103de565b6001600160a01b0316145b949350505050565b826001600160a01b0316610b8c8261075f565b6001600160a01b031614610bb25760405162461bcd60e51b815260040161047a906119e9565b6001600160a01b038216610c145760405162461bcd60e51b8152602060048201526024808201527f4552433732313a207472616e7366657220746f20746865207a65726f206164646044820152637265737360e01b606482015260840161047a565b610c218383836001610f5f565b826001600160a01b0316610c348261075f565b6001600160a01b031614610c5a5760405162461bcd60e51b815260040161047a906119e9565b600081815260046020908152604080832080546001600160a01b03199081169091556001600160a01b0387811680865260038552838620805460001901905590871680865283862080546001019055868652600290945282852080549092168417909155905184937fddf252ad1be2c89b69c2b068fc378daa952ba7f163c4a11628f55a4df523b3ef91a4505050565b6000610cf58261075f565b9050610d05816000846001610f5f565b610d0e8261075f565b600083815260046020908152604080832080546001600160a01b03199081169091556001600160a01b0385168085526003845282852080546000190190558785526002909352818420805490911690555192935084927fddf252ad1be2c89b69c2b068fc378daa952ba7f163c4a11628f55a4df523b3ef908390a45050565b816001600160a01b0316836001600160a01b03161415610def5760405162461bcd60e51b815260206004820152601960248201527f4552433732313a20617070726f766520746f2063616c6c657200000000000000604482015260640161047a565b6001600160a01b03838116600081815260056020908152604080832094871680845294825291829020805460ff191686151590811790915591519182527f17307eab39ab6107e8899845ad3d59bd9653f200f220920489ca2b5937696c31910160405180910390a3505050565b610e67848484610b79565b610e7384848484611093565b6108955760405162461bcd60e51b815260040161047a90611a2e565b60606000610e9c83611191565b600101905060008167ffffffffffffffff811115610ebc57610ebc611755565b6040519080825280601f01601f191660200182016040528015610ee6576020820181803683370190505b5090508181016020015b600019016f181899199a1a9b1b9c1cb0b131b232b360811b600a86061a8153600a8504945084610f1f57610f24565b610ef0565b509392505050565b610f368383611269565b610f436000848484611093565b61051b5760405162461bcd60e51b815260040161047a90611a2e565b6001811115610fce5760405162461bcd60e51b815260206004820152603560248201527f455243373231456e756d657261626c653a20636f6e7365637574697665207472604482015274185b9cd9995c9cc81b9bdd081cdd5c1c1bdc9d1959605a1b606482015260840161047a565b816001600160a01b03851661102a5761102581600880546000838152600960205260408120829055600182018355919091527ff3f7a9fe364faab93b216da50a3214154f22a0a2b415b23a84c8169e8b636ee30155565b61104d565b836001600160a01b0316856001600160a01b03161461104d5761104d8582611402565b6001600160a01b038416611069576110648161149f565b61108c565b846001600160a01b0316846001600160a01b03161461108c5761108c848261154e565b5050505050565b60006001600160a01b0384163b1561118657604051630a85bd0160e11b81526001600160a01b0385169063150b7a02906110d7903390899088908890600401611a80565b6020604051808303816000875af1925050508015611112575060408051601f3d908101601f1916820190925261110f91810190611abd565b60015b61116c573d808015611140576040519150601f19603f3d011682016040523d82523d6000602084013e611145565b606091505b5080516111645760405162461bcd60e51b815260040161047a90611a2e565b805181602001fd5b6001600160e01b031916630a85bd0160e11b149050610b71565b506001949350505050565b60008072184f03e93ff9f4daa797ed6e38ed64bf6a1f0160401b83106111d05772184f03e93ff9f4daa797ed6e38ed64bf6a1f0160401b830492506040015b6d04ee2d6d415b85acef810000000083106111fc576d04ee2d6d415b85acef8100000000830492506020015b662386f26fc10000831061121a57662386f26fc10000830492506010015b6305f5e1008310611232576305f5e100830492506008015b612710831061124657612710830492506004015b60648310611258576064830492506002015b600a83106103465760010192915050565b6001600160a01b0382166112bf5760405162461bcd60e51b815260206004820181905260248201527f4552433732313a206d696e7420746f20746865207a65726f2061646472657373604482015260640161047a565b6000818152600260205260409020546001600160a01b0316156113245760405162461bcd60e51b815260206004820152601c60248201527f4552433732313a20746f6b656e20616c7265616479206d696e74656400000000604482015260640161047a565b611332600083836001610f5f565b6000818152600260205260409020546001600160a01b0316156113975760405162461bcd60e51b815260206004820152601c60248201527f4552433732313a20746f6b656e20616c7265616479206d696e74656400000000604482015260640161047a565b6001600160a01b038216600081815260036020908152604080832080546001019055848352600290915280822080546001600160a01b0319168417905551839291907fddf252ad1be2c89b69c2b068fc378daa952ba7f163c4a11628f55a4df523b3ef908290a45050565b6000600161140f846107bf565b6114199190611ada565b60008381526007602052604090205490915080821461146c576001600160a01b03841660009081526006602090815260408083208584528252808320548484528184208190558352600790915290208190555b5060009182526007602090815260408084208490556001600160a01b039094168352600681528383209183525290812055565b6008546000906114b190600190611ada565b600083815260096020526040812054600880549394509092849081106114d9576114d961198c565b9060005260206000200154905080600883815481106114fa576114fa61198c565b600091825260208083209091019290925582815260099091526040808220849055858252812055600880548061153257611532611af1565b6001900381819060005260206000200160009055905550505050565b6000611559836107bf565b6001600160a01b039093166000908152600660209081526040808320868452825280832085905593825260079052919091209190915550565b6001600160e01b0319811681146106c957600080fd5b6000602082840312156115ba57600080fd5b81356109bc81611592565b60005b838110156115e05781810151838201526020016115c8565b838111156108955750506000910152565b600081518084526116098160208601602086016115c5565b601f01601f19169290920160200192915050565b6020815260006109bc60208301846115f1565b60006020828403121561164257600080fd5b5035919050565b80356001600160a01b038116811461166057600080fd5b919050565b6000806040838503121561167857600080fd5b61168183611649565b946020939093013593505050565b6000806000606084860312156116a457600080fd5b6116ad84611649565b95602085013595506040909401359392505050565b6000806000606084860312156116d757600080fd5b6116e084611649565b92506116ee60208501611649565b9150604084013590509250925092565b60006020828403121561171057600080fd5b6109bc82611649565b6000806040838503121561172c57600080fd5b61173583611649565b91506020830135801515811461174a57600080fd5b809150509250929050565b634e487b7160e01b600052604160045260246000fd5b6000806000806080858703121561178157600080fd5b61178a85611649565b935061179860208601611649565b925060408501359150606085013567ffffffffffffffff808211156117bc57600080fd5b818701915087601f8301126117d057600080fd5b8135818111156117e2576117e2611755565b604051601f8201601f19908116603f0116810190838211818310171561180a5761180a611755565b816040528281528a602084870101111561182357600080fd5b82602086016020830137600060208483010152809550505050505092959194509250565b6000806040838503121561185a57600080fd5b50508035926020909101359150565b6000806040838503121561187c57600080fd5b61188583611649565b915061189360208401611649565b90509250929050565b600181811c908216806118b057607f821691505b602082108114156118d157634e487b7160e01b600052602260045260246000fd5b50919050565b6020808252601f908201527f43616c6c6572206973206e6f742074686520506f6f6c20636f6e747261637400604082015260600190565b634e487b7160e01b600052601160045260246000fd5b60006000198214156119385761193861190e565b5060010190565b6020808252602d908201527f4552433732313a2063616c6c6572206973206e6f7420746f6b656e206f776e6560408201526c1c881bdc88185c1c1c9bdd9959609a1b606082015260800190565b634e487b7160e01b600052603260045260246000fd5b600082198211156119b5576119b561190e565b500190565b600083516119cc8184602088016115c5565b8351908301906119e08183602088016115c5565b01949350505050565b60208082526025908201527f4552433732313a207472616e736665722066726f6d20696e636f72726563742060408201526437bbb732b960d91b606082015260800190565b60208082526032908201527f4552433732313a207472616e7366657220746f206e6f6e20455243373231526560408201527131b2b4bb32b91034b6b83632b6b2b73a32b960711b606082015260800190565b6001600160a01b0385811682528416602082015260408101839052608060608201819052600090611ab3908301846115f1565b9695505050505050565b600060208284031215611acf57600080fd5b81516109bc81611592565b600082821015611aec57611aec61190e565b500390565b634e487b7160e01b600052603160045260246000fdfea2646970667358221220c36d952ba2cb6df425f11d0993965c5eacd41a09e79fe1d2493d5d03d61e308964736f6c634300080a0033a264697066735822122065dbe8180d876352d417f1e3136188bb09902793511a11c6f74991c1ef35438264736f6c634300080a0033",
  "linkReferences": {},
  "deployedLinkReferences": {}
}