{
  "_format": "hh-sol-artifact-1",
  "contractName": "PoolDeployer",
  "sourceName": "contracts/PoolDeployer.sol",
  "abi": [
    {
      "anonymous": false,
      "inputs": [
        {
          "indexed": false,
          "internalType": "contract Pool",
          "name": "pool",
          "type": "address"
        }
      ],
      "name": "PoolCreated",
      "type": "event"
    },
    {
      "inputs": [
        {
          "internalType": "address",
          "name": "_aaveAddresses",
          "type": "address"
        },
        {
          "internalType": "address",
          "name": "_daiAddress",
          "type": "address"
        },
        {
          "internalType": "uint256",
          "name": "_fixedPoolLimit",
          "type": "uint256"
        },
        {
          "internalType": "uint256",
          "name": "_lockDuration",
          "type": "uint256"
        },
        {
          "internalType": "uint256",
          "name": "_interestRate",
          "type": "uint256"
        },
        {
          "internalType": "address",
          "name": "_poolLogic",
          "type": "address"
        }
      ],
      "name": "createPool",
      "outputs": [],
      "stateMutability": "nonpayable",
      "type": "function"
    },
    {
      "inputs": [
        {
          "internalType": "contract Pool",
          "name": "poolToRemove",
          "type": "address"
        }
      ],
      "name": "deletePool",
      "outputs": [],
      "stateMutability": "nonpayable",
      "type": "function"
    },
    {
      "inputs": [],
      "name": "getPoolLength",
      "outputs": [
        {
          "internalType": "uint256",
          "name": "",
          "type": "uint256"
        }
      ],
      "stateMutability": "view",
      "type": "function"
    },
    {
      "inputs": [
        {
          "internalType": "uint256",
          "name": "",
          "type": "uint256"
        }
      ],
      "name": "pools",
      "outputs": [
        {
          "internalType": "contract Pool",
          "name": "pool",
          "type": "address"
        }
      ],
      "stateMutability": "view",
      "type": "function"
    }
  ],
  "bytecode": "0x608060405234801561001057600080fd5b50614b94806100206000396000f3fe608060405234801561001057600080fd5b506004361061004c5760003560e01c806397b0f20514610051578063aacabf7114610066578063ac4afa3814610079578063b3944d52146100a9575b600080fd5b61006461005f366004610306565b6100ba565b005b61006461007436600461032a565b6101b2565b61008c610087366004610391565b6102b6565b6040516001600160a01b0390911681526020015b60405180910390f35b6000546040519081526020016100a0565b60005b6000548110156101ae57816001600160a01b0316600082815481106100e4576100e46103aa565b6000918252602090912001546001600160a01b0316141561019c576000805461010f906001906103d6565b8154811061011f5761011f6103aa565b906000526020600020016000828154811061013c5761013c6103aa565b6000918252602082209254920180546001600160a01b0319166001600160a01b0390931692909217909155805480610176576101766103ed565b600082815260209020810160001990810180546001600160a01b03191690550190555050565b806101a681610403565b9150506100bd565b5050565b60008686868686866040516101c6906102e0565b6001600160a01b039687168152948616602086015260408501939093526060840191909152608083015290911660a082015260c001604051809103906000f080158015610217573d6000803e3d6000fd5b5060408051602080820183526001600160a01b038481168084526000805460018101825590805293517f290decd9548b62a8d60345a988386fc84ba6bc95484008f6362f93160ef3e56390940180546001600160a01b0319169490921693909317905591519081529192507f83a48fbcfc991335314e74d0496aab6a1987e992ddc85dddbcc4d6dd6ef2e9fc910160405180910390a150505050505050565b600081815481106102c657600080fd5b6000918252602090912001546001600160a01b0316905081565b614740806200041f83390190565b6001600160a01b038116811461030357600080fd5b50565b60006020828403121561031857600080fd5b8135610323816102ee565b9392505050565b60008060008060008060c0878903121561034357600080fd5b863561034e816102ee565b9550602087013561035e816102ee565b945060408701359350606087013592506080870135915060a0870135610383816102ee565b809150509295509295509295565b6000602082840312156103a357600080fd5b5035919050565b634e487b7160e01b600052603260045260246000fd5b634e487b7160e01b600052601160045260246000fd5b6000828210156103e8576103e86103c0565b500390565b634e487b7160e01b600052603160045260246000fd5b6000600019821415610417576104176103c0565b506001019056fe608060405260178054610100600160a81b03191674dabd0fabd68235ed23432faf2272a46a618b7dcd001790553480156200003957600080fd5b5060405162004740380380620047408339810160408190526200005c91620002fe565b620000673362000283565b601480546001600160a01b038084166001600160a01b0319928316179092556003805492891692909116821790556040805163026b1d5f60e01b8152905163026b1d5f916004808201926020929091908290030181865afa158015620000d1573d6000803e3d6000fd5b505050506040513d601f19601f82011682018060405250810190620000f7919062000364565b600480546001600160a01b03199081166001600160a01b03938416908117835560018054831690911790556002805490911688841617905560078690556009859055600a8490556014546040516301786f6360e21b81529182018790526024820185905260448201869052909116906305e1bd8c90606401602060405180830381865afa1580156200018d573d6000803e3d6000fd5b505050506040513d601f19601f82011682018060405250810190620001b3919062000389565b600855426015556040513090620001ca90620002d3565b6001600160a01b039091168152602001604051809103906000f080158015620001f7573d6000803e3d6000fd5b50600580546001600160a01b0319166001600160a01b039290921691909117905560405130906200022890620002d3565b6001600160a01b039091168152602001604051809103906000f08015801562000255573d6000803e3d6000fd5b50600680546001600160a01b0319166001600160a01b039290921691909117905550620003a3945050505050565b600080546001600160a01b038381166001600160a01b0319831681178455604051919092169283917f8be0079c531659141344cd1fd0a4f28419497f9722a3daafe3b4186f6b6457e09190a35050565b61268b80620020b583390190565b80516001600160a01b0381168114620002f957600080fd5b919050565b60008060008060008060c087890312156200031857600080fd5b6200032387620002e1565b95506200033360208801620002e1565b94506040870151935060608701519250608087015191506200035860a08801620002e1565b90509295509295509295565b6000602082840312156200037757600080fd5b6200038282620002e1565b9392505050565b6000602082840312156200039c57600080fd5b5051919050565b611d0280620003b36000396000f3fe608060405234801561001057600080fd5b50600436106101d15760003560e01c806373fce7ec11610105578063a9b12c4c1161009d578063a9b12c4c14610369578063c4e41b2214610371578063dd4f205914610379578063e4f112471461038c578063ea1ba55614610395578063ebf4bd5b1461039e578063f2fde38b146103a7578063f82923da146103ba578063fccbe7f6146103c357600080fd5b806373fce7ec146102f257806378d8e48e146102fb578063793265a9146103185780637c3a00fd14610321578063832578891461032a578063857a5c32146103335780638da5cb5b1461034657806399489d9414610357578063a5a175ec1461036057600080fd5b806338a9a6861161017857806338a9a6861461027257806339b81fd9146102855780635257b566146102985780635ade2035146102a05780635f96dc11146102b357806365ad7c00146102bc57806367fc6dea146102cf5780636e8fb459146102d7578063715018a6146102ea57600080fd5b806304144ec7146101d657806304554443146101f2578063149c8507146101fb57806314a3db2d146102045780631a2c9fff1461022157806329796ae51461022a5780632cc79b6a1461023f5780632f47bf621461025f575b600080fd5b6101df60075481565b6040519081526020015b60405180910390f35b6101df60095481565b6101df600e5481565b61020c6103d6565b604080519283526020830191909152016101e9565b6101df60085481565b61023d6102383660046116f4565b6104bf565b005b600654610252906001600160a01b031681565b6040516101e9919061170d565b61023d61026d3660046116f4565b6107c5565b61023d6102803660046116f4565b61099a565b601454610252906001600160a01b031681565b6101df610cb2565b6101df6102ae3660046116f4565b610d3e565b6101df60105481565b61020c6102ca3660046116f4565b610d63565b6101df610ec0565b6101df6102e53660046116f4565b610f10565b61023d61106b565b6101df600d5481565b6017546103089060ff1681565b60405190151581526020016101e9565b6101df60115481565b6101df600a5481565b6101df600f5481565b600554610252906001600160a01b031681565b6000546001600160a01b0316610252565b6101df60165481565b6101df60155481565b6101df61107f565b6101df61108f565b61023d6103873660046116f4565b611123565b6101df600b5481565b6101df600c5481565b6101df60135481565b61023d6103b5366004611736565b611446565b6101df60125481565b61023d6103d13660046116f4565b6114bf565b600080601460009054906101000a90046001600160a01b03166001600160a01b031663c1ffff20600a54601054600854600954600f54600d5460115461041a61108f565b61042261107f565b6040516001600160e01b031960e08c901b1681526004810199909952602489019790975260448801959095526064870193909352608486019190915260a485015260c484015260e4830152610104820152610124016040805180830381865afa158015610493573d6000803e3d6000fd5b505050506040513d601f19601f820116820180604052508101906104b7919061175a565b915091509091565b6006546040516331a9108f60e11b81526004810183905233916001600160a01b031690636352211e90602401602060405180830381865afa158015610508573d6000803e3d6000fd5b505050506040513d601f19601f8201168201806040525081019061052c919061178e565b6001600160a01b03161461055b5760405162461bcd60e51b8152600401610552906117ab565b60405180910390fd5b6000601054118015610583575060095460105461057891906117f2565b61058061107f565b10155b61059f5760405162461bcd60e51b81526004016105529061180a565b60006105aa82610f10565b905080600f60008282546105be91906117f2565b9091555050600154600254604051631a4ca37b60e21b81526001600160a01b03928316926369328dec926105fb929116908590309060040161183d565b6020604051808303816000875af115801561061a573d6000803e3d6000fd5b505050506040513d601f19601f8201168201806040525081019061063e9190611860565b5060025460405163a9059cbb60e01b81526001600160a01b039091169063a9059cbb906106719033908590600401611879565b6020604051808303816000875af1158015610690573d6000803e3d6000fd5b505050506040513d601f19601f820116820180604052508101906106b49190611892565b6106d05760405162461bcd60e51b8152600401610552906118b4565b60065460405163c349026360e01b815260048101849052602481018390526001600160a01b039091169063c349026390604401600060405180830381600087803b15801561071d57600080fd5b505af1158015610731573d6000803e3d6000fd5b50505050600060105411801561075d575060095460105461075291906117f2565b61075a61107f565b10155b156107c157600654604051630852cd8d60e31b8152600481018490526001600160a01b03909116906342966c6890602401600060405180830381600087803b1580156107a857600080fd5b505af11580156107bc573d6000803e3d6000fd5b505050505b5050565b60085481600c546107d691906117f2565b11156108245760405162461bcd60e51b815260206004820152601b60248201527f5661726961626c6520706f6f6c206c696d6974207265616368656400000000006044820152606401610552565b6002546040516323b872dd60e01b81526001600160a01b03909116906323b872dd90610858903390309086906004016118dd565b6020604051808303816000875af1158015610877573d6000803e3d6000fd5b505050506040513d601f19601f8201168201806040525081019061089b9190611892565b6108b75760405162461bcd60e51b8152600401610552906118b4565b6006546000906001600160a01b031663669e0ac233846108d561107f565b6108dd610cb2565b6040516001600160e01b031960e087901b1681526001600160a01b0390941660048501526024840192909252604483015260a06064830152600860a4830152675661726961626c6560c01b60c4830152608482015260e4016020604051808303816000875af1158015610954573d6000803e3d6000fd5b505050506040513d601f19601f820116820180604052508101906109789190611860565b905081600c600082825461098c91906117f2565b909155506107c190506115cc565b6005546040516331a9108f60e11b81526004810183905233916001600160a01b031690636352211e90602401602060405180830381865afa1580156109e3573d6000803e3d6000fd5b505050506040513d601f19601f82011682018060405250810190610a07919061178e565b6001600160a01b031614610a2d5760405162461bcd60e51b8152600401610552906117ab565b6000601054118015610a555750600954601054610a4a91906117f2565b610a5261107f565b10155b610a715760405162461bcd60e51b81526004016105529061180a565b600080610a7d83610d63565b90925090506000610a8e82846117f2565b90508215610b2a5782600d6000828254610aa891906117f2565b9091555050600154600254604051631a4ca37b60e21b81526001600160a01b03928316926369328dec92610ae5929116908790309060040161183d565b6020604051808303816000875af1158015610b04573d6000803e3d6000fd5b505050506040513d601f19601f82011682018060405250810190610b289190611860565b505b60025460405163a9059cbb60e01b81526001600160a01b039091169063a9059cbb90610b5c9033908590600401611879565b6020604051808303816000875af1158015610b7b573d6000803e3d6000fd5b505050506040513d601f19601f82011682018060405250810190610b9f9190611892565b610bbb5760405162461bcd60e51b8152600401610552906118b4565b60055460405163c349026360e01b815260048101869052602481018390526001600160a01b039091169063c349026390604401600060405180830381600087803b158015610c0857600080fd5b505af1158015610c1c573d6000803e3d6000fd5b505050506000601054118015610c485750600954601054610c3d91906117f2565b610c4561107f565b10155b15610cac57600554604051630852cd8d60e31b8152600481018690526001600160a01b03909116906342966c6890602401600060405180830381600087803b158015610c9357600080fd5b505af1158015610ca7573d6000803e3d6000fd5b505050505b50505050565b6001546002546040516335ea6a7560e01b81526000926001600160a01b03908116926335ea6a7592610cea929091169060040161170d565b6101e060405180830381865afa158015610d08573d6000803e3d6000fd5b505050506040513d601f19601f82011682018060405250810190610d2c91906119c7565b604001516001600160801b0316905090565b6000806000610d4c84610d63565b9092509050610d5b81836117f2565b949350505050565b60055460405163609c0cdb60e11b815260048101839052600091829182916001600160a01b03169063c13819b690602401606060405180830381865afa158015610db1573d6000803e3d6000fd5b505050506040513d601f19601f82011682018060405250810190610dd59190611aea565b905060006040518060e001604052806010548152602001610df461107f565b8152600954602082015260175460ff161515604082015260155460608201526016546080820152600a5460a090910152601454601154600b54600d549394506001600160a01b039092169263d545c4839286928692909190610e5461108f565b6040518763ffffffff1660e01b8152600401610e7596959493929190611b9a565b6040805180830381865afa158015610e91573d6000803e3d6000fd5b505050506040513d601f19601f82011682018060405250810190610eb5919061175a565b935093505050915091565b600060105460001415610ed35750600090565b600954601054610ee391906117f2565b610eeb61107f565b1015610f0957610f04610efc61107f565b601054611625565b905090565b5060095490565b60065460405163609c0cdb60e11b81526004810183905260009182916001600160a01b039091169063c13819b690602401606060405180830381865afa158015610f5e573d6000803e3d6000fd5b505050506040513d601f19601f82011682018060405250810190610f829190611aea565b905060006040518060e001604052806010548152602001610fa161107f565b8152600954602082015260175460ff161515604082015260155460608201526016546080820152600a5460a090910152601454601154600c54600f549394506001600160a01b03909216926376fe5ace928692869290919061100161108f565b600854600d546040518963ffffffff1660e01b815260040161102a989796959493929190611beb565b602060405180830381865afa158015611047573d6000803e3d6000fd5b505050506040513d601f19601f82011682018060405250810190610d5b9190611860565b61107361164a565b61107d60006116a4565b565b600060135442610f0491906117f2565b600154604051632fe4a15f60e21b815260009182916001600160a01b039091169063bf92857c906110c490309060040161170d565b60c060405180830381865afa1580156110e1573d6000803e3d6000fd5b505050506040513d601f19601f820116820180604052508101906111059190611c4c565b50505050509050806402540be40061111d9190611c96565b91505090565b60075481600b5461113491906117f2565b11156111775760405162461bcd60e51b8152602060048201526012602482015271141bdbdb081b1a5b5a5d081c995858da195960721b6044820152606401610552565b6002546040516323b872dd60e01b81526001600160a01b03909116906323b872dd906111ab903390309086906004016118dd565b6020604051808303816000875af11580156111ca573d6000803e3d6000fd5b505050506040513d601f19601f820116820180604052508101906111ee9190611892565b61120a5760405162461bcd60e51b8152600401610552906118b4565b60025460015460405163095ea7b360e01b81526001600160a01b039283169263095ea7b392611240929116908590600401611879565b6020604051808303816000875af115801561125f573d6000803e3d6000fd5b505050506040513d601f19601f820116820180604052508101906112839190611892565b6112c05760405162461bcd60e51b815260206004820152600e60248201526d105c1c1c9bdd994819985a5b195960921b6044820152606401610552565b60015460025460405163617ba03760e01b81526001600160a01b039182166004820152602481018490523060448201526000606482015291169063617ba03790608401600060405180830381600087803b15801561131d57600080fd5b505af1158015611331573d6000803e3d6000fd5b50505050600061133f61107f565b90506000601554826113519190611cb5565b9050600061135f8483611c96565b9050806016600082825461137391906117f2565b909155505060058054600a5460405163334f056160e11b8152336004820152602481018890526044810187905260a0606482015260a481019390935264119a5e195960da1b60c484015260848301526000916001600160a01b039091169063669e0ac29060e4016020604051808303816000875af11580156113f9573d6000803e3d6000fd5b505050506040513d601f19601f8201168201806040525081019061141d9190611860565b905084600b600082825461143191906117f2565b9091555061143f90506115cc565b5050505050565b61144e61164a565b6001600160a01b0381166114b35760405162461bcd60e51b815260206004820152602660248201527f4f776e61626c653a206e6577206f776e657220697320746865207a65726f206160448201526564647265737360d01b6064820152608401610552565b6114bc816116a4565b50565b60175461010090046001600160a01b031633146115145760405162461bcd60e51b815260206004820152601360248201527229b2b73232b91034b9903737ba1037bbb732b960691b6044820152606401610552565b6010546115b2576017805460ff19166001179055600061153261108f565b600154600254604051631a4ca37b60e21b81529293506001600160a01b03918216926369328dec9261156c9216908590309060040161183d565b6020604051808303816000875af115801561158b573d6000803e3d6000fd5b505050506040513d601f19601f820116820180604052508101906115af9190611860565b50505b80601360008282546115c491906117f2565b909155505050565b600854600c541480156115e25750600754600b54145b80156115ee5750601054155b1561107d576115fb61107f565b601055600f54600d5461160c61108f565b61161691906117f2565b61162091906117f2565b601155565b600081831115611640576116398284611cb5565b9050611644565b5060005b92915050565b6000546001600160a01b0316331461107d5760405162461bcd60e51b815260206004820181905260248201527f4f776e61626c653a2063616c6c6572206973206e6f7420746865206f776e65726044820152606401610552565b600080546001600160a01b038381166001600160a01b0319831681178455604051919092169283917f8be0079c531659141344cd1fd0a4f28419497f9722a3daafe3b4186f6b6457e09190a35050565b60006020828403121561170657600080fd5b5035919050565b6001600160a01b0391909116815260200190565b6001600160a01b03811681146114bc57600080fd5b60006020828403121561174857600080fd5b813561175381611721565b9392505050565b6000806040838503121561176d57600080fd5b505080516020909101519092909150565b805161178981611721565b919050565b6000602082840312156117a057600080fd5b815161175381611721565b60208082526017908201527629b2b73232b91034b9903737ba1027232a1037bbb732b960491b604082015260600190565b634e487b7160e01b600052601160045260246000fd5b60008219821115611805576118056117dc565b500190565b602080825260199082015278131bd8dac8191d5c985d1a5bdb881b9bdd081c995858da1959603a1b604082015260600190565b6001600160a01b0393841681526020810192909252909116604082015260600190565b60006020828403121561187257600080fd5b5051919050565b6001600160a01b03929092168252602082015260400190565b6000602082840312156118a457600080fd5b8151801515811461175357600080fd5b6020808252600f908201526e151c985b9cd9995c8819985a5b1959608a1b604082015260600190565b6001600160a01b039384168152919092166020820152604081019190915260600190565b6040516101e0810167ffffffffffffffff8111828210171561193357634e487b7160e01b600052604160045260246000fd5b60405290565b60006020828403121561194b57600080fd5b6040516020810181811067ffffffffffffffff8211171561197c57634e487b7160e01b600052604160045260246000fd5b6040529151825250919050565b80516001600160801b038116811461178957600080fd5b805164ffffffffff8116811461178957600080fd5b805161ffff8116811461178957600080fd5b60006101e082840312156119da57600080fd5b6119e2611901565b6119ec8484611939565b81526119fa60208401611989565b6020820152611a0b60408401611989565b6040820152611a1c60608401611989565b6060820152611a2d60808401611989565b6080820152611a3e60a08401611989565b60a0820152611a4f60c084016119a0565b60c0820152611a6060e084016119b5565b60e0820152610100611a7381850161177e565b90820152610120611a8584820161177e565b90820152610140611a9784820161177e565b90820152610160611aa984820161177e565b90820152610180611abb848201611989565b908201526101a0611acd848201611989565b908201526101c0611adf848201611989565b908201529392505050565b600060608284031215611afc57600080fd5b6040516060810181811067ffffffffffffffff82111715611b2d57634e487b7160e01b600052604160045260246000fd5b80604052508251815260208301516020820152604083015160408201528091505092915050565b8051825260208101516020830152604081015160408301526060810151151560608301526080810151608083015260a081015160a083015260c081015160c08301525050565b8651815260208088015190820152604080880151908201526101c08101611bc46060830188611b54565b856101408301528461016083015283610180830152826101a0830152979650505050505050565b885181526020808a0151908201526040808a0151908201526102008101611c15606083018a611b54565b876101408301528661016083015285610180830152846101a0830152836101c0830152826101e08301529998505050505050505050565b60008060008060008060c08789031215611c6557600080fd5b865195506020870151945060408701519350606087015192506080870151915060a087015190509295509295509295565b6000816000190483118215151615611cb057611cb06117dc565b500290565b600082821015611cc757611cc76117dc565b50039056fea26469706673582212205f80f5f1e7121a377783e8a9897ae3db4288f02ad501a033a40b1946568d0d0864736f6c634300080a003360806040526000600b553480156200001657600080fd5b506040516200268b3803806200268b83398101604081905262000039916200016f565b604080518082018252600c81526b141bdcda5d1a5bdb8813919560a21b6020808301918252835180850190945260048452634c494c4160e01b9084015281519192916200008991600091620000c9565b5080516200009f906001906020840190620000c9565b5050600c80546001600160a01b0319166001600160a01b03939093169290921790915550620001de565b828054620000d790620001a1565b90600052602060002090601f016020900481019282620000fb576000855562000146565b82601f106200011657805160ff191683800117855562000146565b8280016001018555821562000146579182015b828111156200014657825182559160200191906001019062000129565b506200015492915062000158565b5090565b5b8082111562000154576000815560010162000159565b6000602082840312156200018257600080fd5b81516001600160a01b03811681146200019a57600080fd5b9392505050565b600181811c90821680620001b657607f821691505b60208210811415620001d857634e487b7160e01b600052602260045260246000fd5b50919050565b61249d80620001ee6000396000f3fe608060405234801561001057600080fd5b506004361061012c5760003560e01c80636352211e116100ad578063b88d4fde11610071578063b88d4fde14610273578063c13819b614610286578063c3490263146102bb578063c87b56dd146102ce578063e985e9c5146102e157600080fd5b80636352211e1461021f578063669e0ac21461023257806370a082311461024557806395d89b4114610258578063a22cb4651461026057600080fd5b806323b872dd116100f457806323b872dd146101c05780632f745c59146101d357806342842e0e146101e657806342966c68146101f95780634f6ccce71461020c57600080fd5b806301ffc9a71461013157806306fdde0314610159578063081812fc1461016e578063095ea7b31461019957806318160ddd146101ae575b600080fd5b61014461013f366004611a21565b6102f4565b60405190151581526020015b60405180910390f35b610161610305565b6040516101509190611a96565b61018161017c366004611aa9565b610397565b6040516001600160a01b039091168152602001610150565b6101ac6101a7366004611ade565b6103be565b005b600b545b604051908152602001610150565b6101ac6101ce366004611b08565b6104d9565b6101b26101e1366004611ade565b61050a565b6101ac6101f4366004611b08565b6105a0565b6101ac610207366004611aa9565b6105bb565b6101b261021a366004611aa9565b6105f1565b61018161022d366004611aa9565b610684565b6101b2610240366004611bd0565b6106b9565b6101b2610253366004611c4d565b61075a565b6101616107e0565b6101ac61026e366004611c68565b6107ef565b6101ac610281366004611ca4565b6107fe565b610299610294366004611aa9565b610836565b6040805182518152602080840151908201529181015190820152606001610150565b6101ac6102c9366004611d20565b610893565b6101616102dc366004611aa9565b6108ea565b6101446102ef366004611d42565b6108f5565b60006102ff82610923565b92915050565b60606000805461031490611d75565b80601f016020809104026020016040519081016040528092919081815260200182805461034090611d75565b801561038d5780601f106103625761010080835404028352916020019161038d565b820191906000526020600020905b81548152906001019060200180831161037057829003601f168201915b5050505050905090565b60006103a282610948565b506000908152600460205260409020546001600160a01b031690565b60006103c982610684565b9050806001600160a01b0316836001600160a01b0316141561043c5760405162461bcd60e51b815260206004820152602160248201527f4552433732313a20617070726f76616c20746f2063757272656e74206f776e656044820152603960f91b60648201526084015b60405180910390fd5b336001600160a01b0382161480610458575061045881336108f5565b6104ca5760405162461bcd60e51b815260206004820152603d60248201527f4552433732313a20617070726f76652063616c6c6572206973206e6f7420746f60448201527f6b656e206f776e6572206f7220617070726f76656420666f7220616c6c0000006064820152608401610433565b6104d4838361096d565b505050565b6104e333826109db565b6104ff5760405162461bcd60e51b815260040161043390611db0565b6104d4838383610a3a565b60006105158361075a565b82106105775760405162461bcd60e51b815260206004820152602b60248201527f455243373231456e756d657261626c653a206f776e657220696e646578206f7560448201526a74206f6620626f756e647360a81b6064820152608401610433565b506001600160a01b03919091166000908152600660209081526040808320938352929052205490565b6104d4838383604051806020016040528060008152506107fe565b600c546001600160a01b031633146105e55760405162461bcd60e51b815260040161043390611dfd565b6105ee81610b99565b50565b60006105fc60085490565b821061065f5760405162461bcd60e51b815260206004820152602c60248201527f455243373231456e756d657261626c653a20676c6f62616c20696e646578206f60448201526b7574206f6620626f756e647360a01b6064820152608401610433565b6008828154811061067257610672611e34565b90600052602060002001549050919050565b6000818152600260205260408120546001600160a01b0316806102ff5760405162461bcd60e51b815260040161043390611e4a565b600c546000906001600160a01b031633146106e65760405162461bcd60e51b815260040161043390611dfd565b600b546106f38782610ba2565b6106fe848785610bbc565b600b805490600061070e83611e92565b90915550506040805160608101825287815260208082018881526000838501818152868252600d9093529390932091518255915160018201559051600290910155905095945050505050565b60006001600160a01b0382166107c45760405162461bcd60e51b815260206004820152602960248201527f4552433732313a2061646472657373207a65726f206973206e6f7420612076616044820152683634b21037bbb732b960b91b6064820152608401610433565b506001600160a01b031660009081526003602052604090205490565b60606001805461031490611d75565b6107fa338383610cb2565b5050565b61080833836109db565b6108245760405162461bcd60e51b815260040161043390611db0565b61083084848484610d7d565b50505050565b61085a60405180606001604052806000815260200160008152602001600081525090565b506000908152600d6020908152604091829020825160608101845281548152600182015492810192909252600201549181019190915290565b600c546001600160a01b031633146108bd5760405162461bcd60e51b815260040161043390611dfd565b6000828152600d60205260408120600281018054919284926108e0908490611ead565b9091555050505050565b60606102ff82610db0565b6001600160a01b03918216600090815260056020908152604080832093909416825291909152205460ff1690565b60006001600160e01b03198216632483248360e11b14806102ff57506102ff82610eb9565b61095181610ede565b6105ee5760405162461bcd60e51b815260040161043390611e4a565b600081815260046020526040902080546001600160a01b0319166001600160a01b03841690811790915581906109a282610684565b6001600160a01b03167f8c5be1e5ebec7d5bd14f71427d1e84f3dd0314c0f7b2291e5b200ac8c7c3b92560405160405180910390a45050565b6000806109e783610684565b9050806001600160a01b0316846001600160a01b03161480610a0e5750610a0e81856108f5565b80610a325750836001600160a01b0316610a2784610397565b6001600160a01b0316145b949350505050565b826001600160a01b0316610a4d82610684565b6001600160a01b031614610a735760405162461bcd60e51b815260040161043390611ec5565b6001600160a01b038216610ad55760405162461bcd60e51b8152602060048201526024808201527f4552433732313a207472616e7366657220746f20746865207a65726f206164646044820152637265737360e01b6064820152608401610433565b610ae28383836001610efb565b826001600160a01b0316610af582610684565b6001600160a01b031614610b1b5760405162461bcd60e51b815260040161043390611ec5565b600081815260046020908152604080832080546001600160a01b03199081169091556001600160a01b03878116808652600385528386208054600019019055908716808652838620805460010190558686526002909452828520805490921684179091559051849360008051602061244883398151915291a4505050565b6105ee81610f07565b6107fa828260405180602001604052806000815250610f47565b6000610bd8610bd3670de0b6b3a764000085611f0a565b610f7a565b90506000610bf1610bd3670de0b6b3a764000085611f0a565b905060008583604051602001610c08929190611f48565b60405160208183030381529060405290506000868484604051602001610c3093929190611f85565b60405160208183030381529060405290506000610c7583610c5084611017565b604051602001610c619291906121ac565b604051602081830303815290604052611017565b9050600081604051602001610c8a9190612264565b6040516020818303038152906040529050610ca7600b548261117d565b505050505050505050565b816001600160a01b0316836001600160a01b03161415610d105760405162461bcd60e51b815260206004820152601960248201527822a9219b99189d1030b8383937bb32903a379031b0b63632b960391b6044820152606401610433565b6001600160a01b03838116600081815260056020908152604080832094871680845294825291829020805460ff191686151590811790915591519182527f17307eab39ab6107e8899845ad3d59bd9653f200f220920489ca2b5937696c31910160405180910390a3505050565b610d88848484610a3a565b610d9484848484611240565b6108305760405162461bcd60e51b8152600401610433906122a9565b6060610dbb82610948565b6000828152600a602052604081208054610dd490611d75565b80601f0160208091040260200160405190810160405280929190818152602001828054610e0090611d75565b8015610e4d5780601f10610e2257610100808354040283529160200191610e4d565b820191906000526020600020905b815481529060010190602001808311610e3057829003601f168201915b505050505090506000610e6b60408051602081019091526000815290565b9050805160001415610e7e575092915050565b815115610eb0578082604051602001610e989291906122fb565b60405160208183030381529060405292505050919050565b610a328461133e565b60006001600160e01b0319821663780e9d6360e01b14806102ff57506102ff826113b2565b6000908152600260205260409020546001600160a01b0316151590565b61083084848484611402565b610f1081611536565b6000818152600a602052604090208054610f2990611d75565b1590506105ee576000818152600a602052604081206105ee91611938565b610f5183836115c7565b610f5e6000848484611240565b6104d45760405162461bcd60e51b8152600401610433906122a9565b60606000610f87836116d0565b600101905060008167ffffffffffffffff811115610fa757610fa7611b44565b6040519080825280601f01601f191660200182016040528015610fd1576020820181803683370190505b5090508181016020015b600019016f181899199a1a9b1b9c1cb0b131b232b360811b600a86061a8153600a850494508461100a5761100f565b610fdb565b509392505050565b805160609080611037575050604080516020810190915260008152919050565b60006003611046836002611ead565b6110509190611f0a565b61105b90600461232a565b9050600061106a826020611ead565b67ffffffffffffffff81111561108257611082611b44565b6040519080825280601f01601f1916602001820160405280156110ac576020820181803683370190505b5090506000604051806060016040528060408152602001612408604091399050600181016020830160005b86811015611138576003818a01810151603f601282901c8116860151600c83901c8216870151600684901c831688015192909316870151600891821b60ff94851601821b92841692909201901b91160160e01b8352600490920191016110d7565b50600386066001811461115257600281146111635761116f565b613d3d60f01b60011983015261116f565b603d60f81b6000198301525b505050918152949350505050565b61118682610ede565b6111e95760405162461bcd60e51b815260206004820152602e60248201527f45524337323155524953746f726167653a2055524920736574206f66206e6f6e60448201526d32bc34b9ba32b73a103a37b5b2b760911b6064820152608401610433565b6000828152600a60209081526040909120825161120892840190611972565b506040518281527ff8e1a15aba9398e019f0b49df1a4fde98ee17ae345cb5f6b5e2c27f5033e8ce79060200160405180910390a15050565b60006001600160a01b0384163b1561133357604051630a85bd0160e11b81526001600160a01b0385169063150b7a0290611284903390899088908890600401612349565b6020604051808303816000875af19250505080156112bf575060408051601f3d908101601f191682019092526112bc91810190612386565b60015b611319573d8080156112ed576040519150601f19603f3d011682016040523d82523d6000602084013e6112f2565b606091505b5080516113115760405162461bcd60e51b8152600401610433906122a9565b805181602001fd5b6001600160e01b031916630a85bd0160e11b149050610a32565b506001949350505050565b606061134982610948565b600061136060408051602081019091526000815290565b9050600081511161138057604051806020016040528060008152506113ab565b8061138a84610f7a565b60405160200161139b9291906122fb565b6040516020818303038152906040525b9392505050565b60006001600160e01b031982166380ac58cd60e01b14806113e357506001600160e01b03198216635b5e139f60e01b145b806102ff57506301ffc9a760e01b6001600160e01b03198316146102ff565b60018111156114715760405162461bcd60e51b815260206004820152603560248201527f455243373231456e756d657261626c653a20636f6e7365637574697665207472604482015274185b9cd9995c9cc81b9bdd081cdd5c1c1bdc9d1959605a1b6064820152608401610433565b816001600160a01b0385166114cd576114c881600880546000838152600960205260408120829055600182018355919091527ff3f7a9fe364faab93b216da50a3214154f22a0a2b415b23a84c8169e8b636ee30155565b6114f0565b836001600160a01b0316856001600160a01b0316146114f0576114f085826117a8565b6001600160a01b03841661150c5761150781611845565b61152f565b846001600160a01b0316846001600160a01b03161461152f5761152f84826118f4565b5050505050565b600061154182610684565b9050611551816000846001610efb565b61155a82610684565b600083815260046020908152604080832080546001600160a01b03199081169091556001600160a01b038516808552600384528285208054600019019055878552600290935281842080549091169055519293508492600080516020612448833981519152908390a45050565b6001600160a01b03821661161d5760405162461bcd60e51b815260206004820181905260248201527f4552433732313a206d696e7420746f20746865207a65726f20616464726573736044820152606401610433565b61162681610ede565b156116435760405162461bcd60e51b8152600401610433906123a3565b611651600083836001610efb565b61165a81610ede565b156116775760405162461bcd60e51b8152600401610433906123a3565b6001600160a01b038216600081815260036020908152604080832080546001019055848352600290915280822080546001600160a01b031916841790555183929190600080516020612448833981519152908290a45050565b60008072184f03e93ff9f4daa797ed6e38ed64bf6a1f0160401b831061170f5772184f03e93ff9f4daa797ed6e38ed64bf6a1f0160401b830492506040015b6d04ee2d6d415b85acef8100000000831061173b576d04ee2d6d415b85acef8100000000830492506020015b662386f26fc10000831061175957662386f26fc10000830492506010015b6305f5e1008310611771576305f5e100830492506008015b612710831061178557612710830492506004015b60648310611797576064830492506002015b600a83106102ff5760010192915050565b600060016117b58461075a565b6117bf91906123da565b600083815260076020526040902054909150808214611812576001600160a01b03841660009081526006602090815260408083208584528252808320548484528184208190558352600790915290208190555b5060009182526007602090815260408084208490556001600160a01b039094168352600681528383209183525290812055565b600854600090611857906001906123da565b6000838152600960205260408120546008805493945090928490811061187f5761187f611e34565b9060005260206000200154905080600883815481106118a0576118a0611e34565b60009182526020808320909101929092558281526009909152604080822084905585825281205560088054806118d8576118d86123f1565b6001900381819060005260206000200160009055905550505050565b60006118ff8361075a565b6001600160a01b039093166000908152600660209081526040808320868452825280832085905593825260079052919091209190915550565b50805461194490611d75565b6000825580601f10611954575050565b601f0160209004906000526020600020908101906105ee91906119f6565b82805461197e90611d75565b90600052602060002090601f0160209004810192826119a057600085556119e6565b82601f106119b957805160ff19168380011785556119e6565b828001600101855582156119e6579182015b828111156119e65782518255916020019190600101906119cb565b506119f29291506119f6565b5090565b5b808211156119f257600081556001016119f7565b6001600160e01b0319811681146105ee57600080fd5b600060208284031215611a3357600080fd5b81356113ab81611a0b565b60005b83811015611a59578181015183820152602001611a41565b838111156108305750506000910152565b60008151808452611a82816020860160208601611a3e565b601f01601f19169290920160200192915050565b6020815260006113ab6020830184611a6a565b600060208284031215611abb57600080fd5b5035919050565b80356001600160a01b0381168114611ad957600080fd5b919050565b60008060408385031215611af157600080fd5b611afa83611ac2565b946020939093013593505050565b600080600060608486031215611b1d57600080fd5b611b2684611ac2565b9250611b3460208501611ac2565b9150604084013590509250925092565b634e487b7160e01b600052604160045260246000fd5b600067ffffffffffffffff80841115611b7557611b75611b44565b604051601f8501601f19908116603f01168101908282118183101715611b9d57611b9d611b44565b81604052809350858152868686011115611bb657600080fd5b858560208301376000602087830101525050509392505050565b600080600080600060a08688031215611be857600080fd5b611bf186611ac2565b94506020860135935060408601359250606086013567ffffffffffffffff811115611c1b57600080fd5b8601601f81018813611c2c57600080fd5b611c3b88823560208401611b5a565b95989497509295608001359392505050565b600060208284031215611c5f57600080fd5b6113ab82611ac2565b60008060408385031215611c7b57600080fd5b611c8483611ac2565b915060208301358015158114611c9957600080fd5b809150509250929050565b60008060008060808587031215611cba57600080fd5b611cc385611ac2565b9350611cd160208601611ac2565b925060408501359150606085013567ffffffffffffffff811115611cf457600080fd5b8501601f81018713611d0557600080fd5b611d1487823560208401611b5a565b91505092959194509250565b60008060408385031215611d3357600080fd5b50508035926020909101359150565b60008060408385031215611d5557600080fd5b611d5e83611ac2565b9150611d6c60208401611ac2565b90509250929050565b600181811c90821680611d8957607f821691505b60208210811415611daa57634e487b7160e01b600052602260045260246000fd5b50919050565b6020808252602d908201527f4552433732313a2063616c6c6572206973206e6f7420746f6b656e206f776e6560408201526c1c881bdc88185c1c1c9bdd9959609a1b606082015260800190565b6020808252601f908201527f43616c6c6572206973206e6f742074686520506f6f6c20636f6e747261637400604082015260600190565b634e487b7160e01b600052603260045260246000fd5b602080825260189082015277115490cdcc8c4e881a5b9d985b1a59081d1bdad95b88125160421b604082015260600190565b634e487b7160e01b600052601160045260246000fd5b6000600019821415611ea657611ea6611e7c565b5060010190565b60008219821115611ec057611ec0611e7c565b500190565b60208082526025908201527f4552433732313a207472616e736665722066726f6d20696e636f72726563742060408201526437bbb732b960d91b606082015260800190565b600082611f2757634e487b7160e01b600052601260045260246000fd5b500490565b60008151611f3e818560208601611a3e565b9290920192915050565b60008351611f5a818460208801611a3e565b6101d160f51b9083019081528351611f79816002840160208801611a3e565b01600201949350505050565b7f3c73766720786d6c6e733d27687474703a2f2f7777772e77332e6f72672f323081527f30302f73766727207072657365727665417370656374526174696f3d27784d6960208201527f6e594d696e206d656574272076696577426f783d27302030203335302033353060408201527f273e3c7374796c653e2e62617365207b2066696c6c3a20626c61636b3b20666f60608201527f6e742d66616d696c793a2073657269663b20666f6e742d73697a653a2032347060808201527f783b207d3c2f7374796c653e3c726563742077696474683d273130302527206860a08201527f65696768743d2731303025272066696c6c3d2723443944394439272f3e3c746560c08201527f787420783d273130252720793d273430252720636c6173733d2762617365273e60e08201526502a3cb8329d160d51b610100820152600061010685516120d98183860160208a01611a3e565b6121a161218761218161213661213086868a01017f3c2f746578743e3c7465787420783d273130252720793d273530252720636c61815270039b99e93b130b9b2939f2b30b63ab29d1607d1b602082015260310190565b8a611f2c565b7f3c2f746578743e3c7465787420783d273130252720793d273630252720636c61815278039b99e93b130b9b2939f24b73a32b932b9ba102930ba329d1603d1b602082015260390190565b87611f2c565b6d129e17ba32bc3a1f1e17b9bb339f60911b8152600e0190565b979650505050505050565b693d913730b6b2911d101160b11b815282516000906121d281600a850160208801611a3e565b7f222c20226465736372697074696f6e223a20224c696c6120506f736974696f6e600a918401918201527f204e4654222c2022696d616765223a2022646174613a696d6167652f7376672b602a8201526a1e1b5b0ed8985cd94d8d0b60aa1b604a8201528351612249816055840160208801611a3e565b61227d60f01b60559290910191820152605701949350505050565b7f646174613a6170706c69636174696f6e2f6a736f6e3b6261736536342c00000081526000825161229c81601d850160208701611a3e565b91909101601d0192915050565b60208082526032908201527f4552433732313a207472616e7366657220746f206e6f6e20455243373231526560408201527131b2b4bb32b91034b6b83632b6b2b73a32b960711b606082015260800190565b6000835161230d818460208801611a3e565b835190830190612321818360208801611a3e565b01949350505050565b600081600019048311821515161561234457612344611e7c565b500290565b6001600160a01b038581168252841660208201526040810183905260806060820181905260009061237c90830184611a6a565b9695505050505050565b60006020828403121561239857600080fd5b81516113ab81611a0b565b6020808252601c908201527f4552433732313a20746f6b656e20616c7265616479206d696e74656400000000604082015260600190565b6000828210156123ec576123ec611e7c565b500390565b634e487b7160e01b600052603160045260246000fdfe4142434445464748494a4b4c4d4e4f505152535455565758595a6162636465666768696a6b6c6d6e6f707172737475767778797a303132333435363738392b2fddf252ad1be2c89b69c2b068fc378daa952ba7f163c4a11628f55a4df523b3efa26469706673582212200a9ede0e57334374f8f024d4e03dc363340ce415dc7a12b4f6ddc47cdbfcbc5664736f6c634300080a0033a2646970667358221220437c1ac7883a7979c08ec5601ff1df35b123d7062064e99692001d7d2d8ca30b64736f6c634300080a0033",
  "linkReferences": {},
  "deployedLinkReferences": {}
}