{
  "_format": "hh-sol-artifact-1",
  "contractName": "Pool",
  "sourceName": "contracts/Pool.sol",
  "abi": [
    {
      "inputs": [
        {
          "internalType": "address",
          "name": "aaveAddresses",
          "type": "address"
        },
        {
          "internalType": "address",
          "name": "daiAddress",
          "type": "address"
        },
        {
          "internalType": "uint256",
          "name": "_fixedPoolLimit",
          "type": "uint256"
        },
        {
          "internalType": "uint256",
          "name": "_lockDuration",
          "type": "uint256"
        },
        {
          "internalType": "uint256",
          "name": "_interestRate",
          "type": "uint256"
        },
        {
          "internalType": "address",
          "name": "_poolLogic",
          "type": "address"
        }
      ],
      "stateMutability": "nonpayable",
      "type": "constructor"
    },
    {
      "anonymous": false,
      "inputs": [
        {
          "indexed": true,
          "internalType": "address",
          "name": "previousOwner",
          "type": "address"
        },
        {
          "indexed": true,
          "internalType": "address",
          "name": "newOwner",
          "type": "address"
        }
      ],
      "name": "OwnershipTransferred",
      "type": "event"
    },
    {
      "inputs": [],
      "name": "addSupply",
      "outputs": [
        {
          "internalType": "uint256",
          "name": "",
          "type": "uint256"
        }
      ],
      "stateMutability": "view",
      "type": "function"
    },
    {
      "inputs": [],
      "name": "addTimestamp",
      "outputs": [
        {
          "internalType": "uint256",
          "name": "",
          "type": "uint256"
        }
      ],
      "stateMutability": "view",
      "type": "function"
    },
    {
      "inputs": [],
      "name": "blocktime",
      "outputs": [
        {
          "internalType": "uint256",
          "name": "",
          "type": "uint256"
        }
      ],
      "stateMutability": "view",
      "type": "function"
    },
    {
      "inputs": [
        {
          "internalType": "uint256",
          "name": "tokenId",
          "type": "uint256"
        }
      ],
      "name": "calculateInterestFixed",
      "outputs": [
        {
          "internalType": "uint256",
          "name": "",
          "type": "uint256"
        }
      ],
      "stateMutability": "view",
      "type": "function"
    },
    {
      "inputs": [
        {
          "internalType": "uint256",
          "name": "tokenId",
          "type": "uint256"
        }
      ],
      "name": "calculateInterestFixedParts",
      "outputs": [
        {
          "internalType": "uint256",
          "name": "",
          "type": "uint256"
        },
        {
          "internalType": "uint256",
          "name": "",
          "type": "uint256"
        }
      ],
      "stateMutability": "view",
      "type": "function"
    },
    {
      "inputs": [
        {
          "internalType": "uint256",
          "name": "tokenId",
          "type": "uint256"
        }
      ],
      "name": "calculateInterestVariable",
      "outputs": [
        {
          "internalType": "uint256",
          "name": "",
          "type": "uint256"
        }
      ],
      "stateMutability": "view",
      "type": "function"
    },
    {
      "inputs": [
        {
          "internalType": "uint256",
          "name": "amount",
          "type": "uint256"
        }
      ],
      "name": "depositFixed",
      "outputs": [],
      "stateMutability": "nonpayable",
      "type": "function"
    },
    {
      "inputs": [
        {
          "internalType": "uint256",
          "name": "amount",
          "type": "uint256"
        }
      ],
      "name": "depositVariable",
      "outputs": [],
      "stateMutability": "nonpayable",
      "type": "function"
    },
    {
      "inputs": [
        {
          "internalType": "uint256",
          "name": "numSeconds",
          "type": "uint256"
        }
      ],
      "name": "fastForward",
      "outputs": [],
      "stateMutability": "nonpayable",
      "type": "function"
    },
    {
      "inputs": [],
      "name": "fixedNFT",
      "outputs": [
        {
          "internalType": "contract FixedNFT",
          "name": "",
          "type": "address"
        }
      ],
      "stateMutability": "view",
      "type": "function"
    },
    {
      "inputs": [],
      "name": "fixedPoolLimit",
      "outputs": [
        {
          "internalType": "uint256",
          "name": "",
          "type": "uint256"
        }
      ],
      "stateMutability": "view",
      "type": "function"
    },
    {
      "inputs": [],
      "name": "getTotalSupply",
      "outputs": [
        {
          "internalType": "uint256",
          "name": "",
          "type": "uint256"
        }
      ],
      "stateMutability": "view",
      "type": "function"
    },
    {
      "inputs": [],
      "name": "interestRate",
      "outputs": [
        {
          "internalType": "uint256",
          "name": "",
          "type": "uint256"
        }
      ],
      "stateMutability": "view",
      "type": "function"
    },
    {
      "inputs": [],
      "name": "interests",
      "outputs": [
        {
          "internalType": "int256",
          "name": "",
          "type": "int256"
        },
        {
          "internalType": "int256",
          "name": "",
          "type": "int256"
        }
      ],
      "stateMutability": "view",
      "type": "function"
    },
    {
      "inputs": [],
      "name": "lockDuration",
      "outputs": [
        {
          "internalType": "uint256",
          "name": "",
          "type": "uint256"
        }
      ],
      "stateMutability": "view",
      "type": "function"
    },
    {
      "inputs": [],
      "name": "owner",
      "outputs": [
        {
          "internalType": "address",
          "name": "",
          "type": "address"
        }
      ],
      "stateMutability": "view",
      "type": "function"
    },
    {
      "inputs": [],
      "name": "poolLogic",
      "outputs": [
        {
          "internalType": "contract PoolLogic",
          "name": "",
          "type": "address"
        }
      ],
      "stateMutability": "view",
      "type": "function"
    },
    {
      "inputs": [],
      "name": "poolStartTime",
      "outputs": [
        {
          "internalType": "uint256",
          "name": "",
          "type": "uint256"
        }
      ],
      "stateMutability": "view",
      "type": "function"
    },
    {
      "inputs": [],
      "name": "poolStopped",
      "outputs": [
        {
          "internalType": "bool",
          "name": "",
          "type": "bool"
        }
      ],
      "stateMutability": "view",
      "type": "function"
    },
    {
      "inputs": [],
      "name": "prevMaxSupply",
      "outputs": [
        {
          "internalType": "uint256",
          "name": "",
          "type": "uint256"
        }
      ],
      "stateMutability": "view",
      "type": "function"
    },
    {
      "inputs": [],
      "name": "renounceOwnership",
      "outputs": [],
      "stateMutability": "nonpayable",
      "type": "function"
    },
    {
      "inputs": [],
      "name": "timeSinceStart",
      "outputs": [
        {
          "internalType": "uint256",
          "name": "",
          "type": "uint256"
        }
      ],
      "stateMutability": "view",
      "type": "function"
    },
    {
      "inputs": [],
      "name": "totalClaimedFixed",
      "outputs": [
        {
          "internalType": "uint256",
          "name": "",
          "type": "uint256"
        }
      ],
      "stateMutability": "view",
      "type": "function"
    },
    {
      "inputs": [],
      "name": "totalClaimedFixedPrev",
      "outputs": [
        {
          "internalType": "uint256",
          "name": "",
          "type": "uint256"
        }
      ],
      "stateMutability": "view",
      "type": "function"
    },
    {
      "inputs": [],
      "name": "totalClaimedVariable",
      "outputs": [
        {
          "internalType": "uint256",
          "name": "",
          "type": "uint256"
        }
      ],
      "stateMutability": "view",
      "type": "function"
    },
    {
      "inputs": [],
      "name": "totalDepositedFixed",
      "outputs": [
        {
          "internalType": "uint256",
          "name": "",
          "type": "uint256"
        }
      ],
      "stateMutability": "view",
      "type": "function"
    },
    {
      "inputs": [],
      "name": "totalDepositedVariable",
      "outputs": [
        {
          "internalType": "uint256",
          "name": "",
          "type": "uint256"
        }
      ],
      "stateMutability": "view",
      "type": "function"
    },
    {
      "inputs": [
        {
          "internalType": "address",
          "name": "newOwner",
          "type": "address"
        }
      ],
      "name": "transferOwnership",
      "outputs": [],
      "stateMutability": "nonpayable",
      "type": "function"
    },
    {
      "inputs": [],
      "name": "variableNFT",
      "outputs": [
        {
          "internalType": "contract VariableNFT",
          "name": "",
          "type": "address"
        }
      ],
      "stateMutability": "view",
      "type": "function"
    },
    {
      "inputs": [],
      "name": "variablePoolLimit",
      "outputs": [
        {
          "internalType": "uint256",
          "name": "",
          "type": "uint256"
        }
      ],
      "stateMutability": "view",
      "type": "function"
    },
    {
      "inputs": [
        {
          "internalType": "uint256",
          "name": "tokenId",
          "type": "uint256"
        }
      ],
      "name": "withdrawFixed",
      "outputs": [],
      "stateMutability": "nonpayable",
      "type": "function"
    },
    {
      "inputs": [
        {
          "internalType": "uint256",
          "name": "tokenId",
          "type": "uint256"
        }
      ],
      "name": "withdrawVariable",
      "outputs": [],
      "stateMutability": "nonpayable",
      "type": "function"
    }
  ],
  "bytecode": "0x6080604052601580546001600160a01b03191673dabd0fabd68235ed23432faf2272a46a618b7dcd1790553480156200003757600080fd5b5060405162005701380380620057018339810160408190526200005a9162000306565b62000065336200027d565b601480546001600160a01b038084166001600160a01b0319928316179092556003805492891692909116821790556040805163026b1d5f60e01b8152905163026b1d5f916004808201926020929091908290030181865afa158015620000cf573d6000803e3d6000fd5b505050506040513d601f19601f82011682018060405250810190620000f591906200036c565b600480546001600160a01b03199081166001600160a01b03938416908117835560018054831690911790556002805490911688841617905560078690556009859055600a8490556014546040516301786f6360e21b81529182018790526024820185905260448201869052909116906305e1bd8c90606401602060405180830381865afa1580156200018b573d6000803e3d6000fd5b505050506040513d601f19601f82011682018060405250810190620001b1919062000391565b6008556040513090620001c490620002cd565b6001600160a01b039091168152602001604051809103906000f080158015620001f1573d6000803e3d6000fd5b50600580546001600160a01b0319166001600160a01b039290921691909117905560405130906200022290620002db565b6001600160a01b039091168152602001604051809103906000f0801580156200024f573d6000803e3d6000fd5b50600680546001600160a01b0319166001600160a01b039290921691909117905550620003ab945050505050565b600080546001600160a01b038381166001600160a01b0319831681178455604051919092169283917f8be0079c531659141344cd1fd0a4f28419497f9722a3daafe3b4186f6b6457e09190a35050565b611d328062001c9283390190565b611d3d80620039c483390190565b80516001600160a01b03811681146200030157600080fd5b919050565b60008060008060008060c087890312156200032057600080fd5b6200032b87620002e9565b95506200033b60208801620002e9565b94506040870151935060608701519250608087015191506200036060a08801620002e9565b90509295509295509295565b6000602082840312156200037f57600080fd5b6200038a82620002e9565b9392505050565b600060208284031215620003a457600080fd5b5051919050565b6118d780620003bb6000396000f3fe608060405234801561001057600080fd5b50600436106101f05760003560e01c806373fce7ec1161010f578063c4e41b22116100a2578063ebf4bd5b11610071578063ebf4bd5b146103b5578063f2fde38b146103be578063f82923da146103d1578063fccbe7f6146103da57600080fd5b8063c4e41b2214610388578063dd4f205914610390578063e4f11247146103a3578063ea1ba556146103ac57600080fd5b806383257889116100de5780638325788914610353578063857a5c321461035c5780638da5cb5b1461036f578063a9b12c4c1461038057600080fd5b806373fce7ec1461031457806378d8e48e1461031d578063793265a9146103415780637c3a00fd1461034a57600080fd5b806338a9a6861161018757806365ad7c001161015657806365ad7c00146102de57806367fc6dea146102f15780636e8fb459146102f9578063715018a61461030c57600080fd5b806338a9a6861461029c57806339b81fd9146102af5780635ade2035146102c25780635f96dc11146102d557600080fd5b80631a2c9fff116101c35780631a2c9fff1461024057806329796ae5146102495780632cc79b6a1461025e5780632f47bf621461028957600080fd5b806304144ec7146101f55780630455444314610211578063149c85071461021a57806314a3db2d14610223575b600080fd5b6101fe60075481565b6040519081526020015b60405180910390f35b6101fe60095481565b6101fe600e5481565b61022b6103ed565b60408051928352602083019190915201610208565b6101fe60085481565b61025c610257366004611676565b6104d6565b005b600654610271906001600160a01b031681565b6040516001600160a01b039091168152602001610208565b61025c610297366004611676565b6107c2565b61025c6102aa366004611676565b61096f565b601454610271906001600160a01b031681565b6101fe6102d0366004611676565b610c71565b6101fe60105481565b61022b6102ec366004611676565b610c96565b6101fe610e4e565b6101fe610307366004611676565b610e9e565b61025c611047565b6101fe600d5481565b60145461033190600160a01b900460ff1681565b6040519015158152602001610208565b6101fe60115481565b6101fe600a5481565b6101fe600f5481565b600554610271906001600160a01b031681565b6000546001600160a01b0316610271565b6101fe61105b565b6101fe61106b565b61025c61039e366004611676565b6110fa565b6101fe600b5481565b6101fe600c5481565b6101fe60135481565b61025c6103cc3660046116a4565b6113c3565b6101fe60125481565b61025c6103e8366004611676565b61143c565b600080601460009054906101000a90046001600160a01b03166001600160a01b031663c1ffff20600a54601054600854600954600f54600d5460115461043161106b565b61043961105b565b6040516001600160e01b031960e08c901b1681526004810199909952602489019790975260448801959095526064870193909352608486019190915260a485015260c484015260e4830152610104820152610124016040805180830381865afa1580156104aa573d6000803e3d6000fd5b505050506040513d601f19601f820116820180604052508101906104ce91906116c8565b915091509091565b6006546040516331a9108f60e11b81526004810183905233916001600160a01b031690636352211e90602401602060405180830381865afa15801561051f573d6000803e3d6000fd5b505050506040513d601f19601f8201168201806040525081019061054391906116ec565b6001600160a01b0316146105985760405162461bcd60e51b815260206004820152601760248201527629b2b73232b91034b9903737ba1027232a1037bbb732b960491b60448201526064015b60405180910390fd5b60006105a382610e9e565b905080600f60008282546105b7919061171f565b9091555050600154600254604051631a4ca37b60e21b81526001600160a01b039182166004820152602481018490523060448201529116906369328dec906064016020604051808303816000875af1158015610617573d6000803e3d6000fd5b505050506040513d601f19601f8201168201806040525081019061063b9190611737565b5060025460405163a9059cbb60e01b8152336004820152602481018390526001600160a01b039091169063a9059cbb906044016020604051808303816000875af115801561068d573d6000803e3d6000fd5b505050506040513d601f19601f820116820180604052508101906106b19190611750565b6106cd5760405162461bcd60e51b815260040161058f90611772565b60065460405163c349026360e01b815260048101849052602481018390526001600160a01b039091169063c349026390604401600060405180830381600087803b15801561071a57600080fd5b505af115801561072e573d6000803e3d6000fd5b50505050600060105411801561075a575060095460105461074f919061171f565b61075761105b565b10155b156107be57600654604051630852cd8d60e31b8152600481018490526001600160a01b03909116906342966c6890602401600060405180830381600087803b1580156107a557600080fd5b505af11580156107b9573d6000803e3d6000fd5b505050505b5050565b60085481600c546107d3919061171f565b11156108215760405162461bcd60e51b815260206004820152601b60248201527f5661726961626c6520706f6f6c206c696d697420726561636865640000000000604482015260640161058f565b6002546040516323b872dd60e01b8152336004820152306024820152604481018390526001600160a01b03909116906323b872dd906064016020604051808303816000875af1158015610878573d6000803e3d6000fd5b505050506040513d601f19601f8201168201806040525081019061089c9190611750565b6108b85760405162461bcd60e51b815260040161058f90611772565b6006546000906001600160a01b031663156e29f633846108d661105b565b6040516001600160e01b031960e086901b1681526001600160a01b039093166004840152602483019190915260448201526064016020604051808303816000875af1158015610929573d6000803e3d6000fd5b505050506040513d601f19601f8201168201806040525081019061094d9190611737565b905081600c6000828254610961919061171f565b909155506107be905061154e565b6005546040516331a9108f60e11b81526004810183905233916001600160a01b031690636352211e90602401602060405180830381865afa1580156109b8573d6000803e3d6000fd5b505050506040513d601f19601f820116820180604052508101906109dc91906116ec565b6001600160a01b031614610a2c5760405162461bcd60e51b815260206004820152601760248201527629b2b73232b91034b9903737ba1027232a1037bbb732b960491b604482015260640161058f565b600080610a3883610c96565b90925090506000610a49828461171f565b90508215610ae95782600d6000828254610a63919061171f565b9091555050600154600254604051631a4ca37b60e21b81526001600160a01b039182166004820152602481018690523060448201529116906369328dec906064016020604051808303816000875af1158015610ac3573d6000803e3d6000fd5b505050506040513d601f19601f82011682018060405250810190610ae79190611737565b505b60025460405163a9059cbb60e01b8152336004820152602481018390526001600160a01b039091169063a9059cbb906044016020604051808303816000875af1158015610b3a573d6000803e3d6000fd5b505050506040513d601f19601f82011682018060405250810190610b5e9190611750565b610b7a5760405162461bcd60e51b815260040161058f90611772565b60055460405163c349026360e01b815260048101869052602481018390526001600160a01b039091169063c349026390604401600060405180830381600087803b158015610bc757600080fd5b505af1158015610bdb573d6000803e3d6000fd5b505050506000601054118015610c075750600954601054610bfc919061171f565b610c0461105b565b10155b15610c6b57600554604051630852cd8d60e31b8152600481018690526001600160a01b03909116906342966c6890602401600060405180830381600087803b158015610c5257600080fd5b505af1158015610c66573d6000803e3d6000fd5b505050505b50505050565b6000806000610c7f84610c96565b9092509050610c8e818361171f565b949350505050565b60055460405163609c0cdb60e11b815260048101839052600091829182916001600160a01b03169063c13819b690602401606060405180830381865afa158015610ce4573d6000803e3d6000fd5b505050506040513d601f19601f82011682018060405250810190610d089190611805565b9050600060405180608001604052806010548152602001610d2761105b565b8152602001600954815260200160148054906101000a900460ff1615158152509050601460009054906101000a90046001600160a01b03166001600160a01b03166311b02f8a83600a5484601154600b54600d54610d8361106b565b604080516001600160e01b031960e08b901b168152885160048201526020808a015160248301529882015160448201526064810197909752855160848801529685015160a48701529584015160c4860152606090930151151560e4850152610104840191909152610124830152610144820152610164810191909152610184016040805180830381865afa158015610e1f573d6000803e3d6000fd5b505050506040513d601f19601f82011682018060405250810190610e4391906116c8565b935093505050915091565b600060105460001415610e615750600090565b600954601054610e71919061171f565b610e7961105b565b1015610e9757610e92610e8a61105b565b6010546115a7565b905090565b5060095490565b60065460405163609c0cdb60e11b81526004810183905260009182916001600160a01b039091169063c13819b690602401606060405180830381865afa158015610eec573d6000803e3d6000fd5b505050506040513d601f19601f82011682018060405250810190610f109190611805565b9050600060405180608001604052806010548152602001610f2f61105b565b8152600954602082015260145460ff600160a01b8204161515604090920191909152601154600c54600f549394506001600160a01b039092169263dcc166be9286928692909190610f7e61106b565b600854600d54604080516001600160e01b031960e08c901b168152895160048201526020808b01516024830152998201516044820152885160648201529888015160848a015287015160a4890152606090960151151560c488015260e48701949094526101048601929092526101248501526101448401526101648301526101848201526101a401602060405180830381865afa158015611023573d6000803e3d6000fd5b505050506040513d601f19601f82011682018060405250810190610c8e9190611737565b61104f6115cc565b6110596000611626565b565b600060135442610e92919061171f565b600154604051632fe4a15f60e21b815230600482015260009182916001600160a01b039091169063bf92857c9060240160c060405180830381865afa1580156110b8573d6000803e3d6000fd5b505050506040513d601f19601f820116820180604052508101906110dc9190611821565b50505050509050806402540be4006110f4919061186b565b91505090565b60075481600b5461110b919061171f565b111561114e5760405162461bcd60e51b8152602060048201526012602482015271141bdbdb081b1a5b5a5d081c995858da195960721b604482015260640161058f565b6002546040516323b872dd60e01b8152336004820152306024820152604481018390526001600160a01b03909116906323b872dd906064016020604051808303816000875af11580156111a5573d6000803e3d6000fd5b505050506040513d601f19601f820116820180604052508101906111c99190611750565b6111e55760405162461bcd60e51b815260040161058f90611772565b60025460015460405163095ea7b360e01b81526001600160a01b0391821660048201526024810184905291169063095ea7b3906044016020604051808303816000875af115801561123a573d6000803e3d6000fd5b505050506040513d601f19601f8201168201806040525081019061125e9190611750565b61129b5760405162461bcd60e51b815260206004820152600e60248201526d105c1c1c9bdd994819985a5b195960921b604482015260640161058f565b60015460025460405163617ba03760e01b81526001600160a01b039182166004820152602481018490523060448201526000606482015291169063617ba03790608401600060405180830381600087803b1580156112f857600080fd5b505af115801561130c573d6000803e3d6000fd5b50505050600061131a61105b565b600554604051630ab714fb60e11b815233600482015260248101859052604481018390529192506000916001600160a01b039091169063156e29f6906064016020604051808303816000875af1158015611378573d6000803e3d6000fd5b505050506040513d601f19601f8201168201806040525081019061139c9190611737565b905082600b60008282546113b0919061171f565b909155506113be905061154e565b505050565b6113cb6115cc565b6001600160a01b0381166114305760405162461bcd60e51b815260206004820152602660248201527f4f776e61626c653a206e6577206f776e657220697320746865207a65726f206160448201526564647265737360d01b606482015260840161058f565b61143981611626565b50565b6015546001600160a01b0316331461148c5760405162461bcd60e51b815260206004820152601360248201527229b2b73232b91034b9903737ba1037bbb732b960691b604482015260640161058f565b601054611534576014805460ff60a01b1916600160a01b17905560006114b061106b565b600154600254604051631a4ca37b60e21b81526001600160a01b0391821660048201526024810184905230604482015292935016906369328dec906064016020604051808303816000875af115801561150d573d6000803e3d6000fd5b505050506040513d601f19601f820116820180604052508101906115319190611737565b50505b8060136000828254611546919061171f565b909155505050565b600854600c541480156115645750600754600b54145b80156115705750601054155b156110595761157d61105b565b601055600f54600d5461158e61106b565b611598919061171f565b6115a2919061171f565b601155565b6000818311156115c2576115bb828461188a565b90506115c6565b5060005b92915050565b6000546001600160a01b031633146110595760405162461bcd60e51b815260206004820181905260248201527f4f776e61626c653a2063616c6c6572206973206e6f7420746865206f776e6572604482015260640161058f565b600080546001600160a01b038381166001600160a01b0319831681178455604051919092169283917f8be0079c531659141344cd1fd0a4f28419497f9722a3daafe3b4186f6b6457e09190a35050565b60006020828403121561168857600080fd5b5035919050565b6001600160a01b038116811461143957600080fd5b6000602082840312156116b657600080fd5b81356116c18161168f565b9392505050565b600080604083850312156116db57600080fd5b505080516020909101519092909150565b6000602082840312156116fe57600080fd5b81516116c18161168f565b634e487b7160e01b600052601160045260246000fd5b6000821982111561173257611732611709565b500190565b60006020828403121561174957600080fd5b5051919050565b60006020828403121561176257600080fd5b815180151581146116c157600080fd5b6020808252600f908201526e151c985b9cd9995c8819985a5b1959608a1b604082015260600190565b6000606082840312156117ad57600080fd5b6040516060810181811067ffffffffffffffff821117156117de57634e487b7160e01b600052604160045260246000fd5b80604052508091508251815260208301516020820152604083015160408201525092915050565b60006060828403121561181757600080fd5b6116c1838361179b565b60008060008060008060c0878903121561183a57600080fd5b865195506020870151945060408701519350606087015192506080870151915060a087015190509295509295509295565b600081600019048311821515161561188557611885611709565b500290565b60008282101561189c5761189c611709565b50039056fea2646970667358221220fbb9a09cfe93c77c1ce7d0cc7002805f89e92cbab1491f8c0418d4c8e29d5c5964736f6c634300080a003360806040526000600a553480156200001657600080fd5b5060405162001d3238038062001d32833981016040819052620000399162000176565b6040805180820182526012815271119a5e195908125b9d195c995cdd0813919560721b602080830191825283518085019094526005845264119253919560da1b9084015281519192916200009091600091620000d0565b508051620000a6906001906020840190620000d0565b5050600b80546001600160a01b0319166001600160a01b03939093169290921790915550620001e5565b828054620000de90620001a8565b90600052602060002090601f0160209004810192826200010257600085556200014d565b82601f106200011d57805160ff19168380011785556200014d565b828001600101855582156200014d579182015b828111156200014d57825182559160200191906001019062000130565b506200015b9291506200015f565b5090565b5b808211156200015b576000815560010162000160565b6000602082840312156200018957600080fd5b81516001600160a01b0381168114620001a157600080fd5b9392505050565b600181811c90821680620001bd57607f821691505b60208210811415620001df57634e487b7160e01b600052602260045260246000fd5b50919050565b611b3d80620001f56000396000f3fe608060405234801561001057600080fd5b506004361061012c5760003560e01c80634f6ccce7116100ad578063b88d4fde11610071578063b88d4fde14610277578063c13819b61461028a578063c3490263146102bf578063c87b56dd146102d2578063e985e9c5146102e557600080fd5b80634f6ccce7146102235780636352211e1461023657806370a082311461024957806395d89b411461025c578063a22cb4651461026457600080fd5b806318160ddd116100f457806318160ddd146101cf57806323b872dd146101d75780632f745c59146101ea57806342842e0e146101fd57806342966c681461021057600080fd5b806301ffc9a71461013157806306fdde0314610159578063081812fc1461016e578063095ea7b314610199578063156e29f6146101ae575b600080fd5b61014461013f3660046115a8565b610321565b60405190151581526020015b60405180910390f35b61016161034c565b604051610150919061161d565b61018161017c366004611630565b6103de565b6040516001600160a01b039091168152602001610150565b6101ac6101a7366004611665565b610405565b005b6101c16101bc36600461168f565b610520565b604051908152602001610150565b600a546101c1565b6101ac6101e53660046116c2565b6105b4565b6101c16101f8366004611665565b6105e5565b6101ac61020b3660046116c2565b61067b565b6101ac61021e366004611630565b610696565b6101c1610231366004611630565b6106cc565b610181610244366004611630565b61075f565b6101c16102573660046116fe565b6107bf565b610161610845565b6101ac610272366004611719565b610854565b6101ac61028536600461176b565b610863565b61029d610298366004611630565b61089b565b6040805182518152602080840151908201529181015190820152606001610150565b6101ac6102cd366004611847565b6108f8565b6101616102e0366004611630565b61094f565b6101446102f3366004611869565b6001600160a01b03918216600090815260056020908152604080832093909416825291909152205460ff1690565b60006001600160e01b0319821663780e9d6360e01b14806103465750610346826109c3565b92915050565b60606000805461035b9061189c565b80601f01602080910402602001604051908101604052809291908181526020018280546103879061189c565b80156103d45780601f106103a9576101008083540402835291602001916103d4565b820191906000526020600020905b8154815290600101906020018083116103b757829003601f168201915b5050505050905090565b60006103e982610a13565b506000908152600460205260409020546001600160a01b031690565b60006104108261075f565b9050806001600160a01b0316836001600160a01b031614156104835760405162461bcd60e51b815260206004820152602160248201527f4552433732313a20617070726f76616c20746f2063757272656e74206f776e656044820152603960f91b60648201526084015b60405180910390fd5b336001600160a01b038216148061049f575061049f81336102f3565b6105115760405162461bcd60e51b815260206004820152603d60248201527f4552433732313a20617070726f76652063616c6c6572206973206e6f7420746f60448201527f6b656e206f776e6572206f7220617070726f76656420666f7220616c6c000000606482015260840161047a565b61051b8383610a72565b505050565b600b546000906001600160a01b0316331461054d5760405162461bcd60e51b815260040161047a906118d7565b600a5461055a8582610ae0565b600a805490600061056a83611924565b90915550506040805160608101825285815260208082018681526000838501818152868252600c909352939093209151825591516001820155905160029091015590509392505050565b6105be3382610afa565b6105da5760405162461bcd60e51b815260040161047a9061193f565b61051b838383610b79565b60006105f0836107bf565b82106106525760405162461bcd60e51b815260206004820152602b60248201527f455243373231456e756d657261626c653a206f776e657220696e646578206f7560448201526a74206f6620626f756e647360a81b606482015260840161047a565b506001600160a01b03919091166000908152600660209081526040808320938352929052205490565b61051b83838360405180602001604052806000815250610863565b600b546001600160a01b031633146106c05760405162461bcd60e51b815260040161047a906118d7565b6106c981610cea565b50565b60006106d760085490565b821061073a5760405162461bcd60e51b815260206004820152602c60248201527f455243373231456e756d657261626c653a20676c6f62616c20696e646578206f60448201526b7574206f6620626f756e647360a01b606482015260840161047a565b6008828154811061074d5761074d61198c565b90600052602060002001549050919050565b6000818152600260205260408120546001600160a01b0316806103465760405162461bcd60e51b8152602060048201526018602482015277115490cdcc8c4e881a5b9d985b1a59081d1bdad95b88125160421b604482015260640161047a565b60006001600160a01b0382166108295760405162461bcd60e51b815260206004820152602960248201527f4552433732313a2061646472657373207a65726f206973206e6f7420612076616044820152683634b21037bbb732b960b91b606482015260840161047a565b506001600160a01b031660009081526003602052604090205490565b60606001805461035b9061189c565b61085f338383610d8d565b5050565b61086d3383610afa565b6108895760405162461bcd60e51b815260040161047a9061193f565b61089584848484610e5c565b50505050565b6108bf60405180606001604052806000815260200160008152602001600081525090565b506000908152600c6020908152604091829020825160608101845281548152600182015492810192909252600201549181019190915290565b600b546001600160a01b031633146109225760405162461bcd60e51b815260040161047a906118d7565b6000828152600c60205260408120600281018054919284926109459084906119a2565b9091555050505050565b606061095a82610a13565b600061097160408051602081019091526000815290565b9050600081511161099157604051806020016040528060008152506109bc565b8061099b84610e8f565b6040516020016109ac9291906119ba565b6040516020818303038152906040525b9392505050565b60006001600160e01b031982166380ac58cd60e01b14806109f457506001600160e01b03198216635b5e139f60e01b145b8061034657506301ffc9a760e01b6001600160e01b0319831614610346565b6000818152600260205260409020546001600160a01b03166106c95760405162461bcd60e51b8152602060048201526018602482015277115490cdcc8c4e881a5b9d985b1a59081d1bdad95b88125160421b604482015260640161047a565b600081815260046020526040902080546001600160a01b0319166001600160a01b0384169081179091558190610aa78261075f565b6001600160a01b03167f8c5be1e5ebec7d5bd14f71427d1e84f3dd0314c0f7b2291e5b200ac8c7c3b92560405160405180910390a45050565b61085f828260405180602001604052806000815250610f2c565b600080610b068361075f565b9050806001600160a01b0316846001600160a01b03161480610b4d57506001600160a01b0380821660009081526005602090815260408083209388168352929052205460ff165b80610b715750836001600160a01b0316610b66846103de565b6001600160a01b0316145b949350505050565b826001600160a01b0316610b8c8261075f565b6001600160a01b031614610bb25760405162461bcd60e51b815260040161047a906119e9565b6001600160a01b038216610c145760405162461bcd60e51b8152602060048201526024808201527f4552433732313a207472616e7366657220746f20746865207a65726f206164646044820152637265737360e01b606482015260840161047a565b610c218383836001610f5f565b826001600160a01b0316610c348261075f565b6001600160a01b031614610c5a5760405162461bcd60e51b815260040161047a906119e9565b600081815260046020908152604080832080546001600160a01b03199081169091556001600160a01b0387811680865260038552838620805460001901905590871680865283862080546001019055868652600290945282852080549092168417909155905184937fddf252ad1be2c89b69c2b068fc378daa952ba7f163c4a11628f55a4df523b3ef91a4505050565b6000610cf58261075f565b9050610d05816000846001610f5f565b610d0e8261075f565b600083815260046020908152604080832080546001600160a01b03199081169091556001600160a01b0385168085526003845282852080546000190190558785526002909352818420805490911690555192935084927fddf252ad1be2c89b69c2b068fc378daa952ba7f163c4a11628f55a4df523b3ef908390a45050565b816001600160a01b0316836001600160a01b03161415610def5760405162461bcd60e51b815260206004820152601960248201527f4552433732313a20617070726f766520746f2063616c6c657200000000000000604482015260640161047a565b6001600160a01b03838116600081815260056020908152604080832094871680845294825291829020805460ff191686151590811790915591519182527f17307eab39ab6107e8899845ad3d59bd9653f200f220920489ca2b5937696c31910160405180910390a3505050565b610e67848484610b79565b610e7384848484611093565b6108955760405162461bcd60e51b815260040161047a90611a2e565b60606000610e9c83611191565b600101905060008167ffffffffffffffff811115610ebc57610ebc611755565b6040519080825280601f01601f191660200182016040528015610ee6576020820181803683370190505b5090508181016020015b600019016f181899199a1a9b1b9c1cb0b131b232b360811b600a86061a8153600a8504945084610f1f57610f24565b610ef0565b509392505050565b610f368383611269565b610f436000848484611093565b61051b5760405162461bcd60e51b815260040161047a90611a2e565b6001811115610fce5760405162461bcd60e51b815260206004820152603560248201527f455243373231456e756d657261626c653a20636f6e7365637574697665207472604482015274185b9cd9995c9cc81b9bdd081cdd5c1c1bdc9d1959605a1b606482015260840161047a565b816001600160a01b03851661102a5761102581600880546000838152600960205260408120829055600182018355919091527ff3f7a9fe364faab93b216da50a3214154f22a0a2b415b23a84c8169e8b636ee30155565b61104d565b836001600160a01b0316856001600160a01b03161461104d5761104d8582611402565b6001600160a01b038416611069576110648161149f565b61108c565b846001600160a01b0316846001600160a01b03161461108c5761108c848261154e565b5050505050565b60006001600160a01b0384163b1561118657604051630a85bd0160e11b81526001600160a01b0385169063150b7a02906110d7903390899088908890600401611a80565b6020604051808303816000875af1925050508015611112575060408051601f3d908101601f1916820190925261110f91810190611abd565b60015b61116c573d808015611140576040519150601f19603f3d011682016040523d82523d6000602084013e611145565b606091505b5080516111645760405162461bcd60e51b815260040161047a90611a2e565b805181602001fd5b6001600160e01b031916630a85bd0160e11b149050610b71565b506001949350505050565b60008072184f03e93ff9f4daa797ed6e38ed64bf6a1f0160401b83106111d05772184f03e93ff9f4daa797ed6e38ed64bf6a1f0160401b830492506040015b6d04ee2d6d415b85acef810000000083106111fc576d04ee2d6d415b85acef8100000000830492506020015b662386f26fc10000831061121a57662386f26fc10000830492506010015b6305f5e1008310611232576305f5e100830492506008015b612710831061124657612710830492506004015b60648310611258576064830492506002015b600a83106103465760010192915050565b6001600160a01b0382166112bf5760405162461bcd60e51b815260206004820181905260248201527f4552433732313a206d696e7420746f20746865207a65726f2061646472657373604482015260640161047a565b6000818152600260205260409020546001600160a01b0316156113245760405162461bcd60e51b815260206004820152601c60248201527f4552433732313a20746f6b656e20616c7265616479206d696e74656400000000604482015260640161047a565b611332600083836001610f5f565b6000818152600260205260409020546001600160a01b0316156113975760405162461bcd60e51b815260206004820152601c60248201527f4552433732313a20746f6b656e20616c7265616479206d696e74656400000000604482015260640161047a565b6001600160a01b038216600081815260036020908152604080832080546001019055848352600290915280822080546001600160a01b0319168417905551839291907fddf252ad1be2c89b69c2b068fc378daa952ba7f163c4a11628f55a4df523b3ef908290a45050565b6000600161140f846107bf565b6114199190611ada565b60008381526007602052604090205490915080821461146c576001600160a01b03841660009081526006602090815260408083208584528252808320548484528184208190558352600790915290208190555b5060009182526007602090815260408084208490556001600160a01b039094168352600681528383209183525290812055565b6008546000906114b190600190611ada565b600083815260096020526040812054600880549394509092849081106114d9576114d961198c565b9060005260206000200154905080600883815481106114fa576114fa61198c565b600091825260208083209091019290925582815260099091526040808220849055858252812055600880548061153257611532611af1565b6001900381819060005260206000200160009055905550505050565b6000611559836107bf565b6001600160a01b039093166000908152600660209081526040808320868452825280832085905593825260079052919091209190915550565b6001600160e01b0319811681146106c957600080fd5b6000602082840312156115ba57600080fd5b81356109bc81611592565b60005b838110156115e05781810151838201526020016115c8565b838111156108955750506000910152565b600081518084526116098160208601602086016115c5565b601f01601f19169290920160200192915050565b6020815260006109bc60208301846115f1565b60006020828403121561164257600080fd5b5035919050565b80356001600160a01b038116811461166057600080fd5b919050565b6000806040838503121561167857600080fd5b61168183611649565b946020939093013593505050565b6000806000606084860312156116a457600080fd5b6116ad84611649565b95602085013595506040909401359392505050565b6000806000606084860312156116d757600080fd5b6116e084611649565b92506116ee60208501611649565b9150604084013590509250925092565b60006020828403121561171057600080fd5b6109bc82611649565b6000806040838503121561172c57600080fd5b61173583611649565b91506020830135801515811461174a57600080fd5b809150509250929050565b634e487b7160e01b600052604160045260246000fd5b6000806000806080858703121561178157600080fd5b61178a85611649565b935061179860208601611649565b925060408501359150606085013567ffffffffffffffff808211156117bc57600080fd5b818701915087601f8301126117d057600080fd5b8135818111156117e2576117e2611755565b604051601f8201601f19908116603f0116810190838211818310171561180a5761180a611755565b816040528281528a602084870101111561182357600080fd5b82602086016020830137600060208483010152809550505050505092959194509250565b6000806040838503121561185a57600080fd5b50508035926020909101359150565b6000806040838503121561187c57600080fd5b61188583611649565b915061189360208401611649565b90509250929050565b600181811c908216806118b057607f821691505b602082108114156118d157634e487b7160e01b600052602260045260246000fd5b50919050565b6020808252601f908201527f43616c6c6572206973206e6f742074686520506f6f6c20636f6e747261637400604082015260600190565b634e487b7160e01b600052601160045260246000fd5b60006000198214156119385761193861190e565b5060010190565b6020808252602d908201527f4552433732313a2063616c6c6572206973206e6f7420746f6b656e206f776e6560408201526c1c881bdc88185c1c1c9bdd9959609a1b606082015260800190565b634e487b7160e01b600052603260045260246000fd5b600082198211156119b5576119b561190e565b500190565b600083516119cc8184602088016115c5565b8351908301906119e08183602088016115c5565b01949350505050565b60208082526025908201527f4552433732313a207472616e736665722066726f6d20696e636f72726563742060408201526437bbb732b960d91b606082015260800190565b60208082526032908201527f4552433732313a207472616e7366657220746f206e6f6e20455243373231526560408201527131b2b4bb32b91034b6b83632b6b2b73a32b960711b606082015260800190565b6001600160a01b0385811682528416602082015260408101839052608060608201819052600090611ab3908301846115f1565b9695505050505050565b600060208284031215611acf57600080fd5b81516109bc81611592565b600082821015611aec57611aec61190e565b500390565b634e487b7160e01b600052603160045260246000fdfea264697066735822122078be820d7fd2f8efd83766b7b66d3f0d3b69913f97e502cf1b30e0406f5b222e64736f6c634300080a003360806040526000600a553480156200001657600080fd5b5060405162001d3d38038062001d3d833981016040819052620000399162000181565b604080518082018252601581527f5661726961626c6520496e746572657374204e46540000000000000000000000602080830191825283518085019094526005845264159253919560da1b9084015281519192916200009b91600091620000db565b508051620000b1906001906020840190620000db565b5050600b80546001600160a01b0319166001600160a01b03939093169290921790915550620001f0565b828054620000e990620001b3565b90600052602060002090601f0160209004810192826200010d576000855562000158565b82601f106200012857805160ff191683800117855562000158565b8280016001018555821562000158579182015b82811115620001585782518255916020019190600101906200013b565b50620001669291506200016a565b5090565b5b808211156200016657600081556001016200016b565b6000602082840312156200019457600080fd5b81516001600160a01b0381168114620001ac57600080fd5b9392505050565b600181811c90821680620001c857607f821691505b60208210811415620001ea57634e487b7160e01b600052602260045260246000fd5b50919050565b611b3d80620002006000396000f3fe608060405234801561001057600080fd5b506004361061012c5760003560e01c80634f6ccce7116100ad578063b88d4fde11610071578063b88d4fde14610277578063c13819b61461028a578063c3490263146102bf578063c87b56dd146102d2578063e985e9c5146102e557600080fd5b80634f6ccce7146102235780636352211e1461023657806370a082311461024957806395d89b411461025c578063a22cb4651461026457600080fd5b806318160ddd116100f457806318160ddd146101cf57806323b872dd146101d75780632f745c59146101ea57806342842e0e146101fd57806342966c681461021057600080fd5b806301ffc9a71461013157806306fdde0314610159578063081812fc1461016e578063095ea7b314610199578063156e29f6146101ae575b600080fd5b61014461013f3660046115a8565b610321565b60405190151581526020015b60405180910390f35b61016161034c565b604051610150919061161d565b61018161017c366004611630565b6103de565b6040516001600160a01b039091168152602001610150565b6101ac6101a7366004611665565b610405565b005b6101c16101bc36600461168f565b610520565b604051908152602001610150565b600a546101c1565b6101ac6101e53660046116c2565b6105b4565b6101c16101f8366004611665565b6105e5565b6101ac61020b3660046116c2565b61067b565b6101ac61021e366004611630565b610696565b6101c1610231366004611630565b6106cc565b610181610244366004611630565b61075f565b6101c16102573660046116fe565b6107bf565b610161610845565b6101ac610272366004611719565b610854565b6101ac61028536600461176b565b610863565b61029d610298366004611630565b61089b565b6040805182518152602080840151908201529181015190820152606001610150565b6101ac6102cd366004611847565b6108f8565b6101616102e0366004611630565b61094f565b6101446102f3366004611869565b6001600160a01b03918216600090815260056020908152604080832093909416825291909152205460ff1690565b60006001600160e01b0319821663780e9d6360e01b14806103465750610346826109c3565b92915050565b60606000805461035b9061189c565b80601f01602080910402602001604051908101604052809291908181526020018280546103879061189c565b80156103d45780601f106103a9576101008083540402835291602001916103d4565b820191906000526020600020905b8154815290600101906020018083116103b757829003601f168201915b5050505050905090565b60006103e982610a13565b506000908152600460205260409020546001600160a01b031690565b60006104108261075f565b9050806001600160a01b0316836001600160a01b031614156104835760405162461bcd60e51b815260206004820152602160248201527f4552433732313a20617070726f76616c20746f2063757272656e74206f776e656044820152603960f91b60648201526084015b60405180910390fd5b336001600160a01b038216148061049f575061049f81336102f3565b6105115760405162461bcd60e51b815260206004820152603d60248201527f4552433732313a20617070726f76652063616c6c6572206973206e6f7420746f60448201527f6b656e206f776e6572206f7220617070726f76656420666f7220616c6c000000606482015260840161047a565b61051b8383610a72565b505050565b600b546000906001600160a01b0316331461054d5760405162461bcd60e51b815260040161047a906118d7565b600a5461055a8582610ae0565b600a805490600061056a83611924565b90915550506040805160608101825285815260208082018681526000838501818152868252600c909352939093209151825591516001820155905160029091015590509392505050565b6105be3382610afa565b6105da5760405162461bcd60e51b815260040161047a9061193f565b61051b838383610b79565b60006105f0836107bf565b82106106525760405162461bcd60e51b815260206004820152602b60248201527f455243373231456e756d657261626c653a206f776e657220696e646578206f7560448201526a74206f6620626f756e647360a81b606482015260840161047a565b506001600160a01b03919091166000908152600660209081526040808320938352929052205490565b61051b83838360405180602001604052806000815250610863565b600b546001600160a01b031633146106c05760405162461bcd60e51b815260040161047a906118d7565b6106c981610cea565b50565b60006106d760085490565b821061073a5760405162461bcd60e51b815260206004820152602c60248201527f455243373231456e756d657261626c653a20676c6f62616c20696e646578206f60448201526b7574206f6620626f756e647360a01b606482015260840161047a565b6008828154811061074d5761074d61198c565b90600052602060002001549050919050565b6000818152600260205260408120546001600160a01b0316806103465760405162461bcd60e51b8152602060048201526018602482015277115490cdcc8c4e881a5b9d985b1a59081d1bdad95b88125160421b604482015260640161047a565b60006001600160a01b0382166108295760405162461bcd60e51b815260206004820152602960248201527f4552433732313a2061646472657373207a65726f206973206e6f7420612076616044820152683634b21037bbb732b960b91b606482015260840161047a565b506001600160a01b031660009081526003602052604090205490565b60606001805461035b9061189c565b61085f338383610d8d565b5050565b61086d3383610afa565b6108895760405162461bcd60e51b815260040161047a9061193f565b61089584848484610e5c565b50505050565b6108bf60405180606001604052806000815260200160008152602001600081525090565b506000908152600c6020908152604091829020825160608101845281548152600182015492810192909252600201549181019190915290565b600b546001600160a01b031633146109225760405162461bcd60e51b815260040161047a906118d7565b6000828152600c60205260408120600281018054919284926109459084906119a2565b9091555050505050565b606061095a82610a13565b600061097160408051602081019091526000815290565b9050600081511161099157604051806020016040528060008152506109bc565b8061099b84610e8f565b6040516020016109ac9291906119ba565b6040516020818303038152906040525b9392505050565b60006001600160e01b031982166380ac58cd60e01b14806109f457506001600160e01b03198216635b5e139f60e01b145b8061034657506301ffc9a760e01b6001600160e01b0319831614610346565b6000818152600260205260409020546001600160a01b03166106c95760405162461bcd60e51b8152602060048201526018602482015277115490cdcc8c4e881a5b9d985b1a59081d1bdad95b88125160421b604482015260640161047a565b600081815260046020526040902080546001600160a01b0319166001600160a01b0384169081179091558190610aa78261075f565b6001600160a01b03167f8c5be1e5ebec7d5bd14f71427d1e84f3dd0314c0f7b2291e5b200ac8c7c3b92560405160405180910390a45050565b61085f828260405180602001604052806000815250610f2c565b600080610b068361075f565b9050806001600160a01b0316846001600160a01b03161480610b4d57506001600160a01b0380821660009081526005602090815260408083209388168352929052205460ff165b80610b715750836001600160a01b0316610b66846103de565b6001600160a01b0316145b949350505050565b826001600160a01b0316610b8c8261075f565b6001600160a01b031614610bb25760405162461bcd60e51b815260040161047a906119e9565b6001600160a01b038216610c145760405162461bcd60e51b8152602060048201526024808201527f4552433732313a207472616e7366657220746f20746865207a65726f206164646044820152637265737360e01b606482015260840161047a565b610c218383836001610f5f565b826001600160a01b0316610c348261075f565b6001600160a01b031614610c5a5760405162461bcd60e51b815260040161047a906119e9565b600081815260046020908152604080832080546001600160a01b03199081169091556001600160a01b0387811680865260038552838620805460001901905590871680865283862080546001019055868652600290945282852080549092168417909155905184937fddf252ad1be2c89b69c2b068fc378daa952ba7f163c4a11628f55a4df523b3ef91a4505050565b6000610cf58261075f565b9050610d05816000846001610f5f565b610d0e8261075f565b600083815260046020908152604080832080546001600160a01b03199081169091556001600160a01b0385168085526003845282852080546000190190558785526002909352818420805490911690555192935084927fddf252ad1be2c89b69c2b068fc378daa952ba7f163c4a11628f55a4df523b3ef908390a45050565b816001600160a01b0316836001600160a01b03161415610def5760405162461bcd60e51b815260206004820152601960248201527f4552433732313a20617070726f766520746f2063616c6c657200000000000000604482015260640161047a565b6001600160a01b03838116600081815260056020908152604080832094871680845294825291829020805460ff191686151590811790915591519182527f17307eab39ab6107e8899845ad3d59bd9653f200f220920489ca2b5937696c31910160405180910390a3505050565b610e67848484610b79565b610e7384848484611093565b6108955760405162461bcd60e51b815260040161047a90611a2e565b60606000610e9c83611191565b600101905060008167ffffffffffffffff811115610ebc57610ebc611755565b6040519080825280601f01601f191660200182016040528015610ee6576020820181803683370190505b5090508181016020015b600019016f181899199a1a9b1b9c1cb0b131b232b360811b600a86061a8153600a8504945084610f1f57610f24565b610ef0565b509392505050565b610f368383611269565b610f436000848484611093565b61051b5760405162461bcd60e51b815260040161047a90611a2e565b6001811115610fce5760405162461bcd60e51b815260206004820152603560248201527f455243373231456e756d657261626c653a20636f6e7365637574697665207472604482015274185b9cd9995c9cc81b9bdd081cdd5c1c1bdc9d1959605a1b606482015260840161047a565b816001600160a01b03851661102a5761102581600880546000838152600960205260408120829055600182018355919091527ff3f7a9fe364faab93b216da50a3214154f22a0a2b415b23a84c8169e8b636ee30155565b61104d565b836001600160a01b0316856001600160a01b03161461104d5761104d8582611402565b6001600160a01b038416611069576110648161149f565b61108c565b846001600160a01b0316846001600160a01b03161461108c5761108c848261154e565b5050505050565b60006001600160a01b0384163b1561118657604051630a85bd0160e11b81526001600160a01b0385169063150b7a02906110d7903390899088908890600401611a80565b6020604051808303816000875af1925050508015611112575060408051601f3d908101601f1916820190925261110f91810190611abd565b60015b61116c573d808015611140576040519150601f19603f3d011682016040523d82523d6000602084013e611145565b606091505b5080516111645760405162461bcd60e51b815260040161047a90611a2e565b805181602001fd5b6001600160e01b031916630a85bd0160e11b149050610b71565b506001949350505050565b60008072184f03e93ff9f4daa797ed6e38ed64bf6a1f0160401b83106111d05772184f03e93ff9f4daa797ed6e38ed64bf6a1f0160401b830492506040015b6d04ee2d6d415b85acef810000000083106111fc576d04ee2d6d415b85acef8100000000830492506020015b662386f26fc10000831061121a57662386f26fc10000830492506010015b6305f5e1008310611232576305f5e100830492506008015b612710831061124657612710830492506004015b60648310611258576064830492506002015b600a83106103465760010192915050565b6001600160a01b0382166112bf5760405162461bcd60e51b815260206004820181905260248201527f4552433732313a206d696e7420746f20746865207a65726f2061646472657373604482015260640161047a565b6000818152600260205260409020546001600160a01b0316156113245760405162461bcd60e51b815260206004820152601c60248201527f4552433732313a20746f6b656e20616c7265616479206d696e74656400000000604482015260640161047a565b611332600083836001610f5f565b6000818152600260205260409020546001600160a01b0316156113975760405162461bcd60e51b815260206004820152601c60248201527f4552433732313a20746f6b656e20616c7265616479206d696e74656400000000604482015260640161047a565b6001600160a01b038216600081815260036020908152604080832080546001019055848352600290915280822080546001600160a01b0319168417905551839291907fddf252ad1be2c89b69c2b068fc378daa952ba7f163c4a11628f55a4df523b3ef908290a45050565b6000600161140f846107bf565b6114199190611ada565b60008381526007602052604090205490915080821461146c576001600160a01b03841660009081526006602090815260408083208584528252808320548484528184208190558352600790915290208190555b5060009182526007602090815260408084208490556001600160a01b039094168352600681528383209183525290812055565b6008546000906114b190600190611ada565b600083815260096020526040812054600880549394509092849081106114d9576114d961198c565b9060005260206000200154905080600883815481106114fa576114fa61198c565b600091825260208083209091019290925582815260099091526040808220849055858252812055600880548061153257611532611af1565b6001900381819060005260206000200160009055905550505050565b6000611559836107bf565b6001600160a01b039093166000908152600660209081526040808320868452825280832085905593825260079052919091209190915550565b6001600160e01b0319811681146106c957600080fd5b6000602082840312156115ba57600080fd5b81356109bc81611592565b60005b838110156115e05781810151838201526020016115c8565b838111156108955750506000910152565b600081518084526116098160208601602086016115c5565b601f01601f19169290920160200192915050565b6020815260006109bc60208301846115f1565b60006020828403121561164257600080fd5b5035919050565b80356001600160a01b038116811461166057600080fd5b919050565b6000806040838503121561167857600080fd5b61168183611649565b946020939093013593505050565b6000806000606084860312156116a457600080fd5b6116ad84611649565b95602085013595506040909401359392505050565b6000806000606084860312156116d757600080fd5b6116e084611649565b92506116ee60208501611649565b9150604084013590509250925092565b60006020828403121561171057600080fd5b6109bc82611649565b6000806040838503121561172c57600080fd5b61173583611649565b91506020830135801515811461174a57600080fd5b809150509250929050565b634e487b7160e01b600052604160045260246000fd5b6000806000806080858703121561178157600080fd5b61178a85611649565b935061179860208601611649565b925060408501359150606085013567ffffffffffffffff808211156117bc57600080fd5b818701915087601f8301126117d057600080fd5b8135818111156117e2576117e2611755565b604051601f8201601f19908116603f0116810190838211818310171561180a5761180a611755565b816040528281528a602084870101111561182357600080fd5b82602086016020830137600060208483010152809550505050505092959194509250565b6000806040838503121561185a57600080fd5b50508035926020909101359150565b6000806040838503121561187c57600080fd5b61188583611649565b915061189360208401611649565b90509250929050565b600181811c908216806118b057607f821691505b602082108114156118d157634e487b7160e01b600052602260045260246000fd5b50919050565b6020808252601f908201527f43616c6c6572206973206e6f742074686520506f6f6c20636f6e747261637400604082015260600190565b634e487b7160e01b600052601160045260246000fd5b60006000198214156119385761193861190e565b5060010190565b6020808252602d908201527f4552433732313a2063616c6c6572206973206e6f7420746f6b656e206f776e6560408201526c1c881bdc88185c1c1c9bdd9959609a1b606082015260800190565b634e487b7160e01b600052603260045260246000fd5b600082198211156119b5576119b561190e565b500190565b600083516119cc8184602088016115c5565b8351908301906119e08183602088016115c5565b01949350505050565b60208082526025908201527f4552433732313a207472616e736665722066726f6d20696e636f72726563742060408201526437bbb732b960d91b606082015260800190565b60208082526032908201527f4552433732313a207472616e7366657220746f206e6f6e20455243373231526560408201527131b2b4bb32b91034b6b83632b6b2b73a32b960711b606082015260800190565b6001600160a01b0385811682528416602082015260408101839052608060608201819052600090611ab3908301846115f1565b9695505050505050565b600060208284031215611acf57600080fd5b81516109bc81611592565b600082821015611aec57611aec61190e565b500390565b634e487b7160e01b600052603160045260246000fdfea2646970667358221220c36d952ba2cb6df425f11d0993965c5eacd41a09e79fe1d2493d5d03d61e308964736f6c634300080a0033",
  "linkReferences": {},
  "deployedLinkReferences": {}
}