{
  "_format": "hh-sol-artifact-1",
  "contractName": "Pool",
  "sourceName": "contracts/Pool.sol",
  "abi": [
    {
      "inputs": [
        {
          "internalType": "contract Token",
          "name": "_token",
          "type": "address"
        },
        {
          "internalType": "uint256",
          "name": "_fixedPoolLimit",
          "type": "uint256"
        },
        {
          "internalType": "uint256",
          "name": "_lockDuration",
          "type": "uint256"
        },
        {
          "internalType": "uint256",
          "name": "_interestRate",
          "type": "uint256"
        },
        {
          "internalType": "uint256[]",
          "name": "_dailyInterestRates",
          "type": "uint256[]"
        }
      ],
      "stateMutability": "nonpayable",
      "type": "constructor"
    },
    {
      "anonymous": false,
      "inputs": [
        {
          "indexed": true,
          "internalType": "address",
          "name": "previousOwner",
          "type": "address"
        },
        {
          "indexed": true,
          "internalType": "address",
          "name": "newOwner",
          "type": "address"
        }
      ],
      "name": "OwnershipTransferred",
      "type": "event"
    },
    {
      "inputs": [],
      "name": "addTimestamp",
      "outputs": [
        {
          "internalType": "uint256",
          "name": "",
          "type": "uint256"
        }
      ],
      "stateMutability": "view",
      "type": "function"
    },
    {
      "inputs": [],
      "name": "blocktime",
      "outputs": [
        {
          "internalType": "uint256",
          "name": "",
          "type": "uint256"
        }
      ],
      "stateMutability": "view",
      "type": "function"
    },
    {
      "inputs": [
        {
          "internalType": "uint256",
          "name": "amount",
          "type": "uint256"
        },
        {
          "internalType": "uint256",
          "name": "interestRateAmount",
          "type": "uint256"
        },
        {
          "internalType": "uint256",
          "name": "time",
          "type": "uint256"
        }
      ],
      "name": "calculateInterest",
      "outputs": [
        {
          "internalType": "uint256",
          "name": "",
          "type": "uint256"
        }
      ],
      "stateMutability": "pure",
      "type": "function"
    },
    {
      "inputs": [
        {
          "internalType": "uint256",
          "name": "tokenId",
          "type": "uint256"
        }
      ],
      "name": "calculateInterestFixed",
      "outputs": [
        {
          "internalType": "uint256",
          "name": "",
          "type": "uint256"
        }
      ],
      "stateMutability": "view",
      "type": "function"
    },
    {
      "inputs": [
        {
          "internalType": "uint256",
          "name": "tokenId",
          "type": "uint256"
        }
      ],
      "name": "calculateInterestVariable",
      "outputs": [
        {
          "internalType": "uint256",
          "name": "",
          "type": "uint256"
        }
      ],
      "stateMutability": "view",
      "type": "function"
    },
    {
      "inputs": [
        {
          "internalType": "uint256",
          "name": "",
          "type": "uint256"
        }
      ],
      "name": "dailyInterestRates",
      "outputs": [
        {
          "internalType": "uint256",
          "name": "",
          "type": "uint256"
        }
      ],
      "stateMutability": "view",
      "type": "function"
    },
    {
      "inputs": [
        {
          "internalType": "uint256",
          "name": "amount",
          "type": "uint256"
        }
      ],
      "name": "depositFixed",
      "outputs": [],
      "stateMutability": "nonpayable",
      "type": "function"
    },
    {
      "inputs": [
        {
          "internalType": "uint256",
          "name": "amount",
          "type": "uint256"
        }
      ],
      "name": "depositVariable",
      "outputs": [],
      "stateMutability": "nonpayable",
      "type": "function"
    },
    {
      "inputs": [
        {
          "internalType": "uint256",
          "name": "numSeconds",
          "type": "uint256"
        }
      ],
      "name": "fastForward",
      "outputs": [],
      "stateMutability": "nonpayable",
      "type": "function"
    },
    {
      "inputs": [],
      "name": "fixedDepositNum",
      "outputs": [
        {
          "internalType": "uint256",
          "name": "",
          "type": "uint256"
        }
      ],
      "stateMutability": "view",
      "type": "function"
    },
    {
      "inputs": [],
      "name": "fixedDepositSumTime",
      "outputs": [
        {
          "internalType": "uint256",
          "name": "",
          "type": "uint256"
        }
      ],
      "stateMutability": "view",
      "type": "function"
    },
    {
      "inputs": [],
      "name": "fixedNFT",
      "outputs": [
        {
          "internalType": "contract FixedNFT",
          "name": "",
          "type": "address"
        }
      ],
      "stateMutability": "view",
      "type": "function"
    },
    {
      "inputs": [],
      "name": "fixedPoolLimit",
      "outputs": [
        {
          "internalType": "uint256",
          "name": "",
          "type": "uint256"
        }
      ],
      "stateMutability": "view",
      "type": "function"
    },
    {
      "inputs": [],
      "name": "getTotalSupply",
      "outputs": [
        {
          "internalType": "uint256",
          "name": "",
          "type": "uint256"
        }
      ],
      "stateMutability": "view",
      "type": "function"
    },
    {
      "inputs": [],
      "name": "interestRate",
      "outputs": [
        {
          "internalType": "uint256",
          "name": "",
          "type": "uint256"
        }
      ],
      "stateMutability": "view",
      "type": "function"
    },
    {
      "inputs": [],
      "name": "interests",
      "outputs": [
        {
          "internalType": "int256",
          "name": "",
          "type": "int256"
        },
        {
          "internalType": "int256",
          "name": "",
          "type": "int256"
        }
      ],
      "stateMutability": "view",
      "type": "function"
    },
    {
      "inputs": [],
      "name": "lockDuration",
      "outputs": [
        {
          "internalType": "uint256",
          "name": "",
          "type": "uint256"
        }
      ],
      "stateMutability": "view",
      "type": "function"
    },
    {
      "inputs": [],
      "name": "owner",
      "outputs": [
        {
          "internalType": "address",
          "name": "",
          "type": "address"
        }
      ],
      "stateMutability": "view",
      "type": "function"
    },
    {
      "inputs": [],
      "name": "poolStartTime",
      "outputs": [
        {
          "internalType": "uint256",
          "name": "",
          "type": "uint256"
        }
      ],
      "stateMutability": "view",
      "type": "function"
    },
    {
      "inputs": [],
      "name": "prevMaxSupply",
      "outputs": [
        {
          "internalType": "uint256",
          "name": "",
          "type": "uint256"
        }
      ],
      "stateMutability": "view",
      "type": "function"
    },
    {
      "inputs": [],
      "name": "renounceOwnership",
      "outputs": [],
      "stateMutability": "nonpayable",
      "type": "function"
    },
    {
      "inputs": [],
      "name": "timeSinceStart",
      "outputs": [
        {
          "internalType": "uint256",
          "name": "",
          "type": "uint256"
        }
      ],
      "stateMutability": "view",
      "type": "function"
    },
    {
      "inputs": [],
      "name": "token",
      "outputs": [
        {
          "internalType": "contract Token",
          "name": "",
          "type": "address"
        }
      ],
      "stateMutability": "view",
      "type": "function"
    },
    {
      "inputs": [],
      "name": "totalClaimedFixed",
      "outputs": [
        {
          "internalType": "uint256",
          "name": "",
          "type": "uint256"
        }
      ],
      "stateMutability": "view",
      "type": "function"
    },
    {
      "inputs": [],
      "name": "totalClaimedFixedPrev",
      "outputs": [
        {
          "internalType": "uint256",
          "name": "",
          "type": "uint256"
        }
      ],
      "stateMutability": "view",
      "type": "function"
    },
    {
      "inputs": [],
      "name": "totalClaimedVariable",
      "outputs": [
        {
          "internalType": "uint256",
          "name": "",
          "type": "uint256"
        }
      ],
      "stateMutability": "view",
      "type": "function"
    },
    {
      "inputs": [],
      "name": "totalDepositedFixed",
      "outputs": [
        {
          "internalType": "uint256",
          "name": "",
          "type": "uint256"
        }
      ],
      "stateMutability": "view",
      "type": "function"
    },
    {
      "inputs": [],
      "name": "totalDepositedVariable",
      "outputs": [
        {
          "internalType": "uint256",
          "name": "",
          "type": "uint256"
        }
      ],
      "stateMutability": "view",
      "type": "function"
    },
    {
      "inputs": [
        {
          "internalType": "address",
          "name": "newOwner",
          "type": "address"
        }
      ],
      "name": "transferOwnership",
      "outputs": [],
      "stateMutability": "nonpayable",
      "type": "function"
    },
    {
      "inputs": [],
      "name": "variableNFT",
      "outputs": [
        {
          "internalType": "contract VariableNFT",
          "name": "",
          "type": "address"
        }
      ],
      "stateMutability": "view",
      "type": "function"
    },
    {
      "inputs": [],
      "name": "variablePoolLimit",
      "outputs": [
        {
          "internalType": "uint256",
          "name": "",
          "type": "uint256"
        }
      ],
      "stateMutability": "view",
      "type": "function"
    },
    {
      "inputs": [
        {
          "internalType": "uint256",
          "name": "tokenId",
          "type": "uint256"
        }
      ],
      "name": "withdrawFixed",
      "outputs": [],
      "stateMutability": "nonpayable",
      "type": "function"
    },
    {
      "inputs": [
        {
          "internalType": "uint256",
          "name": "tokenId",
          "type": "uint256"
        }
      ],
      "name": "withdrawVariable",
      "outputs": [],
      "stateMutability": "nonpayable",
      "type": "function"
    }
  ],
  "bytecode": "0x60806040523480156200001157600080fd5b506040516200537d3803806200537d833981016040819052620000349162000288565b6200003f3362000156565b600180546001600160a01b0319166001600160a01b03871617905560048490556006839055600782905562000076848385620001a6565b60055580516200008e906010906020840190620001ef565b50306040516200009e906200023f565b6001600160a01b039091168152602001604051809103906000f080158015620000cb573d6000803e3d6000fd5b50600280546001600160a01b0319166001600160a01b03929092169190911790556040513090620000fc906200024d565b6001600160a01b039091168152602001604051809103906000f08015801562000129573d6000803e3d6000fd5b50600380546001600160a01b0319166001600160a01b039290921691909117905550620003e49350505050565b600080546001600160a01b038381166001600160a01b0319831681178455604051919092169283917f8be0079c531659141344cd1fd0a4f28419497f9722a3daafe3b4186f6b6457e09190a35050565b600063bbf81e00670de0b6b3a764000083620001c3868862000393565b620001cf919062000393565b620001db9190620003c1565b620001e79190620003c1565b949350505050565b8280548282559060005260206000209081019282156200022d579160200282015b828111156200022d57825182559160200191906001019062000210565b506200023b9291506200025b565b5090565b611d32806200190e83390190565b611d3d806200364083390190565b5b808211156200023b57600081556001016200025c565b634e487b7160e01b600052604160045260246000fd5b600080600080600060a08688031215620002a157600080fd5b85516001600160a01b0381168114620002b957600080fd5b602087810151604089015160608a015160808b015194995091975095509350906001600160401b0380821115620002ef57600080fd5b818901915089601f8301126200030457600080fd5b81518181111562000319576200031962000272565b8060051b604051601f19603f8301168101818110858211171562000341576200034162000272565b60405291825284820192508381018501918c8311156200036057600080fd5b938501935b82851015620003805784518452938501939285019262000365565b8096505050505050509295509295909350565b6000816000190483118215151615620003bc57634e487b7160e01b600052601160045260246000fd5b500290565b600082620003df57634e487b7160e01b600052601260045260246000fd5b500490565b61151a80620003f46000396000f3fe608060405234801561001057600080fd5b50600436106101fb5760003560e01c8063715018a61161011a578063a9b12c4c116100ad578063ea1ba5561161007c578063ea1ba556146103a5578063ebf4bd5b146103ae578063f2fde38b146103b7578063fc0c546a146103ca578063fccbe7f6146103dd57600080fd5b8063a9b12c4c14610379578063c4e41b2214610381578063dd4f205914610389578063e4f112471461039c57600080fd5b806383257889116100e95780638325788914610343578063857a5c321461034c5780638da5cb5b1461035f5780639bf028031461037057600080fd5b8063715018a61461032057806373fce7ec14610328578063793265a9146103315780637c3a00fd1461033a57600080fd5b80632cc79b6a116101925780635ade2035116101615780635ade2035146102e95780635f96dc11146102fc57806367fc6dea146103055780636e8fb4591461030d57600080fd5b80632cc79b6a1461028f5780632f47bf62146102ba57806338a9a686146102cd57806347a359ca146102e057600080fd5b806314a3db2d116101ce57806314a3db2d14610241578063178ec0c41461025e5780631a2c9fff1461027157806329796ae51461027a57600080fd5b806304144ec714610200578063045544431461021c57806305e1bd8c14610225578063149c850714610238575b600080fd5b61020960045481565b6040519081526020015b60405180910390f35b61020960065481565b6102096102333660046111e9565b6103f0565b610209600b5481565b610249610431565b60408051928352602083019190915201610213565b61020961026c366004611215565b61051a565b61020960055481565b61028d610288366004611215565b61053b565b005b6003546102a2906001600160a01b031681565b6040516001600160a01b039091168152602001610213565b61028d6102c8366004611215565b610729565b61028d6102db366004611215565b6108c0565b610209600e5481565b6102096102f7366004611215565b610a87565b610209600f5481565b610209610c20565b61020961031b366004611215565b610c72565b61028d610d65565b610209600a5481565b61020960115481565b61020960075481565b610209600c5481565b6002546102a2906001600160a01b031681565b6000546001600160a01b03166102a2565b610209600d5481565b610209610d79565b610209610d89565b61028d610397366004611215565b610eaa565b61020960085481565b61020960095481565b61020960125481565b61028d6103c536600461122e565b611060565b6001546102a2906001600160a01b031681565b61028d6103eb366004611215565b6110d9565b600063bbf81e00670de0b6b3a76400008361040b8688611274565b6104159190611274565b61041f91906112a9565b61042991906112a9565b949350505050565b600754600f5460009182911580159061045f5750600f5461045590620151806112bd565b61045d610d79565b115b1561050f576000601154600a54600c54610477610d89565b61048191906112bd565b61048b91906112bd565b61049591906112d5565b905060006104a1610c20565b90506000600654826104b391906112a9565b6005546104c09190611274565b905060006104ce82856112ec565b9050600554816104de919061132b565b6104ec846301e133806112a9565b6104fe90678ac7230489e80000611359565b6105089190611359565b9450505050505b600754939092509050565b6010818154811061052a57600080fd5b600091825260209091200154905081565b600061054682610c72565b905080600c600082825461055a91906112bd565b909155505060015460405163a6fc996f60e01b8152600481018390526001600160a01b039091169063a6fc996f90602401600060405180830381600087803b1580156105a557600080fd5b505af11580156105b9573d6000803e3d6000fd5b505060015460405163a9059cbb60e01b8152336004820152602481018590526001600160a01b03909116925063a9059cbb91506044016020604051808303816000875af115801561060e573d6000803e3d6000fd5b505050506040513d601f19601f8201168201806040525081019061063291906113de565b5060035460405163c349026360e01b815260048101849052602481018390526001600160a01b039091169063c349026390604401600060405180830381600087803b15801561068057600080fd5b505af1158015610694573d6000803e3d6000fd5b505050506000600f541180156106c05750600654600f546106b591906112bd565b6106bd610d79565b10155b1561072557600354604051630852cd8d60e31b8152600481018490526001600160a01b03909116906342966c68906024015b600060405180830381600087803b15801561070c57600080fd5b505af1158015610720573d6000803e3d6000fd5b505050505b5050565b6005548160095461073a91906112bd565b111561078d5760405162461bcd60e51b815260206004820152601b60248201527f5661726961626c6520706f6f6c206c696d69742072656163686564000000000060448201526064015b60405180910390fd5b6001546040516323b872dd60e01b8152336004820152306024820152604481018390526001600160a01b03909116906323b872dd906064016020604051808303816000875af11580156107e4573d6000803e3d6000fd5b505050506040513d601f19601f8201168201806040525081019061080891906113de565b506003546000906001600160a01b031663156e29f63384610827610d79565b6040516001600160e01b031960e086901b1681526001600160a01b039093166004840152602483019190915260448201526064016020604051808303816000875af115801561087a573d6000803e3d6000fd5b505050506040513d601f19601f8201168201806040525081019061089e9190611400565b905081600960008282546108b291906112bd565b9091555061072590506110f3565b60006108cb82610a87565b9050600f54600014156108f05780600a60008282546108ea91906112bd565b90915550505b60015460405163a6fc996f60e01b8152600481018390526001600160a01b039091169063a6fc996f90602401600060405180830381600087803b15801561093657600080fd5b505af115801561094a573d6000803e3d6000fd5b505060015460405163a9059cbb60e01b8152336004820152602481018590526001600160a01b03909116925063a9059cbb91506044016020604051808303816000875af115801561099f573d6000803e3d6000fd5b505050506040513d601f19601f820116820180604052508101906109c391906113de565b5060025460405163c349026360e01b815260048101849052602481018390526001600160a01b039091169063c349026390604401600060405180830381600087803b158015610a1157600080fd5b505af1158015610a25573d6000803e3d6000fd5b505050506000600f54118015610a515750600654600f54610a4691906112bd565b610a4e610d79565b10155b1561072557600254604051630852cd8d60e31b8152600481018490526001600160a01b03909116906342966c68906024016106f2565b60025460405163609c0cdb60e11b81526004810183905260009182916001600160a01b039091169063c13819b690602401606060405180830381865afa158015610ad5573d6000803e3d6000fd5b505050506040513d601f19601f82011682018060405250810190610af99190611483565b90506000816020015190506000600e54600d54610b1691906112a9565b601154600f549192509080610b4757610b2d610d79565b9050600a54610b3a610d89565b610b4491906112bd565b91505b6000600e5460085484610b5a91906112d5565b610b6491906112a9565b905060006001610b7486856112d5565b1115610ba557610b8485846112d5565b610b8e87856112d5565b610b989084611274565b610ba291906112a9565b90505b600f5415610c04576000610bb7610c20565b9050610bca8860000151600754836103f0565b610bd490836112bd565b9150600654600f54610be691906112bd565b610bee610d79565b10610c02578751610bff90836112bd565b91505b505b6040870151610c1390826112d5565b9998505050505050505050565b6000600f5460001415610c335750600090565b600654600f54610c4391906112bd565b610c4b610d79565b1015610c6b57600f54610c5c610d79565b610c6691906112d5565b905090565b5060065490565b60035460405163609c0cdb60e11b81526004810183905260009182916001600160a01b039091169063c13819b690602401606060405180830381865afa158015610cc0573d6000803e3d6000fd5b505050506040513d601f19601f82011682018060405250810190610ce49190611483565b600f5490915015610d5c576000601154600a54600c54610d02610d89565b610d0c91906112bd565b610d1691906112bd565b610d2091906112d5565b90506000600554828460000151610d379190611274565b610d4191906112a9565b9050826040015181610d5391906112d5565b95945050505050565b50600092915050565b610d6d61113f565b610d776000611199565b565b600060125442610c6691906112bd565b600080600a5460046008546005610da09190611274565b610daa91906112a9565b610db491906112d5565b600f5490915015610e97576000610dc9610c20565b601054909150600080610ddf62015180856112a9565b905060005b81811015610e4057610e20866010610dfc878561149f565b81548110610e0c57610e0c6114b3565b9060005260206000200154620151806103f0565b9250610e2c83876112bd565b955080610e38816114c9565b915050610de4565b506000610e50620151808661149f565b9050610e83866010610e62878661149f565b81548110610e7257610e726114b3565b9060005260206000200154836103f0565b9250610e8f83876112bd565b955050505050505b600c54610ea490826112d5565b91505090565b60045481600854610ebb91906112bd565b1115610efe5760405162461bcd60e51b8152602060048201526012602482015271141bdbdb081b1a5b5a5d081c995858da195960721b6044820152606401610784565b6001546040516323b872dd60e01b8152336004820152306024820152604481018390526001600160a01b03909116906323b872dd906064016020604051808303816000875af1158015610f55573d6000803e3d6000fd5b505050506040513d601f19601f82011682018060405250810190610f7991906113de565b506000610f84610d79565b600254604051630ab714fb60e11b815233600482015260248101859052604481018390529192506000916001600160a01b039091169063156e29f6906064016020604051808303816000875af1158015610fe2573d6000803e3d6000fd5b505050506040513d601f19601f820116820180604052508101906110069190611400565b9050826008600082825461101a91906112bd565b925050819055506001600e600082825461103491906112bd565b9250508190555081600d600082825461104d91906112bd565b9091555061105b90506110f3565b505050565b61106861113f565b6001600160a01b0381166110cd5760405162461bcd60e51b815260206004820152602660248201527f4f776e61626c653a206e6577206f776e657220697320746865207a65726f206160448201526564647265737360d01b6064820152608401610784565b6110d681611199565b50565b80601260008282546110eb91906112bd565b909155505050565b6005546009541480156111095750600454600854145b80156111155750600f54155b15610d7757611122610d79565b600f55600a54611130610d89565b61113a91906112bd565b601155565b6000546001600160a01b03163314610d775760405162461bcd60e51b815260206004820181905260248201527f4f776e61626c653a2063616c6c6572206973206e6f7420746865206f776e65726044820152606401610784565b600080546001600160a01b038381166001600160a01b0319831681178455604051919092169283917f8be0079c531659141344cd1fd0a4f28419497f9722a3daafe3b4186f6b6457e09190a35050565b6000806000606084860312156111fe57600080fd5b505081359360208301359350604090920135919050565b60006020828403121561122757600080fd5b5035919050565b60006020828403121561124057600080fd5b81356001600160a01b038116811461125757600080fd5b9392505050565b634e487b7160e01b600052601160045260246000fd5b600081600019048311821515161561128e5761128e61125e565b500290565b634e487b7160e01b600052601260045260246000fd5b6000826112b8576112b8611293565b500490565b600082198211156112d0576112d061125e565b500190565b6000828210156112e7576112e761125e565b500390565b60008083128015600160ff1b85018412161561130a5761130a61125e565b6001600160ff1b03840183138116156113255761132561125e565b50500390565b60008261133a5761133a611293565b600160ff1b8214600019841416156113545761135461125e565b500590565b60006001600160ff1b038184138284138082168684048611161561137f5761137f61125e565b600160ff1b600087128281168783058912161561139e5761139e61125e565b600087129250878205871284841616156113ba576113ba61125e565b878505871281841616156113d0576113d061125e565b505050929093029392505050565b6000602082840312156113f057600080fd5b8151801515811461125757600080fd5b60006020828403121561141257600080fd5b5051919050565b60006060828403121561142b57600080fd5b6040516060810181811067ffffffffffffffff8211171561145c57634e487b7160e01b600052604160045260246000fd5b80604052508091508251815260208301516020820152604083015160408201525092915050565b60006060828403121561149557600080fd5b6112578383611419565b6000826114ae576114ae611293565b500690565b634e487b7160e01b600052603260045260246000fd5b60006000198214156114dd576114dd61125e565b506001019056fea2646970667358221220ee167a0af9b8825bd38f22eb05bde408197670ebcd46b22776e0d895b6a6954964736f6c634300080a003360806040526000600a553480156200001657600080fd5b5060405162001d3238038062001d32833981016040819052620000399162000176565b6040805180820182526012815271119a5e195908125b9d195c995cdd0813919560721b602080830191825283518085019094526005845264119253919560da1b9084015281519192916200009091600091620000d0565b508051620000a6906001906020840190620000d0565b5050600b80546001600160a01b0319166001600160a01b03939093169290921790915550620001e5565b828054620000de90620001a8565b90600052602060002090601f0160209004810192826200010257600085556200014d565b82601f106200011d57805160ff19168380011785556200014d565b828001600101855582156200014d579182015b828111156200014d57825182559160200191906001019062000130565b506200015b9291506200015f565b5090565b5b808211156200015b576000815560010162000160565b6000602082840312156200018957600080fd5b81516001600160a01b0381168114620001a157600080fd5b9392505050565b600181811c90821680620001bd57607f821691505b60208210811415620001df57634e487b7160e01b600052602260045260246000fd5b50919050565b611b3d80620001f56000396000f3fe608060405234801561001057600080fd5b506004361061012c5760003560e01c80634f6ccce7116100ad578063b88d4fde11610071578063b88d4fde14610277578063c13819b61461028a578063c3490263146102bf578063c87b56dd146102d2578063e985e9c5146102e557600080fd5b80634f6ccce7146102235780636352211e1461023657806370a082311461024957806395d89b411461025c578063a22cb4651461026457600080fd5b806318160ddd116100f457806318160ddd146101cf57806323b872dd146101d75780632f745c59146101ea57806342842e0e146101fd57806342966c681461021057600080fd5b806301ffc9a71461013157806306fdde0314610159578063081812fc1461016e578063095ea7b314610199578063156e29f6146101ae575b600080fd5b61014461013f3660046115a8565b610321565b60405190151581526020015b60405180910390f35b61016161034c565b604051610150919061161d565b61018161017c366004611630565b6103de565b6040516001600160a01b039091168152602001610150565b6101ac6101a7366004611665565b610405565b005b6101c16101bc36600461168f565b610520565b604051908152602001610150565b600a546101c1565b6101ac6101e53660046116c2565b6105b4565b6101c16101f8366004611665565b6105e5565b6101ac61020b3660046116c2565b61067b565b6101ac61021e366004611630565b610696565b6101c1610231366004611630565b6106cc565b610181610244366004611630565b61075f565b6101c16102573660046116fe565b6107bf565b610161610845565b6101ac610272366004611719565b610854565b6101ac61028536600461176b565b610863565b61029d610298366004611630565b61089b565b6040805182518152602080840151908201529181015190820152606001610150565b6101ac6102cd366004611847565b6108f8565b6101616102e0366004611630565b61094f565b6101446102f3366004611869565b6001600160a01b03918216600090815260056020908152604080832093909416825291909152205460ff1690565b60006001600160e01b0319821663780e9d6360e01b14806103465750610346826109c3565b92915050565b60606000805461035b9061189c565b80601f01602080910402602001604051908101604052809291908181526020018280546103879061189c565b80156103d45780601f106103a9576101008083540402835291602001916103d4565b820191906000526020600020905b8154815290600101906020018083116103b757829003601f168201915b5050505050905090565b60006103e982610a13565b506000908152600460205260409020546001600160a01b031690565b60006104108261075f565b9050806001600160a01b0316836001600160a01b031614156104835760405162461bcd60e51b815260206004820152602160248201527f4552433732313a20617070726f76616c20746f2063757272656e74206f776e656044820152603960f91b60648201526084015b60405180910390fd5b336001600160a01b038216148061049f575061049f81336102f3565b6105115760405162461bcd60e51b815260206004820152603d60248201527f4552433732313a20617070726f76652063616c6c6572206973206e6f7420746f60448201527f6b656e206f776e6572206f7220617070726f76656420666f7220616c6c000000606482015260840161047a565b61051b8383610a72565b505050565b600b546000906001600160a01b0316331461054d5760405162461bcd60e51b815260040161047a906118d7565b600a5461055a8582610ae0565b600a805490600061056a83611924565b90915550506040805160608101825285815260208082018681526000838501818152868252600c909352939093209151825591516001820155905160029091015590509392505050565b6105be3382610afa565b6105da5760405162461bcd60e51b815260040161047a9061193f565b61051b838383610b79565b60006105f0836107bf565b82106106525760405162461bcd60e51b815260206004820152602b60248201527f455243373231456e756d657261626c653a206f776e657220696e646578206f7560448201526a74206f6620626f756e647360a81b606482015260840161047a565b506001600160a01b03919091166000908152600660209081526040808320938352929052205490565b61051b83838360405180602001604052806000815250610863565b600b546001600160a01b031633146106c05760405162461bcd60e51b815260040161047a906118d7565b6106c981610cea565b50565b60006106d760085490565b821061073a5760405162461bcd60e51b815260206004820152602c60248201527f455243373231456e756d657261626c653a20676c6f62616c20696e646578206f60448201526b7574206f6620626f756e647360a01b606482015260840161047a565b6008828154811061074d5761074d61198c565b90600052602060002001549050919050565b6000818152600260205260408120546001600160a01b0316806103465760405162461bcd60e51b8152602060048201526018602482015277115490cdcc8c4e881a5b9d985b1a59081d1bdad95b88125160421b604482015260640161047a565b60006001600160a01b0382166108295760405162461bcd60e51b815260206004820152602960248201527f4552433732313a2061646472657373207a65726f206973206e6f7420612076616044820152683634b21037bbb732b960b91b606482015260840161047a565b506001600160a01b031660009081526003602052604090205490565b60606001805461035b9061189c565b61085f338383610d8d565b5050565b61086d3383610afa565b6108895760405162461bcd60e51b815260040161047a9061193f565b61089584848484610e5c565b50505050565b6108bf60405180606001604052806000815260200160008152602001600081525090565b506000908152600c6020908152604091829020825160608101845281548152600182015492810192909252600201549181019190915290565b600b546001600160a01b031633146109225760405162461bcd60e51b815260040161047a906118d7565b6000828152600c60205260408120600281018054919284926109459084906119a2565b9091555050505050565b606061095a82610a13565b600061097160408051602081019091526000815290565b9050600081511161099157604051806020016040528060008152506109bc565b8061099b84610e8f565b6040516020016109ac9291906119ba565b6040516020818303038152906040525b9392505050565b60006001600160e01b031982166380ac58cd60e01b14806109f457506001600160e01b03198216635b5e139f60e01b145b8061034657506301ffc9a760e01b6001600160e01b0319831614610346565b6000818152600260205260409020546001600160a01b03166106c95760405162461bcd60e51b8152602060048201526018602482015277115490cdcc8c4e881a5b9d985b1a59081d1bdad95b88125160421b604482015260640161047a565b600081815260046020526040902080546001600160a01b0319166001600160a01b0384169081179091558190610aa78261075f565b6001600160a01b03167f8c5be1e5ebec7d5bd14f71427d1e84f3dd0314c0f7b2291e5b200ac8c7c3b92560405160405180910390a45050565b61085f828260405180602001604052806000815250610f2c565b600080610b068361075f565b9050806001600160a01b0316846001600160a01b03161480610b4d57506001600160a01b0380821660009081526005602090815260408083209388168352929052205460ff165b80610b715750836001600160a01b0316610b66846103de565b6001600160a01b0316145b949350505050565b826001600160a01b0316610b8c8261075f565b6001600160a01b031614610bb25760405162461bcd60e51b815260040161047a906119e9565b6001600160a01b038216610c145760405162461bcd60e51b8152602060048201526024808201527f4552433732313a207472616e7366657220746f20746865207a65726f206164646044820152637265737360e01b606482015260840161047a565b610c218383836001610f5f565b826001600160a01b0316610c348261075f565b6001600160a01b031614610c5a5760405162461bcd60e51b815260040161047a906119e9565b600081815260046020908152604080832080546001600160a01b03199081169091556001600160a01b0387811680865260038552838620805460001901905590871680865283862080546001019055868652600290945282852080549092168417909155905184937fddf252ad1be2c89b69c2b068fc378daa952ba7f163c4a11628f55a4df523b3ef91a4505050565b6000610cf58261075f565b9050610d05816000846001610f5f565b610d0e8261075f565b600083815260046020908152604080832080546001600160a01b03199081169091556001600160a01b0385168085526003845282852080546000190190558785526002909352818420805490911690555192935084927fddf252ad1be2c89b69c2b068fc378daa952ba7f163c4a11628f55a4df523b3ef908390a45050565b816001600160a01b0316836001600160a01b03161415610def5760405162461bcd60e51b815260206004820152601960248201527f4552433732313a20617070726f766520746f2063616c6c657200000000000000604482015260640161047a565b6001600160a01b03838116600081815260056020908152604080832094871680845294825291829020805460ff191686151590811790915591519182527f17307eab39ab6107e8899845ad3d59bd9653f200f220920489ca2b5937696c31910160405180910390a3505050565b610e67848484610b79565b610e7384848484611093565b6108955760405162461bcd60e51b815260040161047a90611a2e565b60606000610e9c83611191565b600101905060008167ffffffffffffffff811115610ebc57610ebc611755565b6040519080825280601f01601f191660200182016040528015610ee6576020820181803683370190505b5090508181016020015b600019016f181899199a1a9b1b9c1cb0b131b232b360811b600a86061a8153600a8504945084610f1f57610f24565b610ef0565b509392505050565b610f368383611269565b610f436000848484611093565b61051b5760405162461bcd60e51b815260040161047a90611a2e565b6001811115610fce5760405162461bcd60e51b815260206004820152603560248201527f455243373231456e756d657261626c653a20636f6e7365637574697665207472604482015274185b9cd9995c9cc81b9bdd081cdd5c1c1bdc9d1959605a1b606482015260840161047a565b816001600160a01b03851661102a5761102581600880546000838152600960205260408120829055600182018355919091527ff3f7a9fe364faab93b216da50a3214154f22a0a2b415b23a84c8169e8b636ee30155565b61104d565b836001600160a01b0316856001600160a01b03161461104d5761104d8582611402565b6001600160a01b038416611069576110648161149f565b61108c565b846001600160a01b0316846001600160a01b03161461108c5761108c848261154e565b5050505050565b60006001600160a01b0384163b1561118657604051630a85bd0160e11b81526001600160a01b0385169063150b7a02906110d7903390899088908890600401611a80565b6020604051808303816000875af1925050508015611112575060408051601f3d908101601f1916820190925261110f91810190611abd565b60015b61116c573d808015611140576040519150601f19603f3d011682016040523d82523d6000602084013e611145565b606091505b5080516111645760405162461bcd60e51b815260040161047a90611a2e565b805181602001fd5b6001600160e01b031916630a85bd0160e11b149050610b71565b506001949350505050565b60008072184f03e93ff9f4daa797ed6e38ed64bf6a1f0160401b83106111d05772184f03e93ff9f4daa797ed6e38ed64bf6a1f0160401b830492506040015b6d04ee2d6d415b85acef810000000083106111fc576d04ee2d6d415b85acef8100000000830492506020015b662386f26fc10000831061121a57662386f26fc10000830492506010015b6305f5e1008310611232576305f5e100830492506008015b612710831061124657612710830492506004015b60648310611258576064830492506002015b600a83106103465760010192915050565b6001600160a01b0382166112bf5760405162461bcd60e51b815260206004820181905260248201527f4552433732313a206d696e7420746f20746865207a65726f2061646472657373604482015260640161047a565b6000818152600260205260409020546001600160a01b0316156113245760405162461bcd60e51b815260206004820152601c60248201527f4552433732313a20746f6b656e20616c7265616479206d696e74656400000000604482015260640161047a565b611332600083836001610f5f565b6000818152600260205260409020546001600160a01b0316156113975760405162461bcd60e51b815260206004820152601c60248201527f4552433732313a20746f6b656e20616c7265616479206d696e74656400000000604482015260640161047a565b6001600160a01b038216600081815260036020908152604080832080546001019055848352600290915280822080546001600160a01b0319168417905551839291907fddf252ad1be2c89b69c2b068fc378daa952ba7f163c4a11628f55a4df523b3ef908290a45050565b6000600161140f846107bf565b6114199190611ada565b60008381526007602052604090205490915080821461146c576001600160a01b03841660009081526006602090815260408083208584528252808320548484528184208190558352600790915290208190555b5060009182526007602090815260408084208490556001600160a01b039094168352600681528383209183525290812055565b6008546000906114b190600190611ada565b600083815260096020526040812054600880549394509092849081106114d9576114d961198c565b9060005260206000200154905080600883815481106114fa576114fa61198c565b600091825260208083209091019290925582815260099091526040808220849055858252812055600880548061153257611532611af1565b6001900381819060005260206000200160009055905550505050565b6000611559836107bf565b6001600160a01b039093166000908152600660209081526040808320868452825280832085905593825260079052919091209190915550565b6001600160e01b0319811681146106c957600080fd5b6000602082840312156115ba57600080fd5b81356109bc81611592565b60005b838110156115e05781810151838201526020016115c8565b838111156108955750506000910152565b600081518084526116098160208601602086016115c5565b601f01601f19169290920160200192915050565b6020815260006109bc60208301846115f1565b60006020828403121561164257600080fd5b5035919050565b80356001600160a01b038116811461166057600080fd5b919050565b6000806040838503121561167857600080fd5b61168183611649565b946020939093013593505050565b6000806000606084860312156116a457600080fd5b6116ad84611649565b95602085013595506040909401359392505050565b6000806000606084860312156116d757600080fd5b6116e084611649565b92506116ee60208501611649565b9150604084013590509250925092565b60006020828403121561171057600080fd5b6109bc82611649565b6000806040838503121561172c57600080fd5b61173583611649565b91506020830135801515811461174a57600080fd5b809150509250929050565b634e487b7160e01b600052604160045260246000fd5b6000806000806080858703121561178157600080fd5b61178a85611649565b935061179860208601611649565b925060408501359150606085013567ffffffffffffffff808211156117bc57600080fd5b818701915087601f8301126117d057600080fd5b8135818111156117e2576117e2611755565b604051601f8201601f19908116603f0116810190838211818310171561180a5761180a611755565b816040528281528a602084870101111561182357600080fd5b82602086016020830137600060208483010152809550505050505092959194509250565b6000806040838503121561185a57600080fd5b50508035926020909101359150565b6000806040838503121561187c57600080fd5b61188583611649565b915061189360208401611649565b90509250929050565b600181811c908216806118b057607f821691505b602082108114156118d157634e487b7160e01b600052602260045260246000fd5b50919050565b6020808252601f908201527f43616c6c6572206973206e6f742074686520506f6f6c20636f6e747261637400604082015260600190565b634e487b7160e01b600052601160045260246000fd5b60006000198214156119385761193861190e565b5060010190565b6020808252602d908201527f4552433732313a2063616c6c6572206973206e6f7420746f6b656e206f776e6560408201526c1c881bdc88185c1c1c9bdd9959609a1b606082015260800190565b634e487b7160e01b600052603260045260246000fd5b600082198211156119b5576119b561190e565b500190565b600083516119cc8184602088016115c5565b8351908301906119e08183602088016115c5565b01949350505050565b60208082526025908201527f4552433732313a207472616e736665722066726f6d20696e636f72726563742060408201526437bbb732b960d91b606082015260800190565b60208082526032908201527f4552433732313a207472616e7366657220746f206e6f6e20455243373231526560408201527131b2b4bb32b91034b6b83632b6b2b73a32b960711b606082015260800190565b6001600160a01b0385811682528416602082015260408101839052608060608201819052600090611ab3908301846115f1565b9695505050505050565b600060208284031215611acf57600080fd5b81516109bc81611592565b600082821015611aec57611aec61190e565b500390565b634e487b7160e01b600052603160045260246000fdfea264697066735822122078be820d7fd2f8efd83766b7b66d3f0d3b69913f97e502cf1b30e0406f5b222e64736f6c634300080a003360806040526000600a553480156200001657600080fd5b5060405162001d3d38038062001d3d833981016040819052620000399162000181565b604080518082018252601581527f5661726961626c6520496e746572657374204e46540000000000000000000000602080830191825283518085019094526005845264159253919560da1b9084015281519192916200009b91600091620000db565b508051620000b1906001906020840190620000db565b5050600b80546001600160a01b0319166001600160a01b03939093169290921790915550620001f0565b828054620000e990620001b3565b90600052602060002090601f0160209004810192826200010d576000855562000158565b82601f106200012857805160ff191683800117855562000158565b8280016001018555821562000158579182015b82811115620001585782518255916020019190600101906200013b565b50620001669291506200016a565b5090565b5b808211156200016657600081556001016200016b565b6000602082840312156200019457600080fd5b81516001600160a01b0381168114620001ac57600080fd5b9392505050565b600181811c90821680620001c857607f821691505b60208210811415620001ea57634e487b7160e01b600052602260045260246000fd5b50919050565b611b3d80620002006000396000f3fe608060405234801561001057600080fd5b506004361061012c5760003560e01c80634f6ccce7116100ad578063b88d4fde11610071578063b88d4fde14610277578063c13819b61461028a578063c3490263146102bf578063c87b56dd146102d2578063e985e9c5146102e557600080fd5b80634f6ccce7146102235780636352211e1461023657806370a082311461024957806395d89b411461025c578063a22cb4651461026457600080fd5b806318160ddd116100f457806318160ddd146101cf57806323b872dd146101d75780632f745c59146101ea57806342842e0e146101fd57806342966c681461021057600080fd5b806301ffc9a71461013157806306fdde0314610159578063081812fc1461016e578063095ea7b314610199578063156e29f6146101ae575b600080fd5b61014461013f3660046115a8565b610321565b60405190151581526020015b60405180910390f35b61016161034c565b604051610150919061161d565b61018161017c366004611630565b6103de565b6040516001600160a01b039091168152602001610150565b6101ac6101a7366004611665565b610405565b005b6101c16101bc36600461168f565b610520565b604051908152602001610150565b600a546101c1565b6101ac6101e53660046116c2565b6105b4565b6101c16101f8366004611665565b6105e5565b6101ac61020b3660046116c2565b61067b565b6101ac61021e366004611630565b610696565b6101c1610231366004611630565b6106cc565b610181610244366004611630565b61075f565b6101c16102573660046116fe565b6107bf565b610161610845565b6101ac610272366004611719565b610854565b6101ac61028536600461176b565b610863565b61029d610298366004611630565b61089b565b6040805182518152602080840151908201529181015190820152606001610150565b6101ac6102cd366004611847565b6108f8565b6101616102e0366004611630565b61094f565b6101446102f3366004611869565b6001600160a01b03918216600090815260056020908152604080832093909416825291909152205460ff1690565b60006001600160e01b0319821663780e9d6360e01b14806103465750610346826109c3565b92915050565b60606000805461035b9061189c565b80601f01602080910402602001604051908101604052809291908181526020018280546103879061189c565b80156103d45780601f106103a9576101008083540402835291602001916103d4565b820191906000526020600020905b8154815290600101906020018083116103b757829003601f168201915b5050505050905090565b60006103e982610a13565b506000908152600460205260409020546001600160a01b031690565b60006104108261075f565b9050806001600160a01b0316836001600160a01b031614156104835760405162461bcd60e51b815260206004820152602160248201527f4552433732313a20617070726f76616c20746f2063757272656e74206f776e656044820152603960f91b60648201526084015b60405180910390fd5b336001600160a01b038216148061049f575061049f81336102f3565b6105115760405162461bcd60e51b815260206004820152603d60248201527f4552433732313a20617070726f76652063616c6c6572206973206e6f7420746f60448201527f6b656e206f776e6572206f7220617070726f76656420666f7220616c6c000000606482015260840161047a565b61051b8383610a72565b505050565b600b546000906001600160a01b0316331461054d5760405162461bcd60e51b815260040161047a906118d7565b600a5461055a8582610ae0565b600a805490600061056a83611924565b90915550506040805160608101825285815260208082018681526000838501818152868252600c909352939093209151825591516001820155905160029091015590509392505050565b6105be3382610afa565b6105da5760405162461bcd60e51b815260040161047a9061193f565b61051b838383610b79565b60006105f0836107bf565b82106106525760405162461bcd60e51b815260206004820152602b60248201527f455243373231456e756d657261626c653a206f776e657220696e646578206f7560448201526a74206f6620626f756e647360a81b606482015260840161047a565b506001600160a01b03919091166000908152600660209081526040808320938352929052205490565b61051b83838360405180602001604052806000815250610863565b600b546001600160a01b031633146106c05760405162461bcd60e51b815260040161047a906118d7565b6106c981610cea565b50565b60006106d760085490565b821061073a5760405162461bcd60e51b815260206004820152602c60248201527f455243373231456e756d657261626c653a20676c6f62616c20696e646578206f60448201526b7574206f6620626f756e647360a01b606482015260840161047a565b6008828154811061074d5761074d61198c565b90600052602060002001549050919050565b6000818152600260205260408120546001600160a01b0316806103465760405162461bcd60e51b8152602060048201526018602482015277115490cdcc8c4e881a5b9d985b1a59081d1bdad95b88125160421b604482015260640161047a565b60006001600160a01b0382166108295760405162461bcd60e51b815260206004820152602960248201527f4552433732313a2061646472657373207a65726f206973206e6f7420612076616044820152683634b21037bbb732b960b91b606482015260840161047a565b506001600160a01b031660009081526003602052604090205490565b60606001805461035b9061189c565b61085f338383610d8d565b5050565b61086d3383610afa565b6108895760405162461bcd60e51b815260040161047a9061193f565b61089584848484610e5c565b50505050565b6108bf60405180606001604052806000815260200160008152602001600081525090565b506000908152600c6020908152604091829020825160608101845281548152600182015492810192909252600201549181019190915290565b600b546001600160a01b031633146109225760405162461bcd60e51b815260040161047a906118d7565b6000828152600c60205260408120600281018054919284926109459084906119a2565b9091555050505050565b606061095a82610a13565b600061097160408051602081019091526000815290565b9050600081511161099157604051806020016040528060008152506109bc565b8061099b84610e8f565b6040516020016109ac9291906119ba565b6040516020818303038152906040525b9392505050565b60006001600160e01b031982166380ac58cd60e01b14806109f457506001600160e01b03198216635b5e139f60e01b145b8061034657506301ffc9a760e01b6001600160e01b0319831614610346565b6000818152600260205260409020546001600160a01b03166106c95760405162461bcd60e51b8152602060048201526018602482015277115490cdcc8c4e881a5b9d985b1a59081d1bdad95b88125160421b604482015260640161047a565b600081815260046020526040902080546001600160a01b0319166001600160a01b0384169081179091558190610aa78261075f565b6001600160a01b03167f8c5be1e5ebec7d5bd14f71427d1e84f3dd0314c0f7b2291e5b200ac8c7c3b92560405160405180910390a45050565b61085f828260405180602001604052806000815250610f2c565b600080610b068361075f565b9050806001600160a01b0316846001600160a01b03161480610b4d57506001600160a01b0380821660009081526005602090815260408083209388168352929052205460ff165b80610b715750836001600160a01b0316610b66846103de565b6001600160a01b0316145b949350505050565b826001600160a01b0316610b8c8261075f565b6001600160a01b031614610bb25760405162461bcd60e51b815260040161047a906119e9565b6001600160a01b038216610c145760405162461bcd60e51b8152602060048201526024808201527f4552433732313a207472616e7366657220746f20746865207a65726f206164646044820152637265737360e01b606482015260840161047a565b610c218383836001610f5f565b826001600160a01b0316610c348261075f565b6001600160a01b031614610c5a5760405162461bcd60e51b815260040161047a906119e9565b600081815260046020908152604080832080546001600160a01b03199081169091556001600160a01b0387811680865260038552838620805460001901905590871680865283862080546001019055868652600290945282852080549092168417909155905184937fddf252ad1be2c89b69c2b068fc378daa952ba7f163c4a11628f55a4df523b3ef91a4505050565b6000610cf58261075f565b9050610d05816000846001610f5f565b610d0e8261075f565b600083815260046020908152604080832080546001600160a01b03199081169091556001600160a01b0385168085526003845282852080546000190190558785526002909352818420805490911690555192935084927fddf252ad1be2c89b69c2b068fc378daa952ba7f163c4a11628f55a4df523b3ef908390a45050565b816001600160a01b0316836001600160a01b03161415610def5760405162461bcd60e51b815260206004820152601960248201527f4552433732313a20617070726f766520746f2063616c6c657200000000000000604482015260640161047a565b6001600160a01b03838116600081815260056020908152604080832094871680845294825291829020805460ff191686151590811790915591519182527f17307eab39ab6107e8899845ad3d59bd9653f200f220920489ca2b5937696c31910160405180910390a3505050565b610e67848484610b79565b610e7384848484611093565b6108955760405162461bcd60e51b815260040161047a90611a2e565b60606000610e9c83611191565b600101905060008167ffffffffffffffff811115610ebc57610ebc611755565b6040519080825280601f01601f191660200182016040528015610ee6576020820181803683370190505b5090508181016020015b600019016f181899199a1a9b1b9c1cb0b131b232b360811b600a86061a8153600a8504945084610f1f57610f24565b610ef0565b509392505050565b610f368383611269565b610f436000848484611093565b61051b5760405162461bcd60e51b815260040161047a90611a2e565b6001811115610fce5760405162461bcd60e51b815260206004820152603560248201527f455243373231456e756d657261626c653a20636f6e7365637574697665207472604482015274185b9cd9995c9cc81b9bdd081cdd5c1c1bdc9d1959605a1b606482015260840161047a565b816001600160a01b03851661102a5761102581600880546000838152600960205260408120829055600182018355919091527ff3f7a9fe364faab93b216da50a3214154f22a0a2b415b23a84c8169e8b636ee30155565b61104d565b836001600160a01b0316856001600160a01b03161461104d5761104d8582611402565b6001600160a01b038416611069576110648161149f565b61108c565b846001600160a01b0316846001600160a01b03161461108c5761108c848261154e565b5050505050565b60006001600160a01b0384163b1561118657604051630a85bd0160e11b81526001600160a01b0385169063150b7a02906110d7903390899088908890600401611a80565b6020604051808303816000875af1925050508015611112575060408051601f3d908101601f1916820190925261110f91810190611abd565b60015b61116c573d808015611140576040519150601f19603f3d011682016040523d82523d6000602084013e611145565b606091505b5080516111645760405162461bcd60e51b815260040161047a90611a2e565b805181602001fd5b6001600160e01b031916630a85bd0160e11b149050610b71565b506001949350505050565b60008072184f03e93ff9f4daa797ed6e38ed64bf6a1f0160401b83106111d05772184f03e93ff9f4daa797ed6e38ed64bf6a1f0160401b830492506040015b6d04ee2d6d415b85acef810000000083106111fc576d04ee2d6d415b85acef8100000000830492506020015b662386f26fc10000831061121a57662386f26fc10000830492506010015b6305f5e1008310611232576305f5e100830492506008015b612710831061124657612710830492506004015b60648310611258576064830492506002015b600a83106103465760010192915050565b6001600160a01b0382166112bf5760405162461bcd60e51b815260206004820181905260248201527f4552433732313a206d696e7420746f20746865207a65726f2061646472657373604482015260640161047a565b6000818152600260205260409020546001600160a01b0316156113245760405162461bcd60e51b815260206004820152601c60248201527f4552433732313a20746f6b656e20616c7265616479206d696e74656400000000604482015260640161047a565b611332600083836001610f5f565b6000818152600260205260409020546001600160a01b0316156113975760405162461bcd60e51b815260206004820152601c60248201527f4552433732313a20746f6b656e20616c7265616479206d696e74656400000000604482015260640161047a565b6001600160a01b038216600081815260036020908152604080832080546001019055848352600290915280822080546001600160a01b0319168417905551839291907fddf252ad1be2c89b69c2b068fc378daa952ba7f163c4a11628f55a4df523b3ef908290a45050565b6000600161140f846107bf565b6114199190611ada565b60008381526007602052604090205490915080821461146c576001600160a01b03841660009081526006602090815260408083208584528252808320548484528184208190558352600790915290208190555b5060009182526007602090815260408084208490556001600160a01b039094168352600681528383209183525290812055565b6008546000906114b190600190611ada565b600083815260096020526040812054600880549394509092849081106114d9576114d961198c565b9060005260206000200154905080600883815481106114fa576114fa61198c565b600091825260208083209091019290925582815260099091526040808220849055858252812055600880548061153257611532611af1565b6001900381819060005260206000200160009055905550505050565b6000611559836107bf565b6001600160a01b039093166000908152600660209081526040808320868452825280832085905593825260079052919091209190915550565b6001600160e01b0319811681146106c957600080fd5b6000602082840312156115ba57600080fd5b81356109bc81611592565b60005b838110156115e05781810151838201526020016115c8565b838111156108955750506000910152565b600081518084526116098160208601602086016115c5565b601f01601f19169290920160200192915050565b6020815260006109bc60208301846115f1565b60006020828403121561164257600080fd5b5035919050565b80356001600160a01b038116811461166057600080fd5b919050565b6000806040838503121561167857600080fd5b61168183611649565b946020939093013593505050565b6000806000606084860312156116a457600080fd5b6116ad84611649565b95602085013595506040909401359392505050565b6000806000606084860312156116d757600080fd5b6116e084611649565b92506116ee60208501611649565b9150604084013590509250925092565b60006020828403121561171057600080fd5b6109bc82611649565b6000806040838503121561172c57600080fd5b61173583611649565b91506020830135801515811461174a57600080fd5b809150509250929050565b634e487b7160e01b600052604160045260246000fd5b6000806000806080858703121561178157600080fd5b61178a85611649565b935061179860208601611649565b925060408501359150606085013567ffffffffffffffff808211156117bc57600080fd5b818701915087601f8301126117d057600080fd5b8135818111156117e2576117e2611755565b604051601f8201601f19908116603f0116810190838211818310171561180a5761180a611755565b816040528281528a602084870101111561182357600080fd5b82602086016020830137600060208483010152809550505050505092959194509250565b6000806040838503121561185a57600080fd5b50508035926020909101359150565b6000806040838503121561187c57600080fd5b61188583611649565b915061189360208401611649565b90509250929050565b600181811c908216806118b057607f821691505b602082108114156118d157634e487b7160e01b600052602260045260246000fd5b50919050565b6020808252601f908201527f43616c6c6572206973206e6f742074686520506f6f6c20636f6e747261637400604082015260600190565b634e487b7160e01b600052601160045260246000fd5b60006000198214156119385761193861190e565b5060010190565b6020808252602d908201527f4552433732313a2063616c6c6572206973206e6f7420746f6b656e206f776e6560408201526c1c881bdc88185c1c1c9bdd9959609a1b606082015260800190565b634e487b7160e01b600052603260045260246000fd5b600082198211156119b5576119b561190e565b500190565b600083516119cc8184602088016115c5565b8351908301906119e08183602088016115c5565b01949350505050565b60208082526025908201527f4552433732313a207472616e736665722066726f6d20696e636f72726563742060408201526437bbb732b960d91b606082015260800190565b60208082526032908201527f4552433732313a207472616e7366657220746f206e6f6e20455243373231526560408201527131b2b4bb32b91034b6b83632b6b2b73a32b960711b606082015260800190565b6001600160a01b0385811682528416602082015260408101839052608060608201819052600090611ab3908301846115f1565b9695505050505050565b600060208284031215611acf57600080fd5b81516109bc81611592565b600082821015611aec57611aec61190e565b500390565b634e487b7160e01b600052603160045260246000fdfea2646970667358221220c36d952ba2cb6df425f11d0993965c5eacd41a09e79fe1d2493d5d03d61e308964736f6c634300080a0033",
  "linkReferences": {},
  "deployedLinkReferences": {}
}