{
  "_format": "hh-sol-artifact-1",
  "contractName": "PoolLogic",
  "sourceName": "contracts/PoolLogic.sol",
  "abi": [
    {
      "inputs": [
        {
          "internalType": "uint256",
          "name": "amount",
          "type": "uint256"
        },
        {
          "internalType": "uint256",
          "name": "interestRateAmount",
          "type": "uint256"
        },
        {
          "internalType": "uint256",
          "name": "time",
          "type": "uint256"
        }
      ],
      "name": "calculateInterest",
      "outputs": [
        {
          "internalType": "uint256",
          "name": "",
          "type": "uint256"
        }
      ],
      "stateMutability": "pure",
      "type": "function"
    },
    {
      "inputs": [
        {
          "components": [
            {
              "internalType": "uint256",
              "name": "amount",
              "type": "uint256"
            },
            {
              "internalType": "uint256",
              "name": "depositTime",
              "type": "uint256"
            },
            {
              "internalType": "uint256",
              "name": "claim",
              "type": "uint256"
            }
          ],
          "internalType": "struct FixedNFT.DepositData",
          "name": "depositData",
          "type": "tuple"
        },
        {
          "components": [
            {
              "internalType": "uint256",
              "name": "poolStartTime",
              "type": "uint256"
            },
            {
              "internalType": "uint256",
              "name": "blocktime",
              "type": "uint256"
            },
            {
              "internalType": "uint256",
              "name": "lockDuration",
              "type": "uint256"
            },
            {
              "internalType": "bool",
              "name": "poolStopped",
              "type": "bool"
            },
            {
              "internalType": "uint256",
              "name": "poolDeployTime",
              "type": "uint256"
            },
            {
              "internalType": "uint256",
              "name": "totalTimeWeight",
              "type": "uint256"
            },
            {
              "internalType": "uint256",
              "name": "interestRate",
              "type": "uint256"
            }
          ],
          "internalType": "struct PoolLogic.Times",
          "name": "times",
          "type": "tuple"
        },
        {
          "internalType": "uint256",
          "name": "prevMaxSupply",
          "type": "uint256"
        },
        {
          "internalType": "uint256",
          "name": "totalDepositedFixed",
          "type": "uint256"
        },
        {
          "internalType": "uint256",
          "name": "totalClaimedFixedPrev",
          "type": "uint256"
        },
        {
          "internalType": "uint256",
          "name": "totalSupply",
          "type": "uint256"
        }
      ],
      "name": "calculateInterestFixedParts",
      "outputs": [
        {
          "internalType": "uint256",
          "name": "",
          "type": "uint256"
        },
        {
          "internalType": "uint256",
          "name": "",
          "type": "uint256"
        }
      ],
      "stateMutability": "pure",
      "type": "function"
    },
    {
      "inputs": [
        {
          "components": [
            {
              "internalType": "uint256",
              "name": "amount",
              "type": "uint256"
            },
            {
              "internalType": "uint256",
              "name": "depositTime",
              "type": "uint256"
            },
            {
              "internalType": "uint256",
              "name": "claim",
              "type": "uint256"
            }
          ],
          "internalType": "struct VariableNFT.DepositData",
          "name": "depositData",
          "type": "tuple"
        },
        {
          "components": [
            {
              "internalType": "uint256",
              "name": "poolStartTime",
              "type": "uint256"
            },
            {
              "internalType": "uint256",
              "name": "blocktime",
              "type": "uint256"
            },
            {
              "internalType": "uint256",
              "name": "lockDuration",
              "type": "uint256"
            },
            {
              "internalType": "bool",
              "name": "poolStopped",
              "type": "bool"
            },
            {
              "internalType": "uint256",
              "name": "poolDeployTime",
              "type": "uint256"
            },
            {
              "internalType": "uint256",
              "name": "totalTimeWeight",
              "type": "uint256"
            },
            {
              "internalType": "uint256",
              "name": "interestRate",
              "type": "uint256"
            }
          ],
          "internalType": "struct PoolLogic.Times",
          "name": "times",
          "type": "tuple"
        },
        {
          "internalType": "uint256",
          "name": "prevMaxSupply",
          "type": "uint256"
        },
        {
          "internalType": "uint256",
          "name": "totalDepositedVariable",
          "type": "uint256"
        },
        {
          "internalType": "uint256",
          "name": "totalClaimedVariable",
          "type": "uint256"
        },
        {
          "internalType": "uint256",
          "name": "totalSupply",
          "type": "uint256"
        },
        {
          "internalType": "uint256",
          "name": "variablePoolLimit",
          "type": "uint256"
        },
        {
          "internalType": "uint256",
          "name": "totalClaimedFixedPrev",
          "type": "uint256"
        }
      ],
      "name": "calculateInterestVariable",
      "outputs": [
        {
          "internalType": "uint256",
          "name": "",
          "type": "uint256"
        }
      ],
      "stateMutability": "pure",
      "type": "function"
    },
    {
      "inputs": [
        {
          "internalType": "uint256",
          "name": "_interestRate",
          "type": "uint256"
        },
        {
          "internalType": "uint256",
          "name": "_poolStartTime",
          "type": "uint256"
        },
        {
          "internalType": "uint256",
          "name": "_variablePoolLimit",
          "type": "uint256"
        },
        {
          "internalType": "uint256",
          "name": "_lockDuration",
          "type": "uint256"
        },
        {
          "internalType": "uint256",
          "name": "_totalClaimedVariable",
          "type": "uint256"
        },
        {
          "internalType": "uint256",
          "name": "_totalClaimedFixedPrev",
          "type": "uint256"
        },
        {
          "internalType": "uint256",
          "name": "_prevMaxSupply",
          "type": "uint256"
        },
        {
          "internalType": "uint256",
          "name": "_totalSupply",
          "type": "uint256"
        },
        {
          "internalType": "uint256",
          "name": "_blocktime",
          "type": "uint256"
        }
      ],
      "name": "interests",
      "outputs": [
        {
          "internalType": "int256",
          "name": "",
          "type": "int256"
        },
        {
          "internalType": "int256",
          "name": "",
          "type": "int256"
        }
      ],
      "stateMutability": "pure",
      "type": "function"
    },
    {
      "inputs": [
        {
          "internalType": "uint256",
          "name": "poolStartTime",
          "type": "uint256"
        },
        {
          "internalType": "uint256",
          "name": "blocktime",
          "type": "uint256"
        },
        {
          "internalType": "uint256",
          "name": "lockDuration",
          "type": "uint256"
        }
      ],
      "name": "timeSinceStart",
      "outputs": [
        {
          "internalType": "uint256",
          "name": "",
          "type": "uint256"
        }
      ],
      "stateMutability": "pure",
      "type": "function"
    }
  ],
  "bytecode": "0x608060405234801561001057600080fd5b506108bb806100206000396000f3fe608060405234801561001057600080fd5b50600436106100575760003560e01c806305e1bd8c1461005c5780634fea9afd1461008257806376fe5ace14610095578063c1ffff20146100a8578063d545c483146100d0575b600080fd5b61006f61006a36600461049c565b6100e3565b6040519081526020015b60405180910390f35b61006f61009036600461049c565b610126565b61006f6100a33660046105db565b61015e565b6100bb6100b636600461064a565b6101f9565b60408051928352602083019190915201610079565b6100bb6100de3660046106a9565b6102d9565b600063bbf81e00670de0b6b3a7640000836100fe868861071b565b610108919061071b565b6101129190610750565b61011c9190610750565b90505b9392505050565b6000836101355750600061011f565b61013f8285610764565b831015610157576101508385610477565b905061011f565b508061011f565b6000876060015115610172575087516101ed565b8751156101e9576000610199836101898888610764565b6101939190610764565b89610477565b9050600084828c600001516101ae919061071b565b6101b89190610750565b905060006101ca828d60400151610477565b9050868111156101df578693505050506101ed565b92506101ed915050565b5060005b98975050505050505050565b6000808a8a1580159061021757506102148b62015180610764565b84115b156102c557600061023c8861022c8b89610764565b6102369190610764565b88610477565b9050600061024b8d878d610126565b905060006102598c83610750565b610263908e61071b565b90506000610271828561077c565b905082158061027e57508d155b15610294578f60009650965050505050506102cb565b61029e8e8461071b565b6102b4826b0104dc13db1286a62c0000006107bb565b6102be9190610840565b9450505050505b8b925090505b995099975050505050505050565b6000806000886020015188602001516102f2919061086e565b885190915061030c576103058585610764565b9650610320565b6020890151885161031d919061086e565b90505b600061032c8888610477565b905060008960a001518a608001518b60200151610349919061086e565b610353908a61071b565b61035d919061086e565b8b519091506000908290610371868661071b565b61037b919061071b565b6103859190610750565b90508a60600151156103ac578b5161039d9082610764565b6000955095505050505061046c565b8a516000901561041c5760006103cf8d600001518e602001518f60400151610126565b90506103e48e600001518e60c00151836100e3565b6103ee9083610764565b60408e01518e5191935061040191610764565b8d602001511061041a578d516104179084610764565b92505b505b818d604001511115610450576000610438828f60400151610477565b6104429084610764565b96509650505050505061046c565b61045e828e60400151610477565b9650945061046c9350505050565b965096945050505050565b6000818311156104925761048b828461086e565b9050610496565b5060005b92915050565b6000806000606084860312156104b157600080fd5b505081359360208301359350604090920135919050565b60405160e0810167ffffffffffffffff811182821017156104f957634e487b7160e01b600052604160045260246000fd5b60405290565b60006060828403121561051157600080fd5b6040516060810181811067ffffffffffffffff8211171561054257634e487b7160e01b600052604160045260246000fd5b80604052508091508235815260208301356020820152604083013560408201525092915050565b600060e0828403121561057b57600080fd5b6105836104c8565b9050813581526020820135602082015260408201356040820152606082013580151581146105b057600080fd5b806060830152506080820135608082015260a082013560a082015260c082013560c082015292915050565b600080600080600080600080610200898b0312156105f857600080fd5b6106028a8a6104ff565b97506106118a60608b01610569565b979a979950505050610140860135956101608101359561018082013595506101a082013594506101c082013593506101e0909101359150565b60008060008060008060008060006101208a8c03121561066957600080fd5b505087359960208901359950604089013598606081013598506080810135975060a0810135965060c0810135955060e08101359450610100013592509050565b6000806000806000806101c087890312156106c357600080fd5b6106cd88886104ff565b95506106dc8860608901610569565b9598959750505050610140840135936101608101359361018082013593506101a0909101359150565b634e487b7160e01b600052601160045260246000fd5b600081600019048311821515161561073557610735610705565b500290565b634e487b7160e01b600052601260045260246000fd5b60008261075f5761075f61073a565b500490565b6000821982111561077757610777610705565b500190565b60008083128015600160ff1b85018412161561079a5761079a610705565b6001600160ff1b03840183138116156107b5576107b5610705565b50500390565b60006001600160ff1b03818413828413808216868404861116156107e1576107e1610705565b600160ff1b600087128281168783058912161561080057610800610705565b6000871292508782058712848416161561081c5761081c610705565b8785058712818416161561083257610832610705565b505050929093029392505050565b60008261084f5761084f61073a565b600160ff1b82146000198414161561086957610869610705565b500590565b60008282101561088057610880610705565b50039056fea2646970667358221220db981aec57fe3b0775a34f56614f8a9765a49ea81bc05cee377007f20da7bb0064736f6c634300080a0033",
  "linkReferences": {},
  "deployedLinkReferences": {}
}