{
  "_format": "hh-sol-artifact-1",
  "contractName": "PositionNFT",
  "sourceName": "contracts/PositionNFT.sol",
  "abi": [
    {
      "inputs": [
        {
          "internalType": "address",
          "name": "_pool",
          "type": "address"
        }
      ],
      "stateMutability": "nonpayable",
      "type": "constructor"
    },
    {
      "anonymous": false,
      "inputs": [
        {
          "indexed": true,
          "internalType": "address",
          "name": "owner",
          "type": "address"
        },
        {
          "indexed": true,
          "internalType": "address",
          "name": "approved",
          "type": "address"
        },
        {
          "indexed": true,
          "internalType": "uint256",
          "name": "tokenId",
          "type": "uint256"
        }
      ],
      "name": "Approval",
      "type": "event"
    },
    {
      "anonymous": false,
      "inputs": [
        {
          "indexed": true,
          "internalType": "address",
          "name": "owner",
          "type": "address"
        },
        {
          "indexed": true,
          "internalType": "address",
          "name": "operator",
          "type": "address"
        },
        {
          "indexed": false,
          "internalType": "bool",
          "name": "approved",
          "type": "bool"
        }
      ],
      "name": "ApprovalForAll",
      "type": "event"
    },
    {
      "anonymous": false,
      "inputs": [
        {
          "indexed": true,
          "internalType": "address",
          "name": "from",
          "type": "address"
        },
        {
          "indexed": true,
          "internalType": "address",
          "name": "to",
          "type": "address"
        },
        {
          "indexed": true,
          "internalType": "uint256",
          "name": "tokenId",
          "type": "uint256"
        }
      ],
      "name": "Transfer",
      "type": "event"
    },
    {
      "inputs": [
        {
          "internalType": "address",
          "name": "to",
          "type": "address"
        },
        {
          "internalType": "uint256",
          "name": "tokenId",
          "type": "uint256"
        }
      ],
      "name": "approve",
      "outputs": [],
      "stateMutability": "nonpayable",
      "type": "function"
    },
    {
      "inputs": [
        {
          "internalType": "address",
          "name": "owner",
          "type": "address"
        }
      ],
      "name": "balanceOf",
      "outputs": [
        {
          "internalType": "uint256",
          "name": "",
          "type": "uint256"
        }
      ],
      "stateMutability": "view",
      "type": "function"
    },
    {
      "inputs": [
        {
          "internalType": "uint256",
          "name": "tokenId",
          "type": "uint256"
        }
      ],
      "name": "burn",
      "outputs": [],
      "stateMutability": "nonpayable",
      "type": "function"
    },
    {
      "inputs": [
        {
          "internalType": "uint256",
          "name": "tokenId",
          "type": "uint256"
        },
        {
          "internalType": "uint256",
          "name": "amount",
          "type": "uint256"
        }
      ],
      "name": "claim",
      "outputs": [],
      "stateMutability": "nonpayable",
      "type": "function"
    },
    {
      "inputs": [
        {
          "internalType": "uint256",
          "name": "tokenId",
          "type": "uint256"
        }
      ],
      "name": "getApproved",
      "outputs": [
        {
          "internalType": "address",
          "name": "",
          "type": "address"
        }
      ],
      "stateMutability": "view",
      "type": "function"
    },
    {
      "inputs": [
        {
          "internalType": "uint256",
          "name": "tokenId",
          "type": "uint256"
        }
      ],
      "name": "getDepositData",
      "outputs": [
        {
          "components": [
            {
              "internalType": "uint256",
              "name": "amount",
              "type": "uint256"
            },
            {
              "internalType": "uint256",
              "name": "depositTime",
              "type": "uint256"
            },
            {
              "internalType": "uint256",
              "name": "claim",
              "type": "uint256"
            }
          ],
          "internalType": "struct PositionNFT.DepositData",
          "name": "",
          "type": "tuple"
        }
      ],
      "stateMutability": "view",
      "type": "function"
    },
    {
      "inputs": [
        {
          "internalType": "address",
          "name": "owner",
          "type": "address"
        },
        {
          "internalType": "address",
          "name": "operator",
          "type": "address"
        }
      ],
      "name": "isApprovedForAll",
      "outputs": [
        {
          "internalType": "bool",
          "name": "",
          "type": "bool"
        }
      ],
      "stateMutability": "view",
      "type": "function"
    },
    {
      "inputs": [
        {
          "internalType": "address",
          "name": "to",
          "type": "address"
        },
        {
          "internalType": "uint256",
          "name": "amount",
          "type": "uint256"
        },
        {
          "internalType": "uint256",
          "name": "depositTime",
          "type": "uint256"
        }
      ],
      "name": "mint",
      "outputs": [
        {
          "internalType": "uint256",
          "name": "",
          "type": "uint256"
        }
      ],
      "stateMutability": "nonpayable",
      "type": "function"
    },
    {
      "inputs": [],
      "name": "name",
      "outputs": [
        {
          "internalType": "string",
          "name": "",
          "type": "string"
        }
      ],
      "stateMutability": "view",
      "type": "function"
    },
    {
      "inputs": [
        {
          "internalType": "uint256",
          "name": "tokenId",
          "type": "uint256"
        }
      ],
      "name": "ownerOf",
      "outputs": [
        {
          "internalType": "address",
          "name": "",
          "type": "address"
        }
      ],
      "stateMutability": "view",
      "type": "function"
    },
    {
      "inputs": [
        {
          "internalType": "address",
          "name": "from",
          "type": "address"
        },
        {
          "internalType": "address",
          "name": "to",
          "type": "address"
        },
        {
          "internalType": "uint256",
          "name": "tokenId",
          "type": "uint256"
        }
      ],
      "name": "safeTransferFrom",
      "outputs": [],
      "stateMutability": "nonpayable",
      "type": "function"
    },
    {
      "inputs": [
        {
          "internalType": "address",
          "name": "from",
          "type": "address"
        },
        {
          "internalType": "address",
          "name": "to",
          "type": "address"
        },
        {
          "internalType": "uint256",
          "name": "tokenId",
          "type": "uint256"
        },
        {
          "internalType": "bytes",
          "name": "data",
          "type": "bytes"
        }
      ],
      "name": "safeTransferFrom",
      "outputs": [],
      "stateMutability": "nonpayable",
      "type": "function"
    },
    {
      "inputs": [
        {
          "internalType": "address",
          "name": "operator",
          "type": "address"
        },
        {
          "internalType": "bool",
          "name": "approved",
          "type": "bool"
        }
      ],
      "name": "setApprovalForAll",
      "outputs": [],
      "stateMutability": "nonpayable",
      "type": "function"
    },
    {
      "inputs": [
        {
          "internalType": "bytes4",
          "name": "interfaceId",
          "type": "bytes4"
        }
      ],
      "name": "supportsInterface",
      "outputs": [
        {
          "internalType": "bool",
          "name": "",
          "type": "bool"
        }
      ],
      "stateMutability": "view",
      "type": "function"
    },
    {
      "inputs": [],
      "name": "symbol",
      "outputs": [
        {
          "internalType": "string",
          "name": "",
          "type": "string"
        }
      ],
      "stateMutability": "view",
      "type": "function"
    },
    {
      "inputs": [
        {
          "internalType": "uint256",
          "name": "index",
          "type": "uint256"
        }
      ],
      "name": "tokenByIndex",
      "outputs": [
        {
          "internalType": "uint256",
          "name": "",
          "type": "uint256"
        }
      ],
      "stateMutability": "view",
      "type": "function"
    },
    {
      "inputs": [
        {
          "internalType": "address",
          "name": "owner",
          "type": "address"
        },
        {
          "internalType": "uint256",
          "name": "index",
          "type": "uint256"
        }
      ],
      "name": "tokenOfOwnerByIndex",
      "outputs": [
        {
          "internalType": "uint256",
          "name": "",
          "type": "uint256"
        }
      ],
      "stateMutability": "view",
      "type": "function"
    },
    {
      "inputs": [
        {
          "internalType": "uint256",
          "name": "tokenId",
          "type": "uint256"
        }
      ],
      "name": "tokenURI",
      "outputs": [
        {
          "internalType": "string",
          "name": "",
          "type": "string"
        }
      ],
      "stateMutability": "view",
      "type": "function"
    },
    {
      "inputs": [],
      "name": "totalSupply",
      "outputs": [
        {
          "internalType": "uint256",
          "name": "",
          "type": "uint256"
        }
      ],
      "stateMutability": "view",
      "type": "function"
    },
    {
      "inputs": [
        {
          "internalType": "address",
          "name": "from",
          "type": "address"
        },
        {
          "internalType": "address",
          "name": "to",
          "type": "address"
        },
        {
          "internalType": "uint256",
          "name": "tokenId",
          "type": "uint256"
        }
      ],
      "name": "transferFrom",
      "outputs": [],
      "stateMutability": "nonpayable",
      "type": "function"
    }
  ],
  "bytecode": "0x60806040526000600b553480156200001657600080fd5b50604051620022183803806200221883398101604081905262000039916200016f565b604080518082018252600c81526b141bdcda5d1a5bdb8813919560a21b6020808301918252835180850190945260048452634c494c4160e01b9084015281519192916200008991600091620000c9565b5080516200009f906001906020840190620000c9565b5050600c80546001600160a01b0319166001600160a01b03939093169290921790915550620001de565b828054620000d790620001a1565b90600052602060002090601f016020900481019282620000fb576000855562000146565b82601f106200011657805160ff191683800117855562000146565b8280016001018555821562000146579182015b828111156200014657825182559160200191906001019062000129565b506200015492915062000158565b5090565b5b8082111562000154576000815560010162000159565b6000602082840312156200018257600080fd5b81516001600160a01b03811681146200019a57600080fd5b9392505050565b600181811c90821680620001b657607f821691505b60208210811415620001d857634e487b7160e01b600052602260045260246000fd5b50919050565b61202a80620001ee6000396000f3fe608060405234801561001057600080fd5b506004361061012c5760003560e01c80634f6ccce7116100ad578063b88d4fde11610071578063b88d4fde14610277578063c13819b61461028a578063c3490263146102bf578063c87b56dd146102d2578063e985e9c5146102e557600080fd5b80634f6ccce7146102235780636352211e1461023657806370a082311461024957806395d89b411461025c578063a22cb4651461026457600080fd5b806318160ddd116100f457806318160ddd146101cf57806323b872dd146101d75780632f745c59146101ea57806342842e0e146101fd57806342966c681461021057600080fd5b806301ffc9a71461013157806306fdde0314610159578063081812fc1461016e578063095ea7b314610199578063156e29f6146101ae575b600080fd5b61014461013f3660046118e8565b6102f8565b60405190151581526020015b60405180910390f35b610161610309565b604051610150919061195d565b61018161017c366004611970565b61039b565b6040516001600160a01b039091168152602001610150565b6101ac6101a73660046119a5565b6103c2565b005b6101c16101bc3660046119cf565b6104dd565b604051908152602001610150565b600b546101c1565b6101ac6101e5366004611a02565b6106d7565b6101c16101f83660046119a5565b610708565b6101ac61020b366004611a02565b61079e565b6101ac61021e366004611970565b6107b9565b6101c1610231366004611970565b6107ef565b610181610244366004611970565b610882565b6101c1610257366004611a3e565b6108b7565b61016161093d565b6101ac610272366004611a59565b61094c565b6101ac610285366004611aab565b61095b565b61029d610298366004611970565b610993565b6040805182518152602080840151908201529181015190820152606001610150565b6101ac6102cd366004611b87565b6109f0565b6101616102e0366004611970565b610a47565b6101446102f3366004611ba9565b610a52565b600061030382610a80565b92915050565b60606000805461031890611bdc565b80601f016020809104026020016040519081016040528092919081815260200182805461034490611bdc565b80156103915780601f1061036657610100808354040283529160200191610391565b820191906000526020600020905b81548152906001019060200180831161037457829003601f168201915b5050505050905090565b60006103a682610aa5565b506000908152600460205260409020546001600160a01b031690565b60006103cd82610882565b9050806001600160a01b0316836001600160a01b031614156104405760405162461bcd60e51b815260206004820152602160248201527f4552433732313a20617070726f76616c20746f2063757272656e74206f776e656044820152603960f91b60648201526084015b60405180910390fd5b336001600160a01b038216148061045c575061045c8133610a52565b6104ce5760405162461bcd60e51b815260206004820152603d60248201527f4552433732313a20617070726f76652063616c6c6572206973206e6f7420746f60448201527f6b656e206f776e6572206f7220617070726f76656420666f7220616c6c0000006064820152608401610437565b6104d88383610aca565b505050565b600c546000906001600160a01b0316331461050a5760405162461bcd60e51b815260040161043790611c17565b600b546105178582610b38565b61051f6117dc565b6040805180820182526017815276646174613a6170706c69636174696f6e2f6a736f6e2c7b60481b60208083019190915290835281518083018352600f81526e089b985b59488e88951bdad95b888b608a1b8183015283820152815160608101909252602a80835290611fab908301396040808301919091528051808201909152601c81527f22696d616765223a22646174613a696d6167652f7376672b786d6c2c00000000602082015281600360200201819052506040518060a0016040528060688152602001611f4360689139608082019081526040805180820182526002815261227d60f01b60208083019190915260a085019182528251808401845260018152607d60f81b8183015260c0860181905285518287015185880151606089015197519551965160009861066098949793969295909492909101611c64565b604051602081830303815290604052905061067b8382610b52565b600b805490600061068b83611d0c565b90915550506040805160608101825296875260208088019687526000888301818152868252600d9092529190912096518755945160018701555050915160029093019290925592915050565b6106e13382610bdd565b6106fd5760405162461bcd60e51b815260040161043790611d27565b6104d8838383610c3c565b6000610713836108b7565b82106107755760405162461bcd60e51b815260206004820152602b60248201527f455243373231456e756d657261626c653a206f776e657220696e646578206f7560448201526a74206f6620626f756e647360a81b6064820152608401610437565b506001600160a01b03919091166000908152600660209081526040808320938352929052205490565b6104d88383836040518060200160405280600081525061095b565b600c546001600160a01b031633146107e35760405162461bcd60e51b815260040161043790611c17565b6107ec81610d9b565b50565b60006107fa60085490565b821061085d5760405162461bcd60e51b815260206004820152602c60248201527f455243373231456e756d657261626c653a20676c6f62616c20696e646578206f60448201526b7574206f6620626f756e647360a01b6064820152608401610437565b6008828154811061087057610870611c4e565b90600052602060002001549050919050565b6000818152600260205260408120546001600160a01b0316806103035760405162461bcd60e51b815260040161043790611d74565b60006001600160a01b0382166109215760405162461bcd60e51b815260206004820152602960248201527f4552433732313a2061646472657373207a65726f206973206e6f7420612076616044820152683634b21037bbb732b960b91b6064820152608401610437565b506001600160a01b031660009081526003602052604090205490565b60606001805461031890611bdc565b610957338383610da4565b5050565b6109653383610bdd565b6109815760405162461bcd60e51b815260040161043790611d27565b61098d84848484610e6f565b50505050565b6109b760405180606001604052806000815260200160008152602001600081525090565b506000908152600d6020908152604091829020825160608101845281548152600182015492810192909252600201549181019190915290565b600c546001600160a01b03163314610a1a5760405162461bcd60e51b815260040161043790611c17565b6000828152600d6020526040812060028101805491928492610a3d908490611da6565b9091555050505050565b606061030382610ea2565b6001600160a01b03918216600090815260056020908152604080832093909416825291909152205460ff1690565b60006001600160e01b0319821663780e9d6360e01b1480610303575061030382610fab565b610aae81610ffb565b6107ec5760405162461bcd60e51b815260040161043790611d74565b600081815260046020526040902080546001600160a01b0319166001600160a01b0384169081179091558190610aff82610882565b6001600160a01b03167f8c5be1e5ebec7d5bd14f71427d1e84f3dd0314c0f7b2291e5b200ac8c7c3b92560405160405180910390a45050565b610957828260405180602001604052806000815250611018565b610b5b82610ffb565b610bbe5760405162461bcd60e51b815260206004820152602e60248201527f45524337323155524953746f726167653a2055524920736574206f66206e6f6e60448201526d32bc34b9ba32b73a103a37b5b2b760911b6064820152608401610437565b6000828152600a6020908152604090912082516104d892840190611803565b600080610be983610882565b9050806001600160a01b0316846001600160a01b03161480610c105750610c108185610a52565b80610c345750836001600160a01b0316610c298461039b565b6001600160a01b0316145b949350505050565b826001600160a01b0316610c4f82610882565b6001600160a01b031614610c755760405162461bcd60e51b815260040161043790611dbe565b6001600160a01b038216610cd75760405162461bcd60e51b8152602060048201526024808201527f4552433732313a207472616e7366657220746f20746865207a65726f206164646044820152637265737360e01b6064820152608401610437565b610ce4838383600161104b565b826001600160a01b0316610cf782610882565b6001600160a01b031614610d1d5760405162461bcd60e51b815260040161043790611dbe565b600081815260046020908152604080832080546001600160a01b03199081169091556001600160a01b038781168086526003855283862080546000190190559087168086528386208054600101905586865260029094528285208054909216841790915590518493600080516020611fd583398151915291a4505050565b6107ec81611057565b816001600160a01b0316836001600160a01b03161415610e025760405162461bcd60e51b815260206004820152601960248201527822a9219b99189d1030b8383937bb32903a379031b0b63632b960391b6044820152606401610437565b6001600160a01b03838116600081815260056020908152604080832094871680845294825291829020805460ff191686151590811790915591519182527f17307eab39ab6107e8899845ad3d59bd9653f200f220920489ca2b5937696c31910160405180910390a3505050565b610e7a848484610c3c565b610e8684848484611097565b61098d5760405162461bcd60e51b815260040161043790611e03565b6060610ead82610aa5565b6000828152600a602052604081208054610ec690611bdc565b80601f0160208091040260200160405190810160405280929190818152602001828054610ef290611bdc565b8015610f3f5780601f10610f1457610100808354040283529160200191610f3f565b820191906000526020600020905b815481529060010190602001808311610f2257829003601f168201915b505050505090506000610f5d60408051602081019091526000815290565b9050805160001415610f70575092915050565b815115610fa2578082604051602001610f8a929190611e55565b60405160208183030381529060405292505050919050565b610c3484611195565b60006001600160e01b031982166380ac58cd60e01b1480610fdc57506001600160e01b03198216635b5e139f60e01b145b8061030357506301ffc9a760e01b6001600160e01b0319831614610303565b6000908152600260205260409020546001600160a01b0316151590565b6110228383611209565b61102f6000848484611097565b6104d85760405162461bcd60e51b815260040161043790611e03565b61098d84848484611312565b61106081611446565b6000818152600a60205260409020805461107990611bdc565b1590506107ec576000818152600a602052604081206107ec91611887565b60006001600160a01b0384163b1561118a57604051630a85bd0160e11b81526001600160a01b0385169063150b7a02906110db903390899088908890600401611e84565b6020604051808303816000875af1925050508015611116575060408051601f3d908101601f1916820190925261111391810190611ec1565b60015b611170573d808015611144576040519150601f19603f3d011682016040523d82523d6000602084013e611149565b606091505b5080516111685760405162461bcd60e51b815260040161043790611e03565b805181602001fd5b6001600160e01b031916630a85bd0160e11b149050610c34565b506001949350505050565b60606111a082610aa5565b60006111b760408051602081019091526000815290565b905060008151116111d75760405180602001604052806000815250611202565b806111e1846114d7565b6040516020016111f2929190611e55565b6040516020818303038152906040525b9392505050565b6001600160a01b03821661125f5760405162461bcd60e51b815260206004820181905260248201527f4552433732313a206d696e7420746f20746865207a65726f20616464726573736044820152606401610437565b61126881610ffb565b156112855760405162461bcd60e51b815260040161043790611ede565b61129360008383600161104b565b61129c81610ffb565b156112b95760405162461bcd60e51b815260040161043790611ede565b6001600160a01b038216600081815260036020908152604080832080546001019055848352600290915280822080546001600160a01b031916841790555183929190600080516020611fd5833981519152908290a45050565b60018111156113815760405162461bcd60e51b815260206004820152603560248201527f455243373231456e756d657261626c653a20636f6e7365637574697665207472604482015274185b9cd9995c9cc81b9bdd081cdd5c1c1bdc9d1959605a1b6064820152608401610437565b816001600160a01b0385166113dd576113d881600880546000838152600960205260408120829055600182018355919091527ff3f7a9fe364faab93b216da50a3214154f22a0a2b415b23a84c8169e8b636ee30155565b611400565b836001600160a01b0316856001600160a01b031614611400576114008582611574565b6001600160a01b03841661141c5761141781611611565b61143f565b846001600160a01b0316846001600160a01b03161461143f5761143f84826116c0565b5050505050565b600061145182610882565b905061146181600084600161104b565b61146a82610882565b600083815260046020908152604080832080546001600160a01b03199081169091556001600160a01b038516808552600384528285208054600019019055878552600290935281842080549091169055519293508492600080516020611fd5833981519152908390a45050565b606060006114e483611704565b600101905060008167ffffffffffffffff81111561150457611504611a95565b6040519080825280601f01601f19166020018201604052801561152e576020820181803683370190505b5090508181016020015b600019016f181899199a1a9b1b9c1cb0b131b232b360811b600a86061a8153600a85049450846115675761156c565b611538565b509392505050565b60006001611581846108b7565b61158b9190611f15565b6000838152600760205260409020549091508082146115de576001600160a01b03841660009081526006602090815260408083208584528252808320548484528184208190558352600790915290208190555b5060009182526007602090815260408084208490556001600160a01b039094168352600681528383209183525290812055565b60085460009061162390600190611f15565b6000838152600960205260408120546008805493945090928490811061164b5761164b611c4e565b90600052602060002001549050806008838154811061166c5761166c611c4e565b60009182526020808320909101929092558281526009909152604080822084905585825281205560088054806116a4576116a4611f2c565b6001900381819060005260206000200160009055905550505050565b60006116cb836108b7565b6001600160a01b039093166000908152600660209081526040808320868452825280832085905593825260079052919091209190915550565b60008072184f03e93ff9f4daa797ed6e38ed64bf6a1f0160401b83106117435772184f03e93ff9f4daa797ed6e38ed64bf6a1f0160401b830492506040015b6d04ee2d6d415b85acef8100000000831061176f576d04ee2d6d415b85acef8100000000830492506020015b662386f26fc10000831061178d57662386f26fc10000830492506010015b6305f5e10083106117a5576305f5e100830492506008015b61271083106117b957612710830492506004015b606483106117cb576064830492506002015b600a83106103035760010192915050565b6040518060e001604052806007905b60608152602001906001900390816117eb5790505090565b82805461180f90611bdc565b90600052602060002090601f0160209004810192826118315760008555611877565b82601f1061184a57805160ff1916838001178555611877565b82800160010185558215611877579182015b8281111561187757825182559160200191906001019061185c565b506118839291506118bd565b5090565b50805461189390611bdc565b6000825580601f106118a3575050565b601f0160209004906000526020600020908101906107ec91905b5b8082111561188357600081556001016118be565b6001600160e01b0319811681146107ec57600080fd5b6000602082840312156118fa57600080fd5b8135611202816118d2565b60005b83811015611920578181015183820152602001611908565b8381111561098d5750506000910152565b60008151808452611949816020860160208601611905565b601f01601f19169290920160200192915050565b6020815260006112026020830184611931565b60006020828403121561198257600080fd5b5035919050565b80356001600160a01b03811681146119a057600080fd5b919050565b600080604083850312156119b857600080fd5b6119c183611989565b946020939093013593505050565b6000806000606084860312156119e457600080fd5b6119ed84611989565b95602085013595506040909401359392505050565b600080600060608486031215611a1757600080fd5b611a2084611989565b9250611a2e60208501611989565b9150604084013590509250925092565b600060208284031215611a5057600080fd5b61120282611989565b60008060408385031215611a6c57600080fd5b611a7583611989565b915060208301358015158114611a8a57600080fd5b809150509250929050565b634e487b7160e01b600052604160045260246000fd5b60008060008060808587031215611ac157600080fd5b611aca85611989565b9350611ad860208601611989565b925060408501359150606085013567ffffffffffffffff80821115611afc57600080fd5b818701915087601f830112611b1057600080fd5b813581811115611b2257611b22611a95565b604051601f8201601f19908116603f01168101908382118183101715611b4a57611b4a611a95565b816040528281528a6020848701011115611b6357600080fd5b82602086016020830137600060208483010152809550505050505092959194509250565b60008060408385031215611b9a57600080fd5b50508035926020909101359150565b60008060408385031215611bbc57600080fd5b611bc583611989565b9150611bd360208401611989565b90509250929050565b600181811c90821680611bf057607f821691505b60208210811415611c1157634e487b7160e01b600052602260045260246000fd5b50919050565b6020808252601f908201527f43616c6c6572206973206e6f742074686520506f6f6c20636f6e747261637400604082015260600190565b634e487b7160e01b600052603260045260246000fd5b600088516020611c778285838e01611905565b895191840191611c8a8184848e01611905565b8951920191611c9c8184848d01611905565b8851920191611cae8184848c01611905565b8751920191611cc08184848b01611905565b8651920191611cd28184848a01611905565b8551920191611ce48184848901611905565b919091019a9950505050505050505050565b634e487b7160e01b600052601160045260246000fd5b6000600019821415611d2057611d20611cf6565b5060010190565b6020808252602d908201527f4552433732313a2063616c6c6572206973206e6f7420746f6b656e206f776e6560408201526c1c881bdc88185c1c1c9bdd9959609a1b606082015260800190565b602080825260189082015277115490cdcc8c4e881a5b9d985b1a59081d1bdad95b88125160421b604082015260600190565b60008219821115611db957611db9611cf6565b500190565b60208082526025908201527f4552433732313a207472616e736665722066726f6d20696e636f72726563742060408201526437bbb732b960d91b606082015260800190565b60208082526032908201527f4552433732313a207472616e7366657220746f206e6f6e20455243373231526560408201527131b2b4bb32b91034b6b83632b6b2b73a32b960711b606082015260800190565b60008351611e67818460208801611905565b835190830190611e7b818360208801611905565b01949350505050565b6001600160a01b0385811682528416602082015260408101839052608060608201819052600090611eb790830184611931565b9695505050505050565b600060208284031215611ed357600080fd5b8151611202816118d2565b6020808252601c908201527f4552433732313a20746f6b656e20616c7265616479206d696e74656400000000604082015260600190565b600082821015611f2757611f27611cf6565b500390565b634e487b7160e01b600052603160045260246000fdfe3c73766720786d6c6e733d687474703a2f2f7777772e77332e6f72672f323030302f7376672076696577426f783d30203020313030203130303e3c726563742077696474683d313030206865696768743d3130302066696c6c3d7768697465202f3e3c2f7376673e226465736372697074696f6e223a2241207665727920696e746572657374696e6720746f6b656e21222cddf252ad1be2c89b69c2b068fc378daa952ba7f163c4a11628f55a4df523b3efa2646970667358221220dcfca913d58dc18f144c7fb63db83d5a3d532c688b7f60d716d3e0fd61300b8b64736f6c634300080a0033",
  "linkReferences": {},
  "deployedLinkReferences": {}
}