{
  "_format": "hh-sol-artifact-1",
  "contractName": "PositionNFT",
  "sourceName": "contracts/PositionNFT.sol",
  "abi": [
    {
      "inputs": [
        {
          "internalType": "address",
          "name": "_pool",
          "type": "address"
        }
      ],
      "stateMutability": "nonpayable",
      "type": "constructor"
    },
    {
      "anonymous": false,
      "inputs": [
        {
          "indexed": true,
          "internalType": "address",
          "name": "owner",
          "type": "address"
        },
        {
          "indexed": true,
          "internalType": "address",
          "name": "approved",
          "type": "address"
        },
        {
          "indexed": true,
          "internalType": "uint256",
          "name": "tokenId",
          "type": "uint256"
        }
      ],
      "name": "Approval",
      "type": "event"
    },
    {
      "anonymous": false,
      "inputs": [
        {
          "indexed": true,
          "internalType": "address",
          "name": "owner",
          "type": "address"
        },
        {
          "indexed": true,
          "internalType": "address",
          "name": "operator",
          "type": "address"
        },
        {
          "indexed": false,
          "internalType": "bool",
          "name": "approved",
          "type": "bool"
        }
      ],
      "name": "ApprovalForAll",
      "type": "event"
    },
    {
      "anonymous": false,
      "inputs": [
        {
          "indexed": false,
          "internalType": "uint256",
          "name": "_fromTokenId",
          "type": "uint256"
        },
        {
          "indexed": false,
          "internalType": "uint256",
          "name": "_toTokenId",
          "type": "uint256"
        }
      ],
      "name": "BatchMetadataUpdate",
      "type": "event"
    },
    {
      "anonymous": false,
      "inputs": [
        {
          "indexed": false,
          "internalType": "uint256",
          "name": "_tokenId",
          "type": "uint256"
        }
      ],
      "name": "MetadataUpdate",
      "type": "event"
    },
    {
      "anonymous": false,
      "inputs": [
        {
          "indexed": true,
          "internalType": "address",
          "name": "from",
          "type": "address"
        },
        {
          "indexed": true,
          "internalType": "address",
          "name": "to",
          "type": "address"
        },
        {
          "indexed": true,
          "internalType": "uint256",
          "name": "tokenId",
          "type": "uint256"
        }
      ],
      "name": "Transfer",
      "type": "event"
    },
    {
      "inputs": [
        {
          "internalType": "address",
          "name": "to",
          "type": "address"
        },
        {
          "internalType": "uint256",
          "name": "tokenId",
          "type": "uint256"
        }
      ],
      "name": "approve",
      "outputs": [],
      "stateMutability": "nonpayable",
      "type": "function"
    },
    {
      "inputs": [
        {
          "internalType": "address",
          "name": "owner",
          "type": "address"
        }
      ],
      "name": "balanceOf",
      "outputs": [
        {
          "internalType": "uint256",
          "name": "",
          "type": "uint256"
        }
      ],
      "stateMutability": "view",
      "type": "function"
    },
    {
      "inputs": [
        {
          "internalType": "uint256",
          "name": "tokenId",
          "type": "uint256"
        }
      ],
      "name": "burn",
      "outputs": [],
      "stateMutability": "nonpayable",
      "type": "function"
    },
    {
      "inputs": [
        {
          "internalType": "uint256",
          "name": "tokenId",
          "type": "uint256"
        },
        {
          "internalType": "uint256",
          "name": "amount",
          "type": "uint256"
        }
      ],
      "name": "claim",
      "outputs": [],
      "stateMutability": "nonpayable",
      "type": "function"
    },
    {
      "inputs": [
        {
          "internalType": "uint256",
          "name": "tokenId",
          "type": "uint256"
        }
      ],
      "name": "getApproved",
      "outputs": [
        {
          "internalType": "address",
          "name": "",
          "type": "address"
        }
      ],
      "stateMutability": "view",
      "type": "function"
    },
    {
      "inputs": [
        {
          "internalType": "uint256",
          "name": "tokenId",
          "type": "uint256"
        }
      ],
      "name": "getDepositData",
      "outputs": [
        {
          "components": [
            {
              "internalType": "uint256",
              "name": "amount",
              "type": "uint256"
            },
            {
              "internalType": "uint256",
              "name": "depositTime",
              "type": "uint256"
            },
            {
              "internalType": "uint256",
              "name": "claim",
              "type": "uint256"
            }
          ],
          "internalType": "struct PositionNFT.DepositData",
          "name": "",
          "type": "tuple"
        }
      ],
      "stateMutability": "view",
      "type": "function"
    },
    {
      "inputs": [
        {
          "internalType": "address",
          "name": "owner",
          "type": "address"
        },
        {
          "internalType": "address",
          "name": "operator",
          "type": "address"
        }
      ],
      "name": "isApprovedForAll",
      "outputs": [
        {
          "internalType": "bool",
          "name": "",
          "type": "bool"
        }
      ],
      "stateMutability": "view",
      "type": "function"
    },
    {
      "inputs": [
        {
          "internalType": "address",
          "name": "to",
          "type": "address"
        },
        {
          "internalType": "uint256",
          "name": "amount",
          "type": "uint256"
        },
        {
          "internalType": "uint256",
          "name": "depositTime",
          "type": "uint256"
        },
        {
          "internalType": "string",
          "name": "typeNFT",
          "type": "string"
        }
      ],
      "name": "mint",
      "outputs": [
        {
          "internalType": "uint256",
          "name": "",
          "type": "uint256"
        }
      ],
      "stateMutability": "nonpayable",
      "type": "function"
    },
    {
      "inputs": [],
      "name": "name",
      "outputs": [
        {
          "internalType": "string",
          "name": "",
          "type": "string"
        }
      ],
      "stateMutability": "view",
      "type": "function"
    },
    {
      "inputs": [
        {
          "internalType": "uint256",
          "name": "tokenId",
          "type": "uint256"
        }
      ],
      "name": "ownerOf",
      "outputs": [
        {
          "internalType": "address",
          "name": "",
          "type": "address"
        }
      ],
      "stateMutability": "view",
      "type": "function"
    },
    {
      "inputs": [
        {
          "internalType": "address",
          "name": "from",
          "type": "address"
        },
        {
          "internalType": "address",
          "name": "to",
          "type": "address"
        },
        {
          "internalType": "uint256",
          "name": "tokenId",
          "type": "uint256"
        }
      ],
      "name": "safeTransferFrom",
      "outputs": [],
      "stateMutability": "nonpayable",
      "type": "function"
    },
    {
      "inputs": [
        {
          "internalType": "address",
          "name": "from",
          "type": "address"
        },
        {
          "internalType": "address",
          "name": "to",
          "type": "address"
        },
        {
          "internalType": "uint256",
          "name": "tokenId",
          "type": "uint256"
        },
        {
          "internalType": "bytes",
          "name": "data",
          "type": "bytes"
        }
      ],
      "name": "safeTransferFrom",
      "outputs": [],
      "stateMutability": "nonpayable",
      "type": "function"
    },
    {
      "inputs": [
        {
          "internalType": "address",
          "name": "operator",
          "type": "address"
        },
        {
          "internalType": "bool",
          "name": "approved",
          "type": "bool"
        }
      ],
      "name": "setApprovalForAll",
      "outputs": [],
      "stateMutability": "nonpayable",
      "type": "function"
    },
    {
      "inputs": [
        {
          "internalType": "bytes4",
          "name": "interfaceId",
          "type": "bytes4"
        }
      ],
      "name": "supportsInterface",
      "outputs": [
        {
          "internalType": "bool",
          "name": "",
          "type": "bool"
        }
      ],
      "stateMutability": "view",
      "type": "function"
    },
    {
      "inputs": [],
      "name": "symbol",
      "outputs": [
        {
          "internalType": "string",
          "name": "",
          "type": "string"
        }
      ],
      "stateMutability": "view",
      "type": "function"
    },
    {
      "inputs": [
        {
          "internalType": "uint256",
          "name": "index",
          "type": "uint256"
        }
      ],
      "name": "tokenByIndex",
      "outputs": [
        {
          "internalType": "uint256",
          "name": "",
          "type": "uint256"
        }
      ],
      "stateMutability": "view",
      "type": "function"
    },
    {
      "inputs": [
        {
          "internalType": "address",
          "name": "owner",
          "type": "address"
        },
        {
          "internalType": "uint256",
          "name": "index",
          "type": "uint256"
        }
      ],
      "name": "tokenOfOwnerByIndex",
      "outputs": [
        {
          "internalType": "uint256",
          "name": "",
          "type": "uint256"
        }
      ],
      "stateMutability": "view",
      "type": "function"
    },
    {
      "inputs": [
        {
          "internalType": "uint256",
          "name": "tokenId",
          "type": "uint256"
        }
      ],
      "name": "tokenURI",
      "outputs": [
        {
          "internalType": "string",
          "name": "",
          "type": "string"
        }
      ],
      "stateMutability": "view",
      "type": "function"
    },
    {
      "inputs": [],
      "name": "totalSupply",
      "outputs": [
        {
          "internalType": "uint256",
          "name": "",
          "type": "uint256"
        }
      ],
      "stateMutability": "view",
      "type": "function"
    },
    {
      "inputs": [
        {
          "internalType": "address",
          "name": "from",
          "type": "address"
        },
        {
          "internalType": "address",
          "name": "to",
          "type": "address"
        },
        {
          "internalType": "uint256",
          "name": "tokenId",
          "type": "uint256"
        }
      ],
      "name": "transferFrom",
      "outputs": [],
      "stateMutability": "nonpayable",
      "type": "function"
    }
  ],
  "bytecode": "0x60806040526000600b553480156200001657600080fd5b50604051620026dc380380620026dc83398101604081905262000039916200016f565b604080518082018252600c81526b141bdcda5d1a5bdb8813919560a21b6020808301918252835180850190945260048452634c494c4160e01b9084015281519192916200008991600091620000c9565b5080516200009f906001906020840190620000c9565b5050600c80546001600160a01b0319166001600160a01b03939093169290921790915550620001de565b828054620000d790620001a1565b90600052602060002090601f016020900481019282620000fb576000855562000146565b82601f106200011657805160ff191683800117855562000146565b8280016001018555821562000146579182015b828111156200014657825182559160200191906001019062000129565b506200015492915062000158565b5090565b5b8082111562000154576000815560010162000159565b6000602082840312156200018257600080fd5b81516001600160a01b03811681146200019a57600080fd5b9392505050565b600181811c90821680620001b657607f821691505b60208210811415620001d857634e487b7160e01b600052602260045260246000fd5b50919050565b6124ee80620001ee6000396000f3fe608060405234801561001057600080fd5b506004361061012c5760003560e01c80636352211e116100ad578063bb7fde7111610071578063bb7fde7114610273578063c13819b614610286578063c3490263146102bb578063c87b56dd146102ce578063e985e9c5146102e157600080fd5b80636352211e1461021f57806370a082311461023257806395d89b4114610245578063a22cb4651461024d578063b88d4fde1461026057600080fd5b806323b872dd116100f457806323b872dd146101c05780632f745c59146101d357806342842e0e146101e657806342966c68146101f95780634f6ccce71461020c57600080fd5b806301ffc9a71461013157806306fdde0314610159578063081812fc1461016e578063095ea7b31461019957806318160ddd146101ae575b600080fd5b61014461013f366004611a52565b6102f4565b60405190151581526020015b60405180910390f35b610161610305565b6040516101509190611ac7565b61018161017c366004611ada565b610397565b6040516001600160a01b039091168152602001610150565b6101ac6101a7366004611b0f565b6103be565b005b600b545b604051908152602001610150565b6101ac6101ce366004611b39565b6104d9565b6101b26101e1366004611b0f565b61050a565b6101ac6101f4366004611b39565b6105a0565b6101ac610207366004611ada565b6105bb565b6101b261021a366004611ada565b6105f1565b61018161022d366004611ada565b610684565b6101b2610240366004611b75565b6106b9565b61016161073f565b6101ac61025b366004611b90565b61074e565b6101ac61026e366004611c58565b61075d565b6101b2610281366004611cd4565b610795565b610299610294366004611ada565b610835565b6040805182518152602080840151908201529181015190820152606001610150565b6101ac6102c9366004611d1d565b610892565b6101616102dc366004611ada565b6108e9565b6101446102ef366004611d3f565b6108f4565b60006102ff82610922565b92915050565b60606000805461031490611d72565b80601f016020809104026020016040519081016040528092919081815260200182805461034090611d72565b801561038d5780601f106103625761010080835404028352916020019161038d565b820191906000526020600020905b81548152906001019060200180831161037057829003601f168201915b5050505050905090565b60006103a282610947565b506000908152600460205260409020546001600160a01b031690565b60006103c982610684565b9050806001600160a01b0316836001600160a01b0316141561043c5760405162461bcd60e51b815260206004820152602160248201527f4552433732313a20617070726f76616c20746f2063757272656e74206f776e656044820152603960f91b60648201526084015b60405180910390fd5b336001600160a01b0382161480610458575061045881336108f4565b6104ca5760405162461bcd60e51b815260206004820152603d60248201527f4552433732313a20617070726f76652063616c6c6572206973206e6f7420746f60448201527f6b656e206f776e6572206f7220617070726f76656420666f7220616c6c0000006064820152608401610433565b6104d4838361096c565b505050565b6104e333826109da565b6104ff5760405162461bcd60e51b815260040161043390611dad565b6104d4838383610a38565b6000610515836106b9565b82106105775760405162461bcd60e51b815260206004820152602b60248201527f455243373231456e756d657261626c653a206f776e657220696e646578206f7560448201526a74206f6620626f756e647360a81b6064820152608401610433565b506001600160a01b03919091166000908152600660209081526040808320938352929052205490565b6104d48383836040518060200160405280600081525061075d565b600c546001600160a01b031633146105e55760405162461bcd60e51b815260040161043390611dfa565b6105ee81610b97565b50565b60006105fc60085490565b821061065f5760405162461bcd60e51b815260206004820152602c60248201527f455243373231456e756d657261626c653a20676c6f62616c20696e646578206f60448201526b7574206f6620626f756e647360a01b6064820152608401610433565b6008828154811061067257610672611e31565b90600052602060002001549050919050565b6000818152600260205260408120546001600160a01b0316806102ff5760405162461bcd60e51b815260040161043390611e47565b60006001600160a01b0382166107235760405162461bcd60e51b815260206004820152602960248201527f4552433732313a2061646472657373207a65726f206973206e6f7420612076616044820152683634b21037bbb732b960b91b6064820152608401610433565b506001600160a01b031660009081526003602052604090205490565b60606001805461031490611d72565b610759338383610ba0565b5050565b61076733836109da565b6107835760405162461bcd60e51b815260040161043390611dad565b61078f84848484610c6b565b50505050565b600c546000906001600160a01b031633146107c25760405162461bcd60e51b815260040161043390611dfa565b600b546107cf8682610c9e565b6107d98386610cb8565b600b80549060006107e983611e8f565b90915550506040805160608101825286815260208082018781526000838501818152868252600d909352939093209151825591516001820155905160029091015590505b949350505050565b61085960405180606001604052806000815260200160008152602001600081525090565b506000908152600d6020908152604091829020825160608101845281548152600182015492810192909252600201549181019190915290565b600c546001600160a01b031633146108bc5760405162461bcd60e51b815260040161043390611dfa565b6000828152600d60205260408120600281018054919284926108df908490611eaa565b9091555050505050565b60606102ff82610de4565b6001600160a01b03918216600090815260056020908152604080832093909416825291909152205460ff1690565b60006001600160e01b03198216632483248360e11b14806102ff57506102ff82610eed565b61095081610f12565b6105ee5760405162461bcd60e51b815260040161043390611e47565b600081815260046020526040902080546001600160a01b0319166001600160a01b03841690811790915581906109a182610684565b6001600160a01b03167f8c5be1e5ebec7d5bd14f71427d1e84f3dd0314c0f7b2291e5b200ac8c7c3b92560405160405180910390a45050565b6000806109e683610684565b9050806001600160a01b0316846001600160a01b03161480610a0d5750610a0d81856108f4565b8061082d5750836001600160a01b0316610a2684610397565b6001600160a01b031614949350505050565b826001600160a01b0316610a4b82610684565b6001600160a01b031614610a715760405162461bcd60e51b815260040161043390611ec2565b6001600160a01b038216610ad35760405162461bcd60e51b8152602060048201526024808201527f4552433732313a207472616e7366657220746f20746865207a65726f206164646044820152637265737360e01b6064820152608401610433565b610ae08383836001610f2f565b826001600160a01b0316610af382610684565b6001600160a01b031614610b195760405162461bcd60e51b815260040161043390611ec2565b600081815260046020908152604080832080546001600160a01b03199081169091556001600160a01b03878116808652600385528386208054600019019055908716808652838620805460010190558686526002909452828520805490921684179091559051849360008051602061249983398151915291a4505050565b6105ee81610f3b565b816001600160a01b0316836001600160a01b03161415610bfe5760405162461bcd60e51b815260206004820152601960248201527822a9219b99189d1030b8383937bb32903a379031b0b63632b960391b6044820152606401610433565b6001600160a01b03838116600081815260056020908152604080832094871680845294825291829020805460ff191686151590811790915591519182527f17307eab39ab6107e8899845ad3d59bd9653f200f220920489ca2b5937696c31910160405180910390a3505050565b610c76848484610a38565b610c8284848484610f7b565b61078f5760405162461bcd60e51b815260040161043390611f07565b610759828260405180602001604052806000815250611076565b6000610cd4610ccf670de0b6b3a764000084611f6f565b6110a9565b90506000610cff662386f26fc10000610cf5670de0b6b3a764000086611f83565b610ccf9190611f6f565b905060008282604051602001610d16929190611fb3565b604051602081830303815290604052905060008582604051602001610d3c929190611fef565b604051602081830303815290604052905060008683604051602001610d6292919061202c565b60405160208183030381529060405290506000610da783610d8284611146565b604051602001610d93929190612259565b604051602081830303815290604052611146565b9050600081604051602001610dbc9190612311565b6040516020818303038152906040529050610dd9600b54826112ac565b505050505050505050565b6060610def82610947565b6000828152600a602052604081208054610e0890611d72565b80601f0160208091040260200160405190810160405280929190818152602001828054610e3490611d72565b8015610e815780601f10610e5657610100808354040283529160200191610e81565b820191906000526020600020905b815481529060010190602001808311610e6457829003601f168201915b505050505090506000610e9f60408051602081019091526000815290565b9050805160001415610eb2575092915050565b815115610ee4578082604051602001610ecc929190612356565b60405160208183030381529060405292505050919050565b61082d8461136f565b60006001600160e01b0319821663780e9d6360e01b14806102ff57506102ff826113e3565b6000908152600260205260409020546001600160a01b0316151590565b61078f84848484611433565b610f4481611567565b6000818152600a602052604090208054610f5d90611d72565b1590506105ee576000818152600a602052604081206105ee91611969565b60006001600160a01b0384163b1561106e57604051630a85bd0160e11b81526001600160a01b0385169063150b7a0290610fbf903390899088908890600401612385565b6020604051808303816000875af1925050508015610ffa575060408051601f3d908101601f19168201909252610ff7918101906123b8565b60015b611054573d808015611028576040519150601f19603f3d011682016040523d82523d6000602084013e61102d565b606091505b50805161104c5760405162461bcd60e51b815260040161043390611f07565b805181602001fd5b6001600160e01b031916630a85bd0160e11b14905061082d565b50600161082d565b61108083836115f8565b61108d6000848484610f7b565b6104d45760405162461bcd60e51b815260040161043390611f07565b606060006110b683611701565b600101905060008167ffffffffffffffff8111156110d6576110d6611bcc565b6040519080825280601f01601f191660200182016040528015611100576020820181803683370190505b5090508181016020015b600019016f181899199a1a9b1b9c1cb0b131b232b360811b600a86061a8153600a85049450846111395761113e565b61110a565b509392505050565b805160609080611166575050604080516020810190915260008152919050565b60006003611175836002611eaa565b61117f9190611f6f565b61118a9060046123d5565b90506000611199826020611eaa565b67ffffffffffffffff8111156111b1576111b1611bcc565b6040519080825280601f01601f1916602001820160405280156111db576020820181803683370190505b5090506000604051806060016040528060408152602001612459604091399050600181016020830160005b86811015611267576003818a01810151603f601282901c8116860151600c83901c8216870151600684901c831688015192909316870151600891821b60ff94851601821b92841692909201901b91160160e01b835260049092019101611206565b50600386066001811461128157600281146112925761129e565b613d3d60f01b60011983015261129e565b603d60f81b6000198301525b505050918152949350505050565b6112b582610f12565b6113185760405162461bcd60e51b815260206004820152602e60248201527f45524337323155524953746f726167653a2055524920736574206f66206e6f6e60448201526d32bc34b9ba32b73a103a37b5b2b760911b6064820152608401610433565b6000828152600a602090815260409091208251611337928401906119a3565b506040518281527ff8e1a15aba9398e019f0b49df1a4fde98ee17ae345cb5f6b5e2c27f5033e8ce79060200160405180910390a15050565b606061137a82610947565b600061139160408051602081019091526000815290565b905060008151116113b157604051806020016040528060008152506113dc565b806113bb846110a9565b6040516020016113cc929190612356565b6040516020818303038152906040525b9392505050565b60006001600160e01b031982166380ac58cd60e01b148061141457506001600160e01b03198216635b5e139f60e01b145b806102ff57506301ffc9a760e01b6001600160e01b03198316146102ff565b60018111156114a25760405162461bcd60e51b815260206004820152603560248201527f455243373231456e756d657261626c653a20636f6e7365637574697665207472604482015274185b9cd9995c9cc81b9bdd081cdd5c1c1bdc9d1959605a1b6064820152608401610433565b816001600160a01b0385166114fe576114f981600880546000838152600960205260408120829055600182018355919091527ff3f7a9fe364faab93b216da50a3214154f22a0a2b415b23a84c8169e8b636ee30155565b611521565b836001600160a01b0316856001600160a01b0316146115215761152185826117d9565b6001600160a01b03841661153d5761153881611876565b611560565b846001600160a01b0316846001600160a01b031614611560576115608482611925565b5050505050565b600061157282610684565b9050611582816000846001610f2f565b61158b82610684565b600083815260046020908152604080832080546001600160a01b03199081169091556001600160a01b038516808552600384528285208054600019019055878552600290935281842080549091169055519293508492600080516020612499833981519152908390a45050565b6001600160a01b03821661164e5760405162461bcd60e51b815260206004820181905260248201527f4552433732313a206d696e7420746f20746865207a65726f20616464726573736044820152606401610433565b61165781610f12565b156116745760405162461bcd60e51b8152600401610433906123f4565b611682600083836001610f2f565b61168b81610f12565b156116a85760405162461bcd60e51b8152600401610433906123f4565b6001600160a01b038216600081815260036020908152604080832080546001019055848352600290915280822080546001600160a01b031916841790555183929190600080516020612499833981519152908290a45050565b60008072184f03e93ff9f4daa797ed6e38ed64bf6a1f0160401b83106117405772184f03e93ff9f4daa797ed6e38ed64bf6a1f0160401b830492506040015b6d04ee2d6d415b85acef8100000000831061176c576d04ee2d6d415b85acef8100000000830492506020015b662386f26fc10000831061178a57662386f26fc10000830492506010015b6305f5e10083106117a2576305f5e100830492506008015b61271083106117b657612710830492506004015b606483106117c8576064830492506002015b600a83106102ff5760010192915050565b600060016117e6846106b9565b6117f0919061242b565b600083815260076020526040902054909150808214611843576001600160a01b03841660009081526006602090815260408083208584528252808320548484528184208190558352600790915290208190555b5060009182526007602090815260408084208490556001600160a01b039094168352600681528383209183525290812055565b6008546000906118889060019061242b565b600083815260096020526040812054600880549394509092849081106118b0576118b0611e31565b9060005260206000200154905080600883815481106118d1576118d1611e31565b600091825260208083209091019290925582815260099091526040808220849055858252812055600880548061190957611909612442565b6001900381819060005260206000200160009055905550505050565b6000611930836106b9565b6001600160a01b039093166000908152600660209081526040808320868452825280832085905593825260079052919091209190915550565b50805461197590611d72565b6000825580601f10611985575050565b601f0160209004906000526020600020908101906105ee9190611a27565b8280546119af90611d72565b90600052602060002090601f0160209004810192826119d15760008555611a17565b82601f106119ea57805160ff1916838001178555611a17565b82800160010185558215611a17579182015b82811115611a175782518255916020019190600101906119fc565b50611a23929150611a27565b5090565b5b80821115611a235760008155600101611a28565b6001600160e01b0319811681146105ee57600080fd5b600060208284031215611a6457600080fd5b81356113dc81611a3c565b60005b83811015611a8a578181015183820152602001611a72565b8381111561078f5750506000910152565b60008151808452611ab3816020860160208601611a6f565b601f01601f19169290920160200192915050565b6020815260006113dc6020830184611a9b565b600060208284031215611aec57600080fd5b5035919050565b80356001600160a01b0381168114611b0a57600080fd5b919050565b60008060408385031215611b2257600080fd5b611b2b83611af3565b946020939093013593505050565b600080600060608486031215611b4e57600080fd5b611b5784611af3565b9250611b6560208501611af3565b9150604084013590509250925092565b600060208284031215611b8757600080fd5b6113dc82611af3565b60008060408385031215611ba357600080fd5b611bac83611af3565b915060208301358015158114611bc157600080fd5b809150509250929050565b634e487b7160e01b600052604160045260246000fd5b600067ffffffffffffffff80841115611bfd57611bfd611bcc565b604051601f8501601f19908116603f01168101908282118183101715611c2557611c25611bcc565b81604052809350858152868686011115611c3e57600080fd5b858560208301376000602087830101525050509392505050565b60008060008060808587031215611c6e57600080fd5b611c7785611af3565b9350611c8560208601611af3565b925060408501359150606085013567ffffffffffffffff811115611ca857600080fd5b8501601f81018713611cb957600080fd5b611cc887823560208401611be2565b91505092959194509250565b60008060008060808587031215611cea57600080fd5b611cf385611af3565b93506020850135925060408501359150606085013567ffffffffffffffff811115611ca857600080fd5b60008060408385031215611d3057600080fd5b50508035926020909101359150565b60008060408385031215611d5257600080fd5b611d5b83611af3565b9150611d6960208401611af3565b90509250929050565b600181811c90821680611d8657607f821691505b60208210811415611da757634e487b7160e01b600052602260045260246000fd5b50919050565b6020808252602d908201527f4552433732313a2063616c6c6572206973206e6f7420746f6b656e206f776e6560408201526c1c881bdc88185c1c1c9bdd9959609a1b606082015260800190565b6020808252601f908201527f43616c6c6572206973206e6f742074686520506f6f6c20636f6e747261637400604082015260600190565b634e487b7160e01b600052603260045260246000fd5b602080825260189082015277115490cdcc8c4e881a5b9d985b1a59081d1bdad95b88125160421b604082015260600190565b634e487b7160e01b600052601160045260246000fd5b6000600019821415611ea357611ea3611e79565b5060010190565b60008219821115611ebd57611ebd611e79565b500190565b60208082526025908201527f4552433732313a207472616e736665722066726f6d20696e636f72726563742060408201526437bbb732b960d91b606082015260800190565b60208082526032908201527f4552433732313a207472616e7366657220746f206e6f6e20455243373231526560408201527131b2b4bb32b91034b6b83632b6b2b73a32b960711b606082015260800190565b634e487b7160e01b600052601260045260246000fd5b600082611f7e57611f7e611f59565b500490565b600082611f9257611f92611f59565b500690565b60008151611fa9818560208601611a6f565b9290920192915050565b60008351611fc5818460208801611a6f565b601760f91b9083019081528351611fe3816001840160208801611a6f565b01600101949350505050565b60008351612001818460208801611a6f565b6101d160f51b9083019081528351612020816002840160208801611a6f565b01600201949350505050565b7f3c73766720786d6c6e733d27687474703a2f2f7777772e77332e6f72672f323081527f30302f73766727207072657365727665417370656374526174696f3d27784d6960208201527f6e594d696e206d656574272076696577426f783d27302030203335302033353060408201527f273e3c7374796c653e2e62617365207b2066696c6c3a20626c61636b3b20666f60608201527f6e742d66616d696c793a2073657269663b20666f6e742d73697a653a2032347060808201527f783b207d3c2f7374796c653e3c726563742077696474683d273130302527206860a08201527f65696768743d2731303025272066696c6c3d2723443944394439272f3e3c746560c08201527f787420783d273130252720793d273430252720636c6173733d2762617365273e60e08201526502a3cb8329d160d51b610100820152600061010684516121808183860160208901611a6f565b61224f6122366122306121eb6121d786868a01017f3c2f746578743e3c7465787420783d273130252720793d273530252720636c61815270039b99e93b130b9b2939f2b30bab63a1d1607d1b602082015260310190565b67444149204161766560c01b815260080190565b7f3c2f746578743e3c7465787420783d273130252720793d273630252720636c61815272039b99e93b130b9b2939f2232b837b9b4ba1d1606d1b602082015260330190565b87611f97565b6c1e17ba32bc3a1f1e17b9bb339f60991b8152600d0190565b9695505050505050565b693d913730b6b2911d101160b11b8152825160009061227f81600a850160208801611a6f565b7f222c20226465736372697074696f6e223a20224c696c6120506f736974696f6e600a918401918201527f204e4654222c2022696d616765223a2022646174613a696d6167652f7376672b602a8201526a1e1b5b0ed8985cd94d8d0b60aa1b604a82015283516122f6816055840160208801611a6f565b61227d60f01b60559290910191820152605701949350505050565b7f646174613a6170706c69636174696f6e2f6a736f6e3b6261736536342c00000081526000825161234981601d850160208701611a6f565b91909101601d0192915050565b60008351612368818460208801611a6f565b83519083019061237c818360208801611a6f565b01949350505050565b6001600160a01b038581168252841660208201526040810183905260806060820181905260009061224f90830184611a9b565b6000602082840312156123ca57600080fd5b81516113dc81611a3c565b60008160001904831182151516156123ef576123ef611e79565b500290565b6020808252601c908201527f4552433732313a20746f6b656e20616c7265616479206d696e74656400000000604082015260600190565b60008282101561243d5761243d611e79565b500390565b634e487b7160e01b600052603160045260246000fdfe4142434445464748494a4b4c4d4e4f505152535455565758595a6162636465666768696a6b6c6d6e6f707172737475767778797a303132333435363738392b2fddf252ad1be2c89b69c2b068fc378daa952ba7f163c4a11628f55a4df523b3efa2646970667358221220654f992e6561966b70d910d9e15c31efba7061bb3493c800f25efe03cb513f5264736f6c634300080a0033",
  "linkReferences": {},
  "deployedLinkReferences": {}
}