{
  "_format": "hh-sol-artifact-1",
  "contractName": "VariableNFT",
  "sourceName": "contracts/VariableNFT.sol",
  "abi": [
    {
      "inputs": [
        {
          "internalType": "string",
          "name": "name",
          "type": "string"
        },
        {
          "internalType": "string",
          "name": "symbol",
          "type": "string"
        }
      ],
      "stateMutability": "nonpayable",
      "type": "constructor"
    },
    {
      "anonymous": false,
      "inputs": [
        {
          "indexed": true,
          "internalType": "address",
          "name": "owner",
          "type": "address"
        },
        {
          "indexed": true,
          "internalType": "address",
          "name": "approved",
          "type": "address"
        },
        {
          "indexed": true,
          "internalType": "uint256",
          "name": "tokenId",
          "type": "uint256"
        }
      ],
      "name": "Approval",
      "type": "event"
    },
    {
      "anonymous": false,
      "inputs": [
        {
          "indexed": true,
          "internalType": "address",
          "name": "owner",
          "type": "address"
        },
        {
          "indexed": true,
          "internalType": "address",
          "name": "operator",
          "type": "address"
        },
        {
          "indexed": false,
          "internalType": "bool",
          "name": "approved",
          "type": "bool"
        }
      ],
      "name": "ApprovalForAll",
      "type": "event"
    },
    {
      "anonymous": false,
      "inputs": [
        {
          "indexed": true,
          "internalType": "address",
          "name": "from",
          "type": "address"
        },
        {
          "indexed": true,
          "internalType": "address",
          "name": "to",
          "type": "address"
        },
        {
          "indexed": true,
          "internalType": "uint256",
          "name": "tokenId",
          "type": "uint256"
        }
      ],
      "name": "Transfer",
      "type": "event"
    },
    {
      "inputs": [
        {
          "internalType": "address",
          "name": "to",
          "type": "address"
        },
        {
          "internalType": "uint256",
          "name": "tokenId",
          "type": "uint256"
        }
      ],
      "name": "approve",
      "outputs": [],
      "stateMutability": "nonpayable",
      "type": "function"
    },
    {
      "inputs": [
        {
          "internalType": "address",
          "name": "owner",
          "type": "address"
        }
      ],
      "name": "balanceOf",
      "outputs": [
        {
          "internalType": "uint256",
          "name": "",
          "type": "uint256"
        }
      ],
      "stateMutability": "view",
      "type": "function"
    },
    {
      "inputs": [
        {
          "internalType": "uint256",
          "name": "tokenId",
          "type": "uint256"
        }
      ],
      "name": "burn",
      "outputs": [],
      "stateMutability": "nonpayable",
      "type": "function"
    },
    {
      "inputs": [
        {
          "internalType": "uint256",
          "name": "tokenId",
          "type": "uint256"
        }
      ],
      "name": "getApproved",
      "outputs": [
        {
          "internalType": "address",
          "name": "",
          "type": "address"
        }
      ],
      "stateMutability": "view",
      "type": "function"
    },
    {
      "inputs": [
        {
          "internalType": "uint256",
          "name": "tokenId",
          "type": "uint256"
        }
      ],
      "name": "getTimestamp",
      "outputs": [
        {
          "internalType": "uint256",
          "name": "",
          "type": "uint256"
        }
      ],
      "stateMutability": "view",
      "type": "function"
    },
    {
      "inputs": [
        {
          "internalType": "uint256",
          "name": "tokenId",
          "type": "uint256"
        }
      ],
      "name": "getTokenAmount",
      "outputs": [
        {
          "internalType": "uint256",
          "name": "",
          "type": "uint256"
        }
      ],
      "stateMutability": "view",
      "type": "function"
    },
    {
      "inputs": [
        {
          "internalType": "address",
          "name": "owner",
          "type": "address"
        },
        {
          "internalType": "address",
          "name": "operator",
          "type": "address"
        }
      ],
      "name": "isApprovedForAll",
      "outputs": [
        {
          "internalType": "bool",
          "name": "",
          "type": "bool"
        }
      ],
      "stateMutability": "view",
      "type": "function"
    },
    {
      "inputs": [
        {
          "internalType": "address",
          "name": "to",
          "type": "address"
        },
        {
          "internalType": "uint256",
          "name": "timestamp",
          "type": "uint256"
        },
        {
          "internalType": "uint256",
          "name": "amount",
          "type": "uint256"
        }
      ],
      "name": "mint",
      "outputs": [
        {
          "internalType": "uint256",
          "name": "",
          "type": "uint256"
        }
      ],
      "stateMutability": "nonpayable",
      "type": "function"
    },
    {
      "inputs": [],
      "name": "name",
      "outputs": [
        {
          "internalType": "string",
          "name": "",
          "type": "string"
        }
      ],
      "stateMutability": "view",
      "type": "function"
    },
    {
      "inputs": [
        {
          "internalType": "uint256",
          "name": "tokenId",
          "type": "uint256"
        }
      ],
      "name": "ownerOf",
      "outputs": [
        {
          "internalType": "address",
          "name": "",
          "type": "address"
        }
      ],
      "stateMutability": "view",
      "type": "function"
    },
    {
      "inputs": [
        {
          "internalType": "address",
          "name": "from",
          "type": "address"
        },
        {
          "internalType": "address",
          "name": "to",
          "type": "address"
        },
        {
          "internalType": "uint256",
          "name": "tokenId",
          "type": "uint256"
        }
      ],
      "name": "safeTransferFrom",
      "outputs": [],
      "stateMutability": "nonpayable",
      "type": "function"
    },
    {
      "inputs": [
        {
          "internalType": "address",
          "name": "from",
          "type": "address"
        },
        {
          "internalType": "address",
          "name": "to",
          "type": "address"
        },
        {
          "internalType": "uint256",
          "name": "tokenId",
          "type": "uint256"
        },
        {
          "internalType": "bytes",
          "name": "data",
          "type": "bytes"
        }
      ],
      "name": "safeTransferFrom",
      "outputs": [],
      "stateMutability": "nonpayable",
      "type": "function"
    },
    {
      "inputs": [
        {
          "internalType": "address",
          "name": "operator",
          "type": "address"
        },
        {
          "internalType": "bool",
          "name": "approved",
          "type": "bool"
        }
      ],
      "name": "setApprovalForAll",
      "outputs": [],
      "stateMutability": "nonpayable",
      "type": "function"
    },
    {
      "inputs": [
        {
          "internalType": "bytes4",
          "name": "interfaceId",
          "type": "bytes4"
        }
      ],
      "name": "supportsInterface",
      "outputs": [
        {
          "internalType": "bool",
          "name": "",
          "type": "bool"
        }
      ],
      "stateMutability": "view",
      "type": "function"
    },
    {
      "inputs": [],
      "name": "symbol",
      "outputs": [
        {
          "internalType": "string",
          "name": "",
          "type": "string"
        }
      ],
      "stateMutability": "view",
      "type": "function"
    },
    {
      "inputs": [
        {
          "internalType": "uint256",
          "name": "tokenId",
          "type": "uint256"
        }
      ],
      "name": "tokenURI",
      "outputs": [
        {
          "internalType": "string",
          "name": "",
          "type": "string"
        }
      ],
      "stateMutability": "view",
      "type": "function"
    },
    {
      "inputs": [],
      "name": "totalSupply",
      "outputs": [
        {
          "internalType": "uint256",
          "name": "",
          "type": "uint256"
        }
      ],
      "stateMutability": "view",
      "type": "function"
    },
    {
      "inputs": [
        {
          "internalType": "address",
          "name": "from",
          "type": "address"
        },
        {
          "internalType": "address",
          "name": "to",
          "type": "address"
        },
        {
          "internalType": "uint256",
          "name": "tokenId",
          "type": "uint256"
        }
      ],
      "name": "transferFrom",
      "outputs": [],
      "stateMutability": "nonpayable",
      "type": "function"
    }
  ],
  "bytecode": "0x60806040523480156200001157600080fd5b5060405162002d4038038062002d408339818101604052810190620000379190620002c2565b818181600090805190602001906200005192919062000075565b5080600190805190602001906200006a92919062000075565b5050505050620003ac565b828054620000839062000376565b90600052602060002090601f016020900481019282620000a75760008555620000f3565b82601f10620000c257805160ff1916838001178555620000f3565b82800160010185558215620000f3579182015b82811115620000f2578251825591602001919060010190620000d5565b5b50905062000102919062000106565b5090565b5b808211156200012157600081600090555060010162000107565b5090565b6000604051905090565b600080fd5b600080fd5b600080fd5b600080fd5b6000601f19601f8301169050919050565b7f4e487b7100000000000000000000000000000000000000000000000000000000600052604160045260246000fd5b6200018e8262000143565b810181811067ffffffffffffffff82111715620001b057620001af62000154565b5b80604052505050565b6000620001c562000125565b9050620001d3828262000183565b919050565b600067ffffffffffffffff821115620001f657620001f562000154565b5b620002018262000143565b9050602081019050919050565b60005b838110156200022e57808201518184015260208101905062000211565b838111156200023e576000848401525b50505050565b60006200025b6200025584620001d8565b620001b9565b9050828152602081018484840111156200027a57620002796200013e565b5b620002878482856200020e565b509392505050565b600082601f830112620002a757620002a662000139565b5b8151620002b984826020860162000244565b91505092915050565b60008060408385031215620002dc57620002db6200012f565b5b600083015167ffffffffffffffff811115620002fd57620002fc62000134565b5b6200030b858286016200028f565b925050602083015167ffffffffffffffff8111156200032f576200032e62000134565b5b6200033d858286016200028f565b9150509250929050565b7f4e487b7100000000000000000000000000000000000000000000000000000000600052602260045260246000fd5b600060028204905060018216806200038f57607f821691505b60208210811415620003a657620003a562000347565b5b50919050565b61298480620003bc6000396000f3fe608060405234801561001057600080fd5b50600436106101165760003560e01c80636352211e116100a2578063b633620c11610071578063b633620c146102f1578063b88d4fde14610321578063c2507ac11461033d578063c87b56dd1461036d578063e985e9c51461039d57610116565b80636352211e1461025757806370a082311461028757806395d89b41146102b7578063a22cb465146102d557610116565b8063156e29f6116100e9578063156e29f6146101b557806318160ddd146101e557806323b872dd1461020357806342842e0e1461021f57806342966c681461023b57610116565b806301ffc9a71461011b57806306fdde031461014b578063081812fc14610169578063095ea7b314610199575b600080fd5b61013560048036038101906101309190611b3f565b6103cd565b6040516101429190611b87565b60405180910390f35b6101536104af565b6040516101609190611c3b565b60405180910390f35b610183600480360381019061017e9190611c93565b610541565b6040516101909190611d01565b60405180910390f35b6101b360048036038101906101ae9190611d48565b610587565b005b6101cf60048036038101906101ca9190611d88565b61069f565b6040516101dc9190611dea565b60405180910390f35b6101ed610704565b6040516101fa9190611dea565b60405180910390f35b61021d60048036038101906102189190611e05565b61070e565b005b61023960048036038101906102349190611e05565b61076e565b005b61025560048036038101906102509190611c93565b61078e565b005b610271600480360381019061026c9190611c93565b61079a565b60405161027e9190611d01565b60405180910390f35b6102a1600480360381019061029c9190611e58565b610821565b6040516102ae9190611dea565b60405180910390f35b6102bf6108d9565b6040516102cc9190611c3b565b60405180910390f35b6102ef60048036038101906102ea9190611eb1565b61096b565b005b61030b60048036038101906103069190611c93565b610981565b6040516103189190611dea565b60405180910390f35b61033b60048036038101906103369190612026565b6109e6565b005b61035760048036038101906103529190611c93565b610a48565b6040516103649190611dea565b60405180910390f35b61038760048036038101906103829190611c93565b610aad565b6040516103949190611c3b565b60405180910390f35b6103b760048036038101906103b291906120a9565b610b15565b6040516103c49190611b87565b60405180910390f35b60007f80ac58cd000000000000000000000000000000000000000000000000000000007bffffffffffffffffffffffffffffffffffffffffffffffffffffffff1916827bffffffffffffffffffffffffffffffffffffffffffffffffffffffff1916148061049857507f5b5e139f000000000000000000000000000000000000000000000000000000007bffffffffffffffffffffffffffffffffffffffffffffffffffffffff1916827bffffffffffffffffffffffffffffffffffffffffffffffffffffffff1916145b806104a857506104a782610ba9565b5b9050919050565b6060600080546104be90612118565b80601f01602080910402602001604051908101604052809291908181526020018280546104ea90612118565b80156105375780601f1061050c57610100808354040283529160200191610537565b820191906000526020600020905b81548152906001019060200180831161051a57829003601f168201915b5050505050905090565b600061054c82610c13565b6004600083815260200190815260200160002060009054906101000a900473ffffffffffffffffffffffffffffffffffffffff169050919050565b60006105928261079a565b90508073ffffffffffffffffffffffffffffffffffffffff168373ffffffffffffffffffffffffffffffffffffffff161415610603576040517f08c379a00000000000000000000000000000000000000000000000000000000081526004016105fa906121bc565b60405180910390fd5b8073ffffffffffffffffffffffffffffffffffffffff16610622610c5e565b73ffffffffffffffffffffffffffffffffffffffff16148061065157506106508161064b610c5e565b610b15565b5b610690576040517f08c379a00000000000000000000000000000000000000000000000000000000081526004016106879061224e565b60405180910390fd5b61069a8383610c66565b505050565b60008060065490506106b18582610d1f565b836007600083815260200190815260200160002081905550826008600083815260200190815260200160002081905550600660008154809291906106f49061229d565b9190505550809150509392505050565b6000600654905090565b61071f610719610c5e565b82610d3d565b61075e576040517f08c379a000000000000000000000000000000000000000000000000000000000815260040161075590612358565b60405180910390fd5b610769838383610dd2565b505050565b610789838383604051806020016040528060008152506109e6565b505050565b610797816110cc565b50565b6000806107a68361121a565b9050600073ffffffffffffffffffffffffffffffffffffffff168173ffffffffffffffffffffffffffffffffffffffff161415610818576040517f08c379a000000000000000000000000000000000000000000000000000000000815260040161080f906123c4565b60405180910390fd5b80915050919050565b60008073ffffffffffffffffffffffffffffffffffffffff168273ffffffffffffffffffffffffffffffffffffffff161415610892576040517f08c379a000000000000000000000000000000000000000000000000000000000815260040161088990612456565b60405180910390fd5b600360008373ffffffffffffffffffffffffffffffffffffffff1673ffffffffffffffffffffffffffffffffffffffff168152602001908152602001600020549050919050565b6060600180546108e890612118565b80601f016020809104026020016040519081016040528092919081815260200182805461091490612118565b80156109615780601f1061093657610100808354040283529160200191610961565b820191906000526020600020905b81548152906001019060200180831161094457829003601f168201915b5050505050905090565b61097d610976610c5e565b8383611257565b5050565b600061098c826113c4565b6109cb576040517f08c379a00000000000000000000000000000000000000000000000000000000081526004016109c2906124c2565b60405180910390fd5b60076000838152602001908152602001600020549050919050565b6109f76109f1610c5e565b83610d3d565b610a36576040517f08c379a0000000000000000000000000000000000000000000000000000000008152600401610a2d90612358565b60405180910390fd5b610a4284848484611405565b50505050565b6000610a53826113c4565b610a92576040517f08c379a0000000000000000000000000000000000000000000000000000000008152600401610a89906124c2565b60405180910390fd5b60086000838152602001908152602001600020549050919050565b6060610ab882610c13565b6000610ac2611461565b90506000815111610ae25760405180602001604052806000815250610b0d565b80610aec84611478565b604051602001610afd92919061251e565b6040516020818303038152906040525b915050919050565b6000600560008473ffffffffffffffffffffffffffffffffffffffff1673ffffffffffffffffffffffffffffffffffffffff16815260200190815260200160002060008373ffffffffffffffffffffffffffffffffffffffff1673ffffffffffffffffffffffffffffffffffffffff16815260200190815260200160002060009054906101000a900460ff16905092915050565b60007f01ffc9a7000000000000000000000000000000000000000000000000000000007bffffffffffffffffffffffffffffffffffffffffffffffffffffffff1916827bffffffffffffffffffffffffffffffffffffffffffffffffffffffff1916149050919050565b610c1c816113c4565b610c5b576040517f08c379a0000000000000000000000000000000000000000000000000000000008152600401610c52906123c4565b60405180910390fd5b50565b600033905090565b816004600083815260200190815260200160002060006101000a81548173ffffffffffffffffffffffffffffffffffffffff021916908373ffffffffffffffffffffffffffffffffffffffff160217905550808273ffffffffffffffffffffffffffffffffffffffff16610cd98361079a565b73ffffffffffffffffffffffffffffffffffffffff167f8c5be1e5ebec7d5bd14f71427d1e84f3dd0314c0f7b2291e5b200ac8c7c3b92560405160405180910390a45050565b610d39828260405180602001604052806000815250611550565b5050565b600080610d498361079a565b90508073ffffffffffffffffffffffffffffffffffffffff168473ffffffffffffffffffffffffffffffffffffffff161480610d8b5750610d8a8185610b15565b5b80610dc957508373ffffffffffffffffffffffffffffffffffffffff16610db184610541565b73ffffffffffffffffffffffffffffffffffffffff16145b91505092915050565b8273ffffffffffffffffffffffffffffffffffffffff16610df28261079a565b73ffffffffffffffffffffffffffffffffffffffff1614610e48576040517f08c379a0000000000000000000000000000000000000000000000000000000008152600401610e3f906125b4565b60405180910390fd5b600073ffffffffffffffffffffffffffffffffffffffff168273ffffffffffffffffffffffffffffffffffffffff161415610eb8576040517f08c379a0000000000000000000000000000000000000000000000000000000008152600401610eaf90612646565b60405180910390fd5b610ec583838360016115ab565b8273ffffffffffffffffffffffffffffffffffffffff16610ee58261079a565b73ffffffffffffffffffffffffffffffffffffffff1614610f3b576040517f08c379a0000000000000000000000000000000000000000000000000000000008152600401610f32906125b4565b60405180910390fd5b6004600082815260200190815260200160002060006101000a81549073ffffffffffffffffffffffffffffffffffffffff02191690556001600360008573ffffffffffffffffffffffffffffffffffffffff1673ffffffffffffffffffffffffffffffffffffffff168152602001908152602001600020600082825403925050819055506001600360008473ffffffffffffffffffffffffffffffffffffffff1673ffffffffffffffffffffffffffffffffffffffff16815260200190815260200160002060008282540192505081905550816002600083815260200190815260200160002060006101000a81548173ffffffffffffffffffffffffffffffffffffffff021916908373ffffffffffffffffffffffffffffffffffffffff160217905550808273ffffffffffffffffffffffffffffffffffffffff168473ffffffffffffffffffffffffffffffffffffffff167fddf252ad1be2c89b69c2b068fc378daa952ba7f163c4a11628f55a4df523b3ef60405160405180910390a46110c783838360016115b1565b505050565b60006110d78261079a565b90506110e78160008460016115ab565b6110f08261079a565b90506004600083815260200190815260200160002060006101000a81549073ffffffffffffffffffffffffffffffffffffffff02191690556001600360008373ffffffffffffffffffffffffffffffffffffffff1673ffffffffffffffffffffffffffffffffffffffff168152602001908152602001600020600082825403925050819055506002600083815260200190815260200160002060006101000a81549073ffffffffffffffffffffffffffffffffffffffff021916905581600073ffffffffffffffffffffffffffffffffffffffff168273ffffffffffffffffffffffffffffffffffffffff167fddf252ad1be2c89b69c2b068fc378daa952ba7f163c4a11628f55a4df523b3ef60405160405180910390a46112168160008460016115b1565b5050565b60006002600083815260200190815260200160002060009054906101000a900473ffffffffffffffffffffffffffffffffffffffff169050919050565b8173ffffffffffffffffffffffffffffffffffffffff168373ffffffffffffffffffffffffffffffffffffffff1614156112c6576040517f08c379a00000000000000000000000000000000000000000000000000000000081526004016112bd906126b2565b60405180910390fd5b80600560008573ffffffffffffffffffffffffffffffffffffffff1673ffffffffffffffffffffffffffffffffffffffff16815260200190815260200160002060008473ffffffffffffffffffffffffffffffffffffffff1673ffffffffffffffffffffffffffffffffffffffff16815260200190815260200160002060006101000a81548160ff0219169083151502179055508173ffffffffffffffffffffffffffffffffffffffff168373ffffffffffffffffffffffffffffffffffffffff167f17307eab39ab6107e8899845ad3d59bd9653f200f220920489ca2b5937696c31836040516113b79190611b87565b60405180910390a3505050565b60008073ffffffffffffffffffffffffffffffffffffffff166113e68361121a565b73ffffffffffffffffffffffffffffffffffffffff1614159050919050565b611410848484610dd2565b61141c848484846115b7565b61145b576040517f08c379a000000000000000000000000000000000000000000000000000000000815260040161145290612744565b60405180910390fd5b50505050565b606060405180602001604052806000815250905090565b6060600060016114878461173f565b01905060008167ffffffffffffffff8111156114a6576114a5611efb565b5b6040519080825280601f01601f1916602001820160405280156114d85781602001600182028036833780820191505090505b509050600082602001820190505b600115611545578080600190039150507f3031323334353637383961626364656600000000000000000000000000000000600a86061a8153600a858161152f5761152e612764565b5b049450600085141561154057611545565b6114e6565b819350505050919050565b61155a8383611892565b61156760008484846115b7565b6115a6576040517f08c379a000000000000000000000000000000000000000000000000000000000815260040161159d90612744565b60405180910390fd5b505050565b50505050565b50505050565b60006115d88473ffffffffffffffffffffffffffffffffffffffff16611ab0565b15611732578373ffffffffffffffffffffffffffffffffffffffff1663150b7a02611601610c5e565b8786866040518563ffffffff1660e01b815260040161162394939291906127e8565b6020604051808303816000875af192505050801561165f57506040513d601f19601f8201168201806040525081019061165c9190612849565b60015b6116e2573d806000811461168f576040519150601f19603f3d011682016040523d82523d6000602084013e611694565b606091505b506000815114156116da576040517f08c379a00000000000000000000000000000000000000000000000000000000081526004016116d190612744565b60405180910390fd5b805181602001fd5b63150b7a0260e01b7bffffffffffffffffffffffffffffffffffffffffffffffffffffffff1916817bffffffffffffffffffffffffffffffffffffffffffffffffffffffff191614915050611737565b600190505b949350505050565b600080600090507a184f03e93ff9f4daa797ed6e38ed64bf6a1f010000000000000000831061179d577a184f03e93ff9f4daa797ed6e38ed64bf6a1f010000000000000000838161179357611792612764565b5b0492506040810190505b6d04ee2d6d415b85acef810000000083106117da576d04ee2d6d415b85acef810000000083816117d0576117cf612764565b5b0492506020810190505b662386f26fc10000831061180957662386f26fc1000083816117ff576117fe612764565b5b0492506010810190505b6305f5e1008310611832576305f5e100838161182857611827612764565b5b0492506008810190505b612710831061185757612710838161184d5761184c612764565b5b0492506004810190505b6064831061187a57606483816118705761186f612764565b5b0492506002810190505b600a8310611889576001810190505b80915050919050565b600073ffffffffffffffffffffffffffffffffffffffff168273ffffffffffffffffffffffffffffffffffffffff161415611902576040517f08c379a00000000000000000000000000000000000000000000000000000000081526004016118f9906128c2565b60405180910390fd5b61190b816113c4565b1561194b576040517f08c379a00000000000000000000000000000000000000000000000000000000081526004016119429061292e565b60405180910390fd5b6119596000838360016115ab565b611962816113c4565b156119a2576040517f08c379a00000000000000000000000000000000000000000000000000000000081526004016119999061292e565b60405180910390fd5b6001600360008473ffffffffffffffffffffffffffffffffffffffff1673ffffffffffffffffffffffffffffffffffffffff16815260200190815260200160002060008282540192505081905550816002600083815260200190815260200160002060006101000a81548173ffffffffffffffffffffffffffffffffffffffff021916908373ffffffffffffffffffffffffffffffffffffffff160217905550808273ffffffffffffffffffffffffffffffffffffffff16600073ffffffffffffffffffffffffffffffffffffffff167fddf252ad1be2c89b69c2b068fc378daa952ba7f163c4a11628f55a4df523b3ef60405160405180910390a4611aac6000838360016115b1565b5050565b6000808273ffffffffffffffffffffffffffffffffffffffff163b119050919050565b6000604051905090565b600080fd5b600080fd5b60007fffffffff0000000000000000000000000000000000000000000000000000000082169050919050565b611b1c81611ae7565b8114611b2757600080fd5b50565b600081359050611b3981611b13565b92915050565b600060208284031215611b5557611b54611add565b5b6000611b6384828501611b2a565b91505092915050565b60008115159050919050565b611b8181611b6c565b82525050565b6000602082019050611b9c6000830184611b78565b92915050565b600081519050919050565b600082825260208201905092915050565b60005b83811015611bdc578082015181840152602081019050611bc1565b83811115611beb576000848401525b50505050565b6000601f19601f8301169050919050565b6000611c0d82611ba2565b611c178185611bad565b9350611c27818560208601611bbe565b611c3081611bf1565b840191505092915050565b60006020820190508181036000830152611c558184611c02565b905092915050565b6000819050919050565b611c7081611c5d565b8114611c7b57600080fd5b50565b600081359050611c8d81611c67565b92915050565b600060208284031215611ca957611ca8611add565b5b6000611cb784828501611c7e565b91505092915050565b600073ffffffffffffffffffffffffffffffffffffffff82169050919050565b6000611ceb82611cc0565b9050919050565b611cfb81611ce0565b82525050565b6000602082019050611d166000830184611cf2565b92915050565b611d2581611ce0565b8114611d3057600080fd5b50565b600081359050611d4281611d1c565b92915050565b60008060408385031215611d5f57611d5e611add565b5b6000611d6d85828601611d33565b9250506020611d7e85828601611c7e565b9150509250929050565b600080600060608486031215611da157611da0611add565b5b6000611daf86828701611d33565b9350506020611dc086828701611c7e565b9250506040611dd186828701611c7e565b9150509250925092565b611de481611c5d565b82525050565b6000602082019050611dff6000830184611ddb565b92915050565b600080600060608486031215611e1e57611e1d611add565b5b6000611e2c86828701611d33565b9350506020611e3d86828701611d33565b9250506040611e4e86828701611c7e565b9150509250925092565b600060208284031215611e6e57611e6d611add565b5b6000611e7c84828501611d33565b91505092915050565b611e8e81611b6c565b8114611e9957600080fd5b50565b600081359050611eab81611e85565b92915050565b60008060408385031215611ec857611ec7611add565b5b6000611ed685828601611d33565b9250506020611ee785828601611e9c565b9150509250929050565b600080fd5b600080fd5b7f4e487b7100000000000000000000000000000000000000000000000000000000600052604160045260246000fd5b611f3382611bf1565b810181811067ffffffffffffffff82111715611f5257611f51611efb565b5b80604052505050565b6000611f65611ad3565b9050611f718282611f2a565b919050565b600067ffffffffffffffff821115611f9157611f90611efb565b5b611f9a82611bf1565b9050602081019050919050565b82818337600083830152505050565b6000611fc9611fc484611f76565b611f5b565b905082815260208101848484011115611fe557611fe4611ef6565b5b611ff0848285611fa7565b509392505050565b600082601f83011261200d5761200c611ef1565b5b813561201d848260208601611fb6565b91505092915050565b600080600080608085870312156120405761203f611add565b5b600061204e87828801611d33565b945050602061205f87828801611d33565b935050604061207087828801611c7e565b925050606085013567ffffffffffffffff81111561209157612090611ae2565b5b61209d87828801611ff8565b91505092959194509250565b600080604083850312156120c0576120bf611add565b5b60006120ce85828601611d33565b92505060206120df85828601611d33565b9150509250929050565b7f4e487b7100000000000000000000000000000000000000000000000000000000600052602260045260246000fd5b6000600282049050600182168061213057607f821691505b60208210811415612144576121436120e9565b5b50919050565b7f4552433732313a20617070726f76616c20746f2063757272656e74206f776e6560008201527f7200000000000000000000000000000000000000000000000000000000000000602082015250565b60006121a6602183611bad565b91506121b18261214a565b604082019050919050565b600060208201905081810360008301526121d581612199565b9050919050565b7f4552433732313a20617070726f76652063616c6c6572206973206e6f7420746f60008201527f6b656e206f776e6572206f7220617070726f76656420666f7220616c6c000000602082015250565b6000612238603d83611bad565b9150612243826121dc565b604082019050919050565b600060208201905081810360008301526122678161222b565b9050919050565b7f4e487b7100000000000000000000000000000000000000000000000000000000600052601160045260246000fd5b60006122a882611c5d565b91507fffffffffffffffffffffffffffffffffffffffffffffffffffffffffffffffff8214156122db576122da61226e565b5b600182019050919050565b7f4552433732313a2063616c6c6572206973206e6f7420746f6b656e206f776e6560008201527f72206f7220617070726f76656400000000000000000000000000000000000000602082015250565b6000612342602d83611bad565b915061234d826122e6565b604082019050919050565b6000602082019050818103600083015261237181612335565b9050919050565b7f4552433732313a20696e76616c696420746f6b656e2049440000000000000000600082015250565b60006123ae601883611bad565b91506123b982612378565b602082019050919050565b600060208201905081810360008301526123dd816123a1565b9050919050565b7f4552433732313a2061646472657373207a65726f206973206e6f74206120766160008201527f6c6964206f776e65720000000000000000000000000000000000000000000000602082015250565b6000612440602983611bad565b915061244b826123e4565b604082019050919050565b6000602082019050818103600083015261246f81612433565b9050919050565b7f5365706f6c69614e46543a20746f6b656e20646f6573206e6f74206578697374600082015250565b60006124ac602083611bad565b91506124b782612476565b602082019050919050565b600060208201905081810360008301526124db8161249f565b9050919050565b600081905092915050565b60006124f882611ba2565b61250281856124e2565b9350612512818560208601611bbe565b80840191505092915050565b600061252a82856124ed565b915061253682846124ed565b91508190509392505050565b7f4552433732313a207472616e736665722066726f6d20696e636f72726563742060008201527f6f776e6572000000000000000000000000000000000000000000000000000000602082015250565b600061259e602583611bad565b91506125a982612542565b604082019050919050565b600060208201905081810360008301526125cd81612591565b9050919050565b7f4552433732313a207472616e7366657220746f20746865207a65726f2061646460008201527f7265737300000000000000000000000000000000000000000000000000000000602082015250565b6000612630602483611bad565b915061263b826125d4565b604082019050919050565b6000602082019050818103600083015261265f81612623565b9050919050565b7f4552433732313a20617070726f766520746f2063616c6c657200000000000000600082015250565b600061269c601983611bad565b91506126a782612666565b602082019050919050565b600060208201905081810360008301526126cb8161268f565b9050919050565b7f4552433732313a207472616e7366657220746f206e6f6e20455243373231526560008201527f63656976657220696d706c656d656e7465720000000000000000000000000000602082015250565b600061272e603283611bad565b9150612739826126d2565b604082019050919050565b6000602082019050818103600083015261275d81612721565b9050919050565b7f4e487b7100000000000000000000000000000000000000000000000000000000600052601260045260246000fd5b600081519050919050565b600082825260208201905092915050565b60006127ba82612793565b6127c4818561279e565b93506127d4818560208601611bbe565b6127dd81611bf1565b840191505092915050565b60006080820190506127fd6000830187611cf2565b61280a6020830186611cf2565b6128176040830185611ddb565b818103606083015261282981846127af565b905095945050505050565b60008151905061284381611b13565b92915050565b60006020828403121561285f5761285e611add565b5b600061286d84828501612834565b91505092915050565b7f4552433732313a206d696e7420746f20746865207a65726f2061646472657373600082015250565b60006128ac602083611bad565b91506128b782612876565b602082019050919050565b600060208201905081810360008301526128db8161289f565b9050919050565b7f4552433732313a20746f6b656e20616c7265616479206d696e74656400000000600082015250565b6000612918601c83611bad565b9150612923826128e2565b602082019050919050565b600060208201905081810360008301526129478161290b565b905091905056fea2646970667358221220e15b5c2b57d116254ee7b9b745a9e413571c1ab70c609d4afa5b2d402de612b264736f6c634300080a0033",
  "linkReferences": {},
  "deployedLinkReferences": {}
}