{
  "_format": "hh-sol-artifact-1",
  "contractName": "VariableNFT",
  "sourceName": "contracts/VariableNFT.sol",
  "abi": [
    {
      "inputs": [
        {
          "internalType": "address",
          "name": "_pool",
          "type": "address"
        }
      ],
      "stateMutability": "nonpayable",
      "type": "constructor"
    },
    {
      "anonymous": false,
      "inputs": [
        {
          "indexed": true,
          "internalType": "address",
          "name": "owner",
          "type": "address"
        },
        {
          "indexed": true,
          "internalType": "address",
          "name": "approved",
          "type": "address"
        },
        {
          "indexed": true,
          "internalType": "uint256",
          "name": "tokenId",
          "type": "uint256"
        }
      ],
      "name": "Approval",
      "type": "event"
    },
    {
      "anonymous": false,
      "inputs": [
        {
          "indexed": true,
          "internalType": "address",
          "name": "owner",
          "type": "address"
        },
        {
          "indexed": true,
          "internalType": "address",
          "name": "operator",
          "type": "address"
        },
        {
          "indexed": false,
          "internalType": "bool",
          "name": "approved",
          "type": "bool"
        }
      ],
      "name": "ApprovalForAll",
      "type": "event"
    },
    {
      "anonymous": false,
      "inputs": [
        {
          "indexed": true,
          "internalType": "address",
          "name": "from",
          "type": "address"
        },
        {
          "indexed": true,
          "internalType": "address",
          "name": "to",
          "type": "address"
        },
        {
          "indexed": true,
          "internalType": "uint256",
          "name": "tokenId",
          "type": "uint256"
        }
      ],
      "name": "Transfer",
      "type": "event"
    },
    {
      "inputs": [
        {
          "internalType": "address",
          "name": "to",
          "type": "address"
        },
        {
          "internalType": "uint256",
          "name": "tokenId",
          "type": "uint256"
        }
      ],
      "name": "approve",
      "outputs": [],
      "stateMutability": "nonpayable",
      "type": "function"
    },
    {
      "inputs": [
        {
          "internalType": "address",
          "name": "owner",
          "type": "address"
        }
      ],
      "name": "balanceOf",
      "outputs": [
        {
          "internalType": "uint256",
          "name": "",
          "type": "uint256"
        }
      ],
      "stateMutability": "view",
      "type": "function"
    },
    {
      "inputs": [
        {
          "internalType": "uint256",
          "name": "tokenId",
          "type": "uint256"
        }
      ],
      "name": "burn",
      "outputs": [],
      "stateMutability": "nonpayable",
      "type": "function"
    },
    {
      "inputs": [
        {
          "internalType": "uint256",
          "name": "tokenId",
          "type": "uint256"
        },
        {
          "internalType": "uint256",
          "name": "amount",
          "type": "uint256"
        }
      ],
      "name": "claim",
      "outputs": [],
      "stateMutability": "nonpayable",
      "type": "function"
    },
    {
      "inputs": [
        {
          "internalType": "uint256",
          "name": "tokenId",
          "type": "uint256"
        }
      ],
      "name": "getApproved",
      "outputs": [
        {
          "internalType": "address",
          "name": "",
          "type": "address"
        }
      ],
      "stateMutability": "view",
      "type": "function"
    },
    {
      "inputs": [
        {
          "internalType": "uint256",
          "name": "tokenId",
          "type": "uint256"
        }
      ],
      "name": "getDepositData",
      "outputs": [
        {
          "components": [
            {
              "internalType": "uint256",
              "name": "amount",
              "type": "uint256"
            },
            {
              "internalType": "uint256",
              "name": "depositTime",
              "type": "uint256"
            },
            {
              "internalType": "uint256",
              "name": "claim",
              "type": "uint256"
            }
          ],
          "internalType": "struct VariableNFT.DepositData",
          "name": "",
          "type": "tuple"
        }
      ],
      "stateMutability": "view",
      "type": "function"
    },
    {
      "inputs": [
        {
          "internalType": "address",
          "name": "owner",
          "type": "address"
        },
        {
          "internalType": "address",
          "name": "operator",
          "type": "address"
        }
      ],
      "name": "isApprovedForAll",
      "outputs": [
        {
          "internalType": "bool",
          "name": "",
          "type": "bool"
        }
      ],
      "stateMutability": "view",
      "type": "function"
    },
    {
      "inputs": [
        {
          "internalType": "address",
          "name": "to",
          "type": "address"
        },
        {
          "internalType": "uint256",
          "name": "amount",
          "type": "uint256"
        },
        {
          "internalType": "uint256",
          "name": "depositTime",
          "type": "uint256"
        }
      ],
      "name": "mint",
      "outputs": [
        {
          "internalType": "uint256",
          "name": "",
          "type": "uint256"
        }
      ],
      "stateMutability": "nonpayable",
      "type": "function"
    },
    {
      "inputs": [],
      "name": "name",
      "outputs": [
        {
          "internalType": "string",
          "name": "",
          "type": "string"
        }
      ],
      "stateMutability": "view",
      "type": "function"
    },
    {
      "inputs": [
        {
          "internalType": "uint256",
          "name": "tokenId",
          "type": "uint256"
        }
      ],
      "name": "ownerOf",
      "outputs": [
        {
          "internalType": "address",
          "name": "",
          "type": "address"
        }
      ],
      "stateMutability": "view",
      "type": "function"
    },
    {
      "inputs": [
        {
          "internalType": "address",
          "name": "from",
          "type": "address"
        },
        {
          "internalType": "address",
          "name": "to",
          "type": "address"
        },
        {
          "internalType": "uint256",
          "name": "tokenId",
          "type": "uint256"
        }
      ],
      "name": "safeTransferFrom",
      "outputs": [],
      "stateMutability": "nonpayable",
      "type": "function"
    },
    {
      "inputs": [
        {
          "internalType": "address",
          "name": "from",
          "type": "address"
        },
        {
          "internalType": "address",
          "name": "to",
          "type": "address"
        },
        {
          "internalType": "uint256",
          "name": "tokenId",
          "type": "uint256"
        },
        {
          "internalType": "bytes",
          "name": "data",
          "type": "bytes"
        }
      ],
      "name": "safeTransferFrom",
      "outputs": [],
      "stateMutability": "nonpayable",
      "type": "function"
    },
    {
      "inputs": [
        {
          "internalType": "address",
          "name": "operator",
          "type": "address"
        },
        {
          "internalType": "bool",
          "name": "approved",
          "type": "bool"
        }
      ],
      "name": "setApprovalForAll",
      "outputs": [],
      "stateMutability": "nonpayable",
      "type": "function"
    },
    {
      "inputs": [
        {
          "internalType": "bytes4",
          "name": "interfaceId",
          "type": "bytes4"
        }
      ],
      "name": "supportsInterface",
      "outputs": [
        {
          "internalType": "bool",
          "name": "",
          "type": "bool"
        }
      ],
      "stateMutability": "view",
      "type": "function"
    },
    {
      "inputs": [],
      "name": "symbol",
      "outputs": [
        {
          "internalType": "string",
          "name": "",
          "type": "string"
        }
      ],
      "stateMutability": "view",
      "type": "function"
    },
    {
      "inputs": [
        {
          "internalType": "uint256",
          "name": "index",
          "type": "uint256"
        }
      ],
      "name": "tokenByIndex",
      "outputs": [
        {
          "internalType": "uint256",
          "name": "",
          "type": "uint256"
        }
      ],
      "stateMutability": "view",
      "type": "function"
    },
    {
      "inputs": [
        {
          "internalType": "address",
          "name": "owner",
          "type": "address"
        },
        {
          "internalType": "uint256",
          "name": "index",
          "type": "uint256"
        }
      ],
      "name": "tokenOfOwnerByIndex",
      "outputs": [
        {
          "internalType": "uint256",
          "name": "",
          "type": "uint256"
        }
      ],
      "stateMutability": "view",
      "type": "function"
    },
    {
      "inputs": [
        {
          "internalType": "uint256",
          "name": "tokenId",
          "type": "uint256"
        }
      ],
      "name": "tokenURI",
      "outputs": [
        {
          "internalType": "string",
          "name": "",
          "type": "string"
        }
      ],
      "stateMutability": "view",
      "type": "function"
    },
    {
      "inputs": [],
      "name": "totalSupply",
      "outputs": [
        {
          "internalType": "uint256",
          "name": "",
          "type": "uint256"
        }
      ],
      "stateMutability": "view",
      "type": "function"
    },
    {
      "inputs": [
        {
          "internalType": "address",
          "name": "from",
          "type": "address"
        },
        {
          "internalType": "address",
          "name": "to",
          "type": "address"
        },
        {
          "internalType": "uint256",
          "name": "tokenId",
          "type": "uint256"
        }
      ],
      "name": "transferFrom",
      "outputs": [],
      "stateMutability": "nonpayable",
      "type": "function"
    }
  ],
  "bytecode": "0x60806040526000600a553480156200001657600080fd5b5060405162001d1238038062001d12833981016040819052620000399162000181565b604080518082018252601581527f5661726961626c6520496e746572657374204e46540000000000000000000000602080830191825283518085019094526005845264159253919560da1b9084015281519192916200009b91600091620000db565b508051620000b1906001906020840190620000db565b5050600b80546001600160a01b0319166001600160a01b03939093169290921790915550620001f0565b828054620000e990620001b3565b90600052602060002090601f0160209004810192826200010d576000855562000158565b82601f106200012857805160ff191683800117855562000158565b8280016001018555821562000158579182015b82811115620001585782518255916020019190600101906200013b565b50620001669291506200016a565b5090565b5b808211156200016657600081556001016200016b565b6000602082840312156200019457600080fd5b81516001600160a01b0381168114620001ac57600080fd5b9392505050565b600181811c90821680620001c857607f821691505b60208210811415620001ea57634e487b7160e01b600052602260045260246000fd5b50919050565b611b1280620002006000396000f3fe608060405234801561001057600080fd5b506004361061012c5760003560e01c80634f6ccce7116100ad578063b88d4fde11610071578063b88d4fde14610277578063c13819b61461028a578063c3490263146102bf578063c87b56dd146102d2578063e985e9c5146102e557600080fd5b80634f6ccce7146102235780636352211e1461023657806370a082311461024957806395d89b411461025c578063a22cb4651461026457600080fd5b806318160ddd116100f457806318160ddd146101cf57806323b872dd146101d75780632f745c59146101ea57806342842e0e146101fd57806342966c681461021057600080fd5b806301ffc9a71461013157806306fdde0314610159578063081812fc1461016e578063095ea7b314610199578063156e29f6146101ae575b600080fd5b61014461013f36600461157d565b6102f8565b60405190151581526020015b60405180910390f35b610161610323565b60405161015091906115f2565b61018161017c366004611605565b6103b5565b6040516001600160a01b039091168152602001610150565b6101ac6101a736600461163a565b6103dc565b005b6101c16101bc366004611664565b6104f7565b604051908152602001610150565b600a546101c1565b6101ac6101e5366004611697565b61058b565b6101c16101f836600461163a565b6105bc565b6101ac61020b366004611697565b610652565b6101ac61021e366004611605565b61066d565b6101c1610231366004611605565b6106a3565b610181610244366004611605565b610736565b6101c16102573660046116d3565b610796565b61016161081c565b6101ac6102723660046116ee565b61082b565b6101ac610285366004611740565b61083a565b61029d610298366004611605565b610872565b6040805182518152602080840151908201529181015190820152606001610150565b6101ac6102cd36600461181c565b6108cf565b6101616102e0366004611605565b610926565b6101446102f336600461183e565b61099a565b60006001600160e01b0319821663780e9d6360e01b148061031d575061031d826109c8565b92915050565b60606000805461033290611871565b80601f016020809104026020016040519081016040528092919081815260200182805461035e90611871565b80156103ab5780601f10610380576101008083540402835291602001916103ab565b820191906000526020600020905b81548152906001019060200180831161038e57829003601f168201915b5050505050905090565b60006103c082610a18565b506000908152600460205260409020546001600160a01b031690565b60006103e782610736565b9050806001600160a01b0316836001600160a01b0316141561045a5760405162461bcd60e51b815260206004820152602160248201527f4552433732313a20617070726f76616c20746f2063757272656e74206f776e656044820152603960f91b60648201526084015b60405180910390fd5b336001600160a01b03821614806104765750610476813361099a565b6104e85760405162461bcd60e51b815260206004820152603d60248201527f4552433732313a20617070726f76652063616c6c6572206973206e6f7420746f60448201527f6b656e206f776e6572206f7220617070726f76656420666f7220616c6c0000006064820152608401610451565b6104f28383610a68565b505050565b600b546000906001600160a01b031633146105245760405162461bcd60e51b8152600401610451906118ac565b600a546105318582610ad6565b600a8054906000610541836118f9565b90915550506040805160608101825285815260208082018681526000838501818152868252600c909352939093209151825591516001820155905160029091015590509392505050565b6105953382610af0565b6105b15760405162461bcd60e51b815260040161045190611914565b6104f2838383610b4f565b60006105c783610796565b82106106295760405162461bcd60e51b815260206004820152602b60248201527f455243373231456e756d657261626c653a206f776e657220696e646578206f7560448201526a74206f6620626f756e647360a81b6064820152608401610451565b506001600160a01b03919091166000908152600660209081526040808320938352929052205490565b6104f28383836040518060200160405280600081525061083a565b600b546001600160a01b031633146106975760405162461bcd60e51b8152600401610451906118ac565b6106a081610cc0565b50565b60006106ae60085490565b82106107115760405162461bcd60e51b815260206004820152602c60248201527f455243373231456e756d657261626c653a20676c6f62616c20696e646578206f60448201526b7574206f6620626f756e647360a01b6064820152608401610451565b6008828154811061072457610724611961565b90600052602060002001549050919050565b6000818152600260205260408120546001600160a01b03168061031d5760405162461bcd60e51b8152602060048201526018602482015277115490cdcc8c4e881a5b9d985b1a59081d1bdad95b88125160421b6044820152606401610451565b60006001600160a01b0382166108005760405162461bcd60e51b815260206004820152602960248201527f4552433732313a2061646472657373207a65726f206973206e6f7420612076616044820152683634b21037bbb732b960b91b6064820152608401610451565b506001600160a01b031660009081526003602052604090205490565b60606001805461033290611871565b610836338383610d63565b5050565b6108443383610af0565b6108605760405162461bcd60e51b815260040161045190611914565b61086c84848484610e32565b50505050565b61089660405180606001604052806000815260200160008152602001600081525090565b506000908152600c6020908152604091829020825160608101845281548152600182015492810192909252600201549181019190915290565b600b546001600160a01b031633146108f95760405162461bcd60e51b8152600401610451906118ac565b6000828152600c602052604081206002810180549192849261091c908490611977565b9091555050505050565b606061093182610a18565b600061094860408051602081019091526000815290565b905060008151116109685760405180602001604052806000815250610993565b8061097284610e65565b60405160200161098392919061198f565b6040516020818303038152906040525b9392505050565b6001600160a01b03918216600090815260056020908152604080832093909416825291909152205460ff1690565b60006001600160e01b031982166380ac58cd60e01b14806109f957506001600160e01b03198216635b5e139f60e01b145b8061031d57506301ffc9a760e01b6001600160e01b031983161461031d565b610a2181610f02565b6106a05760405162461bcd60e51b8152602060048201526018602482015277115490cdcc8c4e881a5b9d985b1a59081d1bdad95b88125160421b6044820152606401610451565b600081815260046020526040902080546001600160a01b0319166001600160a01b0384169081179091558190610a9d82610736565b6001600160a01b03167f8c5be1e5ebec7d5bd14f71427d1e84f3dd0314c0f7b2291e5b200ac8c7c3b92560405160405180910390a45050565b610836828260405180602001604052806000815250610f1f565b600080610afc83610736565b9050806001600160a01b0316846001600160a01b03161480610b235750610b23818561099a565b80610b475750836001600160a01b0316610b3c846103b5565b6001600160a01b0316145b949350505050565b826001600160a01b0316610b6282610736565b6001600160a01b031614610b885760405162461bcd60e51b8152600401610451906119be565b6001600160a01b038216610bea5760405162461bcd60e51b8152602060048201526024808201527f4552433732313a207472616e7366657220746f20746865207a65726f206164646044820152637265737360e01b6064820152608401610451565b610bf78383836001610f52565b826001600160a01b0316610c0a82610736565b6001600160a01b031614610c305760405162461bcd60e51b8152600401610451906119be565b600081815260046020908152604080832080546001600160a01b03199081169091556001600160a01b0387811680865260038552838620805460001901905590871680865283862080546001019055868652600290945282852080549092168417909155905184937fddf252ad1be2c89b69c2b068fc378daa952ba7f163c4a11628f55a4df523b3ef91a4505050565b6000610ccb82610736565b9050610cdb816000846001610f52565b610ce482610736565b600083815260046020908152604080832080546001600160a01b03199081169091556001600160a01b0385168085526003845282852080546000190190558785526002909352818420805490911690555192935084927fddf252ad1be2c89b69c2b068fc378daa952ba7f163c4a11628f55a4df523b3ef908390a45050565b816001600160a01b0316836001600160a01b03161415610dc55760405162461bcd60e51b815260206004820152601960248201527f4552433732313a20617070726f766520746f2063616c6c6572000000000000006044820152606401610451565b6001600160a01b03838116600081815260056020908152604080832094871680845294825291829020805460ff191686151590811790915591519182527f17307eab39ab6107e8899845ad3d59bd9653f200f220920489ca2b5937696c31910160405180910390a3505050565b610e3d848484610b4f565b610e4984848484611086565b61086c5760405162461bcd60e51b815260040161045190611a03565b60606000610e7283611184565b600101905060008167ffffffffffffffff811115610e9257610e9261172a565b6040519080825280601f01601f191660200182016040528015610ebc576020820181803683370190505b5090508181016020015b600019016f181899199a1a9b1b9c1cb0b131b232b360811b600a86061a8153600a8504945084610ef557610efa565b610ec6565b509392505050565b6000908152600260205260409020546001600160a01b0316151590565b610f29838361125c565b610f366000848484611086565b6104f25760405162461bcd60e51b815260040161045190611a03565b6001811115610fc15760405162461bcd60e51b815260206004820152603560248201527f455243373231456e756d657261626c653a20636f6e7365637574697665207472604482015274185b9cd9995c9cc81b9bdd081cdd5c1c1bdc9d1959605a1b6064820152608401610451565b816001600160a01b03851661101d5761101881600880546000838152600960205260408120829055600182018355919091527ff3f7a9fe364faab93b216da50a3214154f22a0a2b415b23a84c8169e8b636ee30155565b611040565b836001600160a01b0316856001600160a01b0316146110405761104085826113d7565b6001600160a01b03841661105c5761105781611474565b61107f565b846001600160a01b0316846001600160a01b03161461107f5761107f8482611523565b5050505050565b60006001600160a01b0384163b1561117957604051630a85bd0160e11b81526001600160a01b0385169063150b7a02906110ca903390899088908890600401611a55565b6020604051808303816000875af1925050508015611105575060408051601f3d908101601f1916820190925261110291810190611a92565b60015b61115f573d808015611133576040519150601f19603f3d011682016040523d82523d6000602084013e611138565b606091505b5080516111575760405162461bcd60e51b815260040161045190611a03565b805181602001fd5b6001600160e01b031916630a85bd0160e11b149050610b47565b506001949350505050565b60008072184f03e93ff9f4daa797ed6e38ed64bf6a1f0160401b83106111c35772184f03e93ff9f4daa797ed6e38ed64bf6a1f0160401b830492506040015b6d04ee2d6d415b85acef810000000083106111ef576d04ee2d6d415b85acef8100000000830492506020015b662386f26fc10000831061120d57662386f26fc10000830492506010015b6305f5e1008310611225576305f5e100830492506008015b612710831061123957612710830492506004015b6064831061124b576064830492506002015b600a831061031d5760010192915050565b6001600160a01b0382166112b25760405162461bcd60e51b815260206004820181905260248201527f4552433732313a206d696e7420746f20746865207a65726f20616464726573736044820152606401610451565b6112bb81610f02565b156113085760405162461bcd60e51b815260206004820152601c60248201527f4552433732313a20746f6b656e20616c7265616479206d696e746564000000006044820152606401610451565b611316600083836001610f52565b61131f81610f02565b1561136c5760405162461bcd60e51b815260206004820152601c60248201527f4552433732313a20746f6b656e20616c7265616479206d696e746564000000006044820152606401610451565b6001600160a01b038216600081815260036020908152604080832080546001019055848352600290915280822080546001600160a01b0319168417905551839291907fddf252ad1be2c89b69c2b068fc378daa952ba7f163c4a11628f55a4df523b3ef908290a45050565b600060016113e484610796565b6113ee9190611aaf565b600083815260076020526040902054909150808214611441576001600160a01b03841660009081526006602090815260408083208584528252808320548484528184208190558352600790915290208190555b5060009182526007602090815260408084208490556001600160a01b039094168352600681528383209183525290812055565b60085460009061148690600190611aaf565b600083815260096020526040812054600880549394509092849081106114ae576114ae611961565b9060005260206000200154905080600883815481106114cf576114cf611961565b600091825260208083209091019290925582815260099091526040808220849055858252812055600880548061150757611507611ac6565b6001900381819060005260206000200160009055905550505050565b600061152e83610796565b6001600160a01b039093166000908152600660209081526040808320868452825280832085905593825260079052919091209190915550565b6001600160e01b0319811681146106a057600080fd5b60006020828403121561158f57600080fd5b813561099381611567565b60005b838110156115b557818101518382015260200161159d565b8381111561086c5750506000910152565b600081518084526115de81602086016020860161159a565b601f01601f19169290920160200192915050565b60208152600061099360208301846115c6565b60006020828403121561161757600080fd5b5035919050565b80356001600160a01b038116811461163557600080fd5b919050565b6000806040838503121561164d57600080fd5b6116568361161e565b946020939093013593505050565b60008060006060848603121561167957600080fd5b6116828461161e565b95602085013595506040909401359392505050565b6000806000606084860312156116ac57600080fd5b6116b58461161e565b92506116c36020850161161e565b9150604084013590509250925092565b6000602082840312156116e557600080fd5b6109938261161e565b6000806040838503121561170157600080fd5b61170a8361161e565b91506020830135801515811461171f57600080fd5b809150509250929050565b634e487b7160e01b600052604160045260246000fd5b6000806000806080858703121561175657600080fd5b61175f8561161e565b935061176d6020860161161e565b925060408501359150606085013567ffffffffffffffff8082111561179157600080fd5b818701915087601f8301126117a557600080fd5b8135818111156117b7576117b761172a565b604051601f8201601f19908116603f011681019083821181831017156117df576117df61172a565b816040528281528a60208487010111156117f857600080fd5b82602086016020830137600060208483010152809550505050505092959194509250565b6000806040838503121561182f57600080fd5b50508035926020909101359150565b6000806040838503121561185157600080fd5b61185a8361161e565b91506118686020840161161e565b90509250929050565b600181811c9082168061188557607f821691505b602082108114156118a657634e487b7160e01b600052602260045260246000fd5b50919050565b6020808252601f908201527f43616c6c6572206973206e6f742074686520506f6f6c20636f6e747261637400604082015260600190565b634e487b7160e01b600052601160045260246000fd5b600060001982141561190d5761190d6118e3565b5060010190565b6020808252602d908201527f4552433732313a2063616c6c6572206973206e6f7420746f6b656e206f776e6560408201526c1c881bdc88185c1c1c9bdd9959609a1b606082015260800190565b634e487b7160e01b600052603260045260246000fd5b6000821982111561198a5761198a6118e3565b500190565b600083516119a181846020880161159a565b8351908301906119b581836020880161159a565b01949350505050565b60208082526025908201527f4552433732313a207472616e736665722066726f6d20696e636f72726563742060408201526437bbb732b960d91b606082015260800190565b60208082526032908201527f4552433732313a207472616e7366657220746f206e6f6e20455243373231526560408201527131b2b4bb32b91034b6b83632b6b2b73a32b960711b606082015260800190565b6001600160a01b0385811682528416602082015260408101839052608060608201819052600090611a88908301846115c6565b9695505050505050565b600060208284031215611aa457600080fd5b815161099381611567565b600082821015611ac157611ac16118e3565b500390565b634e487b7160e01b600052603160045260246000fdfea2646970667358221220b61a5014082607e52418e2dc064cc356ee82f9c5dbe771fde47000f02397cd7864736f6c634300080a0033",
  "linkReferences": {},
  "deployedLinkReferences": {}
}